{"contracts/PersonalQryptSafe.sol":{"PersonalQryptSafe":{"abi":[{"inputs":[],"name":"ECDSAInvalidSignature","type":"error"},{"inputs":[{"internalType":"uint256","name":"length","type":"uint256"}],"name":"ECDSAInvalidSignatureLength","type":"error"},{"inputs":[{"internalType":"bytes32","name":"s","type":"bytes32"}],"name":"ECDSAInvalidSignatureS","type":"error"},{"inputs":[],"name":"ReentrancyGuardReentrantCall","type":"error"},{"inputs":[{"internalType":"address","name":"token","type":"address"}],"name":"SafeERC20FailedOperation","type":"error"},{"anonymous":false,"inputs":[{"indexed":true,"internalType":"address","name":"token","type":"address"},{"indexed":false,"internalType":"uint256","name":"amount","type":"uint256"}],"name":"AirBudgetFunded","type":"event"},{"anonymous":false,"inputs":[{"indexed":true,"internalType":"address","name":"token","type":"address"},{"indexed":false,"internalType":"uint256","name":"amount","type":"uint256"}],"name":"AirBudgetReclaimed","type":"event"},{"anonymous":false,"inputs":[{"indexed":true,"internalType":"bytes32","name":"nonce","type":"bytes32"},{"indexed":true,"internalType":"address","name":"token","type":"address"},{"indexed":false,"internalType":"uint256","name":"amount","type":"uint256"},{"indexed":true,"internalType":"address","name":"recipient","type":"address"}],"name":"AirVoucherRedeemed","type":"event"},{"anonymous":false,"inputs":[{"indexed":false,"internalType":"bytes32","name":"newHead","type":"bytes32"}],"name":"ChainRecharged","type":"event"},{"anonymous":false,"inputs":[{"indexed":true,"internalType":"bytes32","name":"commitHash","type":"bytes32"}],"name":"CommitSubmitted","type":"event"},{"anonymous":false,"inputs":[{"indexed":true,"internalType":"address","name":"token","type":"address"},{"indexed":false,"internalType":"uint256","name":"amount","type":"uint256"}],"name":"EmergencyWithdraw","type":"event"},{"anonymous":false,"inputs":[{"indexed":true,"internalType":"address","name":"token","type":"address"},{"indexed":true,"internalType":"address","name":"qToken","type":"address"}],"name":"QTokenDeployed","type":"event"},{"anonymous":false,"inputs":[{"indexed":true,"internalType":"address","name":"token","type":"address"},{"indexed":false,"internalType":"uint256","name":"amount","type":"uint256"},{"indexed":true,"internalType":"address","name":"qToken","type":"address"}],"name":"TokenShielded","type":"event"},{"anonymous":false,"inputs":[{"indexed":true,"internalType":"address","name":"token","type":"address"},{"indexed":false,"internalType":"uint256","name":"amount","type":"uint256"}],"name":"TokenUnshielded","type":"event"},{"anonymous":false,"inputs":[{"indexed":true,"internalType":"address","name":"token","type":"address"},{"indexed":true,"internalType":"address","name":"to","type":"address"},{"indexed":false,"internalType":"uint256","name":"amount","type":"uint256"}],"name":"TransferExecuted","type":"event"},{"inputs":[],"name":"COMMIT_EXPIRY_SECONDS","outputs":[{"internalType":"uint256","name":"","type":"uint256"}],"stateMutability":"view","type":"function"},{"inputs":[],"name":"EMERGENCY_DELAY_BLOCKS","outputs":[{"internalType":"uint256","name":"","type":"uint256"}],"stateMutability":"view","type":"function"},{"inputs":[],"name":"MINIMUM_SHIELD_AMOUNT","outputs":[{"internalType":"uint256","name":"","type":"uint256"}],"stateMutability":"view","type":"function"},{"inputs":[{"internalType":"bytes32","name":"commitHash","type":"bytes32"}],"name":"commitTransfer","outputs":[],"stateMutability":"nonpayable","type":"function"},{"inputs":[{"internalType":"address[]","name":"tokenAddresses","type":"address[]"}],"name":"emergencyWithdraw","outputs":[],"stateMutability":"nonpayable","type":"function"},{"inputs":[{"internalType":"address","name":"token","type":"address"},{"internalType":"uint256","name":"amount","type":"uint256"},{"internalType":"bytes32","name":"proof","type":"bytes32"}],"name":"fundAirBudget","outputs":[],"stateMutability":"nonpayable","type":"function"},{"inputs":[{"internalType":"address","name":"token","type":"address"}],"name":"getAirBudget","outputs":[{"internalType":"uint256","name":"","type":"uint256"}],"stateMutability":"view","type":"function"},{"inputs":[],"name":"getEmergencyWithdrawAvailableBlock","outputs":[{"internalType":"uint256","name":"","type":"uint256"}],"stateMutability":"view","type":"function"},{"inputs":[{"internalType":"address","name":"tokenAddress","type":"address"}],"name":"getQTokenAddress","outputs":[{"internalType":"address","name":"","type":"address"}],"stateMutability":"view","type":"function"},{"inputs":[{"internalType":"address","name":"tokenAddress","type":"address"}],"name":"getShieldedBalance","outputs":[{"internalType":"uint256","name":"","type":"uint256"}],"stateMutability":"view","type":"function"},{"inputs":[{"internalType":"address","name":"_owner","type":"address"},{"internalType":"bytes32","name":"_initialChainHead","type":"bytes32"}],"name":"initialize","outputs":[],"stateMutability":"nonpayable","type":"function"},{"inputs":[],"name":"initialized","outputs":[{"internalType":"bool","name":"","type":"bool"}],"stateMutability":"view","type":"function"},{"inputs":[],"name":"lastActivityBlock","outputs":[{"internalType":"uint256","name":"","type":"uint256"}],"stateMutability":"view","type":"function"},{"inputs":[],"name":"owner","outputs":[{"internalType":"address","name":"","type":"address"}],"stateMutability":"view","type":"function"},{"inputs":[{"internalType":"address","name":"","type":"address"}],"name":"qTokens","outputs":[{"internalType":"address","name":"","type":"address"}],"stateMutability":"view","type":"function"},{"inputs":[{"internalType":"bytes32","name":"newHead","type":"bytes32"},{"internalType":"bytes32","name":"currentProof","type":"bytes32"}],"name":"rechargeChain","outputs":[],"stateMutability":"nonpayable","type":"function"},{"inputs":[{"internalType":"address","name":"token","type":"address"},{"internalType":"bytes32","name":"proof","type":"bytes32"}],"name":"reclaimAirBudget","outputs":[],"stateMutability":"nonpayable","type":"function"},{"inputs":[{"internalType":"address","name":"token","type":"address"},{"internalType":"uint256","name":"amount","type":"uint256"},{"internalType":"address","name":"recipient","type":"address"},{"internalType":"uint256","name":"deadline","type":"uint256"},{"internalType":"bytes32","name":"nonce","type":"bytes32"},{"internalType":"bytes32","name":"transferCodeHash","type":"bytes32"},{"internalType":"bytes","name":"signature","type":"bytes"}],"name":"redeemAirVoucher","outputs":[],"stateMutability":"nonpayable","type":"function"},{"inputs":[{"internalType":"address","name":"tokenAddress","type":"address"},{"internalType":"address","name":"to","type":"address"},{"internalType":"uint256","name":"amount","type":"uint256"},{"internalType":"bytes32","name":"proof","type":"bytes32"},{"internalType":"uint256","name":"nonce","type":"uint256"}],"name":"revealTransfer","outputs":[],"stateMutability":"nonpayable","type":"function"},{"inputs":[{"internalType":"address","name":"tokenAddress","type":"address"},{"internalType":"uint256","name":"amount","type":"uint256"},{"internalType":"bytes32","name":"proof","type":"bytes32"}],"name":"shield","outputs":[],"stateMutability":"nonpayable","type":"function"},{"inputs":[{"internalType":"address","name":"tokenAddress","type":"address"},{"internalType":"uint256","name":"amount","type":"uint256"},{"internalType":"bytes32","name":"proof","type":"bytes32"}],"name":"unshield","outputs":[],"stateMutability":"nonpayable","type":"function"},{"inputs":[{"internalType":"address","name":"tokenAddress","type":"address"},{"internalType":"uint256","name":"amount","type":"uint256"},{"internalType":"bytes32","name":"proof","type":"bytes32"},{"internalType":"address","name":"railgunProxy","type":"address"},{"internalType":"bytes","name":"shieldCalldata","type":"bytes"}],"name":"unshieldToRailgun","outputs":[],"stateMutability":"payable","type":"function"},{"inputs":[{"internalType":"bytes32","name":"","type":"bytes32"}],"name":"usedVoucherNonces","outputs":[{"internalType":"bool","name":"","type":"bool"}],"stateMutability":"view","type":"function"}],"evm":{"bytecode":{"linkReferences":{},"object":"6080806040523460395760017f9b779b17422d0df92223018b32b4d1fa46e071723d6817e2486d003becc55f0055612eb0908161003f8239f35b600080fdfe6080604052600436101561001257600080fd5b6000803560e01c806301c1dfba146118545780630b54c13c146116b1578063158ef93e1461168e57806329585cc21461158657806358370bdb14611568578063639b134a146113f45780636cbcd7dd146113bb5780636f262f8214610f665780637291a0d714610db95780637a827eae14610d8a5780637bacab3f14610c5f578063806f340914610c425780638da5cb5b14610c1b57806396dac53014610bfd5780639a23190c146108a2578063a22b151314610861578063ac893fa514610861578063be13f47c146107d2578063c004bd3c14610443578063c46c36b3146101a7578063c902df981461017b578063e2e8c68b1461015d5763eff29f901461011a57600080fd5b3461015a578060031936011261015a57600354906213c680820180921161014657602082604051908152f35b634e487b7160e01b81526011600452602490fd5b80fd5b503461015a578060031936011261015a5760206040516213c6808152f35b503461015a57602036600319011261015a57602061019f61019a611a3a565b611ccf565b604051908152f35b503461015a576101de6101b936611a50565b6101d160018060a0969495961b038654163314611aa8565b6101d9611d6a565b611e33565b620f42408110610407576040516370a0823160e01b81523060048201526001600160a01b0383169190602081602481865afa9081156103975785916103d5575b50604051916323b872dd60e01b8652336004523060245260445260208560648180875af160018651148116156103b6575b8260405285606052156103a2576370a0823160e01b8252306004830152602082602481865afa801561039757859061035e575b61028c9250611c52565b916001600160a01b039061029f90611f42565b84549116929084906001600160a01b0316843b1561035a576040516340c10f1960e01b81526001600160a01b0391909116600482015260248101839052818160448183895af1801561034f57610336575b505060207f112e1a1004a67f1e6c8c480fe3e8516f69226cd76be7db72391db4bb0159d2d29143600355604051908152a36001600080516020612e5b8339815191525580f35b8161034091611ae6565b61034b5783386102f0565b8380fd5b6040513d84823e3d90fd5b5080fd5b506020823d60201161038f575b8161037860209383611ae6565b8101031261038a5761028c9151610282565b600080fd5b3d915061036b565b6040513d87823e3d90fd5b635274afe760e01b85526004839052602485fd5b60018115166103cc57833b15153d15161661024f565b823d87823e3d90fd5b90506020813d6020116103ff575b816103f060209383611ae6565b8101031261038a57513861021e565b3d91506103e3565b60405162461bcd60e51b8152602060048201526014602482015273416d6f756e742062656c6f77206d696e696d756d60601b6044820152606490fd5b503461015a5760a036600319011261015a5761045d611a3a565b6024356001600160a01b038116919082810361034b576044359060643561048e60018060a01b038754163314611aa8565b610496611d6a565b61049f81611e33565b6104aa831515611b1e565b6104b5851515611bf6565b33851461078d5760405160208101918252608435604082015260018060a01b038516946001600160601b03199060601b1660608201526001600160601b03198360601b1660748201528360888201526088815261051360a882611ae6565b51902085526005602052604085208054801561075557600282019182549161053e60ff841615611c75565b431115610711576001015461025881018091116106fd5742116106c75760ff191660011790558285526004602052604085205485906001600160a01b0316610587811515611b69565b81546040516370a0823160e01b81526001600160a01b03909116600482018190529190602081602481855afa80156106bc5786918591610681575b50906105cf911015611baa565b803b1561067d57604051632770a7eb60e21b81526001600160a01b039290921660048301526024820185905282908290604490829084905af1801561034f57610664575b5050816106447fc95d558e25335222b51e6424166172914e7ce4404a9647d3631ef320294081fd9360209386611da6565b43600355604051908152a36001600080516020612e5b8339815191525580f35b8161066e91611ae6565b610679578438610613565b8480fd5b8280fd5b945050506020833d6020116106b4575b8161069e60209383611ae6565b8101031261038a576105cf8589945190916105c2565b3d9150610691565b6040513d86823e3d90fd5b60405162461bcd60e51b815260206004820152600e60248201526d10dbdb5b5a5d08195e1c1a5c995960921b6044820152606490fd5b634e487b7160e01b88526011600452602488fd5b606460405162461bcd60e51b815260206004820152602060248201527f4d7573742077616974206f6e6520626c6f636b20616674657220636f6d6d69746044820152fd5b60405162461bcd60e51b815260206004820152601060248201526f10dbdb5b5a5d081b9bdd08199bdd5b9960821b6044820152606490fd5b60405162461bcd60e51b815260206004820152601b60248201527f43616e6e6f74207472616e7366657220746f20796f757273656c6600000000006044820152606490fd5b503461015a57604036600319011261015a576107ec611a3a565b60025460ff811661082657600191828060a01b03166001600160601b0360a01b845416178355602435825560ff1916176002554360035580f35b60405162461bcd60e51b8152602060048201526013602482015272105b1c9958591e481a5b9a5d1a585b1a5e9959606a1b6044820152606490fd5b503461015a57602036600319011261015a576020906001600160a01b03610886611a3a565b16815260048252604060018060a01b0391205416604051908152f35b5060a036600319011261015a576108b7611a3a565b606435906001600160a01b03821690602435908284036106795760843567ffffffffffffffff8111610b76576108f1903690600401611a7a565b9461090660018060a01b038854163314611aa8565b61090e611d6a565b610919604435611e33565b8415610bc057869261092c851515611b1e565b6001600160a01b039081168085526004602052604085205490979116610953811515611b69565b84546040516370a0823160e01b81526001600160a01b03909116600482018190529190602081602481855afa8015610bb55788918891610b7a575b509061099b911015611baa565b803b15610b7657604051632770a7eb60e21b81526001600160a01b039290921660048301526024820187905285908290604490829084905af1908115610397578591610b61575b505060405163095ea7b360e01b81526001600160a01b03831660048201526024810186905292602084604481888c5af1938415610397578594610b44575b508160405192839283378101848152039134905af13d15610b3f573d610a4581611c36565b90610a536040519283611ae6565b81528560203d92013e5b15610b02576040519163095ea7b360e01b8352600483015283602483015260208260448187875af19081156106bc577f3cb804822cd14606988dd0133475536faefc5d3bd4d0d00c445a4426d81442c892602092610ad7575b5043600355604051908152a26001600080516020612e5b8339815191525580f35b610af690833d8511610afb575b610aee8183611ae6565b810190611cb7565b610ab6565b503d610ae4565b60405162461bcd60e51b815260206004820152601560248201527414985a5b19dd5b881cda1a595b190819985a5b1959605a1b6044820152606490fd5b610a5d565b610b5c9060203d602011610afb57610aee8183611ae6565b610a20565b81610b6b91611ae6565b61034b5783386109e2565b8580fd5b975050506020863d602011610bad575b81610b9760209383611ae6565b8101031261038a5761099b878b9751909161098e565b3d9150610b8a565b6040513d89823e3d90fd5b60405162461bcd60e51b8152602060048201526015602482015274496e76616c6964205261696c67756e2070726f787960581b6044820152606490fd5b503461015a578060031936011261015a576020600354604051908152f35b503461015a578060031936011261015a57546040516001600160a01b039091168152602090f35b503461015a578060031936011261015a5760206040516102588152f35b503461015a57602036600319011261015a57600435610c8860018060a01b038354163314611aa8565b8082526005602052610ca460ff60026040852001541615611c75565b80825260056020526040822054610d4d576040516060810181811067ffffffffffffffff821117610d395760405243815260026020820191428352604081019285845284865260056020526040862091518255516001820155019051151560ff80198354169116179055436003557f2fb52be48e55abef1fcf34fb5d53970a03e3546ed6b6f1025aed6d81bb7427f88280a280f35b634e487b7160e01b84526041600452602484fd5b60405162461bcd60e51b8152602060048201526015602482015274436f6d6d697420616c72656164792065786973747360581b6044820152606490fd5b503461015a57602036600319011261015a5760ff60406020926004358152600684522054166040519015158152f35b503461015a57610de2610dcb36611a50565b6101d160018060a09694961b038654163314611aa8565b610ded821515611b1e565b6001600160a01b0390811680845260046020526040842054909291849116610e16811515611b69565b81546040516370a0823160e01b81526001600160a01b03909116600482018190529190602081602481855afa80156106bc5785918591610f2b575b5090610e5e911015611baa565b803b1561067d57604051632770a7eb60e21b81526001600160a01b039290921660048301526024820184905282908290604490829084905af1801561034f57610f16575b50829052600760205260408320805490828201809211610f025755436003556040519081527f7f21f05640b42fa915c60d7d039283d15772a66919189e4a2c8b26363db40c6790602090a26001600080516020612e5b8339815191525580f35b634e487b7160e01b85526011600452602485fd5b81610f2091611ae6565b61067d578238610ea2565b945050506020833d602011610f5e575b81610f4860209383611ae6565b8101031261038a57610e5e848794519091610e51565b3d9150610f3b565b503461015a5760e036600319011261015a57610f80611a3a565b6044356001600160a01b0381169190602435838203610679576064356084359260c43567ffffffffffffffff81116113b757610fc0903690600401611a7a565b95610fc9611d6a565b6001600160a01b031695861561138257610fe4881515611bf6565b841561134f5783421161131857858952600660205260ff60408a2054166112d35786895260076020528460408a20541061128e5760409360086020865161102b8882611ae6565b828152016728b93cb83a20b4b960c11b81522060016020875161104e8982611ae6565b82815201603160f81b81522086519060208201927fc2f8787176b8ac6bf7215b4adcc1e069bf4ab82d9ab1df05a57a91d425935b6e8452888301526060820152466080820152608081526110a360a082611ae6565b51902090855160208101917f22843c5037a0a8bc35f56290540532eba624a7f4883ef0b9545444d80f21b61083528a888301528860608301528b608083015260a08201528860c082015260a43560e082015260e0815261110561010082611ae6565b519020855190602082019261190160f01b84526022830152604282015260428152611131606282611ae6565b51902061113d82611c36565b9061114a86519283611ae6565b8282528a368486011161015a5760208461116f956111789783870137840101526121de565b9092919261221a565b6001600160a01b031680156112555787546001600160a01b03160361121157916020916111f7827f45f9a4a4c2f6d26b87299e0f223e09003ded03c853237ab5ffa996f67ce2227095878b5260068652838b20600160ff19825416179055888b5260078652838b206111eb838254611c52565b90554360035588611da6565b51908152a46001600080516020612e5b8339815191525580f35b815162461bcd60e51b815260206004820152601860248201527f536967206e6f742066726f6d207661756c74206f776e657200000000000000006044820152606490fd5b825162461bcd60e51b815260206004820152601260248201527145434453413a20696e76616c69642073696760701b6044820152606490fd5b60405162461bcd60e51b815260206004820152601760248201527f496e73756666696369656e7420616972206275646765740000000000000000006044820152606490fd5b60405162461bcd60e51b815260206004820152601860248201527f566f756368657220616c72656164792072656465656d656400000000000000006044820152606490fd5b60405162461bcd60e51b815260206004820152600f60248201526e159bdd58da195c88195e1c1a5c9959608a1b6044820152606490fd5b60405162461bcd60e51b815260206004820152600b60248201526a16995c9bc8185b5bdd5b9d60aa1b6044820152606490fd5b60405162461bcd60e51b815260206004820152600d60248201526c24b73b30b634b2103a37b5b2b760991b6044820152606490fd5b8780fd5b503461015a57602036600319011261015a576020906040906001600160a01b036113e3611a3a565b168152600783522054604051908152f35b503461015a57604036600319011261015a5761140e611a3a565b61142260018060a01b038354163314611aa8565b61142a611d6a565b611435602435611e33565b6001600160a01b03811680835260076020526040832054909181156115235782845260076020526040842084905583906001600160a01b039061147790611f42565b82546001600160a01b03169116803b1561067d576040516340c10f1960e01b81526001600160a01b039290921660048301526024820184905282908290604490829084905af1801561034f5761150e575b505060207f625a03de5183ddc460e0db80b958c02d7bd02abae80a840df0a15fefead14fe29143600355604051908152a26001600080516020612e5b8339815191525580f35b8161151891611ae6565b61067d5782386114c8565b60405162461bcd60e51b815260206004820152601860248201527f4e6f206169722062756467657420746f207265636c61696d00000000000000006044820152606490fd5b503461015a578060031936011261015a576020604051620f42408152f35b503461015a57604036600319011261015a576004356115af60018060a01b038354163314611aa8565b60405160208101906024358252602081526115cb604082611ae6565b51902060015403611650578015611612576020817f8070c963f225325e8d44d693c372dbd8ba5a50ca93d4937c586a42b58e1fbc319260015543600355604051908152a180f35b60405162461bcd60e51b8152602060048201526016602482015275125b9d985b1a59081b995dc818da185a5b881a19585960521b6044820152606490fd5b60405162461bcd60e51b815260206004820152601660248201527524b73b30b634b2103932b1b430b933b290383937b7b360511b6044820152606490fd5b503461015a578060031936011261015a57602060ff600254166040519015158152f35b503461015a576116c3610dcb36611a50565b6116ce821515611b1e565b6001600160a01b0390811680845260046020526040842054909291166116f5811515611b69565b83546040516370a0823160e01b81526001600160a01b03909116600482018190528591602081602481875afa80156118495785908490611813575b61173c92501015611baa565b823b1561035a57604051632770a7eb60e21b81526001600160a01b0391909116600482015260248101849052918290604490829084905af180156106bc576117dc575b5082547f3cb804822cd14606988dd0133475536faefc5d3bd4d0d00c445a4426d81442c8916020916117bc9082906001600160a01b031686611da6565b43600355604051908152a26001600080516020612e5b8339815191525580f35b8361180b7f3cb804822cd14606988dd0133475536faefc5d3bd4d0d00c445a4426d81442c89395602093611ae6565b93915061177f565b50506020813d602011611841575b8161182e60209383611ae6565b8101031261067d578461173c9151611730565b3d9150611821565b6040513d85823e3d90fd5b503461015a57602036600319011261015a5760043567ffffffffffffffff811161035a573660238201121561035a5780600401359067ffffffffffffffff821161067d573660248360051b8301011161067d576118bb60018060a01b038454163314611aa8565b6118c3611d6a565b6003546213c6808101809111611a265743106119d557825b828110156119bf576024600582901b830101356001600160a01b0381169190829003610679576040516370a0823160e01b815230600482015291602083602481845afa80156119b4578690611982575b600193508061193d575b5050016118db565b6020816119747f5fafa99d0643513820be26656b45130b01e1c03062e1266bf36f88cbd3bd969593878060a01b038b541686611da6565b604051908152a23880611935565b506020833d82116119ac575b8161199b60209383611ae6565b81010312610b76576001925161192b565b3d915061198e565b6040513d88823e3d90fd5b836001600080516020612e5b8339815191525580f35b60405162461bcd60e51b8152602060048201526024808201527f456d657267656e6379207769746864726177206e6f742079657420617661696c60448201526361626c6560e01b6064820152608490fd5b634e487b7160e01b84526011600452602484fd5b600435906001600160a01b038216820361038a57565b606090600319011261038a576004356001600160a01b038116810361038a57906024359060443590565b9181601f8401121561038a5782359167ffffffffffffffff831161038a576020838186019501011161038a57565b15611aaf57565b60405162461bcd60e51b815260206004820152600f60248201526e2737ba103b30bab63a1037bbb732b960891b6044820152606490fd5b90601f8019910116810190811067ffffffffffffffff821117611b0857604052565b634e487b7160e01b600052604160045260246000fd5b15611b2557565b606460405162461bcd60e51b815260206004820152602060248201527f416d6f756e74206d7573742062652067726561746572207468616e207a65726f6044820152fd5b15611b7057565b60405162461bcd60e51b8152602060048201526012602482015271151bdad95b881b9bdd081cda1a595b19195960721b6044820152606490fd5b15611bb157565b60405162461bcd60e51b815260206004820152601d60248201527f496e73756666696369656e7420736869656c6465642062616c616e63650000006044820152606490fd5b15611bfd57565b60405162461bcd60e51b8152602060048201526011602482015270125b9d985b1a59081c9958da5c1a595b9d607a1b6044820152606490fd5b67ffffffffffffffff8111611b0857601f01601f191660200190565b91908203918211611c5f57565b634e487b7160e01b600052601160045260246000fd5b15611c7c57565b60405162461bcd60e51b815260206004820152601360248201527210dbdb5b5a5d08185b1c9958591e481d5cd959606a1b6044820152606490fd5b9081602091031261038a5751801515810361038a5790565b6001600160a01b03908116600090815260046020526040902054168015611d6457602060018060a01b03600054166024604051809481936370a0823160e01b835260048301525afa908115611d5857600091611d29575090565b90506020813d602011611d50575b81611d4460209383611ae6565b8101031261038a575190565b3d9150611d37565b6040513d6000823e3d90fd5b50600090565b6002600080516020612e5b8339815191525414611d95576002600080516020612e5b83398151915255565b633ee5aeb560e01b60005260046000fd5b60405163a9059cbb60e01b60009081526001600160a01b03909316600452602493909352919060209060448180865af190600160005114821615611e11575b60405215611df05750565b635274afe760e01b60009081526001600160a01b0391909116600452602490fd5b906001811516611e2957823b15153d15161690611de5565b503d6000823e3d90fd5b604051602081019082825260208152611e4d604082611ae6565b51902060015403611e5d57600155565b60405162461bcd60e51b815260206004820152601360248201527224b73b30b634b2103b30bab63a10383937b7b360691b6044820152606490fd5b60005b838110611eab5750506000910152565b8181015183820152602001611e9b565b60208183031261038a5780519067ffffffffffffffff821161038a570181601f8201121561038a578051611eee81611c36565b92611efc6040519485611ae6565b8184526020828401011161038a57611f1a9160208085019101611e98565b90565b90602091611f3681518092818552858086019101611e98565b601f01601f1916010190565b6001600160a01b039081166000818152600460205260409020549091166121c3576040516306fdde0360e01b815260008082600481865afa909182826121a6575b505061217a5750604051611f98604082611ae6565b600681526538aa37b5b2b760d11b60208201525b6040516395d89b4160e01b8152600081600481865afa60009181612155575b506121175750604051611fdf604082611ae6565b600481526338aa25a760e11b6020820152905b60405163313ce56760e01b8152601290602081600481885afa80916000916120db575b50906120d3575b5060405192610b2f908185019185831067ffffffffffffffff841117611b085761206b60609261205d889760ff9461232c8a39608087526080870190611f1d565b908582036020870152611f1d565b933060408501521691015203906000f08015611d585760018060a01b031681819260005260046020526040600020826001600160601b0360a01b8254161790557fa9b482826b98af85a8a9e7e42ef14980212bea648c0f68dfb0fa437ba2e21c4e600080a390565b90503861201c565b6020813d60201161210f575b816120f460209383611ae6565b8101031261035a57519060ff8216820361015a575038612015565b3d91506120e7565b61214f60216040518093607160f81b602083015261213e8151809260208686019101611e98565b81010301601f198101835282611ae6565b90611ff2565b6121739192503d806000833e61216b8183611ae6565b810190611ebb565b9038611fcb565b6121a160216040518093607160f81b602083015261213e8151809260208686019101611e98565b611fac565b6121bb9293503d8091833e61216b8183611ae6565b903880611f83565b6000908152600460205260409020546001600160a01b031690565b815191906041830361220f5761220892506020820151906060604084015193015160001a906122a2565b9192909190565b505060009160029190565b919091600481101561228c578061223057509050565b60006001820361224b5763f645eedf60e01b60005260046000fd5b5060028103612269578263fce698f760e01b60005260045260246000fd5b9091600360009214612279575050565b6335e2f38360e21b825260045260249150fd5b634e487b7160e01b600052602160045260246000fd5b91907f7fffffffffffffffffffffffffffffff5d576e7357a4501ddfe92f46681b20a0841161231f579160209360809260ff60009560405194855216868401526040830152606082015282805260015afa15611d58576000516001600160a01b038116156123135790600090600090565b50600090600190600090565b5050506000916003919056fe60806040523461038a57610b2f803803806100198161038f565b92833981019060808183031261038a5780516001600160401b03811161038a57826100459183016103b4565b602082015190926001600160401b03821161038a576100659183016103b4565b604082015190916001600160a01b0382169182900361038a57606001519060ff8216820361038a5783516001600160401b03811161028657600354600181811c91168015610380575b602082101461026657601f811161030e575b50602094601f82116001146102a75794819293949560009261029c575b50508160011b916000199060031b1c1916176003555b82516001600160401b03811161028657600454600181811c9116801561027c575b602082101461026657601f81116101f4575b506020601f821160011461018d5781929394600092610182575b50508160011b916000199060031b1c1916176004555b6005549160ff60a01b9060a01b169160018060a81b031916171760055560405161070f90816104208239f35b015190503880610140565b601f198216906004600052806000209160005b8181106101dc575095836001959697106101c3575b505050811b01600455610156565b015160001960f88460031b161c191690553880806101b5565b9192602060018192868b0151815501940192016101a0565b81811115610126576004600052601f820160051c7f8a35acfbc15ff81a39ae7d344fd709f28e8600b4aa8c65c6b64bfe7fe36bd19b6020841061025d575b81601f9101920160051c039060005b82811061024f575050610126565b600082820155600101610241565b60009150610232565b634e487b7160e01b600052602260045260246000fd5b90607f1690610114565b634e487b7160e01b600052604160045260246000fd5b0151905038806100dd565b601f198216956003600052806000209160005b8881106102f6575083600195969798106102dd575b505050811b016003556100f3565b015160001960f88460031b161c191690553880806102cf565b919260206001819286850151815501940192016102ba565b818111156100c0576003600052601f820160051c7fc2575a0e9e593c00f959f8c92f12db2869c3395a3b0502d05e2516446f71f85b60208410610377575b81601f9101920160051c039060005b8281106103695750506100c0565b60008282015560010161035b565b6000915061034c565b90607f16906100ae565b600080fd5b6040519190601f01601f191682016001600160401b0381118382101761028657604052565b81601f8201121561038a578051906001600160401b038211610286576103e3601f8301601f191660200161038f565b928284526020838301011161038a5760005b82811061040a57505060206000918301015290565b806020809284010151828287010152016103f556fe608080604052600436101561001357600080fd5b60003560e01c90816306fdde03146104ec57508063095ea7b31461048d57806318160ddd1461046f57806323b872dd1461044d578063313ce5671461042957806340c10f191461036857806370a082311461032e57806395d89b411461020d5780639dc29fac14610141578063a9059cbb14610122578063dd62ed3e146100d15763fbfa77cf146100a357600080fd5b346100cc5760003660031901126100cc576005546040516001600160a01b039091168152602090f35b600080fd5b346100cc5760403660031901126100cc576100ea610608565b6100f261061e565b6001600160a01b039182166000908152600160209081526040808320949093168252928352819020549051908152f35b346100cc5760403660031901126100cc5761013b610608565b50610634565b346100cc5760403660031901126100cc5761015a610608565b6024359061017360018060a01b0360055416331461068d565b6001600160a01b03169081156101f7576000908282528160205260408220548181106101df5760208285937fddf252ad1be2c89b69c2b068fc378daa952ba7f163c4a11628f55a4df523b3ef93869787528684520360408620558060025403600255604051908152a380f35b60649363391434e360e21b8452600452602452604452fd5b634b637e8f60e11b600052600060045260246000fd5b346100cc5760003660031901126100cc5760405160006004548060011c90600181168015610324575b602083108114610310578285529081156102f4575060011461029d575b50819003601f01601f191681019067ffffffffffffffff82118183101761028757610283829182604052826105bf565b0390f35b634e487b7160e01b600052604160045260246000fd5b905060046000527f8a35acfbc15ff81a39ae7d344fd709f28e8600b4aa8c65c6b64bfe7fe36bd19b6000905b8282106102de57506020915082010182610253565b60018160209254838588010152019101906102c9565b90506020925060ff191682840152151560051b82010182610253565b634e487b7160e01b84526022600452602484fd5b91607f1691610236565b346100cc5760203660031901126100cc576001600160a01b0361034f610608565b1660005260006020526020604060002054604051908152f35b346100cc5760403660031901126100cc57610381610608565b6024359061039a60018060a01b0360055416331461068d565b6001600160a01b0316801561041357600254918083018093116103fd576020926002557fddf252ad1be2c89b69c2b068fc378daa952ba7f163c4a11628f55a4df523b3ef600093849284845283825260408420818154019055604051908152a380f35b634e487b7160e01b600052601160045260246000fd5b63ec442f0560e01b600052600060045260246000fd5b346100cc5760003660031901126100cc57602060ff60055460a01c16604051908152f35b346100cc5760603660031901126100cc57610466610608565b5061013b61061e565b346100cc5760003660031901126100cc576020600254604051908152f35b346100cc5760403660031901126100cc576104a6610608565b5060405162461bcd60e51b815260206004820152601a60248201527f71546f6b656e3a20617070726f76616c732064697361626c65640000000000006044820152606490fd5b346100cc5760003660031901126100cc5760006003548060011c906001811680156105b5575b602083108114610310578285529081156102f4575060011461055e5750819003601f01601f191681019067ffffffffffffffff82118183101761028757610283829182604052826105bf565b905060036000527fc2575a0e9e593c00f959f8c92f12db2869c3395a3b0502d05e2516446f71f85b6000905b82821061059f57506020915082010182610253565b600181602092548385880101520191019061058a565b91607f1691610512565b91909160208152825180602083015260005b8181106105f2575060409293506000838284010152601f8019910116010190565b80602080928701015160408286010152016105d1565b600435906001600160a01b03821682036100cc57565b602435906001600160a01b03821682036100cc57565b60405162461bcd60e51b815260206004820152602b60248201527f71546f6b656e3a207472616e73666572732064697361626c65642c207573652060448201526a05172797074756d206170760ac1b6064820152608490fd5b1561069457565b60405162461bcd60e51b815260206004820152601b60248201527f4f6e6c79205152595054414e4b2063616e2063616c6c207468697300000000006044820152606490fdfea264697066735822122080870c9e1ee319a18344b1aec633397a22cf1a2d0e7ee60d1d0b2b7f36b1136364736f6c634300082200339b779b17422d0df92223018b32b4d1fa46e071723d6817e2486d003becc55f00a26469706673582212205f6215ee92cf5a3e66058e918e51196b2490fd52317585223ca1221bccb0f1eb64736f6c63430008220033","opcodes":"PUSH1 0x80 DUP1 PUSH1 0x40 MSTORE CALLVALUE PUSH1 0x39 JUMPI PUSH1 0x1 PUSH32 0x9B779B17422D0DF92223018B32B4D1FA46E071723D6817E2486D003BECC55F00 SSTORE PUSH2 0x2EB0 SWAP1 DUP2 PUSH2 0x3F DUP3 CODECOPY RETURN JUMPDEST PUSH1 0x0 DUP1 REVERT INVALID PUSH1 0x80 PUSH1 0x40 MSTORE PUSH1 0x4 CALLDATASIZE LT ISZERO PUSH2 0x12 JUMPI PUSH1 0x0 DUP1 REVERT JUMPDEST PUSH1 0x0 DUP1 CALLDATALOAD PUSH1 0xE0 SHR DUP1 PUSH4 0x1C1DFBA EQ PUSH2 0x1854 JUMPI DUP1 PUSH4 0xB54C13C EQ PUSH2 0x16B1 JUMPI DUP1 PUSH4 0x158EF93E EQ PUSH2 0x168E JUMPI DUP1 PUSH4 0x29585CC2 EQ PUSH2 0x1586 JUMPI DUP1 PUSH4 0x58370BDB EQ PUSH2 0x1568 JUMPI DUP1 PUSH4 0x639B134A EQ PUSH2 0x13F4 JUMPI DUP1 PUSH4 0x6CBCD7DD EQ PUSH2 0x13BB JUMPI DUP1 PUSH4 0x6F262F82 EQ PUSH2 0xF66 JUMPI DUP1 PUSH4 0x7291A0D7 EQ PUSH2 0xDB9 JUMPI DUP1 PUSH4 0x7A827EAE EQ PUSH2 0xD8A JUMPI DUP1 PUSH4 0x7BACAB3F EQ PUSH2 0xC5F JUMPI DUP1 PUSH4 0x806F3409 EQ PUSH2 0xC42 JUMPI DUP1 PUSH4 0x8DA5CB5B EQ PUSH2 0xC1B JUMPI DUP1 PUSH4 0x96DAC530 EQ PUSH2 0xBFD JUMPI DUP1 PUSH4 0x9A23190C EQ PUSH2 0x8A2 JUMPI DUP1 PUSH4 0xA22B1513 EQ PUSH2 0x861 JUMPI DUP1 PUSH4 0xAC893FA5 EQ PUSH2 0x861 JUMPI DUP1 PUSH4 0xBE13F47C EQ PUSH2 0x7D2 JUMPI DUP1 PUSH4 0xC004BD3C EQ PUSH2 0x443 JUMPI DUP1 PUSH4 0xC46C36B3 EQ PUSH2 0x1A7 JUMPI DUP1 PUSH4 0xC902DF98 EQ PUSH2 0x17B JUMPI DUP1 PUSH4 0xE2E8C68B EQ PUSH2 0x15D JUMPI PUSH4 0xEFF29F90 EQ PUSH2 0x11A JUMPI PUSH1 0x0 DUP1 REVERT JUMPDEST CALLVALUE PUSH2 0x15A JUMPI DUP1 PUSH1 0x3 NOT CALLDATASIZE ADD SLT PUSH2 0x15A JUMPI PUSH1 0x3 SLOAD SWAP1 PUSH3 0x13C680 DUP3 ADD DUP1 SWAP3 GT PUSH2 0x146 JUMPI PUSH1 0x20 DUP3 PUSH1 0x40 MLOAD SWAP1 DUP2 MSTORE RETURN JUMPDEST PUSH4 0x4E487B71 PUSH1 0xE0 SHL DUP2 MSTORE PUSH1 0x11 PUSH1 0x4 MSTORE PUSH1 0x24 SWAP1 REVERT JUMPDEST DUP1 REVERT JUMPDEST POP CALLVALUE PUSH2 0x15A JUMPI DUP1 PUSH1 0x3 NOT CALLDATASIZE ADD SLT PUSH2 0x15A JUMPI PUSH1 0x20 PUSH1 0x40 MLOAD PUSH3 0x13C680 DUP2 MSTORE RETURN JUMPDEST POP CALLVALUE PUSH2 0x15A JUMPI PUSH1 0x20 CALLDATASIZE PUSH1 0x3 NOT ADD SLT PUSH2 0x15A JUMPI PUSH1 0x20 PUSH2 0x19F PUSH2 0x19A PUSH2 0x1A3A JUMP JUMPDEST PUSH2 0x1CCF JUMP JUMPDEST PUSH1 0x40 MLOAD SWAP1 DUP2 MSTORE RETURN JUMPDEST POP CALLVALUE PUSH2 0x15A JUMPI PUSH2 0x1DE PUSH2 0x1B9 CALLDATASIZE PUSH2 0x1A50 JUMP JUMPDEST PUSH2 0x1D1 PUSH1 0x1 DUP1 PUSH1 0xA0 SWAP7 SWAP5 SWAP6 SWAP7 SHL SUB DUP7 SLOAD AND CALLER EQ PUSH2 0x1AA8 JUMP JUMPDEST PUSH2 0x1D9 PUSH2 0x1D6A JUMP JUMPDEST PUSH2 0x1E33 JUMP JUMPDEST PUSH3 0xF4240 DUP2 LT PUSH2 0x407 JUMPI PUSH1 0x40 MLOAD PUSH4 0x70A08231 PUSH1 0xE0 SHL DUP2 MSTORE ADDRESS PUSH1 0x4 DUP3 ADD MSTORE PUSH1 0x1 PUSH1 0x1 PUSH1 0xA0 SHL SUB DUP4 AND SWAP2 SWAP1 PUSH1 0x20 DUP2 PUSH1 0x24 DUP2 DUP7 GAS STATICCALL SWAP1 DUP2 ISZERO PUSH2 0x397 JUMPI DUP6 SWAP2 PUSH2 0x3D5 JUMPI JUMPDEST POP PUSH1 0x40 MLOAD SWAP2 PUSH4 0x23B872DD PUSH1 0xE0 SHL DUP7 MSTORE CALLER PUSH1 0x4 MSTORE ADDRESS PUSH1 0x24 MSTORE PUSH1 0x44 MSTORE PUSH1 0x20 DUP6 PUSH1 0x64 DUP2 DUP1 DUP8 GAS CALL PUSH1 0x1 DUP7 MLOAD EQ DUP2 AND ISZERO PUSH2 0x3B6 JUMPI JUMPDEST DUP3 PUSH1 0x40 MSTORE DUP6 PUSH1 0x60 MSTORE ISZERO PUSH2 0x3A2 JUMPI PUSH4 0x70A08231 PUSH1 0xE0 SHL DUP3 MSTORE ADDRESS PUSH1 0x4 DUP4 ADD MSTORE PUSH1 0x20 DUP3 PUSH1 0x24 DUP2 DUP7 GAS STATICCALL DUP1 ISZERO PUSH2 0x397 JUMPI DUP6 SWAP1 PUSH2 0x35E JUMPI JUMPDEST PUSH2 0x28C SWAP3 POP PUSH2 0x1C52 JUMP JUMPDEST SWAP2 PUSH1 0x1 PUSH1 0x1 PUSH1 0xA0 SHL SUB SWAP1 PUSH2 0x29F SWAP1 PUSH2 0x1F42 JUMP JUMPDEST DUP5 SLOAD SWAP2 AND SWAP3 SWAP1 DUP5 SWAP1 PUSH1 0x1 PUSH1 0x1 PUSH1 0xA0 SHL SUB AND DUP5 EXTCODESIZE ISZERO PUSH2 0x35A JUMPI PUSH1 0x40 MLOAD PUSH4 0x40C10F19 PUSH1 0xE0 SHL DUP2 MSTORE PUSH1 0x1 PUSH1 0x1 PUSH1 0xA0 SHL SUB SWAP2 SWAP1 SWAP2 AND PUSH1 0x4 DUP3 ADD MSTORE PUSH1 0x24 DUP2 ADD DUP4 SWAP1 MSTORE DUP2 DUP2 PUSH1 0x44 DUP2 DUP4 DUP10 GAS CALL DUP1 ISZERO PUSH2 0x34F JUMPI PUSH2 0x336 JUMPI JUMPDEST POP POP PUSH1 0x20 PUSH32 0x112E1A1004A67F1E6C8C480FE3E8516F69226CD76BE7DB72391DB4BB0159D2D2 SWAP2 NUMBER PUSH1 0x3 SSTORE PUSH1 0x40 MLOAD SWAP1 DUP2 MSTORE LOG3 PUSH1 0x1 PUSH1 0x0 DUP1 MLOAD PUSH1 0x20 PUSH2 0x2E5B DUP4 CODECOPY DUP2 MLOAD SWAP2 MSTORE SSTORE DUP1 RETURN JUMPDEST DUP2 PUSH2 0x340 SWAP2 PUSH2 0x1AE6 JUMP JUMPDEST PUSH2 0x34B JUMPI DUP4 CODESIZE PUSH2 0x2F0 JUMP JUMPDEST DUP4 DUP1 REVERT JUMPDEST PUSH1 0x40 MLOAD RETURNDATASIZE DUP5 DUP3 RETURNDATACOPY RETURNDATASIZE SWAP1 REVERT JUMPDEST POP DUP1 REVERT JUMPDEST POP PUSH1 0x20 DUP3 RETURNDATASIZE PUSH1 0x20 GT PUSH2 0x38F JUMPI JUMPDEST DUP2 PUSH2 0x378 PUSH1 0x20 SWAP4 DUP4 PUSH2 0x1AE6 JUMP JUMPDEST DUP2 ADD SUB SLT PUSH2 0x38A JUMPI PUSH2 0x28C SWAP2 MLOAD PUSH2 0x282 JUMP JUMPDEST PUSH1 0x0 DUP1 REVERT JUMPDEST RETURNDATASIZE SWAP2 POP PUSH2 0x36B JUMP JUMPDEST PUSH1 0x40 MLOAD RETURNDATASIZE DUP8 DUP3 RETURNDATACOPY RETURNDATASIZE SWAP1 REVERT JUMPDEST PUSH4 0x5274AFE7 PUSH1 0xE0 SHL DUP6 MSTORE PUSH1 0x4 DUP4 SWAP1 MSTORE PUSH1 0x24 DUP6 REVERT JUMPDEST PUSH1 0x1 DUP2 ISZERO AND PUSH2 0x3CC JUMPI DUP4 EXTCODESIZE ISZERO ISZERO RETURNDATASIZE ISZERO AND AND PUSH2 0x24F JUMP JUMPDEST DUP3 RETURNDATASIZE DUP8 DUP3 RETURNDATACOPY RETURNDATASIZE SWAP1 REVERT JUMPDEST SWAP1 POP PUSH1 0x20 DUP2 RETURNDATASIZE PUSH1 0x20 GT PUSH2 0x3FF JUMPI JUMPDEST DUP2 PUSH2 0x3F0 PUSH1 0x20 SWAP4 DUP4 PUSH2 0x1AE6 JUMP JUMPDEST DUP2 ADD SUB SLT PUSH2 0x38A JUMPI MLOAD CODESIZE PUSH2 0x21E JUMP JUMPDEST RETURNDATASIZE SWAP2 POP PUSH2 0x3E3 JUMP JUMPDEST PUSH1 0x40 MLOAD PUSH3 0x461BCD PUSH1 0xE5 SHL DUP2 MSTORE PUSH1 0x20 PUSH1 0x4 DUP3 ADD MSTORE PUSH1 0x14 PUSH1 0x24 DUP3 ADD MSTORE PUSH20 0x416D6F756E742062656C6F77206D696E696D756D PUSH1 0x60 SHL PUSH1 0x44 DUP3 ADD MSTORE PUSH1 0x64 SWAP1 REVERT JUMPDEST POP CALLVALUE PUSH2 0x15A JUMPI PUSH1 0xA0 CALLDATASIZE PUSH1 0x3 NOT ADD SLT PUSH2 0x15A JUMPI PUSH2 0x45D PUSH2 0x1A3A JUMP JUMPDEST PUSH1 0x24 CALLDATALOAD PUSH1 0x1 PUSH1 0x1 PUSH1 0xA0 SHL SUB DUP2 AND SWAP2 SWAP1 DUP3 DUP2 SUB PUSH2 0x34B JUMPI PUSH1 0x44 CALLDATALOAD SWAP1 PUSH1 0x64 CALLDATALOAD PUSH2 0x48E PUSH1 0x1 DUP1 PUSH1 0xA0 SHL SUB DUP8 SLOAD AND CALLER EQ PUSH2 0x1AA8 JUMP JUMPDEST PUSH2 0x496 PUSH2 0x1D6A JUMP JUMPDEST PUSH2 0x49F DUP2 PUSH2 0x1E33 JUMP JUMPDEST PUSH2 0x4AA DUP4 ISZERO ISZERO PUSH2 0x1B1E JUMP JUMPDEST PUSH2 0x4B5 DUP6 ISZERO ISZERO PUSH2 0x1BF6 JUMP JUMPDEST CALLER DUP6 EQ PUSH2 0x78D JUMPI PUSH1 0x40 MLOAD PUSH1 0x20 DUP2 ADD SWAP2 DUP3 MSTORE PUSH1 0x84 CALLDATALOAD PUSH1 0x40 DUP3 ADD MSTORE PUSH1 0x1 DUP1 PUSH1 0xA0 SHL SUB DUP6 AND SWAP5 PUSH1 0x1 PUSH1 0x1 PUSH1 0x60 SHL SUB NOT SWAP1 PUSH1 0x60 SHL AND PUSH1 0x60 DUP3 ADD MSTORE PUSH1 0x1 PUSH1 0x1 PUSH1 0x60 SHL SUB NOT DUP4 PUSH1 0x60 SHL AND PUSH1 0x74 DUP3 ADD MSTORE DUP4 PUSH1 0x88 DUP3 ADD MSTORE PUSH1 0x88 DUP2 MSTORE PUSH2 0x513 PUSH1 0xA8 DUP3 PUSH2 0x1AE6 JUMP JUMPDEST MLOAD SWAP1 KECCAK256 DUP6 MSTORE PUSH1 0x5 PUSH1 0x20 MSTORE PUSH1 0x40 DUP6 KECCAK256 DUP1 SLOAD DUP1 ISZERO PUSH2 0x755 JUMPI PUSH1 0x2 DUP3 ADD SWAP2 DUP3 SLOAD SWAP2 PUSH2 0x53E PUSH1 0xFF DUP5 AND ISZERO PUSH2 0x1C75 JUMP JUMPDEST NUMBER GT ISZERO PUSH2 0x711 JUMPI PUSH1 0x1 ADD SLOAD PUSH2 0x258 DUP2 ADD DUP1 SWAP2 GT PUSH2 0x6FD JUMPI TIMESTAMP GT PUSH2 0x6C7 JUMPI PUSH1 0xFF NOT AND PUSH1 0x1 OR SWAP1 SSTORE DUP3 DUP6 MSTORE PUSH1 0x4 PUSH1 0x20 MSTORE PUSH1 0x40 DUP6 KECCAK256 SLOAD DUP6 SWAP1 PUSH1 0x1 PUSH1 0x1 PUSH1 0xA0 SHL SUB AND PUSH2 0x587 DUP2 ISZERO ISZERO PUSH2 0x1B69 JUMP JUMPDEST DUP2 SLOAD PUSH1 0x40 MLOAD PUSH4 0x70A08231 PUSH1 0xE0 SHL DUP2 MSTORE PUSH1 0x1 PUSH1 0x1 PUSH1 0xA0 SHL SUB SWAP1 SWAP2 AND PUSH1 0x4 DUP3 ADD DUP2 SWAP1 MSTORE SWAP2 SWAP1 PUSH1 0x20 DUP2 PUSH1 0x24 DUP2 DUP6 GAS STATICCALL DUP1 ISZERO PUSH2 0x6BC JUMPI DUP7 SWAP2 DUP6 SWAP2 PUSH2 0x681 JUMPI JUMPDEST POP SWAP1 PUSH2 0x5CF SWAP2 LT ISZERO PUSH2 0x1BAA JUMP JUMPDEST DUP1 EXTCODESIZE ISZERO PUSH2 0x67D JUMPI PUSH1 0x40 MLOAD PUSH4 0x2770A7EB PUSH1 0xE2 SHL DUP2 MSTORE PUSH1 0x1 PUSH1 0x1 PUSH1 0xA0 SHL SUB SWAP3 SWAP1 SWAP3 AND PUSH1 0x4 DUP4 ADD MSTORE PUSH1 0x24 DUP3 ADD DUP6 SWAP1 MSTORE DUP3 SWAP1 DUP3 SWAP1 PUSH1 0x44 SWAP1 DUP3 SWAP1 DUP5 SWAP1 GAS CALL DUP1 ISZERO PUSH2 0x34F JUMPI PUSH2 0x664 JUMPI JUMPDEST POP POP DUP2 PUSH2 0x644 PUSH32 0xC95D558E25335222B51E6424166172914E7CE4404A9647D3631EF320294081FD SWAP4 PUSH1 0x20 SWAP4 DUP7 PUSH2 0x1DA6 JUMP JUMPDEST NUMBER PUSH1 0x3 SSTORE PUSH1 0x40 MLOAD SWAP1 DUP2 MSTORE LOG3 PUSH1 0x1 PUSH1 0x0 DUP1 MLOAD PUSH1 0x20 PUSH2 0x2E5B DUP4 CODECOPY DUP2 MLOAD SWAP2 MSTORE SSTORE DUP1 RETURN JUMPDEST DUP2 PUSH2 0x66E SWAP2 PUSH2 0x1AE6 JUMP JUMPDEST PUSH2 0x679 JUMPI DUP5 CODESIZE PUSH2 0x613 JUMP JUMPDEST DUP5 DUP1 REVERT JUMPDEST DUP3 DUP1 REVERT JUMPDEST SWAP5 POP POP POP PUSH1 0x20 DUP4 RETURNDATASIZE PUSH1 0x20 GT PUSH2 0x6B4 JUMPI JUMPDEST DUP2 PUSH2 0x69E PUSH1 0x20 SWAP4 DUP4 PUSH2 0x1AE6 JUMP JUMPDEST DUP2 ADD SUB SLT PUSH2 0x38A JUMPI PUSH2 0x5CF DUP6 DUP10 SWAP5 MLOAD SWAP1 SWAP2 PUSH2 0x5C2 JUMP JUMPDEST RETURNDATASIZE SWAP2 POP PUSH2 0x691 JUMP JUMPDEST PUSH1 0x40 MLOAD RETURNDATASIZE DUP7 DUP3 RETURNDATACOPY RETURNDATASIZE SWAP1 REVERT JUMPDEST PUSH1 0x40 MLOAD PUSH3 0x461BCD PUSH1 0xE5 SHL DUP2 MSTORE PUSH1 0x20 PUSH1 0x4 DUP3 ADD MSTORE PUSH1 0xE PUSH1 0x24 DUP3 ADD MSTORE PUSH14 0x10DBDB5B5A5D08195E1C1A5C9959 PUSH1 0x92 SHL PUSH1 0x44 DUP3 ADD MSTORE PUSH1 0x64 SWAP1 REVERT JUMPDEST PUSH4 0x4E487B71 PUSH1 0xE0 SHL DUP9 MSTORE PUSH1 0x11 PUSH1 0x4 MSTORE PUSH1 0x24 DUP9 REVERT JUMPDEST PUSH1 0x64 PUSH1 0x40 MLOAD PUSH3 0x461BCD PUSH1 0xE5 SHL DUP2 MSTORE PUSH1 0x20 PUSH1 0x4 DUP3 ADD MSTORE PUSH1 0x20 PUSH1 0x24 DUP3 ADD MSTORE PUSH32 0x4D7573742077616974206F6E6520626C6F636B20616674657220636F6D6D6974 PUSH1 0x44 DUP3 ADD MSTORE REVERT JUMPDEST PUSH1 0x40 MLOAD PUSH3 0x461BCD PUSH1 0xE5 SHL DUP2 MSTORE PUSH1 0x20 PUSH1 0x4 DUP3 ADD MSTORE PUSH1 0x10 PUSH1 0x24 DUP3 ADD MSTORE PUSH16 0x10DBDB5B5A5D081B9BDD08199BDD5B99 PUSH1 0x82 SHL PUSH1 0x44 DUP3 ADD MSTORE PUSH1 0x64 SWAP1 REVERT JUMPDEST PUSH1 0x40 MLOAD PUSH3 0x461BCD PUSH1 0xE5 SHL DUP2 MSTORE PUSH1 0x20 PUSH1 0x4 DUP3 ADD MSTORE PUSH1 0x1B PUSH1 0x24 DUP3 ADD MSTORE PUSH32 0x43616E6E6F74207472616E7366657220746F20796F757273656C660000000000 PUSH1 0x44 DUP3 ADD MSTORE PUSH1 0x64 SWAP1 REVERT JUMPDEST POP CALLVALUE PUSH2 0x15A JUMPI PUSH1 0x40 CALLDATASIZE PUSH1 0x3 NOT ADD SLT PUSH2 0x15A JUMPI PUSH2 0x7EC PUSH2 0x1A3A JUMP JUMPDEST PUSH1 0x2 SLOAD PUSH1 0xFF DUP2 AND PUSH2 0x826 JUMPI PUSH1 0x1 SWAP2 DUP3 DUP1 PUSH1 0xA0 SHL SUB AND PUSH1 0x1 PUSH1 0x1 PUSH1 0x60 SHL SUB PUSH1 0xA0 SHL DUP5 SLOAD AND OR DUP4 SSTORE PUSH1 0x24 CALLDATALOAD DUP3 SSTORE PUSH1 0xFF NOT AND OR PUSH1 0x2 SSTORE NUMBER PUSH1 0x3 SSTORE DUP1 RETURN JUMPDEST PUSH1 0x40 MLOAD PUSH3 0x461BCD PUSH1 0xE5 SHL DUP2 MSTORE PUSH1 0x20 PUSH1 0x4 DUP3 ADD MSTORE PUSH1 0x13 PUSH1 0x24 DUP3 ADD MSTORE PUSH19 0x105B1C9958591E481A5B9A5D1A585B1A5E9959 PUSH1 0x6A SHL PUSH1 0x44 DUP3 ADD MSTORE PUSH1 0x64 SWAP1 REVERT JUMPDEST POP CALLVALUE PUSH2 0x15A JUMPI PUSH1 0x20 CALLDATASIZE PUSH1 0x3 NOT ADD SLT PUSH2 0x15A JUMPI PUSH1 0x20 SWAP1 PUSH1 0x1 PUSH1 0x1 PUSH1 0xA0 SHL SUB PUSH2 0x886 PUSH2 0x1A3A JUMP JUMPDEST AND DUP2 MSTORE PUSH1 0x4 DUP3 MSTORE PUSH1 0x40 PUSH1 0x1 DUP1 PUSH1 0xA0 SHL SUB SWAP2 KECCAK256 SLOAD AND PUSH1 0x40 MLOAD SWAP1 DUP2 MSTORE RETURN JUMPDEST POP PUSH1 0xA0 CALLDATASIZE PUSH1 0x3 NOT ADD SLT PUSH2 0x15A JUMPI PUSH2 0x8B7 PUSH2 0x1A3A JUMP JUMPDEST PUSH1 0x64 CALLDATALOAD SWAP1 PUSH1 0x1 PUSH1 0x1 PUSH1 0xA0 SHL SUB DUP3 AND SWAP1 PUSH1 0x24 CALLDATALOAD SWAP1 DUP3 DUP5 SUB PUSH2 0x679 JUMPI PUSH1 0x84 CALLDATALOAD PUSH8 0xFFFFFFFFFFFFFFFF DUP2 GT PUSH2 0xB76 JUMPI PUSH2 0x8F1 SWAP1 CALLDATASIZE SWAP1 PUSH1 0x4 ADD PUSH2 0x1A7A JUMP JUMPDEST SWAP5 PUSH2 0x906 PUSH1 0x1 DUP1 PUSH1 0xA0 SHL SUB DUP9 SLOAD AND CALLER EQ PUSH2 0x1AA8 JUMP JUMPDEST PUSH2 0x90E PUSH2 0x1D6A JUMP JUMPDEST PUSH2 0x919 PUSH1 0x44 CALLDATALOAD PUSH2 0x1E33 JUMP JUMPDEST DUP5 ISZERO PUSH2 0xBC0 JUMPI DUP7 SWAP3 PUSH2 0x92C DUP6 ISZERO ISZERO PUSH2 0x1B1E JUMP JUMPDEST PUSH1 0x1 PUSH1 0x1 PUSH1 0xA0 SHL SUB SWAP1 DUP2 AND DUP1 DUP6 MSTORE PUSH1 0x4 PUSH1 0x20 MSTORE PUSH1 0x40 DUP6 KECCAK256 SLOAD SWAP1 SWAP8 SWAP2 AND PUSH2 0x953 DUP2 ISZERO ISZERO PUSH2 0x1B69 JUMP JUMPDEST DUP5 SLOAD PUSH1 0x40 MLOAD PUSH4 0x70A08231 PUSH1 0xE0 SHL DUP2 MSTORE PUSH1 0x1 PUSH1 0x1 PUSH1 0xA0 SHL SUB SWAP1 SWAP2 AND PUSH1 0x4 DUP3 ADD DUP2 SWAP1 MSTORE SWAP2 SWAP1 PUSH1 0x20 DUP2 PUSH1 0x24 DUP2 DUP6 GAS STATICCALL DUP1 ISZERO PUSH2 0xBB5 JUMPI DUP9 SWAP2 DUP9 SWAP2 PUSH2 0xB7A JUMPI JUMPDEST POP SWAP1 PUSH2 0x99B SWAP2 LT ISZERO PUSH2 0x1BAA JUMP JUMPDEST DUP1 EXTCODESIZE ISZERO PUSH2 0xB76 JUMPI PUSH1 0x40 MLOAD PUSH4 0x2770A7EB PUSH1 0xE2 SHL DUP2 MSTORE PUSH1 0x1 PUSH1 0x1 PUSH1 0xA0 SHL SUB SWAP3 SWAP1 SWAP3 AND PUSH1 0x4 DUP4 ADD MSTORE PUSH1 0x24 DUP3 ADD DUP8 SWAP1 MSTORE DUP6 SWAP1 DUP3 SWAP1 PUSH1 0x44 SWAP1 DUP3 SWAP1 DUP5 SWAP1 GAS CALL SWAP1 DUP2 ISZERO PUSH2 0x397 JUMPI DUP6 SWAP2 PUSH2 0xB61 JUMPI JUMPDEST POP POP PUSH1 0x40 MLOAD PUSH4 0x95EA7B3 PUSH1 0xE0 SHL DUP2 MSTORE PUSH1 0x1 PUSH1 0x1 PUSH1 0xA0 SHL SUB DUP4 AND PUSH1 0x4 DUP3 ADD MSTORE PUSH1 0x24 DUP2 ADD DUP7 SWAP1 MSTORE SWAP3 PUSH1 0x20 DUP5 PUSH1 0x44 DUP2 DUP9 DUP13 GAS CALL SWAP4 DUP5 ISZERO PUSH2 0x397 JUMPI DUP6 SWAP5 PUSH2 0xB44 JUMPI JUMPDEST POP DUP2 PUSH1 0x40 MLOAD SWAP3 DUP4 SWAP3 DUP4 CALLDATACOPY DUP2 ADD DUP5 DUP2 MSTORE SUB SWAP2 CALLVALUE SWAP1 GAS CALL RETURNDATASIZE ISZERO PUSH2 0xB3F JUMPI RETURNDATASIZE PUSH2 0xA45 DUP2 PUSH2 0x1C36 JUMP JUMPDEST SWAP1 PUSH2 0xA53 PUSH1 0x40 MLOAD SWAP3 DUP4 PUSH2 0x1AE6 JUMP JUMPDEST DUP2 MSTORE DUP6 PUSH1 0x20 RETURNDATASIZE SWAP3 ADD RETURNDATACOPY JUMPDEST ISZERO PUSH2 0xB02 JUMPI PUSH1 0x40 MLOAD SWAP2 PUSH4 0x95EA7B3 PUSH1 0xE0 SHL DUP4 MSTORE PUSH1 0x4 DUP4 ADD MSTORE DUP4 PUSH1 0x24 DUP4 ADD MSTORE PUSH1 0x20 DUP3 PUSH1 0x44 DUP2 DUP8 DUP8 GAS CALL SWAP1 DUP2 ISZERO PUSH2 0x6BC JUMPI PUSH32 0x3CB804822CD14606988DD0133475536FAEFC5D3BD4D0D00C445A4426D81442C8 SWAP3 PUSH1 0x20 SWAP3 PUSH2 0xAD7 JUMPI JUMPDEST POP NUMBER PUSH1 0x3 SSTORE PUSH1 0x40 MLOAD SWAP1 DUP2 MSTORE LOG2 PUSH1 0x1 PUSH1 0x0 DUP1 MLOAD PUSH1 0x20 PUSH2 0x2E5B DUP4 CODECOPY DUP2 MLOAD SWAP2 MSTORE SSTORE DUP1 RETURN JUMPDEST PUSH2 0xAF6 SWAP1 DUP4 RETURNDATASIZE DUP6 GT PUSH2 0xAFB JUMPI JUMPDEST PUSH2 0xAEE DUP2 DUP4 PUSH2 0x1AE6 JUMP JUMPDEST DUP2 ADD SWAP1 PUSH2 0x1CB7 JUMP JUMPDEST PUSH2 0xAB6 JUMP JUMPDEST POP RETURNDATASIZE PUSH2 0xAE4 JUMP JUMPDEST PUSH1 0x40 MLOAD PUSH3 0x461BCD PUSH1 0xE5 SHL DUP2 MSTORE PUSH1 0x20 PUSH1 0x4 DUP3 ADD MSTORE PUSH1 0x15 PUSH1 0x24 DUP3 ADD MSTORE PUSH21 0x14985A5B19DD5B881CDA1A595B190819985A5B1959 PUSH1 0x5A SHL PUSH1 0x44 DUP3 ADD MSTORE PUSH1 0x64 SWAP1 REVERT JUMPDEST PUSH2 0xA5D JUMP JUMPDEST PUSH2 0xB5C SWAP1 PUSH1 0x20 RETURNDATASIZE PUSH1 0x20 GT PUSH2 0xAFB JUMPI PUSH2 0xAEE DUP2 DUP4 PUSH2 0x1AE6 JUMP JUMPDEST PUSH2 0xA20 JUMP JUMPDEST DUP2 PUSH2 0xB6B SWAP2 PUSH2 0x1AE6 JUMP JUMPDEST PUSH2 0x34B JUMPI DUP4 CODESIZE PUSH2 0x9E2 JUMP JUMPDEST DUP6 DUP1 REVERT JUMPDEST SWAP8 POP POP POP PUSH1 0x20 DUP7 RETURNDATASIZE PUSH1 0x20 GT PUSH2 0xBAD JUMPI JUMPDEST DUP2 PUSH2 0xB97 PUSH1 0x20 SWAP4 DUP4 PUSH2 0x1AE6 JUMP JUMPDEST DUP2 ADD SUB SLT PUSH2 0x38A JUMPI PUSH2 0x99B DUP8 DUP12 SWAP8 MLOAD SWAP1 SWAP2 PUSH2 0x98E JUMP JUMPDEST RETURNDATASIZE SWAP2 POP PUSH2 0xB8A JUMP JUMPDEST PUSH1 0x40 MLOAD RETURNDATASIZE DUP10 DUP3 RETURNDATACOPY RETURNDATASIZE SWAP1 REVERT JUMPDEST PUSH1 0x40 MLOAD PUSH3 0x461BCD PUSH1 0xE5 SHL DUP2 MSTORE PUSH1 0x20 PUSH1 0x4 DUP3 ADD MSTORE PUSH1 0x15 PUSH1 0x24 DUP3 ADD MSTORE PUSH21 0x496E76616C6964205261696C67756E2070726F7879 PUSH1 0x58 SHL PUSH1 0x44 DUP3 ADD MSTORE PUSH1 0x64 SWAP1 REVERT JUMPDEST POP CALLVALUE PUSH2 0x15A JUMPI DUP1 PUSH1 0x3 NOT CALLDATASIZE ADD SLT PUSH2 0x15A JUMPI PUSH1 0x20 PUSH1 0x3 SLOAD PUSH1 0x40 MLOAD SWAP1 DUP2 MSTORE RETURN JUMPDEST POP CALLVALUE PUSH2 0x15A JUMPI DUP1 PUSH1 0x3 NOT CALLDATASIZE ADD SLT PUSH2 0x15A JUMPI SLOAD PUSH1 0x40 MLOAD PUSH1 0x1 PUSH1 0x1 PUSH1 0xA0 SHL SUB SWAP1 SWAP2 AND DUP2 MSTORE PUSH1 0x20 SWAP1 RETURN JUMPDEST POP CALLVALUE PUSH2 0x15A JUMPI DUP1 PUSH1 0x3 NOT CALLDATASIZE ADD SLT PUSH2 0x15A JUMPI PUSH1 0x20 PUSH1 0x40 MLOAD PUSH2 0x258 DUP2 MSTORE RETURN JUMPDEST POP CALLVALUE PUSH2 0x15A JUMPI PUSH1 0x20 CALLDATASIZE PUSH1 0x3 NOT ADD SLT PUSH2 0x15A JUMPI PUSH1 0x4 CALLDATALOAD PUSH2 0xC88 PUSH1 0x1 DUP1 PUSH1 0xA0 SHL SUB DUP4 SLOAD AND CALLER EQ PUSH2 0x1AA8 JUMP JUMPDEST DUP1 DUP3 MSTORE PUSH1 0x5 PUSH1 0x20 MSTORE PUSH2 0xCA4 PUSH1 0xFF PUSH1 0x2 PUSH1 0x40 DUP6 KECCAK256 ADD SLOAD AND ISZERO PUSH2 0x1C75 JUMP JUMPDEST DUP1 DUP3 MSTORE PUSH1 0x5 PUSH1 0x20 MSTORE PUSH1 0x40 DUP3 KECCAK256 SLOAD PUSH2 0xD4D JUMPI PUSH1 0x40 MLOAD PUSH1 0x60 DUP2 ADD DUP2 DUP2 LT PUSH8 0xFFFFFFFFFFFFFFFF DUP3 GT OR PUSH2 0xD39 JUMPI PUSH1 0x40 MSTORE NUMBER DUP2 MSTORE PUSH1 0x2 PUSH1 0x20 DUP3 ADD SWAP2 TIMESTAMP DUP4 MSTORE PUSH1 0x40 DUP2 ADD SWAP3 DUP6 DUP5 MSTORE DUP5 DUP7 MSTORE PUSH1 0x5 PUSH1 0x20 MSTORE PUSH1 0x40 DUP7 KECCAK256 SWAP2 MLOAD DUP3 SSTORE MLOAD PUSH1 0x1 DUP3 ADD SSTORE ADD SWAP1 MLOAD ISZERO ISZERO PUSH1 0xFF DUP1 NOT DUP4 SLOAD AND SWAP2 AND OR SWAP1 SSTORE NUMBER PUSH1 0x3 SSTORE PUSH32 0x2FB52BE48E55ABEF1FCF34FB5D53970A03E3546ED6B6F1025AED6D81BB7427F8 DUP3 DUP1 LOG2 DUP1 RETURN JUMPDEST PUSH4 0x4E487B71 PUSH1 0xE0 SHL DUP5 MSTORE PUSH1 0x41 PUSH1 0x4 MSTORE PUSH1 0x24 DUP5 REVERT JUMPDEST PUSH1 0x40 MLOAD PUSH3 0x461BCD PUSH1 0xE5 SHL DUP2 MSTORE PUSH1 0x20 PUSH1 0x4 DUP3 ADD MSTORE PUSH1 0x15 PUSH1 0x24 DUP3 ADD MSTORE PUSH21 0x436F6D6D697420616C726561647920657869737473 PUSH1 0x58 SHL PUSH1 0x44 DUP3 ADD MSTORE PUSH1 0x64 SWAP1 REVERT JUMPDEST POP CALLVALUE PUSH2 0x15A JUMPI PUSH1 0x20 CALLDATASIZE PUSH1 0x3 NOT ADD SLT PUSH2 0x15A JUMPI PUSH1 0xFF PUSH1 0x40 PUSH1 0x20 SWAP3 PUSH1 0x4 CALLDATALOAD DUP2 MSTORE PUSH1 0x6 DUP5 MSTORE KECCAK256 SLOAD AND PUSH1 0x40 MLOAD SWAP1 ISZERO ISZERO DUP2 MSTORE RETURN JUMPDEST POP CALLVALUE PUSH2 0x15A JUMPI PUSH2 0xDE2 PUSH2 0xDCB CALLDATASIZE PUSH2 0x1A50 JUMP JUMPDEST PUSH2 0x1D1 PUSH1 0x1 DUP1 PUSH1 0xA0 SWAP7 SWAP5 SWAP7 SHL SUB DUP7 SLOAD AND CALLER EQ PUSH2 0x1AA8 JUMP JUMPDEST PUSH2 0xDED DUP3 ISZERO ISZERO PUSH2 0x1B1E JUMP JUMPDEST PUSH1 0x1 PUSH1 0x1 PUSH1 0xA0 SHL SUB SWAP1 DUP2 AND DUP1 DUP5 MSTORE PUSH1 0x4 PUSH1 0x20 MSTORE PUSH1 0x40 DUP5 KECCAK256 SLOAD SWAP1 SWAP3 SWAP2 DUP5 SWAP2 AND PUSH2 0xE16 DUP2 ISZERO ISZERO PUSH2 0x1B69 JUMP JUMPDEST DUP2 SLOAD PUSH1 0x40 MLOAD PUSH4 0x70A08231 PUSH1 0xE0 SHL DUP2 MSTORE PUSH1 0x1 PUSH1 0x1 PUSH1 0xA0 SHL SUB SWAP1 SWAP2 AND PUSH1 0x4 DUP3 ADD DUP2 SWAP1 MSTORE SWAP2 SWAP1 PUSH1 0x20 DUP2 PUSH1 0x24 DUP2 DUP6 GAS STATICCALL DUP1 ISZERO PUSH2 0x6BC JUMPI DUP6 SWAP2 DUP6 SWAP2 PUSH2 0xF2B JUMPI JUMPDEST POP SWAP1 PUSH2 0xE5E SWAP2 LT ISZERO PUSH2 0x1BAA JUMP JUMPDEST DUP1 EXTCODESIZE ISZERO PUSH2 0x67D JUMPI PUSH1 0x40 MLOAD PUSH4 0x2770A7EB PUSH1 0xE2 SHL DUP2 MSTORE PUSH1 0x1 PUSH1 0x1 PUSH1 0xA0 SHL SUB SWAP3 SWAP1 SWAP3 AND PUSH1 0x4 DUP4 ADD MSTORE PUSH1 0x24 DUP3 ADD DUP5 SWAP1 MSTORE DUP3 SWAP1 DUP3 SWAP1 PUSH1 0x44 SWAP1 DUP3 SWAP1 DUP5 SWAP1 GAS CALL DUP1 ISZERO PUSH2 0x34F JUMPI PUSH2 0xF16 JUMPI JUMPDEST POP DUP3 SWAP1 MSTORE PUSH1 0x7 PUSH1 0x20 MSTORE PUSH1 0x40 DUP4 KECCAK256 DUP1 SLOAD SWAP1 DUP3 DUP3 ADD DUP1 SWAP3 GT PUSH2 0xF02 JUMPI SSTORE NUMBER PUSH1 0x3 SSTORE PUSH1 0x40 MLOAD SWAP1 DUP2 MSTORE PUSH32 0x7F21F05640B42FA915C60D7D039283D15772A66919189E4A2C8B26363DB40C67 SWAP1 PUSH1 0x20 SWAP1 LOG2 PUSH1 0x1 PUSH1 0x0 DUP1 MLOAD PUSH1 0x20 PUSH2 0x2E5B DUP4 CODECOPY DUP2 MLOAD SWAP2 MSTORE SSTORE DUP1 RETURN JUMPDEST PUSH4 0x4E487B71 PUSH1 0xE0 SHL DUP6 MSTORE PUSH1 0x11 PUSH1 0x4 MSTORE PUSH1 0x24 DUP6 REVERT JUMPDEST DUP2 PUSH2 0xF20 SWAP2 PUSH2 0x1AE6 JUMP JUMPDEST PUSH2 0x67D JUMPI DUP3 CODESIZE PUSH2 0xEA2 JUMP JUMPDEST SWAP5 POP POP POP PUSH1 0x20 DUP4 RETURNDATASIZE PUSH1 0x20 GT PUSH2 0xF5E JUMPI JUMPDEST DUP2 PUSH2 0xF48 PUSH1 0x20 SWAP4 DUP4 PUSH2 0x1AE6 JUMP JUMPDEST DUP2 ADD SUB SLT PUSH2 0x38A JUMPI PUSH2 0xE5E DUP5 DUP8 SWAP5 MLOAD SWAP1 SWAP2 PUSH2 0xE51 JUMP JUMPDEST RETURNDATASIZE SWAP2 POP PUSH2 0xF3B JUMP JUMPDEST POP CALLVALUE PUSH2 0x15A JUMPI PUSH1 0xE0 CALLDATASIZE PUSH1 0x3 NOT ADD SLT PUSH2 0x15A JUMPI PUSH2 0xF80 PUSH2 0x1A3A JUMP JUMPDEST PUSH1 0x44 CALLDATALOAD PUSH1 0x1 PUSH1 0x1 PUSH1 0xA0 SHL SUB DUP2 AND SWAP2 SWAP1 PUSH1 0x24 CALLDATALOAD DUP4 DUP3 SUB PUSH2 0x679 JUMPI PUSH1 0x64 CALLDATALOAD PUSH1 0x84 CALLDATALOAD SWAP3 PUSH1 0xC4 CALLDATALOAD PUSH8 0xFFFFFFFFFFFFFFFF DUP2 GT PUSH2 0x13B7 JUMPI PUSH2 0xFC0 SWAP1 CALLDATASIZE SWAP1 PUSH1 0x4 ADD PUSH2 0x1A7A JUMP JUMPDEST SWAP6 PUSH2 0xFC9 PUSH2 0x1D6A JUMP JUMPDEST PUSH1 0x1 PUSH1 0x1 PUSH1 0xA0 SHL SUB AND SWAP6 DUP7 ISZERO PUSH2 0x1382 JUMPI PUSH2 0xFE4 DUP9 ISZERO ISZERO PUSH2 0x1BF6 JUMP JUMPDEST DUP5 ISZERO PUSH2 0x134F JUMPI DUP4 TIMESTAMP GT PUSH2 0x1318 JUMPI DUP6 DUP10 MSTORE PUSH1 0x6 PUSH1 0x20 MSTORE PUSH1 0xFF PUSH1 0x40 DUP11 KECCAK256 SLOAD AND PUSH2 0x12D3 JUMPI DUP7 DUP10 MSTORE PUSH1 0x7 PUSH1 0x20 MSTORE DUP5 PUSH1 0x40 DUP11 KECCAK256 SLOAD LT PUSH2 0x128E JUMPI PUSH1 0x40 SWAP4 PUSH1 0x8 PUSH1 0x20 DUP7 MLOAD PUSH2 0x102B DUP9 DUP3 PUSH2 0x1AE6 JUMP JUMPDEST DUP3 DUP2 MSTORE ADD PUSH8 0x28B93CB83A20B4B9 PUSH1 0xC1 SHL DUP2 MSTORE KECCAK256 PUSH1 0x1 PUSH1 0x20 DUP8 MLOAD PUSH2 0x104E DUP10 DUP3 PUSH2 0x1AE6 JUMP JUMPDEST DUP3 DUP2 MSTORE ADD PUSH1 0x31 PUSH1 0xF8 SHL DUP2 MSTORE KECCAK256 DUP7 MLOAD SWAP1 PUSH1 0x20 DUP3 ADD SWAP3 PUSH32 0xC2F8787176B8AC6BF7215B4ADCC1E069BF4AB82D9AB1DF05A57A91D425935B6E DUP5 MSTORE DUP9 DUP4 ADD MSTORE PUSH1 0x60 DUP3 ADD MSTORE CHAINID PUSH1 0x80 DUP3 ADD MSTORE PUSH1 0x80 DUP2 MSTORE PUSH2 0x10A3 PUSH1 0xA0 DUP3 PUSH2 0x1AE6 JUMP JUMPDEST MLOAD SWAP1 KECCAK256 SWAP1 DUP6 MLOAD PUSH1 0x20 DUP2 ADD SWAP2 PUSH32 0x22843C5037A0A8BC35F56290540532EBA624A7F4883EF0B9545444D80F21B610 DUP4 MSTORE DUP11 DUP9 DUP4 ADD MSTORE DUP9 PUSH1 0x60 DUP4 ADD MSTORE DUP12 PUSH1 0x80 DUP4 ADD MSTORE PUSH1 0xA0 DUP3 ADD MSTORE DUP9 PUSH1 0xC0 DUP3 ADD MSTORE PUSH1 0xA4 CALLDATALOAD PUSH1 0xE0 DUP3 ADD MSTORE PUSH1 0xE0 DUP2 MSTORE PUSH2 0x1105 PUSH2 0x100 DUP3 PUSH2 0x1AE6 JUMP JUMPDEST MLOAD SWAP1 KECCAK256 DUP6 MLOAD SWAP1 PUSH1 0x20 DUP3 ADD SWAP3 PUSH2 0x1901 PUSH1 0xF0 SHL DUP5 MSTORE PUSH1 0x22 DUP4 ADD MSTORE PUSH1 0x42 DUP3 ADD MSTORE PUSH1 0x42 DUP2 MSTORE PUSH2 0x1131 PUSH1 0x62 DUP3 PUSH2 0x1AE6 JUMP JUMPDEST MLOAD SWAP1 KECCAK256 PUSH2 0x113D DUP3 PUSH2 0x1C36 JUMP JUMPDEST SWAP1 PUSH2 0x114A DUP7 MLOAD SWAP3 DUP4 PUSH2 0x1AE6 JUMP JUMPDEST DUP3 DUP3 MSTORE DUP11 CALLDATASIZE DUP5 DUP7 ADD GT PUSH2 0x15A JUMPI PUSH1 0x20 DUP5 PUSH2 0x116F SWAP6 PUSH2 0x1178 SWAP8 DUP4 DUP8 ADD CALLDATACOPY DUP5 ADD ADD MSTORE PUSH2 0x21DE JUMP JUMPDEST SWAP1 SWAP3 SWAP2 SWAP3 PUSH2 0x221A JUMP JUMPDEST PUSH1 0x1 PUSH1 0x1 PUSH1 0xA0 SHL SUB AND DUP1 ISZERO PUSH2 0x1255 JUMPI DUP8 SLOAD PUSH1 0x1 PUSH1 0x1 PUSH1 0xA0 SHL SUB AND SUB PUSH2 0x1211 JUMPI SWAP2 PUSH1 0x20 SWAP2 PUSH2 0x11F7 DUP3 PUSH32 0x45F9A4A4C2F6D26B87299E0F223E09003DED03C853237AB5FFA996F67CE22270 SWAP6 DUP8 DUP12 MSTORE PUSH1 0x6 DUP7 MSTORE DUP4 DUP12 KECCAK256 PUSH1 0x1 PUSH1 0xFF NOT DUP3 SLOAD AND OR SWAP1 SSTORE DUP9 DUP12 MSTORE PUSH1 0x7 DUP7 MSTORE DUP4 DUP12 KECCAK256 PUSH2 0x11EB DUP4 DUP3 SLOAD PUSH2 0x1C52 JUMP JUMPDEST SWAP1 SSTORE NUMBER PUSH1 0x3 SSTORE DUP9 PUSH2 0x1DA6 JUMP JUMPDEST MLOAD SWAP1 DUP2 MSTORE LOG4 PUSH1 0x1 PUSH1 0x0 DUP1 MLOAD PUSH1 0x20 PUSH2 0x2E5B DUP4 CODECOPY DUP2 MLOAD SWAP2 MSTORE SSTORE DUP1 RETURN JUMPDEST DUP2 MLOAD PUSH3 0x461BCD PUSH1 0xE5 SHL DUP2 MSTORE PUSH1 0x20 PUSH1 0x4 DUP3 ADD MSTORE PUSH1 0x18 PUSH1 0x24 DUP3 ADD MSTORE PUSH32 0x536967206E6F742066726F6D207661756C74206F776E65720000000000000000 PUSH1 0x44 DUP3 ADD MSTORE PUSH1 0x64 SWAP1 REVERT JUMPDEST DUP3 MLOAD PUSH3 0x461BCD PUSH1 0xE5 SHL DUP2 MSTORE PUSH1 0x20 PUSH1 0x4 DUP3 ADD MSTORE PUSH1 0x12 PUSH1 0x24 DUP3 ADD MSTORE PUSH18 0x45434453413A20696E76616C696420736967 PUSH1 0x70 SHL PUSH1 0x44 DUP3 ADD MSTORE PUSH1 0x64 SWAP1 REVERT JUMPDEST PUSH1 0x40 MLOAD PUSH3 0x461BCD PUSH1 0xE5 SHL DUP2 MSTORE PUSH1 0x20 PUSH1 0x4 DUP3 ADD MSTORE PUSH1 0x17 PUSH1 0x24 DUP3 ADD MSTORE PUSH32 0x496E73756666696369656E742061697220627564676574000000000000000000 PUSH1 0x44 DUP3 ADD MSTORE PUSH1 0x64 SWAP1 REVERT JUMPDEST PUSH1 0x40 MLOAD PUSH3 0x461BCD PUSH1 0xE5 SHL DUP2 MSTORE PUSH1 0x20 PUSH1 0x4 DUP3 ADD MSTORE PUSH1 0x18 PUSH1 0x24 DUP3 ADD MSTORE PUSH32 0x566F756368657220616C72656164792072656465656D65640000000000000000 PUSH1 0x44 DUP3 ADD MSTORE PUSH1 0x64 SWAP1 REVERT JUMPDEST PUSH1 0x40 MLOAD PUSH3 0x461BCD PUSH1 0xE5 SHL DUP2 MSTORE PUSH1 0x20 PUSH1 0x4 DUP3 ADD MSTORE PUSH1 0xF PUSH1 0x24 DUP3 ADD MSTORE PUSH15 0x159BDD58DA195C88195E1C1A5C9959 PUSH1 0x8A SHL PUSH1 0x44 DUP3 ADD MSTORE PUSH1 0x64 SWAP1 REVERT JUMPDEST PUSH1 0x40 MLOAD PUSH3 0x461BCD PUSH1 0xE5 SHL DUP2 MSTORE PUSH1 0x20 PUSH1 0x4 DUP3 ADD MSTORE PUSH1 0xB PUSH1 0x24 DUP3 ADD MSTORE PUSH11 0x16995C9BC8185B5BDD5B9D PUSH1 0xAA SHL PUSH1 0x44 DUP3 ADD MSTORE PUSH1 0x64 SWAP1 REVERT JUMPDEST PUSH1 0x40 MLOAD PUSH3 0x461BCD PUSH1 0xE5 SHL DUP2 MSTORE PUSH1 0x20 PUSH1 0x4 DUP3 ADD MSTORE PUSH1 0xD PUSH1 0x24 DUP3 ADD MSTORE PUSH13 0x24B73B30B634B2103A37B5B2B7 PUSH1 0x99 SHL PUSH1 0x44 DUP3 ADD MSTORE PUSH1 0x64 SWAP1 REVERT JUMPDEST DUP8 DUP1 REVERT JUMPDEST POP CALLVALUE PUSH2 0x15A JUMPI PUSH1 0x20 CALLDATASIZE PUSH1 0x3 NOT ADD SLT PUSH2 0x15A JUMPI PUSH1 0x20 SWAP1 PUSH1 0x40 SWAP1 PUSH1 0x1 PUSH1 0x1 PUSH1 0xA0 SHL SUB PUSH2 0x13E3 PUSH2 0x1A3A JUMP JUMPDEST AND DUP2 MSTORE PUSH1 0x7 DUP4 MSTORE KECCAK256 SLOAD PUSH1 0x40 MLOAD SWAP1 DUP2 MSTORE RETURN JUMPDEST POP CALLVALUE PUSH2 0x15A JUMPI PUSH1 0x40 CALLDATASIZE PUSH1 0x3 NOT ADD SLT PUSH2 0x15A JUMPI PUSH2 0x140E PUSH2 0x1A3A JUMP JUMPDEST PUSH2 0x1422 PUSH1 0x1 DUP1 PUSH1 0xA0 SHL SUB DUP4 SLOAD AND CALLER EQ PUSH2 0x1AA8 JUMP JUMPDEST PUSH2 0x142A PUSH2 0x1D6A JUMP JUMPDEST PUSH2 0x1435 PUSH1 0x24 CALLDATALOAD PUSH2 0x1E33 JUMP JUMPDEST PUSH1 0x1 PUSH1 0x1 PUSH1 0xA0 SHL SUB DUP2 AND DUP1 DUP4 MSTORE PUSH1 0x7 PUSH1 0x20 MSTORE PUSH1 0x40 DUP4 KECCAK256 SLOAD SWAP1 SWAP2 DUP2 ISZERO PUSH2 0x1523 JUMPI DUP3 DUP5 MSTORE PUSH1 0x7 PUSH1 0x20 MSTORE PUSH1 0x40 DUP5 KECCAK256 DUP5 SWAP1 SSTORE DUP4 SWAP1 PUSH1 0x1 PUSH1 0x1 PUSH1 0xA0 SHL SUB SWAP1 PUSH2 0x1477 SWAP1 PUSH2 0x1F42 JUMP JUMPDEST DUP3 SLOAD PUSH1 0x1 PUSH1 0x1 PUSH1 0xA0 SHL SUB AND SWAP2 AND DUP1 EXTCODESIZE ISZERO PUSH2 0x67D JUMPI PUSH1 0x40 MLOAD PUSH4 0x40C10F19 PUSH1 0xE0 SHL DUP2 MSTORE PUSH1 0x1 PUSH1 0x1 PUSH1 0xA0 SHL SUB SWAP3 SWAP1 SWAP3 AND PUSH1 0x4 DUP4 ADD MSTORE PUSH1 0x24 DUP3 ADD DUP5 SWAP1 MSTORE DUP3 SWAP1 DUP3 SWAP1 PUSH1 0x44 SWAP1 DUP3 SWAP1 DUP5 SWAP1 GAS CALL DUP1 ISZERO PUSH2 0x34F JUMPI PUSH2 0x150E JUMPI JUMPDEST POP POP PUSH1 0x20 PUSH32 0x625A03DE5183DDC460E0DB80B958C02D7BD02ABAE80A840DF0A15FEFEAD14FE2 SWAP2 NUMBER PUSH1 0x3 SSTORE PUSH1 0x40 MLOAD SWAP1 DUP2 MSTORE LOG2 PUSH1 0x1 PUSH1 0x0 DUP1 MLOAD PUSH1 0x20 PUSH2 0x2E5B DUP4 CODECOPY DUP2 MLOAD SWAP2 MSTORE SSTORE DUP1 RETURN JUMPDEST DUP2 PUSH2 0x1518 SWAP2 PUSH2 0x1AE6 JUMP JUMPDEST PUSH2 0x67D JUMPI DUP3 CODESIZE PUSH2 0x14C8 JUMP JUMPDEST PUSH1 0x40 MLOAD PUSH3 0x461BCD PUSH1 0xE5 SHL DUP2 MSTORE PUSH1 0x20 PUSH1 0x4 DUP3 ADD MSTORE PUSH1 0x18 PUSH1 0x24 DUP3 ADD MSTORE PUSH32 0x4E6F206169722062756467657420746F207265636C61696D0000000000000000 PUSH1 0x44 DUP3 ADD MSTORE PUSH1 0x64 SWAP1 REVERT JUMPDEST POP CALLVALUE PUSH2 0x15A JUMPI DUP1 PUSH1 0x3 NOT CALLDATASIZE ADD SLT PUSH2 0x15A JUMPI PUSH1 0x20 PUSH1 0x40 MLOAD PUSH3 0xF4240 DUP2 MSTORE RETURN JUMPDEST POP CALLVALUE PUSH2 0x15A JUMPI PUSH1 0x40 CALLDATASIZE PUSH1 0x3 NOT ADD SLT PUSH2 0x15A JUMPI PUSH1 0x4 CALLDATALOAD PUSH2 0x15AF PUSH1 0x1 DUP1 PUSH1 0xA0 SHL SUB DUP4 SLOAD AND CALLER EQ PUSH2 0x1AA8 JUMP JUMPDEST PUSH1 0x40 MLOAD PUSH1 0x20 DUP2 ADD SWAP1 PUSH1 0x24 CALLDATALOAD DUP3 MSTORE PUSH1 0x20 DUP2 MSTORE PUSH2 0x15CB PUSH1 0x40 DUP3 PUSH2 0x1AE6 JUMP JUMPDEST MLOAD SWAP1 KECCAK256 PUSH1 0x1 SLOAD SUB PUSH2 0x1650 JUMPI DUP1 ISZERO PUSH2 0x1612 JUMPI PUSH1 0x20 DUP2 PUSH32 0x8070C963F225325E8D44D693C372DBD8BA5A50CA93D4937C586A42B58E1FBC31 SWAP3 PUSH1 0x1 SSTORE NUMBER PUSH1 0x3 SSTORE PUSH1 0x40 MLOAD SWAP1 DUP2 MSTORE LOG1 DUP1 RETURN JUMPDEST PUSH1 0x40 MLOAD PUSH3 0x461BCD PUSH1 0xE5 SHL DUP2 MSTORE PUSH1 0x20 PUSH1 0x4 DUP3 ADD MSTORE PUSH1 0x16 PUSH1 0x24 DUP3 ADD MSTORE PUSH22 0x125B9D985B1A59081B995DC818DA185A5B881A195859 PUSH1 0x52 SHL PUSH1 0x44 DUP3 ADD MSTORE PUSH1 0x64 SWAP1 REVERT JUMPDEST PUSH1 0x40 MLOAD PUSH3 0x461BCD PUSH1 0xE5 SHL DUP2 MSTORE PUSH1 0x20 PUSH1 0x4 DUP3 ADD MSTORE PUSH1 0x16 PUSH1 0x24 DUP3 ADD MSTORE PUSH22 0x24B73B30B634B2103932B1B430B933B290383937B7B3 PUSH1 0x51 SHL PUSH1 0x44 DUP3 ADD MSTORE PUSH1 0x64 SWAP1 REVERT JUMPDEST POP CALLVALUE PUSH2 0x15A JUMPI DUP1 PUSH1 0x3 NOT CALLDATASIZE ADD SLT PUSH2 0x15A JUMPI PUSH1 0x20 PUSH1 0xFF PUSH1 0x2 SLOAD AND PUSH1 0x40 MLOAD SWAP1 ISZERO ISZERO DUP2 MSTORE RETURN JUMPDEST POP CALLVALUE PUSH2 0x15A JUMPI PUSH2 0x16C3 PUSH2 0xDCB CALLDATASIZE PUSH2 0x1A50 JUMP JUMPDEST PUSH2 0x16CE DUP3 ISZERO ISZERO PUSH2 0x1B1E JUMP JUMPDEST PUSH1 0x1 PUSH1 0x1 PUSH1 0xA0 SHL SUB SWAP1 DUP2 AND DUP1 DUP5 MSTORE PUSH1 0x4 PUSH1 0x20 MSTORE PUSH1 0x40 DUP5 KECCAK256 SLOAD SWAP1 SWAP3 SWAP2 AND PUSH2 0x16F5 DUP2 ISZERO ISZERO PUSH2 0x1B69 JUMP JUMPDEST DUP4 SLOAD PUSH1 0x40 MLOAD PUSH4 0x70A08231 PUSH1 0xE0 SHL DUP2 MSTORE PUSH1 0x1 PUSH1 0x1 PUSH1 0xA0 SHL SUB SWAP1 SWAP2 AND PUSH1 0x4 DUP3 ADD DUP2 SWAP1 MSTORE DUP6 SWAP2 PUSH1 0x20 DUP2 PUSH1 0x24 DUP2 DUP8 GAS STATICCALL DUP1 ISZERO PUSH2 0x1849 JUMPI DUP6 SWAP1 DUP5 SWAP1 PUSH2 0x1813 JUMPI JUMPDEST PUSH2 0x173C SWAP3 POP LT ISZERO PUSH2 0x1BAA JUMP JUMPDEST DUP3 EXTCODESIZE ISZERO PUSH2 0x35A JUMPI PUSH1 0x40 MLOAD PUSH4 0x2770A7EB PUSH1 0xE2 SHL DUP2 MSTORE PUSH1 0x1 PUSH1 0x1 PUSH1 0xA0 SHL SUB SWAP2 SWAP1 SWAP2 AND PUSH1 0x4 DUP3 ADD MSTORE PUSH1 0x24 DUP2 ADD DUP5 SWAP1 MSTORE SWAP2 DUP3 SWAP1 PUSH1 0x44 SWAP1 DUP3 SWAP1 DUP5 SWAP1 GAS CALL DUP1 ISZERO PUSH2 0x6BC JUMPI PUSH2 0x17DC JUMPI JUMPDEST POP DUP3 SLOAD PUSH32 0x3CB804822CD14606988DD0133475536FAEFC5D3BD4D0D00C445A4426D81442C8 SWAP2 PUSH1 0x20 SWAP2 PUSH2 0x17BC SWAP1 DUP3 SWAP1 PUSH1 0x1 PUSH1 0x1 PUSH1 0xA0 SHL SUB AND DUP7 PUSH2 0x1DA6 JUMP JUMPDEST NUMBER PUSH1 0x3 SSTORE PUSH1 0x40 MLOAD SWAP1 DUP2 MSTORE LOG2 PUSH1 0x1 PUSH1 0x0 DUP1 MLOAD PUSH1 0x20 PUSH2 0x2E5B DUP4 CODECOPY DUP2 MLOAD SWAP2 MSTORE SSTORE DUP1 RETURN JUMPDEST DUP4 PUSH2 0x180B PUSH32 0x3CB804822CD14606988DD0133475536FAEFC5D3BD4D0D00C445A4426D81442C8 SWAP4 SWAP6 PUSH1 0x20 SWAP4 PUSH2 0x1AE6 JUMP JUMPDEST SWAP4 SWAP2 POP PUSH2 0x177F JUMP JUMPDEST POP POP PUSH1 0x20 DUP2 RETURNDATASIZE PUSH1 0x20 GT PUSH2 0x1841 JUMPI JUMPDEST DUP2 PUSH2 0x182E PUSH1 0x20 SWAP4 DUP4 PUSH2 0x1AE6 JUMP JUMPDEST DUP2 ADD SUB SLT PUSH2 0x67D JUMPI DUP5 PUSH2 0x173C SWAP2 MLOAD PUSH2 0x1730 JUMP JUMPDEST RETURNDATASIZE SWAP2 POP PUSH2 0x1821 JUMP JUMPDEST PUSH1 0x40 MLOAD RETURNDATASIZE DUP6 DUP3 RETURNDATACOPY RETURNDATASIZE SWAP1 REVERT JUMPDEST POP CALLVALUE PUSH2 0x15A JUMPI PUSH1 0x20 CALLDATASIZE PUSH1 0x3 NOT ADD SLT PUSH2 0x15A JUMPI PUSH1 0x4 CALLDATALOAD PUSH8 0xFFFFFFFFFFFFFFFF DUP2 GT PUSH2 0x35A JUMPI CALLDATASIZE PUSH1 0x23 DUP3 ADD SLT ISZERO PUSH2 0x35A JUMPI DUP1 PUSH1 0x4 ADD CALLDATALOAD SWAP1 PUSH8 0xFFFFFFFFFFFFFFFF DUP3 GT PUSH2 0x67D JUMPI CALLDATASIZE PUSH1 0x24 DUP4 PUSH1 0x5 SHL DUP4 ADD ADD GT PUSH2 0x67D JUMPI PUSH2 0x18BB PUSH1 0x1 DUP1 PUSH1 0xA0 SHL SUB DUP5 SLOAD AND CALLER EQ PUSH2 0x1AA8 JUMP JUMPDEST PUSH2 0x18C3 PUSH2 0x1D6A JUMP JUMPDEST PUSH1 0x3 SLOAD PUSH3 0x13C680 DUP2 ADD DUP1 SWAP2 GT PUSH2 0x1A26 JUMPI NUMBER LT PUSH2 0x19D5 JUMPI DUP3 JUMPDEST DUP3 DUP2 LT ISZERO PUSH2 0x19BF JUMPI PUSH1 0x24 PUSH1 0x5 DUP3 SWAP1 SHL DUP4 ADD ADD CALLDATALOAD PUSH1 0x1 PUSH1 0x1 PUSH1 0xA0 SHL SUB DUP2 AND SWAP2 SWAP1 DUP3 SWAP1 SUB PUSH2 0x679 JUMPI PUSH1 0x40 MLOAD PUSH4 0x70A08231 PUSH1 0xE0 SHL DUP2 MSTORE ADDRESS PUSH1 0x4 DUP3 ADD MSTORE SWAP2 PUSH1 0x20 DUP4 PUSH1 0x24 DUP2 DUP5 GAS STATICCALL DUP1 ISZERO PUSH2 0x19B4 JUMPI DUP7 SWAP1 PUSH2 0x1982 JUMPI JUMPDEST PUSH1 0x1 SWAP4 POP DUP1 PUSH2 0x193D JUMPI JUMPDEST POP POP ADD PUSH2 0x18DB JUMP JUMPDEST PUSH1 0x20 DUP2 PUSH2 0x1974 PUSH32 0x5FAFA99D0643513820BE26656B45130B01E1C03062E1266BF36F88CBD3BD9695 SWAP4 DUP8 DUP1 PUSH1 0xA0 SHL SUB DUP12 SLOAD AND DUP7 PUSH2 0x1DA6 JUMP JUMPDEST PUSH1 0x40 MLOAD SWAP1 DUP2 MSTORE LOG2 CODESIZE DUP1 PUSH2 0x1935 JUMP JUMPDEST POP PUSH1 0x20 DUP4 RETURNDATASIZE DUP3 GT PUSH2 0x19AC JUMPI JUMPDEST DUP2 PUSH2 0x199B PUSH1 0x20 SWAP4 DUP4 PUSH2 0x1AE6 JUMP JUMPDEST DUP2 ADD SUB SLT PUSH2 0xB76 JUMPI PUSH1 0x1 SWAP3 MLOAD PUSH2 0x192B JUMP JUMPDEST RETURNDATASIZE SWAP2 POP PUSH2 0x198E JUMP JUMPDEST PUSH1 0x40 MLOAD RETURNDATASIZE DUP9 DUP3 RETURNDATACOPY RETURNDATASIZE SWAP1 REVERT JUMPDEST DUP4 PUSH1 0x1 PUSH1 0x0 DUP1 MLOAD PUSH1 0x20 PUSH2 0x2E5B DUP4 CODECOPY DUP2 MLOAD SWAP2 MSTORE SSTORE DUP1 RETURN JUMPDEST PUSH1 0x40 MLOAD PUSH3 0x461BCD PUSH1 0xE5 SHL DUP2 MSTORE PUSH1 0x20 PUSH1 0x4 DUP3 ADD MSTORE PUSH1 0x24 DUP1 DUP3 ADD MSTORE PUSH32 0x456D657267656E6379207769746864726177206E6F742079657420617661696C PUSH1 0x44 DUP3 ADD MSTORE PUSH4 0x61626C65 PUSH1 0xE0 SHL PUSH1 0x64 DUP3 ADD MSTORE PUSH1 0x84 SWAP1 REVERT JUMPDEST PUSH4 0x4E487B71 PUSH1 0xE0 SHL DUP5 MSTORE PUSH1 0x11 PUSH1 0x4 MSTORE PUSH1 0x24 DUP5 REVERT JUMPDEST PUSH1 0x4 CALLDATALOAD SWAP1 PUSH1 0x1 PUSH1 0x1 PUSH1 0xA0 SHL SUB DUP3 AND DUP3 SUB PUSH2 0x38A JUMPI JUMP JUMPDEST PUSH1 0x60 SWAP1 PUSH1 0x3 NOT ADD SLT PUSH2 0x38A JUMPI PUSH1 0x4 CALLDATALOAD PUSH1 0x1 PUSH1 0x1 PUSH1 0xA0 SHL SUB DUP2 AND DUP2 SUB PUSH2 0x38A JUMPI SWAP1 PUSH1 0x24 CALLDATALOAD SWAP1 PUSH1 0x44 CALLDATALOAD SWAP1 JUMP JUMPDEST SWAP2 DUP2 PUSH1 0x1F DUP5 ADD SLT ISZERO PUSH2 0x38A JUMPI DUP3 CALLDATALOAD SWAP2 PUSH8 0xFFFFFFFFFFFFFFFF DUP4 GT PUSH2 0x38A JUMPI PUSH1 0x20 DUP4 DUP2 DUP7 ADD SWAP6 ADD ADD GT PUSH2 0x38A JUMPI JUMP JUMPDEST ISZERO PUSH2 0x1AAF JUMPI JUMP JUMPDEST PUSH1 0x40 MLOAD PUSH3 0x461BCD PUSH1 0xE5 SHL DUP2 MSTORE PUSH1 0x20 PUSH1 0x4 DUP3 ADD MSTORE PUSH1 0xF PUSH1 0x24 DUP3 ADD MSTORE PUSH15 0x2737BA103B30BAB63A1037BBB732B9 PUSH1 0x89 SHL PUSH1 0x44 DUP3 ADD MSTORE PUSH1 0x64 SWAP1 REVERT JUMPDEST SWAP1 PUSH1 0x1F DUP1 NOT SWAP2 ADD AND DUP2 ADD SWAP1 DUP2 LT PUSH8 0xFFFFFFFFFFFFFFFF DUP3 GT OR PUSH2 0x1B08 JUMPI PUSH1 0x40 MSTORE JUMP JUMPDEST PUSH4 0x4E487B71 PUSH1 0xE0 SHL PUSH1 0x0 MSTORE PUSH1 0x41 PUSH1 0x4 MSTORE PUSH1 0x24 PUSH1 0x0 REVERT JUMPDEST ISZERO PUSH2 0x1B25 JUMPI JUMP JUMPDEST PUSH1 0x64 PUSH1 0x40 MLOAD PUSH3 0x461BCD PUSH1 0xE5 SHL DUP2 MSTORE PUSH1 0x20 PUSH1 0x4 DUP3 ADD MSTORE PUSH1 0x20 PUSH1 0x24 DUP3 ADD MSTORE PUSH32 0x416D6F756E74206D7573742062652067726561746572207468616E207A65726F PUSH1 0x44 DUP3 ADD MSTORE REVERT JUMPDEST ISZERO PUSH2 0x1B70 JUMPI JUMP JUMPDEST PUSH1 0x40 MLOAD PUSH3 0x461BCD PUSH1 0xE5 SHL DUP2 MSTORE PUSH1 0x20 PUSH1 0x4 DUP3 ADD MSTORE PUSH1 0x12 PUSH1 0x24 DUP3 ADD MSTORE PUSH18 0x151BDAD95B881B9BDD081CDA1A595B191959 PUSH1 0x72 SHL PUSH1 0x44 DUP3 ADD MSTORE PUSH1 0x64 SWAP1 REVERT JUMPDEST ISZERO PUSH2 0x1BB1 JUMPI JUMP JUMPDEST PUSH1 0x40 MLOAD PUSH3 0x461BCD PUSH1 0xE5 SHL DUP2 MSTORE PUSH1 0x20 PUSH1 0x4 DUP3 ADD MSTORE PUSH1 0x1D PUSH1 0x24 DUP3 ADD MSTORE PUSH32 0x496E73756666696369656E7420736869656C6465642062616C616E6365000000 PUSH1 0x44 DUP3 ADD MSTORE PUSH1 0x64 SWAP1 REVERT JUMPDEST ISZERO PUSH2 0x1BFD JUMPI JUMP JUMPDEST PUSH1 0x40 MLOAD PUSH3 0x461BCD PUSH1 0xE5 SHL DUP2 MSTORE PUSH1 0x20 PUSH1 0x4 DUP3 ADD MSTORE PUSH1 0x11 PUSH1 0x24 DUP3 ADD MSTORE PUSH17 0x125B9D985B1A59081C9958DA5C1A595B9D PUSH1 0x7A SHL PUSH1 0x44 DUP3 ADD MSTORE PUSH1 0x64 SWAP1 REVERT JUMPDEST PUSH8 0xFFFFFFFFFFFFFFFF DUP2 GT PUSH2 0x1B08 JUMPI PUSH1 0x1F ADD PUSH1 0x1F NOT AND PUSH1 0x20 ADD SWAP1 JUMP JUMPDEST SWAP2 SWAP1 DUP3 SUB SWAP2 DUP3 GT PUSH2 0x1C5F JUMPI JUMP JUMPDEST PUSH4 0x4E487B71 PUSH1 0xE0 SHL PUSH1 0x0 MSTORE PUSH1 0x11 PUSH1 0x4 MSTORE PUSH1 0x24 PUSH1 0x0 REVERT JUMPDEST ISZERO PUSH2 0x1C7C JUMPI JUMP JUMPDEST PUSH1 0x40 MLOAD PUSH3 0x461BCD PUSH1 0xE5 SHL DUP2 MSTORE PUSH1 0x20 PUSH1 0x4 DUP3 ADD MSTORE PUSH1 0x13 PUSH1 0x24 DUP3 ADD MSTORE PUSH19 0x10DBDB5B5A5D08185B1C9958591E481D5CD959 PUSH1 0x6A SHL PUSH1 0x44 DUP3 ADD MSTORE PUSH1 0x64 SWAP1 REVERT JUMPDEST SWAP1 DUP2 PUSH1 0x20 SWAP2 SUB SLT PUSH2 0x38A JUMPI MLOAD DUP1 ISZERO ISZERO DUP2 SUB PUSH2 0x38A JUMPI SWAP1 JUMP JUMPDEST PUSH1 0x1 PUSH1 0x1 PUSH1 0xA0 SHL SUB SWAP1 DUP2 AND PUSH1 0x0 SWAP1 DUP2 MSTORE PUSH1 0x4 PUSH1 0x20 MSTORE PUSH1 0x40 SWAP1 KECCAK256 SLOAD AND DUP1 ISZERO PUSH2 0x1D64 JUMPI PUSH1 0x20 PUSH1 0x1 DUP1 PUSH1 0xA0 SHL SUB PUSH1 0x0 SLOAD AND PUSH1 0x24 PUSH1 0x40 MLOAD DUP1 SWAP5 DUP2 SWAP4 PUSH4 0x70A08231 PUSH1 0xE0 SHL DUP4 MSTORE PUSH1 0x4 DUP4 ADD MSTORE GAS STATICCALL SWAP1 DUP2 ISZERO PUSH2 0x1D58 JUMPI PUSH1 0x0 SWAP2 PUSH2 0x1D29 JUMPI POP SWAP1 JUMP JUMPDEST SWAP1 POP PUSH1 0x20 DUP2 RETURNDATASIZE PUSH1 0x20 GT PUSH2 0x1D50 JUMPI JUMPDEST DUP2 PUSH2 0x1D44 PUSH1 0x20 SWAP4 DUP4 PUSH2 0x1AE6 JUMP JUMPDEST DUP2 ADD SUB SLT PUSH2 0x38A JUMPI MLOAD SWAP1 JUMP JUMPDEST RETURNDATASIZE SWAP2 POP PUSH2 0x1D37 JUMP JUMPDEST PUSH1 0x40 MLOAD RETURNDATASIZE PUSH1 0x0 DUP3 RETURNDATACOPY RETURNDATASIZE SWAP1 REVERT JUMPDEST POP PUSH1 0x0 SWAP1 JUMP JUMPDEST PUSH1 0x2 PUSH1 0x0 DUP1 MLOAD PUSH1 0x20 PUSH2 0x2E5B DUP4 CODECOPY DUP2 MLOAD SWAP2 MSTORE SLOAD EQ PUSH2 0x1D95 JUMPI PUSH1 0x2 PUSH1 0x0 DUP1 MLOAD PUSH1 0x20 PUSH2 0x2E5B DUP4 CODECOPY DUP2 MLOAD SWAP2 MSTORE SSTORE JUMP JUMPDEST PUSH4 0x3EE5AEB5 PUSH1 0xE0 SHL PUSH1 0x0 MSTORE PUSH1 0x4 PUSH1 0x0 REVERT JUMPDEST PUSH1 0x40 MLOAD PUSH4 0xA9059CBB PUSH1 0xE0 SHL PUSH1 0x0 SWAP1 DUP2 MSTORE PUSH1 0x1 PUSH1 0x1 PUSH1 0xA0 SHL SUB SWAP1 SWAP4 AND PUSH1 0x4 MSTORE PUSH1 0x24 SWAP4 SWAP1 SWAP4 MSTORE SWAP2 SWAP1 PUSH1 0x20 SWAP1 PUSH1 0x44 DUP2 DUP1 DUP7 GAS CALL SWAP1 PUSH1 0x1 PUSH1 0x0 MLOAD EQ DUP3 AND ISZERO PUSH2 0x1E11 JUMPI JUMPDEST PUSH1 0x40 MSTORE ISZERO PUSH2 0x1DF0 JUMPI POP JUMP JUMPDEST PUSH4 0x5274AFE7 PUSH1 0xE0 SHL PUSH1 0x0 SWAP1 DUP2 MSTORE PUSH1 0x1 PUSH1 0x1 PUSH1 0xA0 SHL SUB SWAP2 SWAP1 SWAP2 AND PUSH1 0x4 MSTORE PUSH1 0x24 SWAP1 REVERT JUMPDEST SWAP1 PUSH1 0x1 DUP2 ISZERO AND PUSH2 0x1E29 JUMPI DUP3 EXTCODESIZE ISZERO ISZERO RETURNDATASIZE ISZERO AND AND SWAP1 PUSH2 0x1DE5 JUMP JUMPDEST POP RETURNDATASIZE PUSH1 0x0 DUP3 RETURNDATACOPY RETURNDATASIZE SWAP1 REVERT JUMPDEST PUSH1 0x40 MLOAD PUSH1 0x20 DUP2 ADD SWAP1 DUP3 DUP3 MSTORE PUSH1 0x20 DUP2 MSTORE PUSH2 0x1E4D PUSH1 0x40 DUP3 PUSH2 0x1AE6 JUMP JUMPDEST MLOAD SWAP1 KECCAK256 PUSH1 0x1 SLOAD SUB PUSH2 0x1E5D JUMPI PUSH1 0x1 SSTORE JUMP JUMPDEST PUSH1 0x40 MLOAD PUSH3 0x461BCD PUSH1 0xE5 SHL DUP2 MSTORE PUSH1 0x20 PUSH1 0x4 DUP3 ADD MSTORE PUSH1 0x13 PUSH1 0x24 DUP3 ADD MSTORE PUSH19 0x24B73B30B634B2103B30BAB63A10383937B7B3 PUSH1 0x69 SHL PUSH1 0x44 DUP3 ADD MSTORE PUSH1 0x64 SWAP1 REVERT JUMPDEST PUSH1 0x0 JUMPDEST DUP4 DUP2 LT PUSH2 0x1EAB JUMPI POP POP PUSH1 0x0 SWAP2 ADD MSTORE JUMP JUMPDEST DUP2 DUP2 ADD MLOAD DUP4 DUP3 ADD MSTORE PUSH1 0x20 ADD PUSH2 0x1E9B JUMP JUMPDEST PUSH1 0x20 DUP2 DUP4 SUB SLT PUSH2 0x38A JUMPI DUP1 MLOAD SWAP1 PUSH8 0xFFFFFFFFFFFFFFFF DUP3 GT PUSH2 0x38A JUMPI ADD DUP2 PUSH1 0x1F DUP3 ADD SLT ISZERO PUSH2 0x38A JUMPI DUP1 MLOAD PUSH2 0x1EEE DUP2 PUSH2 0x1C36 JUMP JUMPDEST SWAP3 PUSH2 0x1EFC PUSH1 0x40 MLOAD SWAP5 DUP6 PUSH2 0x1AE6 JUMP JUMPDEST DUP2 DUP5 MSTORE PUSH1 0x20 DUP3 DUP5 ADD ADD GT PUSH2 0x38A JUMPI PUSH2 0x1F1A SWAP2 PUSH1 0x20 DUP1 DUP6 ADD SWAP2 ADD PUSH2 0x1E98 JUMP JUMPDEST SWAP1 JUMP JUMPDEST SWAP1 PUSH1 0x20 SWAP2 PUSH2 0x1F36 DUP2 MLOAD DUP1 SWAP3 DUP2 DUP6 MSTORE DUP6 DUP1 DUP7 ADD SWAP2 ADD PUSH2 0x1E98 JUMP JUMPDEST PUSH1 0x1F ADD PUSH1 0x1F NOT AND ADD ADD SWAP1 JUMP JUMPDEST PUSH1 0x1 PUSH1 0x1 PUSH1 0xA0 SHL SUB SWAP1 DUP2 AND PUSH1 0x0 DUP2 DUP2 MSTORE PUSH1 0x4 PUSH1 0x20 MSTORE PUSH1 0x40 SWAP1 KECCAK256 SLOAD SWAP1 SWAP2 AND PUSH2 0x21C3 JUMPI PUSH1 0x40 MLOAD PUSH4 0x6FDDE03 PUSH1 0xE0 SHL DUP2 MSTORE PUSH1 0x0 DUP1 DUP3 PUSH1 0x4 DUP2 DUP7 GAS STATICCALL SWAP1 SWAP2 DUP3 DUP3 PUSH2 0x21A6 JUMPI JUMPDEST POP POP PUSH2 0x217A JUMPI POP PUSH1 0x40 MLOAD PUSH2 0x1F98 PUSH1 0x40 DUP3 PUSH2 0x1AE6 JUMP JUMPDEST PUSH1 0x6 DUP2 MSTORE PUSH6 0x38AA37B5B2B7 PUSH1 0xD1 SHL PUSH1 0x20 DUP3 ADD MSTORE JUMPDEST PUSH1 0x40 MLOAD PUSH4 0x95D89B41 PUSH1 0xE0 SHL DUP2 MSTORE PUSH1 0x0 DUP2 PUSH1 0x4 DUP2 DUP7 GAS STATICCALL PUSH1 0x0 SWAP2 DUP2 PUSH2 0x2155 JUMPI JUMPDEST POP PUSH2 0x2117 JUMPI POP PUSH1 0x40 MLOAD PUSH2 0x1FDF PUSH1 0x40 DUP3 PUSH2 0x1AE6 JUMP JUMPDEST PUSH1 0x4 DUP2 MSTORE PUSH4 0x38AA25A7 PUSH1 0xE1 SHL PUSH1 0x20 DUP3 ADD MSTORE SWAP1 JUMPDEST PUSH1 0x40 MLOAD PUSH4 0x313CE567 PUSH1 0xE0 SHL DUP2 MSTORE PUSH1 0x12 SWAP1 PUSH1 0x20 DUP2 PUSH1 0x4 DUP2 DUP9 GAS STATICCALL DUP1 SWAP2 PUSH1 0x0 SWAP2 PUSH2 0x20DB JUMPI JUMPDEST POP SWAP1 PUSH2 0x20D3 JUMPI JUMPDEST POP PUSH1 0x40 MLOAD SWAP3 PUSH2 0xB2F SWAP1 DUP2 DUP6 ADD SWAP2 DUP6 DUP4 LT PUSH8 0xFFFFFFFFFFFFFFFF DUP5 GT OR PUSH2 0x1B08 JUMPI PUSH2 0x206B PUSH1 0x60 SWAP3 PUSH2 0x205D DUP9 SWAP8 PUSH1 0xFF SWAP5 PUSH2 0x232C DUP11 CODECOPY PUSH1 0x80 DUP8 MSTORE PUSH1 0x80 DUP8 ADD SWAP1 PUSH2 0x1F1D JUMP JUMPDEST SWAP1 DUP6 DUP3 SUB PUSH1 0x20 DUP8 ADD MSTORE PUSH2 0x1F1D JUMP JUMPDEST SWAP4 ADDRESS PUSH1 0x40 DUP6 ADD MSTORE AND SWAP2 ADD MSTORE SUB SWAP1 PUSH1 0x0 CREATE DUP1 ISZERO PUSH2 0x1D58 JUMPI PUSH1 0x1 DUP1 PUSH1 0xA0 SHL SUB AND DUP2 DUP2 SWAP3 PUSH1 0x0 MSTORE PUSH1 0x4 PUSH1 0x20 MSTORE PUSH1 0x40 PUSH1 0x0 KECCAK256 DUP3 PUSH1 0x1 PUSH1 0x1 PUSH1 0x60 SHL SUB PUSH1 0xA0 SHL DUP3 SLOAD AND OR SWAP1 SSTORE PUSH32 0xA9B482826B98AF85A8A9E7E42EF14980212BEA648C0F68DFB0FA437BA2E21C4E PUSH1 0x0 DUP1 LOG3 SWAP1 JUMP JUMPDEST SWAP1 POP CODESIZE PUSH2 0x201C JUMP JUMPDEST PUSH1 0x20 DUP2 RETURNDATASIZE PUSH1 0x20 GT PUSH2 0x210F JUMPI JUMPDEST DUP2 PUSH2 0x20F4 PUSH1 0x20 SWAP4 DUP4 PUSH2 0x1AE6 JUMP JUMPDEST DUP2 ADD SUB SLT PUSH2 0x35A JUMPI MLOAD SWAP1 PUSH1 0xFF DUP3 AND DUP3 SUB PUSH2 0x15A JUMPI POP CODESIZE PUSH2 0x2015 JUMP JUMPDEST RETURNDATASIZE SWAP2 POP PUSH2 0x20E7 JUMP JUMPDEST PUSH2 0x214F PUSH1 0x21 PUSH1 0x40 MLOAD DUP1 SWAP4 PUSH1 0x71 PUSH1 0xF8 SHL PUSH1 0x20 DUP4 ADD MSTORE PUSH2 0x213E DUP2 MLOAD DUP1 SWAP3 PUSH1 0x20 DUP7 DUP7 ADD SWAP2 ADD PUSH2 0x1E98 JUMP JUMPDEST DUP2 ADD SUB ADD PUSH1 0x1F NOT DUP2 ADD DUP4 MSTORE DUP3 PUSH2 0x1AE6 JUMP JUMPDEST SWAP1 PUSH2 0x1FF2 JUMP JUMPDEST PUSH2 0x2173 SWAP2 SWAP3 POP RETURNDATASIZE DUP1 PUSH1 0x0 DUP4 RETURNDATACOPY PUSH2 0x216B DUP2 DUP4 PUSH2 0x1AE6 JUMP JUMPDEST DUP2 ADD SWAP1 PUSH2 0x1EBB JUMP JUMPDEST SWAP1 CODESIZE PUSH2 0x1FCB JUMP JUMPDEST PUSH2 0x21A1 PUSH1 0x21 PUSH1 0x40 MLOAD DUP1 SWAP4 PUSH1 0x71 PUSH1 0xF8 SHL PUSH1 0x20 DUP4 ADD MSTORE PUSH2 0x213E DUP2 MLOAD DUP1 SWAP3 PUSH1 0x20 DUP7 DUP7 ADD SWAP2 ADD PUSH2 0x1E98 JUMP JUMPDEST PUSH2 0x1FAC JUMP JUMPDEST PUSH2 0x21BB SWAP3 SWAP4 POP RETURNDATASIZE DUP1 SWAP2 DUP4 RETURNDATACOPY PUSH2 0x216B DUP2 DUP4 PUSH2 0x1AE6 JUMP JUMPDEST SWAP1 CODESIZE DUP1 PUSH2 0x1F83 JUMP JUMPDEST PUSH1 0x0 SWAP1 DUP2 MSTORE PUSH1 0x4 PUSH1 0x20 MSTORE PUSH1 0x40 SWAP1 KECCAK256 SLOAD PUSH1 0x1 PUSH1 0x1 PUSH1 0xA0 SHL SUB AND SWAP1 JUMP JUMPDEST DUP2 MLOAD SWAP2 SWAP1 PUSH1 0x41 DUP4 SUB PUSH2 0x220F JUMPI PUSH2 0x2208 SWAP3 POP PUSH1 0x20 DUP3 ADD MLOAD SWAP1 PUSH1 0x60 PUSH1 0x40 DUP5 ADD MLOAD SWAP4 ADD MLOAD PUSH1 0x0 BYTE SWAP1 PUSH2 0x22A2 JUMP JUMPDEST SWAP2 SWAP3 SWAP1 SWAP2 SWAP1 JUMP JUMPDEST POP POP PUSH1 0x0 SWAP2 PUSH1 0x2 SWAP2 SWAP1 JUMP JUMPDEST SWAP2 SWAP1 SWAP2 PUSH1 0x4 DUP2 LT ISZERO PUSH2 0x228C JUMPI DUP1 PUSH2 0x2230 JUMPI POP SWAP1 POP JUMP JUMPDEST PUSH1 0x0 PUSH1 0x1 DUP3 SUB PUSH2 0x224B JUMPI PUSH4 0xF645EEDF PUSH1 0xE0 SHL PUSH1 0x0 MSTORE PUSH1 0x4 PUSH1 0x0 REVERT JUMPDEST POP PUSH1 0x2 DUP2 SUB PUSH2 0x2269 JUMPI DUP3 PUSH4 0xFCE698F7 PUSH1 0xE0 SHL PUSH1 0x0 MSTORE PUSH1 0x4 MSTORE PUSH1 0x24 PUSH1 0x0 REVERT JUMPDEST SWAP1 SWAP2 PUSH1 0x3 PUSH1 0x0 SWAP3 EQ PUSH2 0x2279 JUMPI POP POP JUMP JUMPDEST PUSH4 0x35E2F383 PUSH1 0xE2 SHL DUP3 MSTORE PUSH1 0x4 MSTORE PUSH1 0x24 SWAP2 POP REVERT JUMPDEST PUSH4 0x4E487B71 PUSH1 0xE0 SHL PUSH1 0x0 MSTORE PUSH1 0x21 PUSH1 0x4 MSTORE PUSH1 0x24 PUSH1 0x0 REVERT JUMPDEST SWAP2 SWAP1 PUSH32 0x7FFFFFFFFFFFFFFFFFFFFFFFFFFFFFFF5D576E7357A4501DDFE92F46681B20A0 DUP5 GT PUSH2 0x231F JUMPI SWAP2 PUSH1 0x20 SWAP4 PUSH1 0x80 SWAP3 PUSH1 0xFF PUSH1 0x0 SWAP6 PUSH1 0x40 MLOAD SWAP5 DUP6 MSTORE AND DUP7 DUP5 ADD MSTORE PUSH1 0x40 DUP4 ADD MSTORE PUSH1 0x60 DUP3 ADD MSTORE DUP3 DUP1 MSTORE PUSH1 0x1 GAS STATICCALL ISZERO PUSH2 0x1D58 JUMPI PUSH1 0x0 MLOAD PUSH1 0x1 PUSH1 0x1 PUSH1 0xA0 SHL SUB DUP2 AND ISZERO PUSH2 0x2313 JUMPI SWAP1 PUSH1 0x0 SWAP1 PUSH1 0x0 SWAP1 JUMP JUMPDEST POP PUSH1 0x0 SWAP1 PUSH1 0x1 SWAP1 PUSH1 0x0 SWAP1 JUMP JUMPDEST POP POP POP PUSH1 0x0 SWAP2 PUSH1 0x3 SWAP2 SWAP1 JUMP INVALID PUSH1 0x80 PUSH1 0x40 MSTORE CALLVALUE PUSH2 0x38A JUMPI PUSH2 0xB2F DUP1 CODESIZE SUB DUP1 PUSH2 0x19 DUP2 PUSH2 0x38F JUMP JUMPDEST SWAP3 DUP4 CODECOPY DUP2 ADD SWAP1 PUSH1 0x80 DUP2 DUP4 SUB SLT PUSH2 0x38A JUMPI DUP1 MLOAD PUSH1 0x1 PUSH1 0x1 PUSH1 0x40 SHL SUB DUP2 GT PUSH2 0x38A JUMPI DUP3 PUSH2 0x45 SWAP2 DUP4 ADD PUSH2 0x3B4 JUMP JUMPDEST PUSH1 0x20 DUP3 ADD MLOAD SWAP1 SWAP3 PUSH1 0x1 PUSH1 0x1 PUSH1 0x40 SHL SUB DUP3 GT PUSH2 0x38A JUMPI PUSH2 0x65 SWAP2 DUP4 ADD PUSH2 0x3B4 JUMP JUMPDEST PUSH1 0x40 DUP3 ADD MLOAD SWAP1 SWAP2 PUSH1 0x1 PUSH1 0x1 PUSH1 0xA0 SHL SUB DUP3 AND SWAP2 DUP3 SWAP1 SUB PUSH2 0x38A JUMPI PUSH1 0x60 ADD MLOAD SWAP1 PUSH1 0xFF DUP3 AND DUP3 SUB PUSH2 0x38A JUMPI DUP4 MLOAD PUSH1 0x1 PUSH1 0x1 PUSH1 0x40 SHL SUB DUP2 GT PUSH2 0x286 JUMPI PUSH1 0x3 SLOAD PUSH1 0x1 DUP2 DUP2 SHR SWAP2 AND DUP1 ISZERO PUSH2 0x380 JUMPI JUMPDEST PUSH1 0x20 DUP3 LT EQ PUSH2 0x266 JUMPI PUSH1 0x1F DUP2 GT PUSH2 0x30E JUMPI JUMPDEST POP PUSH1 0x20 SWAP5 PUSH1 0x1F DUP3 GT PUSH1 0x1 EQ PUSH2 0x2A7 JUMPI SWAP5 DUP2 SWAP3 SWAP4 SWAP5 SWAP6 PUSH1 0x0 SWAP3 PUSH2 0x29C JUMPI JUMPDEST POP POP DUP2 PUSH1 0x1 SHL SWAP2 PUSH1 0x0 NOT SWAP1 PUSH1 0x3 SHL SHR NOT AND OR PUSH1 0x3 SSTORE JUMPDEST DUP3 MLOAD PUSH1 0x1 PUSH1 0x1 PUSH1 0x40 SHL SUB DUP2 GT PUSH2 0x286 JUMPI PUSH1 0x4 SLOAD PUSH1 0x1 DUP2 DUP2 SHR SWAP2 AND DUP1 ISZERO PUSH2 0x27C JUMPI JUMPDEST PUSH1 0x20 DUP3 LT EQ PUSH2 0x266 JUMPI PUSH1 0x1F DUP2 GT PUSH2 0x1F4 JUMPI JUMPDEST POP PUSH1 0x20 PUSH1 0x1F DUP3 GT PUSH1 0x1 EQ PUSH2 0x18D JUMPI DUP2 SWAP3 SWAP4 SWAP5 PUSH1 0x0 SWAP3 PUSH2 0x182 JUMPI JUMPDEST POP POP DUP2 PUSH1 0x1 SHL SWAP2 PUSH1 0x0 NOT SWAP1 PUSH1 0x3 SHL SHR NOT AND OR PUSH1 0x4 SSTORE JUMPDEST PUSH1 0x5 SLOAD SWAP2 PUSH1 0xFF PUSH1 0xA0 SHL SWAP1 PUSH1 0xA0 SHL AND SWAP2 PUSH1 0x1 DUP1 PUSH1 0xA8 SHL SUB NOT AND OR OR PUSH1 0x5 SSTORE PUSH1 0x40 MLOAD PUSH2 0x70F SWAP1 DUP2 PUSH2 0x420 DUP3 CODECOPY RETURN JUMPDEST ADD MLOAD SWAP1 POP CODESIZE DUP1 PUSH2 0x140 JUMP JUMPDEST PUSH1 0x1F NOT DUP3 AND SWAP1 PUSH1 0x4 PUSH1 0x0 MSTORE DUP1 PUSH1 0x0 KECCAK256 SWAP2 PUSH1 0x0 JUMPDEST DUP2 DUP2 LT PUSH2 0x1DC JUMPI POP SWAP6 DUP4 PUSH1 0x1 SWAP6 SWAP7 SWAP8 LT PUSH2 0x1C3 JUMPI JUMPDEST POP POP POP DUP2 SHL ADD PUSH1 0x4 SSTORE PUSH2 0x156 JUMP JUMPDEST ADD MLOAD PUSH1 0x0 NOT PUSH1 0xF8 DUP5 PUSH1 0x3 SHL AND SHR NOT AND SWAP1 SSTORE CODESIZE DUP1 DUP1 PUSH2 0x1B5 JUMP JUMPDEST SWAP2 SWAP3 PUSH1 0x20 PUSH1 0x1 DUP2 SWAP3 DUP7 DUP12 ADD MLOAD DUP2 SSTORE ADD SWAP5 ADD SWAP3 ADD PUSH2 0x1A0 JUMP JUMPDEST DUP2 DUP2 GT ISZERO PUSH2 0x126 JUMPI PUSH1 0x4 PUSH1 0x0 MSTORE PUSH1 0x1F DUP3 ADD PUSH1 0x5 SHR PUSH32 0x8A35ACFBC15FF81A39AE7D344FD709F28E8600B4AA8C65C6B64BFE7FE36BD19B PUSH1 0x20 DUP5 LT PUSH2 0x25D JUMPI JUMPDEST DUP2 PUSH1 0x1F SWAP2 ADD SWAP3 ADD PUSH1 0x5 SHR SUB SWAP1 PUSH1 0x0 JUMPDEST DUP3 DUP2 LT PUSH2 0x24F JUMPI POP POP PUSH2 0x126 JUMP JUMPDEST PUSH1 0x0 DUP3 DUP3 ADD SSTORE PUSH1 0x1 ADD PUSH2 0x241 JUMP JUMPDEST PUSH1 0x0 SWAP2 POP PUSH2 0x232 JUMP JUMPDEST PUSH4 0x4E487B71 PUSH1 0xE0 SHL PUSH1 0x0 MSTORE PUSH1 0x22 PUSH1 0x4 MSTORE PUSH1 0x24 PUSH1 0x0 REVERT JUMPDEST SWAP1 PUSH1 0x7F AND SWAP1 PUSH2 0x114 JUMP JUMPDEST PUSH4 0x4E487B71 PUSH1 0xE0 SHL PUSH1 0x0 MSTORE PUSH1 0x41 PUSH1 0x4 MSTORE PUSH1 0x24 PUSH1 0x0 REVERT JUMPDEST ADD MLOAD SWAP1 POP CODESIZE DUP1 PUSH2 0xDD JUMP JUMPDEST PUSH1 0x1F NOT DUP3 AND SWAP6 PUSH1 0x3 PUSH1 0x0 MSTORE DUP1 PUSH1 0x0 KECCAK256 SWAP2 PUSH1 0x0 JUMPDEST DUP9 DUP2 LT PUSH2 0x2F6 JUMPI POP DUP4 PUSH1 0x1 SWAP6 SWAP7 SWAP8 SWAP9 LT PUSH2 0x2DD JUMPI JUMPDEST POP POP POP DUP2 SHL ADD PUSH1 0x3 SSTORE PUSH2 0xF3 JUMP JUMPDEST ADD MLOAD PUSH1 0x0 NOT PUSH1 0xF8 DUP5 PUSH1 0x3 SHL AND SHR NOT AND SWAP1 SSTORE CODESIZE DUP1 DUP1 PUSH2 0x2CF JUMP JUMPDEST SWAP2 SWAP3 PUSH1 0x20 PUSH1 0x1 DUP2 SWAP3 DUP7 DUP6 ADD MLOAD DUP2 SSTORE ADD SWAP5 ADD SWAP3 ADD PUSH2 0x2BA JUMP JUMPDEST DUP2 DUP2 GT ISZERO PUSH2 0xC0 JUMPI PUSH1 0x3 PUSH1 0x0 MSTORE PUSH1 0x1F DUP3 ADD PUSH1 0x5 SHR PUSH32 0xC2575A0E9E593C00F959F8C92F12DB2869C3395A3B0502D05E2516446F71F85B PUSH1 0x20 DUP5 LT PUSH2 0x377 JUMPI JUMPDEST DUP2 PUSH1 0x1F SWAP2 ADD SWAP3 ADD PUSH1 0x5 SHR SUB SWAP1 PUSH1 0x0 JUMPDEST DUP3 DUP2 LT PUSH2 0x369 JUMPI POP POP PUSH2 0xC0 JUMP JUMPDEST PUSH1 0x0 DUP3 DUP3 ADD SSTORE PUSH1 0x1 ADD PUSH2 0x35B JUMP JUMPDEST PUSH1 0x0 SWAP2 POP PUSH2 0x34C JUMP JUMPDEST SWAP1 PUSH1 0x7F AND SWAP1 PUSH2 0xAE JUMP JUMPDEST PUSH1 0x0 DUP1 REVERT JUMPDEST PUSH1 0x40 MLOAD SWAP2 SWAP1 PUSH1 0x1F ADD PUSH1 0x1F NOT AND DUP3 ADD PUSH1 0x1 PUSH1 0x1 PUSH1 0x40 SHL SUB DUP2 GT DUP4 DUP3 LT OR PUSH2 0x286 JUMPI PUSH1 0x40 MSTORE JUMP JUMPDEST DUP2 PUSH1 0x1F DUP3 ADD SLT ISZERO PUSH2 0x38A JUMPI DUP1 MLOAD SWAP1 PUSH1 0x1 PUSH1 0x1 PUSH1 0x40 SHL SUB DUP3 GT PUSH2 0x286 JUMPI PUSH2 0x3E3 PUSH1 0x1F DUP4 ADD PUSH1 0x1F NOT AND PUSH1 0x20 ADD PUSH2 0x38F JUMP JUMPDEST SWAP3 DUP3 DUP5 MSTORE PUSH1 0x20 DUP4 DUP4 ADD ADD GT PUSH2 0x38A JUMPI PUSH1 0x0 JUMPDEST DUP3 DUP2 LT PUSH2 0x40A JUMPI POP POP PUSH1 0x20 PUSH1 0x0 SWAP2 DUP4 ADD ADD MSTORE SWAP1 JUMP JUMPDEST DUP1 PUSH1 0x20 DUP1 SWAP3 DUP5 ADD ADD MLOAD DUP3 DUP3 DUP8 ADD ADD MSTORE ADD PUSH2 0x3F5 JUMP INVALID PUSH1 0x80 DUP1 PUSH1 0x40 MSTORE PUSH1 0x4 CALLDATASIZE LT ISZERO PUSH2 0x13 JUMPI PUSH1 0x0 DUP1 REVERT JUMPDEST PUSH1 0x0 CALLDATALOAD PUSH1 0xE0 SHR SWAP1 DUP2 PUSH4 0x6FDDE03 EQ PUSH2 0x4EC JUMPI POP DUP1 PUSH4 0x95EA7B3 EQ PUSH2 0x48D JUMPI DUP1 PUSH4 0x18160DDD EQ PUSH2 0x46F JUMPI DUP1 PUSH4 0x23B872DD EQ PUSH2 0x44D JUMPI DUP1 PUSH4 0x313CE567 EQ PUSH2 0x429 JUMPI DUP1 PUSH4 0x40C10F19 EQ PUSH2 0x368 JUMPI DUP1 PUSH4 0x70A08231 EQ PUSH2 0x32E JUMPI DUP1 PUSH4 0x95D89B41 EQ PUSH2 0x20D JUMPI DUP1 PUSH4 0x9DC29FAC EQ PUSH2 0x141 JUMPI DUP1 PUSH4 0xA9059CBB EQ PUSH2 0x122 JUMPI DUP1 PUSH4 0xDD62ED3E EQ PUSH2 0xD1 JUMPI PUSH4 0xFBFA77CF EQ PUSH2 0xA3 JUMPI PUSH1 0x0 DUP1 REVERT JUMPDEST CALLVALUE PUSH2 0xCC JUMPI PUSH1 0x0 CALLDATASIZE PUSH1 0x3 NOT ADD SLT PUSH2 0xCC JUMPI PUSH1 0x5 SLOAD PUSH1 0x40 MLOAD PUSH1 0x1 PUSH1 0x1 PUSH1 0xA0 SHL SUB SWAP1 SWAP2 AND DUP2 MSTORE PUSH1 0x20 SWAP1 RETURN JUMPDEST PUSH1 0x0 DUP1 REVERT JUMPDEST CALLVALUE PUSH2 0xCC JUMPI PUSH1 0x40 CALLDATASIZE PUSH1 0x3 NOT ADD SLT PUSH2 0xCC JUMPI PUSH2 0xEA PUSH2 0x608 JUMP JUMPDEST PUSH2 0xF2 PUSH2 0x61E JUMP JUMPDEST PUSH1 0x1 PUSH1 0x1 PUSH1 0xA0 SHL SUB SWAP2 DUP3 AND PUSH1 0x0 SWAP1 DUP2 MSTORE PUSH1 0x1 PUSH1 0x20 SWAP1 DUP2 MSTORE PUSH1 0x40 DUP1 DUP4 KECCAK256 SWAP5 SWAP1 SWAP4 AND DUP3 MSTORE SWAP3 DUP4 MSTORE DUP2 SWAP1 KECCAK256 SLOAD SWAP1 MLOAD SWAP1 DUP2 MSTORE RETURN JUMPDEST CALLVALUE PUSH2 0xCC JUMPI PUSH1 0x40 CALLDATASIZE PUSH1 0x3 NOT ADD SLT PUSH2 0xCC JUMPI PUSH2 0x13B PUSH2 0x608 JUMP JUMPDEST POP PUSH2 0x634 JUMP JUMPDEST CALLVALUE PUSH2 0xCC JUMPI PUSH1 0x40 CALLDATASIZE PUSH1 0x3 NOT ADD SLT PUSH2 0xCC JUMPI PUSH2 0x15A PUSH2 0x608 JUMP JUMPDEST PUSH1 0x24 CALLDATALOAD SWAP1 PUSH2 0x173 PUSH1 0x1 DUP1 PUSH1 0xA0 SHL SUB PUSH1 0x5 SLOAD AND CALLER EQ PUSH2 0x68D JUMP JUMPDEST PUSH1 0x1 PUSH1 0x1 PUSH1 0xA0 SHL SUB AND SWAP1 DUP2 ISZERO PUSH2 0x1F7 JUMPI PUSH1 0x0 SWAP1 DUP3 DUP3 MSTORE DUP2 PUSH1 0x20 MSTORE PUSH1 0x40 DUP3 KECCAK256 SLOAD DUP2 DUP2 LT PUSH2 0x1DF JUMPI PUSH1 0x20 DUP3 DUP6 SWAP4 PUSH32 0xDDF252AD1BE2C89B69C2B068FC378DAA952BA7F163C4A11628F55A4DF523B3EF SWAP4 DUP7 SWAP8 DUP8 MSTORE DUP7 DUP5 MSTORE SUB PUSH1 0x40 DUP7 KECCAK256 SSTORE DUP1 PUSH1 0x2 SLOAD SUB PUSH1 0x2 SSTORE PUSH1 0x40 MLOAD SWAP1 DUP2 MSTORE LOG3 DUP1 RETURN JUMPDEST PUSH1 0x64 SWAP4 PUSH4 0x391434E3 PUSH1 0xE2 SHL DUP5 MSTORE PUSH1 0x4 MSTORE PUSH1 0x24 MSTORE PUSH1 0x44 MSTORE REVERT JUMPDEST PUSH4 0x4B637E8F PUSH1 0xE1 SHL PUSH1 0x0 MSTORE PUSH1 0x0 PUSH1 0x4 MSTORE PUSH1 0x24 PUSH1 0x0 REVERT JUMPDEST CALLVALUE PUSH2 0xCC JUMPI PUSH1 0x0 CALLDATASIZE PUSH1 0x3 NOT ADD SLT PUSH2 0xCC JUMPI PUSH1 0x40 MLOAD PUSH1 0x0 PUSH1 0x4 SLOAD DUP1 PUSH1 0x1 SHR SWAP1 PUSH1 0x1 DUP2 AND DUP1 ISZERO PUSH2 0x324 JUMPI JUMPDEST PUSH1 0x20 DUP4 LT DUP2 EQ PUSH2 0x310 JUMPI DUP3 DUP6 MSTORE SWAP1 DUP2 ISZERO PUSH2 0x2F4 JUMPI POP PUSH1 0x1 EQ PUSH2 0x29D JUMPI JUMPDEST POP DUP2 SWAP1 SUB PUSH1 0x1F ADD PUSH1 0x1F NOT AND DUP2 ADD SWAP1 PUSH8 0xFFFFFFFFFFFFFFFF DUP3 GT DUP2 DUP4 LT OR PUSH2 0x287 JUMPI PUSH2 0x283 DUP3 SWAP2 DUP3 PUSH1 0x40 MSTORE DUP3 PUSH2 0x5BF JUMP JUMPDEST SUB SWAP1 RETURN JUMPDEST PUSH4 0x4E487B71 PUSH1 0xE0 SHL PUSH1 0x0 MSTORE PUSH1 0x41 PUSH1 0x4 MSTORE PUSH1 0x24 PUSH1 0x0 REVERT JUMPDEST SWAP1 POP PUSH1 0x4 PUSH1 0x0 MSTORE PUSH32 0x8A35ACFBC15FF81A39AE7D344FD709F28E8600B4AA8C65C6B64BFE7FE36BD19B PUSH1 0x0 SWAP1 JUMPDEST DUP3 DUP3 LT PUSH2 0x2DE JUMPI POP PUSH1 0x20 SWAP2 POP DUP3 ADD ADD DUP3 PUSH2 0x253 JUMP JUMPDEST PUSH1 0x1 DUP2 PUSH1 0x20 SWAP3 SLOAD DUP4 DUP6 DUP9 ADD ADD MSTORE ADD SWAP2 ADD SWAP1 PUSH2 0x2C9 JUMP JUMPDEST SWAP1 POP PUSH1 0x20 SWAP3 POP PUSH1 0xFF NOT AND DUP3 DUP5 ADD MSTORE ISZERO ISZERO PUSH1 0x5 SHL DUP3 ADD ADD DUP3 PUSH2 0x253 JUMP JUMPDEST PUSH4 0x4E487B71 PUSH1 0xE0 SHL DUP5 MSTORE PUSH1 0x22 PUSH1 0x4 MSTORE PUSH1 0x24 DUP5 REVERT JUMPDEST SWAP2 PUSH1 0x7F AND SWAP2 PUSH2 0x236 JUMP JUMPDEST CALLVALUE PUSH2 0xCC JUMPI PUSH1 0x20 CALLDATASIZE PUSH1 0x3 NOT ADD SLT PUSH2 0xCC JUMPI PUSH1 0x1 PUSH1 0x1 PUSH1 0xA0 SHL SUB PUSH2 0x34F PUSH2 0x608 JUMP JUMPDEST AND PUSH1 0x0 MSTORE PUSH1 0x0 PUSH1 0x20 MSTORE PUSH1 0x20 PUSH1 0x40 PUSH1 0x0 KECCAK256 SLOAD PUSH1 0x40 MLOAD SWAP1 DUP2 MSTORE RETURN JUMPDEST CALLVALUE PUSH2 0xCC JUMPI PUSH1 0x40 CALLDATASIZE PUSH1 0x3 NOT ADD SLT PUSH2 0xCC JUMPI PUSH2 0x381 PUSH2 0x608 JUMP JUMPDEST PUSH1 0x24 CALLDATALOAD SWAP1 PUSH2 0x39A PUSH1 0x1 DUP1 PUSH1 0xA0 SHL SUB PUSH1 0x5 SLOAD AND CALLER EQ PUSH2 0x68D JUMP JUMPDEST PUSH1 0x1 PUSH1 0x1 PUSH1 0xA0 SHL SUB AND DUP1 ISZERO PUSH2 0x413 JUMPI PUSH1 0x2 SLOAD SWAP2 DUP1 DUP4 ADD DUP1 SWAP4 GT PUSH2 0x3FD JUMPI PUSH1 0x20 SWAP3 PUSH1 0x2 SSTORE PUSH32 0xDDF252AD1BE2C89B69C2B068FC378DAA952BA7F163C4A11628F55A4DF523B3EF PUSH1 0x0 SWAP4 DUP5 SWAP3 DUP5 DUP5 MSTORE DUP4 DUP3 MSTORE PUSH1 0x40 DUP5 KECCAK256 DUP2 DUP2 SLOAD ADD SWAP1 SSTORE PUSH1 0x40 MLOAD SWAP1 DUP2 MSTORE LOG3 DUP1 RETURN JUMPDEST PUSH4 0x4E487B71 PUSH1 0xE0 SHL PUSH1 0x0 MSTORE PUSH1 0x11 PUSH1 0x4 MSTORE PUSH1 0x24 PUSH1 0x0 REVERT JUMPDEST PUSH4 0xEC442F05 PUSH1 0xE0 SHL PUSH1 0x0 MSTORE PUSH1 0x0 PUSH1 0x4 MSTORE PUSH1 0x24 PUSH1 0x0 REVERT JUMPDEST CALLVALUE PUSH2 0xCC JUMPI PUSH1 0x0 CALLDATASIZE PUSH1 0x3 NOT ADD SLT PUSH2 0xCC JUMPI PUSH1 0x20 PUSH1 0xFF PUSH1 0x5 SLOAD PUSH1 0xA0 SHR AND PUSH1 0x40 MLOAD SWAP1 DUP2 MSTORE RETURN JUMPDEST CALLVALUE PUSH2 0xCC JUMPI PUSH1 0x60 CALLDATASIZE PUSH1 0x3 NOT ADD SLT PUSH2 0xCC JUMPI PUSH2 0x466 PUSH2 0x608 JUMP JUMPDEST POP PUSH2 0x13B PUSH2 0x61E JUMP JUMPDEST CALLVALUE PUSH2 0xCC JUMPI PUSH1 0x0 CALLDATASIZE PUSH1 0x3 NOT ADD SLT PUSH2 0xCC JUMPI PUSH1 0x20 PUSH1 0x2 SLOAD PUSH1 0x40 MLOAD SWAP1 DUP2 MSTORE RETURN JUMPDEST CALLVALUE PUSH2 0xCC JUMPI PUSH1 0x40 CALLDATASIZE PUSH1 0x3 NOT ADD SLT PUSH2 0xCC JUMPI PUSH2 0x4A6 PUSH2 0x608 JUMP JUMPDEST POP PUSH1 0x40 MLOAD PUSH3 0x461BCD PUSH1 0xE5 SHL DUP2 MSTORE PUSH1 0x20 PUSH1 0x4 DUP3 ADD MSTORE PUSH1 0x1A PUSH1 0x24 DUP3 ADD MSTORE PUSH32 0x71546F6B656E3A20617070726F76616C732064697361626C6564000000000000 PUSH1 0x44 DUP3 ADD MSTORE PUSH1 0x64 SWAP1 REVERT JUMPDEST CALLVALUE PUSH2 0xCC JUMPI PUSH1 0x0 CALLDATASIZE PUSH1 0x3 NOT ADD SLT PUSH2 0xCC JUMPI PUSH1 0x0 PUSH1 0x3 SLOAD DUP1 PUSH1 0x1 SHR SWAP1 PUSH1 0x1 DUP2 AND DUP1 ISZERO PUSH2 0x5B5 JUMPI JUMPDEST PUSH1 0x20 DUP4 LT DUP2 EQ PUSH2 0x310 JUMPI DUP3 DUP6 MSTORE SWAP1 DUP2 ISZERO PUSH2 0x2F4 JUMPI POP PUSH1 0x1 EQ PUSH2 0x55E JUMPI POP DUP2 SWAP1 SUB PUSH1 0x1F ADD PUSH1 0x1F NOT AND DUP2 ADD SWAP1 PUSH8 0xFFFFFFFFFFFFFFFF DUP3 GT DUP2 DUP4 LT OR PUSH2 0x287 JUMPI PUSH2 0x283 DUP3 SWAP2 DUP3 PUSH1 0x40 MSTORE DUP3 PUSH2 0x5BF JUMP JUMPDEST SWAP1 POP PUSH1 0x3 PUSH1 0x0 MSTORE PUSH32 0xC2575A0E9E593C00F959F8C92F12DB2869C3395A3B0502D05E2516446F71F85B PUSH1 0x0 SWAP1 JUMPDEST DUP3 DUP3 LT PUSH2 0x59F JUMPI POP PUSH1 0x20 SWAP2 POP DUP3 ADD ADD DUP3 PUSH2 0x253 JUMP JUMPDEST PUSH1 0x1 DUP2 PUSH1 0x20 SWAP3 SLOAD DUP4 DUP6 DUP9 ADD ADD MSTORE ADD SWAP2 ADD SWAP1 PUSH2 0x58A JUMP JUMPDEST SWAP2 PUSH1 0x7F AND SWAP2 PUSH2 0x512 JUMP JUMPDEST SWAP2 SWAP1 SWAP2 PUSH1 0x20 DUP2 MSTORE DUP3 MLOAD DUP1 PUSH1 0x20 DUP4 ADD MSTORE PUSH1 0x0 JUMPDEST DUP2 DUP2 LT PUSH2 0x5F2 JUMPI POP PUSH1 0x40 SWAP3 SWAP4 POP PUSH1 0x0 DUP4 DUP3 DUP5 ADD ADD MSTORE PUSH1 0x1F DUP1 NOT SWAP2 ADD AND ADD ADD SWAP1 JUMP JUMPDEST DUP1 PUSH1 0x20 DUP1 SWAP3 DUP8 ADD ADD MLOAD PUSH1 0x40 DUP3 DUP7 ADD ADD MSTORE ADD PUSH2 0x5D1 JUMP JUMPDEST PUSH1 0x4 CALLDATALOAD SWAP1 PUSH1 0x1 PUSH1 0x1 PUSH1 0xA0 SHL SUB DUP3 AND DUP3 SUB PUSH2 0xCC JUMPI JUMP JUMPDEST PUSH1 0x24 CALLDATALOAD SWAP1 PUSH1 0x1 PUSH1 0x1 PUSH1 0xA0 SHL SUB DUP3 AND DUP3 SUB PUSH2 0xCC JUMPI JUMP JUMPDEST PUSH1 0x40 MLOAD PUSH3 0x461BCD PUSH1 0xE5 SHL DUP2 MSTORE PUSH1 0x20 PUSH1 0x4 DUP3 ADD MSTORE PUSH1 0x2B PUSH1 0x24 DUP3 ADD MSTORE PUSH32 0x71546F6B656E3A207472616E73666572732064697361626C65642C2075736520 PUSH1 0x44 DUP3 ADD MSTORE PUSH11 0x5172797074756D2061707 PUSH1 0xAC SHL PUSH1 0x64 DUP3 ADD MSTORE PUSH1 0x84 SWAP1 REVERT JUMPDEST ISZERO PUSH2 0x694 JUMPI JUMP JUMPDEST PUSH1 0x40 MLOAD PUSH3 0x461BCD PUSH1 0xE5 SHL DUP2 MSTORE PUSH1 0x20 PUSH1 0x4 DUP3 ADD MSTORE PUSH1 0x1B PUSH1 0x24 DUP3 ADD MSTORE PUSH32 0x4F6E6C79205152595054414E4B2063616E2063616C6C20746869730000000000 PUSH1 0x44 DUP3 ADD MSTORE PUSH1 0x64 SWAP1 REVERT INVALID LOG2 PUSH5 0x6970667358 0x22 SLT KECCAK256 DUP1 DUP8 0xC SWAP15 CLZ CALLF 0x19A1 DUP4 PREVRANDAO 0xB1 0xAE 0xC6 CALLER CODECOPY PUSH27 0x22CF1A2D0E7EE60D1D0B2B7F36B1136364736F6C63430008220033 SWAP12 PUSH24 0x9B17422D0DF92223018B32B4D1FA46E071723D6817E2486D STOP EXTCODESIZE EOFCREATE 0xC5 PUSH0 STOP LOG2 PUSH5 0x6970667358 0x22 SLT KECCAK256 PUSH0 PUSH3 0x15EE92 0xCF GAS RETURNDATACOPY PUSH7 0x58E918E51196B 0x24 SWAP1 REVERT MSTORE BALANCE PUSH22 0x85223CA1221BCCB0F1EB64736F6C6343000822003300 "},"methodIdentifiers":{"COMMIT_EXPIRY_SECONDS()":"806f3409","EMERGENCY_DELAY_BLOCKS()":"e2e8c68b","MINIMUM_SHIELD_AMOUNT()":"58370bdb","commitTransfer(bytes32)":"7bacab3f","emergencyWithdraw(address[])":"01c1dfba","fundAirBudget(address,uint256,bytes32)":"7291a0d7","getAirBudget(address)":"6cbcd7dd","getEmergencyWithdrawAvailableBlock()":"eff29f90","getQTokenAddress(address)":"ac893fa5","getShieldedBalance(address)":"c902df98","initialize(address,bytes32)":"be13f47c","initialized()":"158ef93e","lastActivityBlock()":"96dac530","owner()":"8da5cb5b","qTokens(address)":"a22b1513","rechargeChain(bytes32,bytes32)":"29585cc2","reclaimAirBudget(address,bytes32)":"639b134a","redeemAirVoucher(address,uint256,address,uint256,bytes32,bytes32,bytes)":"6f262f82","revealTransfer(address,address,uint256,bytes32,uint256)":"c004bd3c","shield(address,uint256,bytes32)":"c46c36b3","unshield(address,uint256,bytes32)":"0b54c13c","unshieldToRailgun(address,uint256,bytes32,address,bytes)":"9a23190c","usedVoucherNonces(bytes32)":"7a827eae"}}}}}