{"contracts/PersonalVault.sol":{"PersonalVault":{"abi":[{"inputs":[],"name":"ReentrancyGuardReentrantCall","type":"error"},{"inputs":[{"internalType":"address","name":"token","type":"address"}],"name":"SafeERC20FailedOperation","type":"error"},{"anonymous":false,"inputs":[{"indexed":true,"internalType":"bytes32","name":"commitHash","type":"bytes32"}],"name":"CommitSubmitted","type":"event"},{"anonymous":false,"inputs":[{"indexed":true,"internalType":"address","name":"token","type":"address"},{"indexed":false,"internalType":"uint256","name":"amount","type":"uint256"}],"name":"EmergencyWithdraw","type":"event"},{"anonymous":false,"inputs":[{"indexed":true,"internalType":"address","name":"token","type":"address"},{"indexed":true,"internalType":"address","name":"qToken","type":"address"}],"name":"QTokenDeployed","type":"event"},{"anonymous":false,"inputs":[{"indexed":true,"internalType":"address","name":"token","type":"address"},{"indexed":false,"internalType":"uint256","name":"amount","type":"uint256"},{"indexed":true,"internalType":"address","name":"qToken","type":"address"}],"name":"TokenShielded","type":"event"},{"anonymous":false,"inputs":[{"indexed":true,"internalType":"address","name":"token","type":"address"},{"indexed":false,"internalType":"uint256","name":"amount","type":"uint256"}],"name":"TokenUnshielded","type":"event"},{"anonymous":false,"inputs":[{"indexed":true,"internalType":"address","name":"token","type":"address"},{"indexed":true,"internalType":"address","name":"to","type":"address"},{"indexed":false,"internalType":"uint256","name":"amount","type":"uint256"}],"name":"TransferExecuted","type":"event"},{"anonymous":false,"inputs":[],"name":"VaultProofChanged","type":"event"},{"inputs":[],"name":"COMMIT_EXPIRY_SECONDS","outputs":[{"internalType":"uint256","name":"","type":"uint256"}],"stateMutability":"view","type":"function"},{"inputs":[],"name":"EMERGENCY_DELAY_BLOCKS","outputs":[{"internalType":"uint256","name":"","type":"uint256"}],"stateMutability":"view","type":"function"},{"inputs":[],"name":"MINIMUM_SHIELD_AMOUNT","outputs":[{"internalType":"uint256","name":"","type":"uint256"}],"stateMutability":"view","type":"function"},{"inputs":[{"internalType":"string","name":"oldPassword","type":"string"},{"internalType":"string","name":"newPassword","type":"string"}],"name":"changeVaultProof","outputs":[],"stateMutability":"nonpayable","type":"function"},{"inputs":[{"internalType":"bytes32","name":"commitHash","type":"bytes32"}],"name":"commitTransfer","outputs":[],"stateMutability":"nonpayable","type":"function"},{"inputs":[{"internalType":"address[]","name":"tokenAddresses","type":"address[]"}],"name":"emergencyWithdraw","outputs":[],"stateMutability":"nonpayable","type":"function"},{"inputs":[],"name":"getEmergencyWithdrawAvailableBlock","outputs":[{"internalType":"uint256","name":"","type":"uint256"}],"stateMutability":"view","type":"function"},{"inputs":[{"internalType":"address","name":"tokenAddress","type":"address"}],"name":"getQTokenAddress","outputs":[{"internalType":"address","name":"","type":"address"}],"stateMutability":"view","type":"function"},{"inputs":[{"internalType":"address","name":"tokenAddress","type":"address"}],"name":"getShieldedBalance","outputs":[{"internalType":"uint256","name":"","type":"uint256"}],"stateMutability":"view","type":"function"},{"inputs":[{"internalType":"address","name":"_owner","type":"address"},{"internalType":"bytes32","name":"_passwordHash","type":"bytes32"}],"name":"initialize","outputs":[],"stateMutability":"nonpayable","type":"function"},{"inputs":[],"name":"initialized","outputs":[{"internalType":"bool","name":"","type":"bool"}],"stateMutability":"view","type":"function"},{"inputs":[],"name":"lastActivityBlock","outputs":[{"internalType":"uint256","name":"","type":"uint256"}],"stateMutability":"view","type":"function"},{"inputs":[],"name":"owner","outputs":[{"internalType":"address","name":"","type":"address"}],"stateMutability":"view","type":"function"},{"inputs":[{"internalType":"address","name":"","type":"address"}],"name":"qTokens","outputs":[{"internalType":"address","name":"","type":"address"}],"stateMutability":"view","type":"function"},{"inputs":[{"internalType":"address","name":"tokenAddress","type":"address"},{"internalType":"address","name":"to","type":"address"},{"internalType":"uint256","name":"amount","type":"uint256"},{"internalType":"string","name":"password","type":"string"},{"internalType":"uint256","name":"nonce","type":"uint256"}],"name":"revealTransfer","outputs":[],"stateMutability":"nonpayable","type":"function"},{"inputs":[{"internalType":"address","name":"tokenAddress","type":"address"},{"internalType":"uint256","name":"amount","type":"uint256"},{"internalType":"string","name":"password","type":"string"}],"name":"shield","outputs":[],"stateMutability":"nonpayable","type":"function"},{"inputs":[{"internalType":"address","name":"tokenAddress","type":"address"},{"internalType":"uint256","name":"amount","type":"uint256"},{"internalType":"string","name":"password","type":"string"}],"name":"unshield","outputs":[],"stateMutability":"nonpayable","type":"function"}],"evm":{"bytecode":{"linkReferences":{},"object":"6080806040523460395760017f9b779b17422d0df92223018b32b4d1fa46e071723d6817e2486d003becc55f00556123b9908161003f8239f35b600080fdfe6080604052600436101561001257600080fd5b6000803560e01c806301c1dfba14610dcf5780631331e70114610b37578063158ef93e14610b145780633b374cbf146109a157806358370bdb146109835780636c619914146107d55780637bacab3f146106aa578063806f34091461068d5780638581bd281461027a5780638da5cb5b1461025357806396dac53014610235578063a22b1513146101f4578063ac893fa5146101f4578063be13f47c14610165578063c902df9814610139578063e2e8c68b1461011b5763eff29f90146100d857600080fd5b34610118578060031936011261011857600354906213c680820180921161010457602082604051908152f35b634e487b7160e01b81526011600452602490fd5b80fd5b503461011857806003193601126101185760206040516213c6808152f35b503461011857602036600319011261011857602061015d610158610fa1565b611251565b604051908152f35b50346101185760403660031901126101185761017f610fa1565b60025460ff81166101b957600191828060a01b03166001600160601b0360a01b845416178355602435825560ff1916176002554360035580f35b60405162461bcd60e51b8152602060048201526013602482015272105b1c9958591e481a5b9a5d1a585b1a5e9959606a1b6044820152606490fd5b5034610118576020366003190112610118576020906001600160a01b03610219610fa1565b16815260048252604060018060a01b0391205416604051908152f35b50346101185780600319360112610118576020600354604051908152f35b5034610118578060031936011261011857546040516001600160a01b039091168152602090f35b50346101185760a036600319011261011857610294610fa1565b6024356001600160a01b0381169190828103610689576044359060643567ffffffffffffffff8111610685576102ce903690600401610fb7565b6102e260018060a01b03885416331461102c565b6102ea6112ec565b6103056103006102fb3684866110be565b6113d8565b6110f5565b610310841515611137565b851561064c573386146106075761037d6068602060405184819583830197883781016084358382015260018060a01b038a16996001600160601b03199060601b1660408201526001600160601b03198860601b16605482015288848201520301604881018452018261106a565b5190208552600560205260408520805480156105cf5760028201918254916103a860ff84161561120f565b43111561058b576001015461025881018091116105775742116105415760ff191660011790558285526004602052604085205485906001600160a01b03166103f1811515611182565b81546040516370a0823160e01b81526001600160a01b03909116600482018190529190602081602481855afa801561053657869185916104f6575b50906104399110156111c3565b803b156104f257604051632770a7eb60e21b81526001600160a01b039290921660048301526024820185905282908290604490829084905af180156104e7576104ce575b5050816104ae7fc95d558e25335222b51e6424166172914e7ce4404a9647d3631ef320294081fd9360209386611328565b43600355604051908152a360016000805160206123648339815191525580f35b816104d89161106a565b6104e357843861047d565b8480fd5b6040513d84823e3d90fd5b8280fd5b945050506020833d60201161052e575b816105136020938361106a565b810103126105295761043985899451909161042c565b600080fd5b3d9150610506565b6040513d86823e3d90fd5b60405162461bcd60e51b815260206004820152600e60248201526d10dbdb5b5a5d08195e1c1a5c995960921b6044820152606490fd5b634e487b7160e01b88526011600452602488fd5b606460405162461bcd60e51b815260206004820152602060248201527f4d7573742077616974206f6e6520626c6f636b20616674657220636f6d6d69746044820152fd5b60405162461bcd60e51b815260206004820152601060248201526f10dbdb5b5a5d081b9bdd08199bdd5b9960821b6044820152606490fd5b60405162461bcd60e51b815260206004820152601b60248201527f43616e6e6f74207472616e7366657220746f20796f757273656c6600000000006044820152606490fd5b60405162461bcd60e51b8152602060048201526011602482015270125b9d985b1a59081c9958da5c1a595b9d607a1b6044820152606490fd5b8580fd5b8380fd5b503461011857806003193601126101185760206040516102588152f35b5034610118576020366003190112610118576004356106d360018060a01b03835416331461102c565b80825260056020526106ef60ff6002604085200154161561120f565b80825260056020526040822054610798576040516060810181811067ffffffffffffffff8211176107845760405243815260026020820191428352604081019285845284865260056020526040862091518255516001820155019051151560ff80198354169116179055436003557f2fb52be48e55abef1fcf34fb5d53970a03e3546ed6b6f1025aed6d81bb7427f88280a280f35b634e487b7160e01b84526041600452602484fd5b60405162461bcd60e51b8152602060048201526015602482015274436f6d6d697420616c72656164792065786973747360581b6044820152606490fd5b5034610118576103006102fb6108156107ed36610fe5565b61080660018060a099969895991b03895416331461102c565b61080e6112ec565b36916110be565b610820821515611137565b6001600160a01b0390811680845260046020526040842054909291849116610849811515611182565b81546040516370a0823160e01b81526001600160a01b03909116600482018190529190602081602481855afa80156105365785918591610948575b50906108919110156111c3565b803b156104f257604051632770a7eb60e21b81526001600160a01b039290921660048301526024820184905282908290604490829084905af180156104e757610933575b505082547f3cb804822cd14606988dd0133475536faefc5d3bd4d0d00c445a4426d81442c8916020916109139082906001600160a01b031686611328565b43600355604051908152a260016000805160206123648339815191525580f35b8161093d9161106a565b6104f25782386108d5565b945050506020833d60201161097b575b816109656020938361106a565b8101031261052957610891848794519091610884565b3d9150610958565b50346101185780600319360112610118576020604051620f42408152f35b50346101185760403660031901126101185760043567ffffffffffffffff8111610b10576109d3903690600401610fb7565b9060243567ffffffffffffffff8111610689576102fb6109fa610a11923690600401610fb7565b93909461080e60018060a01b03885416331461102c565b15610acb57610a29610a243683856110be565b611749565b15610a8657610a556020604051838194838301968737810186838201520301601f19810183528261106a565b519020600155436003557f527acf85ccba1b239dfb26a52c293c25b70a36b9e95d200c917afda9f785fbe58180a180f35b60405162461bcd60e51b815260206004820152601a60248201527f496e76616c6964207661756c742070726f6f6620666f726d61740000000000006044820152606490fd5b60405162461bcd60e51b815260206004820152601b60248201527f496e76616c69642063757272656e74207661756c742070726f6f6600000000006044820152606490fd5b5080fd5b5034610118578060031936011261011857602060ff600254166040519015158152f35b5034610118576103006102fb610b4f6107ed36610fe5565b620f42408210610d93576040516370a0823160e01b81523060048201526001600160a01b0382169190602081602481865afa908115610cdb578591610d61575b50604051936323b872dd60e01b8652336004523060245260445260208560648180875af16001865114811615610d42575b846040528560605215610d2e576370a0823160e01b8452306004850152602084602481865afa938415610cdb578594610cfa575b508303928311610ce6576001600160a01b0390610c1090611497565b8454911692906001600160a01b031684843b15610118576040516340c10f1960e01b81526001600160a01b03929092166004830152602482018390528160448183885af18015610cdb57610ca4575b5060207f112e1a1004a67f1e6c8c480fe3e8516f69226cd76be7db72391db4bb0159d2d29143600355604051908152a360016000805160206123648339815191525580f35b84610cd37f112e1a1004a67f1e6c8c480fe3e8516f69226cd76be7db72391db4bb0159d2d2939660209361106a565b949150610c5f565b6040513d87823e3d90fd5b634e487b7160e01b84526011600452602484fd5b9093506020813d602011610d26575b81610d166020938361106a565b810103126104e357519238610bf4565b3d9150610d09565b635274afe760e01b85526004839052602485fd5b6001811516610d5857833b15153d151616610bc0565b843d87823e3d90fd5b90506020813d602011610d8b575b81610d7c6020938361106a565b810103126104e3575138610b8f565b3d9150610d6f565b60405162461bcd60e51b8152602060048201526014602482015273416d6f756e742062656c6f77206d696e696d756d60601b6044820152606490fd5b50346101185760203660031901126101185760043567ffffffffffffffff8111610b105736602382011215610b105780600401359067ffffffffffffffff82116104f2573660248360051b830101116104f257610e3660018060a01b03845416331461102c565b610e3e6112ec565b6003546213c6808101809111610ce6574310610f5057825b82811015610f3a576024600582901b830101356001600160a01b03811691908290036104e3576040516370a0823160e01b815230600482015291602083602481845afa8015610f2f578690610efd575b6001935080610eb8575b505001610e56565b602081610eef7f5fafa99d0643513820be26656b45130b01e1c03062e1266bf36f88cbd3bd969593878060a01b038b541686611328565b604051908152a23880610eb0565b506020833d8211610f27575b81610f166020938361106a565b810103126106855760019251610ea6565b3d9150610f09565b6040513d88823e3d90fd5b8360016000805160206123648339815191525580f35b60405162461bcd60e51b8152602060048201526024808201527f456d657267656e6379207769746864726177206e6f742079657420617661696c60448201526361626c6560e01b6064820152608490fd5b600435906001600160a01b038216820361052957565b9181601f840112156105295782359167ffffffffffffffff8311610529576020838186019501011161052957565b6060600319820112610529576004356001600160a01b03811681036105295791602435916044359067ffffffffffffffff82116105295761102891600401610fb7565b9091565b1561103357565b60405162461bcd60e51b815260206004820152600f60248201526e2737ba103b30bab63a1037bbb732b960891b6044820152606490fd5b90601f8019910116810190811067ffffffffffffffff82111761108c57604052565b634e487b7160e01b600052604160045260246000fd5b67ffffffffffffffff811161108c57601f01601f191660200190565b9291926110ca826110a2565b916110d8604051938461106a565b829481845281830111610529578281602093846000960137010152565b156110fc57565b60405162461bcd60e51b815260206004820152601360248201527224b73b30b634b2103b30bab63a10383937b7b360691b6044820152606490fd5b1561113e57565b606460405162461bcd60e51b815260206004820152602060248201527f416d6f756e74206d7573742062652067726561746572207468616e207a65726f6044820152fd5b1561118957565b60405162461bcd60e51b8152602060048201526012602482015271151bdad95b881b9bdd081cda1a595b19195960721b6044820152606490fd5b156111ca57565b60405162461bcd60e51b815260206004820152601d60248201527f496e73756666696369656e7420736869656c6465642062616c616e63650000006044820152606490fd5b1561121657565b60405162461bcd60e51b815260206004820152601360248201527210dbdb5b5a5d08185b1c9958591e481d5cd959606a1b6044820152606490fd5b6001600160a01b039081166000908152600460205260409020541680156112e657602060018060a01b03600054166024604051809481936370a0823160e01b835260048301525afa9081156112da576000916112ab575090565b90506020813d6020116112d2575b816112c66020938361106a565b81010312610529575190565b3d91506112b9565b6040513d6000823e3d90fd5b50600090565b6002600080516020612364833981519152541461131757600260008051602061236483398151915255565b633ee5aeb560e01b60005260046000fd5b60405163a9059cbb60e01b60009081526001600160a01b03909316600452602493909352919060209060448180865af190600160005114821615611393575b604052156113725750565b635274afe760e01b60009081526001600160a01b0391909116600452602490fd5b9060018115166113ab57823b15153d15161690611367565b503d6000823e3d90fd5b60005b8381106113c85750506000910152565b81810151838201526020016113b8565b604051611406602082816113f581830196878151938492016113b5565b81010301601f19810183528261106a565b5190206001541490565b6020818303126105295780519067ffffffffffffffff8211610529570181601f82011215610529578051611443816110a2565b92611451604051948561106a565b818452602082840101116105295761146f91602080850191016113b5565b90565b9060209161148b815180928185528580860191016113b5565b601f01601f1916010190565b6001600160a01b03908116600081815260046020526040902054909116611707576040516306fdde0360e01b815260008082600481865afa909182826116ea575b50506116be57506040516114ed60408261106a565b600681526538aa37b5b2b760d11b60208201525b6040516395d89b4160e01b8152600081600481865afa60009181611699575b5061166c575060405161153460408261106a565b600481526338aa25a760e11b6020820152905b60405163313ce56760e01b8152601290602081600481885afa8091600091611630575b5090611628575b5060405192610b2f908185019185831067ffffffffffffffff84111761108c576115c06060926115b2889760ff946118358a39608087526080870190611472565b908582036020870152611472565b933060408501521691015203906000f080156112da5760018060a01b031681819260005260046020526040600020826001600160601b0360a01b8254161790557fa9b482826b98af85a8a9e7e42ef14980212bea648c0f68dfb0fa437ba2e21c4e600080a390565b905038611571565b6020813d602011611664575b816116496020938361106a565b81010312610b1057519060ff8216820361011857503861156a565b3d915061163c565b61169360216040518093607160f81b60208301526113f581518092602086860191016113b5565b90611547565b6116b79192503d806000833e6116af818361106a565b810190611410565b9038611520565b6116e560216040518093607160f81b60208301526113f581518092602086860191016113b5565b611501565b6116ff9293503d8091833e6116af818361106a565b9038806114d8565b6000908152600460205260409020546001600160a01b031690565b60ff1660ff81146117335760010190565b634e487b7160e01b600052601160045260246000fd5b60068151036112e657600080916000905b6006821061177f57505060ff166003149081611774575090565b6003915060ff161490565b9091815183101561181e576020838301015160f81c604181101580611813575b80156117fc575b156117c057506117b7600191611722565b925b019061175a565b60308195929495101590816117f0575b50156117e7576117e1600191611722565b936117b9565b50505050600090565b603991501115386117d0565b50606181101580156117a65750607a8111156117a6565b50605a81111561179f565b634e487b7160e01b600052603260045260246000fdfe60806040523461038a57610b2f803803806100198161038f565b92833981019060808183031261038a5780516001600160401b03811161038a57826100459183016103b4565b602082015190926001600160401b03821161038a576100659183016103b4565b604082015190916001600160a01b0382169182900361038a57606001519060ff8216820361038a5783516001600160401b03811161028657600354600181811c91168015610380575b602082101461026657601f811161030e575b50602094601f82116001146102a75794819293949560009261029c575b50508160011b916000199060031b1c1916176003555b82516001600160401b03811161028657600454600181811c9116801561027c575b602082101461026657601f81116101f4575b506020601f821160011461018d5781929394600092610182575b50508160011b916000199060031b1c1916176004555b6005549160ff60a01b9060a01b169160018060a81b031916171760055560405161070f90816104208239f35b015190503880610140565b601f198216906004600052806000209160005b8181106101dc575095836001959697106101c3575b505050811b01600455610156565b015160001960f88460031b161c191690553880806101b5565b9192602060018192868b0151815501940192016101a0565b81811115610126576004600052601f820160051c7f8a35acfbc15ff81a39ae7d344fd709f28e8600b4aa8c65c6b64bfe7fe36bd19b6020841061025d575b81601f9101920160051c039060005b82811061024f575050610126565b600082820155600101610241565b60009150610232565b634e487b7160e01b600052602260045260246000fd5b90607f1690610114565b634e487b7160e01b600052604160045260246000fd5b0151905038806100dd565b601f198216956003600052806000209160005b8881106102f6575083600195969798106102dd575b505050811b016003556100f3565b015160001960f88460031b161c191690553880806102cf565b919260206001819286850151815501940192016102ba565b818111156100c0576003600052601f820160051c7fc2575a0e9e593c00f959f8c92f12db2869c3395a3b0502d05e2516446f71f85b60208410610377575b81601f9101920160051c039060005b8281106103695750506100c0565b60008282015560010161035b565b6000915061034c565b90607f16906100ae565b600080fd5b6040519190601f01601f191682016001600160401b0381118382101761028657604052565b81601f8201121561038a578051906001600160401b038211610286576103e3601f8301601f191660200161038f565b928284526020838301011161038a5760005b82811061040a57505060206000918301015290565b806020809284010151828287010152016103f556fe608080604052600436101561001357600080fd5b60003560e01c90816306fdde03146104ec57508063095ea7b31461048d57806318160ddd1461046f57806323b872dd1461044d578063313ce5671461042957806340c10f191461036857806370a082311461032e57806395d89b411461020d5780639dc29fac14610141578063a9059cbb14610122578063dd62ed3e146100d15763fbfa77cf146100a357600080fd5b346100cc5760003660031901126100cc576005546040516001600160a01b039091168152602090f35b600080fd5b346100cc5760403660031901126100cc576100ea610608565b6100f261061e565b6001600160a01b039182166000908152600160209081526040808320949093168252928352819020549051908152f35b346100cc5760403660031901126100cc5761013b610608565b50610634565b346100cc5760403660031901126100cc5761015a610608565b6024359061017360018060a01b0360055416331461068d565b6001600160a01b03169081156101f7576000908282528160205260408220548181106101df5760208285937fddf252ad1be2c89b69c2b068fc378daa952ba7f163c4a11628f55a4df523b3ef93869787528684520360408620558060025403600255604051908152a380f35b60649363391434e360e21b8452600452602452604452fd5b634b637e8f60e11b600052600060045260246000fd5b346100cc5760003660031901126100cc5760405160006004548060011c90600181168015610324575b602083108114610310578285529081156102f4575060011461029d575b50819003601f01601f191681019067ffffffffffffffff82118183101761028757610283829182604052826105bf565b0390f35b634e487b7160e01b600052604160045260246000fd5b905060046000527f8a35acfbc15ff81a39ae7d344fd709f28e8600b4aa8c65c6b64bfe7fe36bd19b6000905b8282106102de57506020915082010182610253565b60018160209254838588010152019101906102c9565b90506020925060ff191682840152151560051b82010182610253565b634e487b7160e01b84526022600452602484fd5b91607f1691610236565b346100cc5760203660031901126100cc576001600160a01b0361034f610608565b1660005260006020526020604060002054604051908152f35b346100cc5760403660031901126100cc57610381610608565b6024359061039a60018060a01b0360055416331461068d565b6001600160a01b0316801561041357600254918083018093116103fd576020926002557fddf252ad1be2c89b69c2b068fc378daa952ba7f163c4a11628f55a4df523b3ef600093849284845283825260408420818154019055604051908152a380f35b634e487b7160e01b600052601160045260246000fd5b63ec442f0560e01b600052600060045260246000fd5b346100cc5760003660031901126100cc57602060ff60055460a01c16604051908152f35b346100cc5760603660031901126100cc57610466610608565b5061013b61061e565b346100cc5760003660031901126100cc576020600254604051908152f35b346100cc5760403660031901126100cc576104a6610608565b5060405162461bcd60e51b815260206004820152601a60248201527f71546f6b656e3a20617070726f76616c732064697361626c65640000000000006044820152606490fd5b346100cc5760003660031901126100cc5760006003548060011c906001811680156105b5575b602083108114610310578285529081156102f4575060011461055e5750819003601f01601f191681019067ffffffffffffffff82118183101761028757610283829182604052826105bf565b905060036000527fc2575a0e9e593c00f959f8c92f12db2869c3395a3b0502d05e2516446f71f85b6000905b82821061059f57506020915082010182610253565b600181602092548385880101520191019061058a565b91607f1691610512565b91909160208152825180602083015260005b8181106105f2575060409293506000838284010152601f8019910116010190565b80602080928701015160408286010152016105d1565b600435906001600160a01b03821682036100cc57565b602435906001600160a01b03821682036100cc57565b60405162461bcd60e51b815260206004820152602b60248201527f71546f6b656e3a207472616e73666572732064697361626c65642c207573652060448201526a05172797074756d206170760ac1b6064820152608490fd5b1561069457565b60405162461bcd60e51b815260206004820152601b60248201527f4f6e6c79205152595054414e4b2063616e2063616c6c207468697300000000006044820152606490fdfea264697066735822122080870c9e1ee319a18344b1aec633397a22cf1a2d0e7ee60d1d0b2b7f36b1136364736f6c634300082200339b779b17422d0df92223018b32b4d1fa46e071723d6817e2486d003becc55f00a26469706673582212206b5458a15f18a3fb2887391e7c5c1309a46ce1c16beb14a239bca8dbab00026a64736f6c63430008220033","opcodes":"PUSH1 0x80 DUP1 PUSH1 0x40 MSTORE CALLVALUE PUSH1 0x39 JUMPI PUSH1 0x1 PUSH32 0x9B779B17422D0DF92223018B32B4D1FA46E071723D6817E2486D003BECC55F00 SSTORE PUSH2 0x23B9 SWAP1 DUP2 PUSH2 0x3F DUP3 CODECOPY RETURN JUMPDEST PUSH1 0x0 DUP1 REVERT INVALID PUSH1 0x80 PUSH1 0x40 MSTORE PUSH1 0x4 CALLDATASIZE LT ISZERO PUSH2 0x12 JUMPI PUSH1 0x0 DUP1 REVERT JUMPDEST PUSH1 0x0 DUP1 CALLDATALOAD PUSH1 0xE0 SHR DUP1 PUSH4 0x1C1DFBA EQ PUSH2 0xDCF JUMPI DUP1 PUSH4 0x1331E701 EQ PUSH2 0xB37 JUMPI DUP1 PUSH4 0x158EF93E EQ PUSH2 0xB14 JUMPI DUP1 PUSH4 0x3B374CBF EQ PUSH2 0x9A1 JUMPI DUP1 PUSH4 0x58370BDB EQ PUSH2 0x983 JUMPI DUP1 PUSH4 0x6C619914 EQ PUSH2 0x7D5 JUMPI DUP1 PUSH4 0x7BACAB3F EQ PUSH2 0x6AA JUMPI DUP1 PUSH4 0x806F3409 EQ PUSH2 0x68D JUMPI DUP1 PUSH4 0x8581BD28 EQ PUSH2 0x27A JUMPI DUP1 PUSH4 0x8DA5CB5B EQ PUSH2 0x253 JUMPI DUP1 PUSH4 0x96DAC530 EQ PUSH2 0x235 JUMPI DUP1 PUSH4 0xA22B1513 EQ PUSH2 0x1F4 JUMPI DUP1 PUSH4 0xAC893FA5 EQ PUSH2 0x1F4 JUMPI DUP1 PUSH4 0xBE13F47C EQ PUSH2 0x165 JUMPI DUP1 PUSH4 0xC902DF98 EQ PUSH2 0x139 JUMPI DUP1 PUSH4 0xE2E8C68B EQ PUSH2 0x11B JUMPI PUSH4 0xEFF29F90 EQ PUSH2 0xD8 JUMPI PUSH1 0x0 DUP1 REVERT JUMPDEST CALLVALUE PUSH2 0x118 JUMPI DUP1 PUSH1 0x3 NOT CALLDATASIZE ADD SLT PUSH2 0x118 JUMPI PUSH1 0x3 SLOAD SWAP1 PUSH3 0x13C680 DUP3 ADD DUP1 SWAP3 GT PUSH2 0x104 JUMPI PUSH1 0x20 DUP3 PUSH1 0x40 MLOAD SWAP1 DUP2 MSTORE RETURN JUMPDEST PUSH4 0x4E487B71 PUSH1 0xE0 SHL DUP2 MSTORE PUSH1 0x11 PUSH1 0x4 MSTORE PUSH1 0x24 SWAP1 REVERT JUMPDEST DUP1 REVERT JUMPDEST POP CALLVALUE PUSH2 0x118 JUMPI DUP1 PUSH1 0x3 NOT CALLDATASIZE ADD SLT PUSH2 0x118 JUMPI PUSH1 0x20 PUSH1 0x40 MLOAD PUSH3 0x13C680 DUP2 MSTORE RETURN JUMPDEST POP CALLVALUE PUSH2 0x118 JUMPI PUSH1 0x20 CALLDATASIZE PUSH1 0x3 NOT ADD SLT PUSH2 0x118 JUMPI PUSH1 0x20 PUSH2 0x15D PUSH2 0x158 PUSH2 0xFA1 JUMP JUMPDEST PUSH2 0x1251 JUMP JUMPDEST PUSH1 0x40 MLOAD SWAP1 DUP2 MSTORE RETURN JUMPDEST POP CALLVALUE PUSH2 0x118 JUMPI PUSH1 0x40 CALLDATASIZE PUSH1 0x3 NOT ADD SLT PUSH2 0x118 JUMPI PUSH2 0x17F PUSH2 0xFA1 JUMP JUMPDEST PUSH1 0x2 SLOAD PUSH1 0xFF DUP2 AND PUSH2 0x1B9 JUMPI PUSH1 0x1 SWAP2 DUP3 DUP1 PUSH1 0xA0 SHL SUB AND PUSH1 0x1 PUSH1 0x1 PUSH1 0x60 SHL SUB PUSH1 0xA0 SHL DUP5 SLOAD AND OR DUP4 SSTORE PUSH1 0x24 CALLDATALOAD DUP3 SSTORE PUSH1 0xFF NOT AND OR PUSH1 0x2 SSTORE NUMBER PUSH1 0x3 SSTORE DUP1 RETURN JUMPDEST PUSH1 0x40 MLOAD PUSH3 0x461BCD PUSH1 0xE5 SHL DUP2 MSTORE PUSH1 0x20 PUSH1 0x4 DUP3 ADD MSTORE PUSH1 0x13 PUSH1 0x24 DUP3 ADD MSTORE PUSH19 0x105B1C9958591E481A5B9A5D1A585B1A5E9959 PUSH1 0x6A SHL PUSH1 0x44 DUP3 ADD MSTORE PUSH1 0x64 SWAP1 REVERT JUMPDEST POP CALLVALUE PUSH2 0x118 JUMPI PUSH1 0x20 CALLDATASIZE PUSH1 0x3 NOT ADD SLT PUSH2 0x118 JUMPI PUSH1 0x20 SWAP1 PUSH1 0x1 PUSH1 0x1 PUSH1 0xA0 SHL SUB PUSH2 0x219 PUSH2 0xFA1 JUMP JUMPDEST AND DUP2 MSTORE PUSH1 0x4 DUP3 MSTORE PUSH1 0x40 PUSH1 0x1 DUP1 PUSH1 0xA0 SHL SUB SWAP2 KECCAK256 SLOAD AND PUSH1 0x40 MLOAD SWAP1 DUP2 MSTORE RETURN JUMPDEST POP CALLVALUE PUSH2 0x118 JUMPI DUP1 PUSH1 0x3 NOT CALLDATASIZE ADD SLT PUSH2 0x118 JUMPI PUSH1 0x20 PUSH1 0x3 SLOAD PUSH1 0x40 MLOAD SWAP1 DUP2 MSTORE RETURN JUMPDEST POP CALLVALUE PUSH2 0x118 JUMPI DUP1 PUSH1 0x3 NOT CALLDATASIZE ADD SLT PUSH2 0x118 JUMPI SLOAD PUSH1 0x40 MLOAD PUSH1 0x1 PUSH1 0x1 PUSH1 0xA0 SHL SUB SWAP1 SWAP2 AND DUP2 MSTORE PUSH1 0x20 SWAP1 RETURN JUMPDEST POP CALLVALUE PUSH2 0x118 JUMPI PUSH1 0xA0 CALLDATASIZE PUSH1 0x3 NOT ADD SLT PUSH2 0x118 JUMPI PUSH2 0x294 PUSH2 0xFA1 JUMP JUMPDEST PUSH1 0x24 CALLDATALOAD PUSH1 0x1 PUSH1 0x1 PUSH1 0xA0 SHL SUB DUP2 AND SWAP2 SWAP1 DUP3 DUP2 SUB PUSH2 0x689 JUMPI PUSH1 0x44 CALLDATALOAD SWAP1 PUSH1 0x64 CALLDATALOAD PUSH8 0xFFFFFFFFFFFFFFFF DUP2 GT PUSH2 0x685 JUMPI PUSH2 0x2CE SWAP1 CALLDATASIZE SWAP1 PUSH1 0x4 ADD PUSH2 0xFB7 JUMP JUMPDEST PUSH2 0x2E2 PUSH1 0x1 DUP1 PUSH1 0xA0 SHL SUB DUP9 SLOAD AND CALLER EQ PUSH2 0x102C JUMP JUMPDEST PUSH2 0x2EA PUSH2 0x12EC JUMP JUMPDEST PUSH2 0x305 PUSH2 0x300 PUSH2 0x2FB CALLDATASIZE DUP5 DUP7 PUSH2 0x10BE JUMP JUMPDEST PUSH2 0x13D8 JUMP JUMPDEST PUSH2 0x10F5 JUMP JUMPDEST PUSH2 0x310 DUP5 ISZERO ISZERO PUSH2 0x1137 JUMP JUMPDEST DUP6 ISZERO PUSH2 0x64C JUMPI CALLER DUP7 EQ PUSH2 0x607 JUMPI PUSH2 0x37D PUSH1 0x68 PUSH1 0x20 PUSH1 0x40 MLOAD DUP5 DUP2 SWAP6 DUP4 DUP4 ADD SWAP8 DUP9 CALLDATACOPY DUP2 ADD PUSH1 0x84 CALLDATALOAD DUP4 DUP3 ADD MSTORE PUSH1 0x1 DUP1 PUSH1 0xA0 SHL SUB DUP11 AND SWAP10 PUSH1 0x1 PUSH1 0x1 PUSH1 0x60 SHL SUB NOT SWAP1 PUSH1 0x60 SHL AND PUSH1 0x40 DUP3 ADD MSTORE PUSH1 0x1 PUSH1 0x1 PUSH1 0x60 SHL SUB NOT DUP9 PUSH1 0x60 SHL AND PUSH1 0x54 DUP3 ADD MSTORE DUP9 DUP5 DUP3 ADD MSTORE SUB ADD PUSH1 0x48 DUP2 ADD DUP5 MSTORE ADD DUP3 PUSH2 0x106A JUMP JUMPDEST MLOAD SWAP1 KECCAK256 DUP6 MSTORE PUSH1 0x5 PUSH1 0x20 MSTORE PUSH1 0x40 DUP6 KECCAK256 DUP1 SLOAD DUP1 ISZERO PUSH2 0x5CF JUMPI PUSH1 0x2 DUP3 ADD SWAP2 DUP3 SLOAD SWAP2 PUSH2 0x3A8 PUSH1 0xFF DUP5 AND ISZERO PUSH2 0x120F JUMP JUMPDEST NUMBER GT ISZERO PUSH2 0x58B JUMPI PUSH1 0x1 ADD SLOAD PUSH2 0x258 DUP2 ADD DUP1 SWAP2 GT PUSH2 0x577 JUMPI TIMESTAMP GT PUSH2 0x541 JUMPI PUSH1 0xFF NOT AND PUSH1 0x1 OR SWAP1 SSTORE DUP3 DUP6 MSTORE PUSH1 0x4 PUSH1 0x20 MSTORE PUSH1 0x40 DUP6 KECCAK256 SLOAD DUP6 SWAP1 PUSH1 0x1 PUSH1 0x1 PUSH1 0xA0 SHL SUB AND PUSH2 0x3F1 DUP2 ISZERO ISZERO PUSH2 0x1182 JUMP JUMPDEST DUP2 SLOAD PUSH1 0x40 MLOAD PUSH4 0x70A08231 PUSH1 0xE0 SHL DUP2 MSTORE PUSH1 0x1 PUSH1 0x1 PUSH1 0xA0 SHL SUB SWAP1 SWAP2 AND PUSH1 0x4 DUP3 ADD DUP2 SWAP1 MSTORE SWAP2 SWAP1 PUSH1 0x20 DUP2 PUSH1 0x24 DUP2 DUP6 GAS STATICCALL DUP1 ISZERO PUSH2 0x536 JUMPI DUP7 SWAP2 DUP6 SWAP2 PUSH2 0x4F6 JUMPI JUMPDEST POP SWAP1 PUSH2 0x439 SWAP2 LT ISZERO PUSH2 0x11C3 JUMP JUMPDEST DUP1 EXTCODESIZE ISZERO PUSH2 0x4F2 JUMPI PUSH1 0x40 MLOAD PUSH4 0x2770A7EB PUSH1 0xE2 SHL DUP2 MSTORE PUSH1 0x1 PUSH1 0x1 PUSH1 0xA0 SHL SUB SWAP3 SWAP1 SWAP3 AND PUSH1 0x4 DUP4 ADD MSTORE PUSH1 0x24 DUP3 ADD DUP6 SWAP1 MSTORE DUP3 SWAP1 DUP3 SWAP1 PUSH1 0x44 SWAP1 DUP3 SWAP1 DUP5 SWAP1 GAS CALL DUP1 ISZERO PUSH2 0x4E7 JUMPI PUSH2 0x4CE JUMPI JUMPDEST POP POP DUP2 PUSH2 0x4AE PUSH32 0xC95D558E25335222B51E6424166172914E7CE4404A9647D3631EF320294081FD SWAP4 PUSH1 0x20 SWAP4 DUP7 PUSH2 0x1328 JUMP JUMPDEST NUMBER PUSH1 0x3 SSTORE PUSH1 0x40 MLOAD SWAP1 DUP2 MSTORE LOG3 PUSH1 0x1 PUSH1 0x0 DUP1 MLOAD PUSH1 0x20 PUSH2 0x2364 DUP4 CODECOPY DUP2 MLOAD SWAP2 MSTORE SSTORE DUP1 RETURN JUMPDEST DUP2 PUSH2 0x4D8 SWAP2 PUSH2 0x106A JUMP JUMPDEST PUSH2 0x4E3 JUMPI DUP5 CODESIZE PUSH2 0x47D JUMP JUMPDEST DUP5 DUP1 REVERT JUMPDEST PUSH1 0x40 MLOAD RETURNDATASIZE DUP5 DUP3 RETURNDATACOPY RETURNDATASIZE SWAP1 REVERT JUMPDEST DUP3 DUP1 REVERT JUMPDEST SWAP5 POP POP POP PUSH1 0x20 DUP4 RETURNDATASIZE PUSH1 0x20 GT PUSH2 0x52E JUMPI JUMPDEST DUP2 PUSH2 0x513 PUSH1 0x20 SWAP4 DUP4 PUSH2 0x106A JUMP JUMPDEST DUP2 ADD SUB SLT PUSH2 0x529 JUMPI PUSH2 0x439 DUP6 DUP10 SWAP5 MLOAD SWAP1 SWAP2 PUSH2 0x42C JUMP JUMPDEST PUSH1 0x0 DUP1 REVERT JUMPDEST RETURNDATASIZE SWAP2 POP PUSH2 0x506 JUMP JUMPDEST PUSH1 0x40 MLOAD RETURNDATASIZE DUP7 DUP3 RETURNDATACOPY RETURNDATASIZE SWAP1 REVERT JUMPDEST PUSH1 0x40 MLOAD PUSH3 0x461BCD PUSH1 0xE5 SHL DUP2 MSTORE PUSH1 0x20 PUSH1 0x4 DUP3 ADD MSTORE PUSH1 0xE PUSH1 0x24 DUP3 ADD MSTORE PUSH14 0x10DBDB5B5A5D08195E1C1A5C9959 PUSH1 0x92 SHL PUSH1 0x44 DUP3 ADD MSTORE PUSH1 0x64 SWAP1 REVERT JUMPDEST PUSH4 0x4E487B71 PUSH1 0xE0 SHL DUP9 MSTORE PUSH1 0x11 PUSH1 0x4 MSTORE PUSH1 0x24 DUP9 REVERT JUMPDEST PUSH1 0x64 PUSH1 0x40 MLOAD PUSH3 0x461BCD PUSH1 0xE5 SHL DUP2 MSTORE PUSH1 0x20 PUSH1 0x4 DUP3 ADD MSTORE PUSH1 0x20 PUSH1 0x24 DUP3 ADD MSTORE PUSH32 0x4D7573742077616974206F6E6520626C6F636B20616674657220636F6D6D6974 PUSH1 0x44 DUP3 ADD MSTORE REVERT JUMPDEST PUSH1 0x40 MLOAD PUSH3 0x461BCD PUSH1 0xE5 SHL DUP2 MSTORE PUSH1 0x20 PUSH1 0x4 DUP3 ADD MSTORE PUSH1 0x10 PUSH1 0x24 DUP3 ADD MSTORE PUSH16 0x10DBDB5B5A5D081B9BDD08199BDD5B99 PUSH1 0x82 SHL PUSH1 0x44 DUP3 ADD MSTORE PUSH1 0x64 SWAP1 REVERT JUMPDEST PUSH1 0x40 MLOAD PUSH3 0x461BCD PUSH1 0xE5 SHL DUP2 MSTORE PUSH1 0x20 PUSH1 0x4 DUP3 ADD MSTORE PUSH1 0x1B PUSH1 0x24 DUP3 ADD MSTORE PUSH32 0x43616E6E6F74207472616E7366657220746F20796F757273656C660000000000 PUSH1 0x44 DUP3 ADD MSTORE PUSH1 0x64 SWAP1 REVERT JUMPDEST PUSH1 0x40 MLOAD PUSH3 0x461BCD PUSH1 0xE5 SHL DUP2 MSTORE PUSH1 0x20 PUSH1 0x4 DUP3 ADD MSTORE PUSH1 0x11 PUSH1 0x24 DUP3 ADD MSTORE PUSH17 0x125B9D985B1A59081C9958DA5C1A595B9D PUSH1 0x7A SHL PUSH1 0x44 DUP3 ADD MSTORE PUSH1 0x64 SWAP1 REVERT JUMPDEST DUP6 DUP1 REVERT JUMPDEST DUP4 DUP1 REVERT JUMPDEST POP CALLVALUE PUSH2 0x118 JUMPI DUP1 PUSH1 0x3 NOT CALLDATASIZE ADD SLT PUSH2 0x118 JUMPI PUSH1 0x20 PUSH1 0x40 MLOAD PUSH2 0x258 DUP2 MSTORE RETURN JUMPDEST POP CALLVALUE PUSH2 0x118 JUMPI PUSH1 0x20 CALLDATASIZE PUSH1 0x3 NOT ADD SLT PUSH2 0x118 JUMPI PUSH1 0x4 CALLDATALOAD PUSH2 0x6D3 PUSH1 0x1 DUP1 PUSH1 0xA0 SHL SUB DUP4 SLOAD AND CALLER EQ PUSH2 0x102C JUMP JUMPDEST DUP1 DUP3 MSTORE PUSH1 0x5 PUSH1 0x20 MSTORE PUSH2 0x6EF PUSH1 0xFF PUSH1 0x2 PUSH1 0x40 DUP6 KECCAK256 ADD SLOAD AND ISZERO PUSH2 0x120F JUMP JUMPDEST DUP1 DUP3 MSTORE PUSH1 0x5 PUSH1 0x20 MSTORE PUSH1 0x40 DUP3 KECCAK256 SLOAD PUSH2 0x798 JUMPI PUSH1 0x40 MLOAD PUSH1 0x60 DUP2 ADD DUP2 DUP2 LT PUSH8 0xFFFFFFFFFFFFFFFF DUP3 GT OR PUSH2 0x784 JUMPI PUSH1 0x40 MSTORE NUMBER DUP2 MSTORE PUSH1 0x2 PUSH1 0x20 DUP3 ADD SWAP2 TIMESTAMP DUP4 MSTORE PUSH1 0x40 DUP2 ADD SWAP3 DUP6 DUP5 MSTORE DUP5 DUP7 MSTORE PUSH1 0x5 PUSH1 0x20 MSTORE PUSH1 0x40 DUP7 KECCAK256 SWAP2 MLOAD DUP3 SSTORE MLOAD PUSH1 0x1 DUP3 ADD SSTORE ADD SWAP1 MLOAD ISZERO ISZERO PUSH1 0xFF DUP1 NOT DUP4 SLOAD AND SWAP2 AND OR SWAP1 SSTORE NUMBER PUSH1 0x3 SSTORE PUSH32 0x2FB52BE48E55ABEF1FCF34FB5D53970A03E3546ED6B6F1025AED6D81BB7427F8 DUP3 DUP1 LOG2 DUP1 RETURN JUMPDEST PUSH4 0x4E487B71 PUSH1 0xE0 SHL DUP5 MSTORE PUSH1 0x41 PUSH1 0x4 MSTORE PUSH1 0x24 DUP5 REVERT JUMPDEST PUSH1 0x40 MLOAD PUSH3 0x461BCD PUSH1 0xE5 SHL DUP2 MSTORE PUSH1 0x20 PUSH1 0x4 DUP3 ADD MSTORE PUSH1 0x15 PUSH1 0x24 DUP3 ADD MSTORE PUSH21 0x436F6D6D697420616C726561647920657869737473 PUSH1 0x58 SHL PUSH1 0x44 DUP3 ADD MSTORE PUSH1 0x64 SWAP1 REVERT JUMPDEST POP CALLVALUE PUSH2 0x118 JUMPI PUSH2 0x300 PUSH2 0x2FB PUSH2 0x815 PUSH2 0x7ED CALLDATASIZE PUSH2 0xFE5 JUMP JUMPDEST PUSH2 0x806 PUSH1 0x1 DUP1 PUSH1 0xA0 SWAP10 SWAP7 SWAP9 SWAP6 SWAP10 SHL SUB DUP10 SLOAD AND CALLER EQ PUSH2 0x102C JUMP JUMPDEST PUSH2 0x80E PUSH2 0x12EC JUMP JUMPDEST CALLDATASIZE SWAP2 PUSH2 0x10BE JUMP JUMPDEST PUSH2 0x820 DUP3 ISZERO ISZERO PUSH2 0x1137 JUMP JUMPDEST PUSH1 0x1 PUSH1 0x1 PUSH1 0xA0 SHL SUB SWAP1 DUP2 AND DUP1 DUP5 MSTORE PUSH1 0x4 PUSH1 0x20 MSTORE PUSH1 0x40 DUP5 KECCAK256 SLOAD SWAP1 SWAP3 SWAP2 DUP5 SWAP2 AND PUSH2 0x849 DUP2 ISZERO ISZERO PUSH2 0x1182 JUMP JUMPDEST DUP2 SLOAD PUSH1 0x40 MLOAD PUSH4 0x70A08231 PUSH1 0xE0 SHL DUP2 MSTORE PUSH1 0x1 PUSH1 0x1 PUSH1 0xA0 SHL SUB SWAP1 SWAP2 AND PUSH1 0x4 DUP3 ADD DUP2 SWAP1 MSTORE SWAP2 SWAP1 PUSH1 0x20 DUP2 PUSH1 0x24 DUP2 DUP6 GAS STATICCALL DUP1 ISZERO PUSH2 0x536 JUMPI DUP6 SWAP2 DUP6 SWAP2 PUSH2 0x948 JUMPI JUMPDEST POP SWAP1 PUSH2 0x891 SWAP2 LT ISZERO PUSH2 0x11C3 JUMP JUMPDEST DUP1 EXTCODESIZE ISZERO PUSH2 0x4F2 JUMPI PUSH1 0x40 MLOAD PUSH4 0x2770A7EB PUSH1 0xE2 SHL DUP2 MSTORE PUSH1 0x1 PUSH1 0x1 PUSH1 0xA0 SHL SUB SWAP3 SWAP1 SWAP3 AND PUSH1 0x4 DUP4 ADD MSTORE PUSH1 0x24 DUP3 ADD DUP5 SWAP1 MSTORE DUP3 SWAP1 DUP3 SWAP1 PUSH1 0x44 SWAP1 DUP3 SWAP1 DUP5 SWAP1 GAS CALL DUP1 ISZERO PUSH2 0x4E7 JUMPI PUSH2 0x933 JUMPI JUMPDEST POP POP DUP3 SLOAD PUSH32 0x3CB804822CD14606988DD0133475536FAEFC5D3BD4D0D00C445A4426D81442C8 SWAP2 PUSH1 0x20 SWAP2 PUSH2 0x913 SWAP1 DUP3 SWAP1 PUSH1 0x1 PUSH1 0x1 PUSH1 0xA0 SHL SUB AND DUP7 PUSH2 0x1328 JUMP JUMPDEST NUMBER PUSH1 0x3 SSTORE PUSH1 0x40 MLOAD SWAP1 DUP2 MSTORE LOG2 PUSH1 0x1 PUSH1 0x0 DUP1 MLOAD PUSH1 0x20 PUSH2 0x2364 DUP4 CODECOPY DUP2 MLOAD SWAP2 MSTORE SSTORE DUP1 RETURN JUMPDEST DUP2 PUSH2 0x93D SWAP2 PUSH2 0x106A JUMP JUMPDEST PUSH2 0x4F2 JUMPI DUP3 CODESIZE PUSH2 0x8D5 JUMP JUMPDEST SWAP5 POP POP POP PUSH1 0x20 DUP4 RETURNDATASIZE PUSH1 0x20 GT PUSH2 0x97B JUMPI JUMPDEST DUP2 PUSH2 0x965 PUSH1 0x20 SWAP4 DUP4 PUSH2 0x106A JUMP JUMPDEST DUP2 ADD SUB SLT PUSH2 0x529 JUMPI PUSH2 0x891 DUP5 DUP8 SWAP5 MLOAD SWAP1 SWAP2 PUSH2 0x884 JUMP JUMPDEST RETURNDATASIZE SWAP2 POP PUSH2 0x958 JUMP JUMPDEST POP CALLVALUE PUSH2 0x118 JUMPI DUP1 PUSH1 0x3 NOT CALLDATASIZE ADD SLT PUSH2 0x118 JUMPI PUSH1 0x20 PUSH1 0x40 MLOAD PUSH3 0xF4240 DUP2 MSTORE RETURN JUMPDEST POP CALLVALUE PUSH2 0x118 JUMPI PUSH1 0x40 CALLDATASIZE PUSH1 0x3 NOT ADD SLT PUSH2 0x118 JUMPI PUSH1 0x4 CALLDATALOAD PUSH8 0xFFFFFFFFFFFFFFFF DUP2 GT PUSH2 0xB10 JUMPI PUSH2 0x9D3 SWAP1 CALLDATASIZE SWAP1 PUSH1 0x4 ADD PUSH2 0xFB7 JUMP JUMPDEST SWAP1 PUSH1 0x24 CALLDATALOAD PUSH8 0xFFFFFFFFFFFFFFFF DUP2 GT PUSH2 0x689 JUMPI PUSH2 0x2FB PUSH2 0x9FA PUSH2 0xA11 SWAP3 CALLDATASIZE SWAP1 PUSH1 0x4 ADD PUSH2 0xFB7 JUMP JUMPDEST SWAP4 SWAP1 SWAP5 PUSH2 0x80E PUSH1 0x1 DUP1 PUSH1 0xA0 SHL SUB DUP9 SLOAD AND CALLER EQ PUSH2 0x102C JUMP JUMPDEST ISZERO PUSH2 0xACB JUMPI PUSH2 0xA29 PUSH2 0xA24 CALLDATASIZE DUP4 DUP6 PUSH2 0x10BE JUMP JUMPDEST PUSH2 0x1749 JUMP JUMPDEST ISZERO PUSH2 0xA86 JUMPI PUSH2 0xA55 PUSH1 0x20 PUSH1 0x40 MLOAD DUP4 DUP2 SWAP5 DUP4 DUP4 ADD SWAP7 DUP8 CALLDATACOPY DUP2 ADD DUP7 DUP4 DUP3 ADD MSTORE SUB ADD PUSH1 0x1F NOT DUP2 ADD DUP4 MSTORE DUP3 PUSH2 0x106A JUMP JUMPDEST MLOAD SWAP1 KECCAK256 PUSH1 0x1 SSTORE NUMBER PUSH1 0x3 SSTORE PUSH32 0x527ACF85CCBA1B239DFB26A52C293C25B70A36B9E95D200C917AFDA9F785FBE5 DUP2 DUP1 LOG1 DUP1 RETURN JUMPDEST PUSH1 0x40 MLOAD PUSH3 0x461BCD PUSH1 0xE5 SHL DUP2 MSTORE PUSH1 0x20 PUSH1 0x4 DUP3 ADD MSTORE PUSH1 0x1A PUSH1 0x24 DUP3 ADD MSTORE PUSH32 0x496E76616C6964207661756C742070726F6F6620666F726D6174000000000000 PUSH1 0x44 DUP3 ADD MSTORE PUSH1 0x64 SWAP1 REVERT JUMPDEST PUSH1 0x40 MLOAD PUSH3 0x461BCD PUSH1 0xE5 SHL DUP2 MSTORE PUSH1 0x20 PUSH1 0x4 DUP3 ADD MSTORE PUSH1 0x1B PUSH1 0x24 DUP3 ADD MSTORE PUSH32 0x496E76616C69642063757272656E74207661756C742070726F6F660000000000 PUSH1 0x44 DUP3 ADD MSTORE PUSH1 0x64 SWAP1 REVERT JUMPDEST POP DUP1 REVERT JUMPDEST POP CALLVALUE PUSH2 0x118 JUMPI DUP1 PUSH1 0x3 NOT CALLDATASIZE ADD SLT PUSH2 0x118 JUMPI PUSH1 0x20 PUSH1 0xFF PUSH1 0x2 SLOAD AND PUSH1 0x40 MLOAD SWAP1 ISZERO ISZERO DUP2 MSTORE RETURN JUMPDEST POP CALLVALUE PUSH2 0x118 JUMPI PUSH2 0x300 PUSH2 0x2FB PUSH2 0xB4F PUSH2 0x7ED CALLDATASIZE PUSH2 0xFE5 JUMP JUMPDEST PUSH3 0xF4240 DUP3 LT PUSH2 0xD93 JUMPI PUSH1 0x40 MLOAD PUSH4 0x70A08231 PUSH1 0xE0 SHL DUP2 MSTORE ADDRESS PUSH1 0x4 DUP3 ADD MSTORE PUSH1 0x1 PUSH1 0x1 PUSH1 0xA0 SHL SUB DUP3 AND SWAP2 SWAP1 PUSH1 0x20 DUP2 PUSH1 0x24 DUP2 DUP7 GAS STATICCALL SWAP1 DUP2 ISZERO PUSH2 0xCDB JUMPI DUP6 SWAP2 PUSH2 0xD61 JUMPI JUMPDEST POP PUSH1 0x40 MLOAD SWAP4 PUSH4 0x23B872DD PUSH1 0xE0 SHL DUP7 MSTORE CALLER PUSH1 0x4 MSTORE ADDRESS PUSH1 0x24 MSTORE PUSH1 0x44 MSTORE PUSH1 0x20 DUP6 PUSH1 0x64 DUP2 DUP1 DUP8 GAS CALL PUSH1 0x1 DUP7 MLOAD EQ DUP2 AND ISZERO PUSH2 0xD42 JUMPI JUMPDEST DUP5 PUSH1 0x40 MSTORE DUP6 PUSH1 0x60 MSTORE ISZERO PUSH2 0xD2E JUMPI PUSH4 0x70A08231 PUSH1 0xE0 SHL DUP5 MSTORE ADDRESS PUSH1 0x4 DUP6 ADD MSTORE PUSH1 0x20 DUP5 PUSH1 0x24 DUP2 DUP7 GAS STATICCALL SWAP4 DUP5 ISZERO PUSH2 0xCDB JUMPI DUP6 SWAP5 PUSH2 0xCFA JUMPI JUMPDEST POP DUP4 SUB SWAP3 DUP4 GT PUSH2 0xCE6 JUMPI PUSH1 0x1 PUSH1 0x1 PUSH1 0xA0 SHL SUB SWAP1 PUSH2 0xC10 SWAP1 PUSH2 0x1497 JUMP JUMPDEST DUP5 SLOAD SWAP2 AND SWAP3 SWAP1 PUSH1 0x1 PUSH1 0x1 PUSH1 0xA0 SHL SUB AND DUP5 DUP5 EXTCODESIZE ISZERO PUSH2 0x118 JUMPI PUSH1 0x40 MLOAD PUSH4 0x40C10F19 PUSH1 0xE0 SHL DUP2 MSTORE PUSH1 0x1 PUSH1 0x1 PUSH1 0xA0 SHL SUB SWAP3 SWAP1 SWAP3 AND PUSH1 0x4 DUP4 ADD MSTORE PUSH1 0x24 DUP3 ADD DUP4 SWAP1 MSTORE DUP2 PUSH1 0x44 DUP2 DUP4 DUP9 GAS CALL DUP1 ISZERO PUSH2 0xCDB JUMPI PUSH2 0xCA4 JUMPI JUMPDEST POP PUSH1 0x20 PUSH32 0x112E1A1004A67F1E6C8C480FE3E8516F69226CD76BE7DB72391DB4BB0159D2D2 SWAP2 NUMBER PUSH1 0x3 SSTORE PUSH1 0x40 MLOAD SWAP1 DUP2 MSTORE LOG3 PUSH1 0x1 PUSH1 0x0 DUP1 MLOAD PUSH1 0x20 PUSH2 0x2364 DUP4 CODECOPY DUP2 MLOAD SWAP2 MSTORE SSTORE DUP1 RETURN JUMPDEST DUP5 PUSH2 0xCD3 PUSH32 0x112E1A1004A67F1E6C8C480FE3E8516F69226CD76BE7DB72391DB4BB0159D2D2 SWAP4 SWAP7 PUSH1 0x20 SWAP4 PUSH2 0x106A JUMP JUMPDEST SWAP5 SWAP2 POP PUSH2 0xC5F JUMP JUMPDEST PUSH1 0x40 MLOAD RETURNDATASIZE DUP8 DUP3 RETURNDATACOPY RETURNDATASIZE SWAP1 REVERT JUMPDEST PUSH4 0x4E487B71 PUSH1 0xE0 SHL DUP5 MSTORE PUSH1 0x11 PUSH1 0x4 MSTORE PUSH1 0x24 DUP5 REVERT JUMPDEST SWAP1 SWAP4 POP PUSH1 0x20 DUP2 RETURNDATASIZE PUSH1 0x20 GT PUSH2 0xD26 JUMPI JUMPDEST DUP2 PUSH2 0xD16 PUSH1 0x20 SWAP4 DUP4 PUSH2 0x106A JUMP JUMPDEST DUP2 ADD SUB SLT PUSH2 0x4E3 JUMPI MLOAD SWAP3 CODESIZE PUSH2 0xBF4 JUMP JUMPDEST RETURNDATASIZE SWAP2 POP PUSH2 0xD09 JUMP JUMPDEST PUSH4 0x5274AFE7 PUSH1 0xE0 SHL DUP6 MSTORE PUSH1 0x4 DUP4 SWAP1 MSTORE PUSH1 0x24 DUP6 REVERT JUMPDEST PUSH1 0x1 DUP2 ISZERO AND PUSH2 0xD58 JUMPI DUP4 EXTCODESIZE ISZERO ISZERO RETURNDATASIZE ISZERO AND AND PUSH2 0xBC0 JUMP JUMPDEST DUP5 RETURNDATASIZE DUP8 DUP3 RETURNDATACOPY RETURNDATASIZE SWAP1 REVERT JUMPDEST SWAP1 POP PUSH1 0x20 DUP2 RETURNDATASIZE PUSH1 0x20 GT PUSH2 0xD8B JUMPI JUMPDEST DUP2 PUSH2 0xD7C PUSH1 0x20 SWAP4 DUP4 PUSH2 0x106A JUMP JUMPDEST DUP2 ADD SUB SLT PUSH2 0x4E3 JUMPI MLOAD CODESIZE PUSH2 0xB8F JUMP JUMPDEST RETURNDATASIZE SWAP2 POP PUSH2 0xD6F JUMP JUMPDEST PUSH1 0x40 MLOAD PUSH3 0x461BCD PUSH1 0xE5 SHL DUP2 MSTORE PUSH1 0x20 PUSH1 0x4 DUP3 ADD MSTORE PUSH1 0x14 PUSH1 0x24 DUP3 ADD MSTORE PUSH20 0x416D6F756E742062656C6F77206D696E696D756D PUSH1 0x60 SHL PUSH1 0x44 DUP3 ADD MSTORE PUSH1 0x64 SWAP1 REVERT JUMPDEST POP CALLVALUE PUSH2 0x118 JUMPI PUSH1 0x20 CALLDATASIZE PUSH1 0x3 NOT ADD SLT PUSH2 0x118 JUMPI PUSH1 0x4 CALLDATALOAD PUSH8 0xFFFFFFFFFFFFFFFF DUP2 GT PUSH2 0xB10 JUMPI CALLDATASIZE PUSH1 0x23 DUP3 ADD SLT ISZERO PUSH2 0xB10 JUMPI DUP1 PUSH1 0x4 ADD CALLDATALOAD SWAP1 PUSH8 0xFFFFFFFFFFFFFFFF DUP3 GT PUSH2 0x4F2 JUMPI CALLDATASIZE PUSH1 0x24 DUP4 PUSH1 0x5 SHL DUP4 ADD ADD GT PUSH2 0x4F2 JUMPI PUSH2 0xE36 PUSH1 0x1 DUP1 PUSH1 0xA0 SHL SUB DUP5 SLOAD AND CALLER EQ PUSH2 0x102C JUMP JUMPDEST PUSH2 0xE3E PUSH2 0x12EC JUMP JUMPDEST PUSH1 0x3 SLOAD PUSH3 0x13C680 DUP2 ADD DUP1 SWAP2 GT PUSH2 0xCE6 JUMPI NUMBER LT PUSH2 0xF50 JUMPI DUP3 JUMPDEST DUP3 DUP2 LT ISZERO PUSH2 0xF3A JUMPI PUSH1 0x24 PUSH1 0x5 DUP3 SWAP1 SHL DUP4 ADD ADD CALLDATALOAD PUSH1 0x1 PUSH1 0x1 PUSH1 0xA0 SHL SUB DUP2 AND SWAP2 SWAP1 DUP3 SWAP1 SUB PUSH2 0x4E3 JUMPI PUSH1 0x40 MLOAD PUSH4 0x70A08231 PUSH1 0xE0 SHL DUP2 MSTORE ADDRESS PUSH1 0x4 DUP3 ADD MSTORE SWAP2 PUSH1 0x20 DUP4 PUSH1 0x24 DUP2 DUP5 GAS STATICCALL DUP1 ISZERO PUSH2 0xF2F JUMPI DUP7 SWAP1 PUSH2 0xEFD JUMPI JUMPDEST PUSH1 0x1 SWAP4 POP DUP1 PUSH2 0xEB8 JUMPI JUMPDEST POP POP ADD PUSH2 0xE56 JUMP JUMPDEST PUSH1 0x20 DUP2 PUSH2 0xEEF PUSH32 0x5FAFA99D0643513820BE26656B45130B01E1C03062E1266BF36F88CBD3BD9695 SWAP4 DUP8 DUP1 PUSH1 0xA0 SHL SUB DUP12 SLOAD AND DUP7 PUSH2 0x1328 JUMP JUMPDEST PUSH1 0x40 MLOAD SWAP1 DUP2 MSTORE LOG2 CODESIZE DUP1 PUSH2 0xEB0 JUMP JUMPDEST POP PUSH1 0x20 DUP4 RETURNDATASIZE DUP3 GT PUSH2 0xF27 JUMPI JUMPDEST DUP2 PUSH2 0xF16 PUSH1 0x20 SWAP4 DUP4 PUSH2 0x106A JUMP JUMPDEST DUP2 ADD SUB SLT PUSH2 0x685 JUMPI PUSH1 0x1 SWAP3 MLOAD PUSH2 0xEA6 JUMP JUMPDEST RETURNDATASIZE SWAP2 POP PUSH2 0xF09 JUMP JUMPDEST PUSH1 0x40 MLOAD RETURNDATASIZE DUP9 DUP3 RETURNDATACOPY RETURNDATASIZE SWAP1 REVERT JUMPDEST DUP4 PUSH1 0x1 PUSH1 0x0 DUP1 MLOAD PUSH1 0x20 PUSH2 0x2364 DUP4 CODECOPY DUP2 MLOAD SWAP2 MSTORE SSTORE DUP1 RETURN JUMPDEST PUSH1 0x40 MLOAD PUSH3 0x461BCD PUSH1 0xE5 SHL DUP2 MSTORE PUSH1 0x20 PUSH1 0x4 DUP3 ADD MSTORE PUSH1 0x24 DUP1 DUP3 ADD MSTORE PUSH32 0x456D657267656E6379207769746864726177206E6F742079657420617661696C PUSH1 0x44 DUP3 ADD MSTORE PUSH4 0x61626C65 PUSH1 0xE0 SHL PUSH1 0x64 DUP3 ADD MSTORE PUSH1 0x84 SWAP1 REVERT JUMPDEST PUSH1 0x4 CALLDATALOAD SWAP1 PUSH1 0x1 PUSH1 0x1 PUSH1 0xA0 SHL SUB DUP3 AND DUP3 SUB PUSH2 0x529 JUMPI JUMP JUMPDEST SWAP2 DUP2 PUSH1 0x1F DUP5 ADD SLT ISZERO PUSH2 0x529 JUMPI DUP3 CALLDATALOAD SWAP2 PUSH8 0xFFFFFFFFFFFFFFFF DUP4 GT PUSH2 0x529 JUMPI PUSH1 0x20 DUP4 DUP2 DUP7 ADD SWAP6 ADD ADD GT PUSH2 0x529 JUMPI JUMP JUMPDEST PUSH1 0x60 PUSH1 0x3 NOT DUP3 ADD SLT PUSH2 0x529 JUMPI PUSH1 0x4 CALLDATALOAD PUSH1 0x1 PUSH1 0x1 PUSH1 0xA0 SHL SUB DUP2 AND DUP2 SUB PUSH2 0x529 JUMPI SWAP2 PUSH1 0x24 CALLDATALOAD SWAP2 PUSH1 0x44 CALLDATALOAD SWAP1 PUSH8 0xFFFFFFFFFFFFFFFF DUP3 GT PUSH2 0x529 JUMPI PUSH2 0x1028 SWAP2 PUSH1 0x4 ADD PUSH2 0xFB7 JUMP JUMPDEST SWAP1 SWAP2 JUMP JUMPDEST ISZERO PUSH2 0x1033 JUMPI JUMP JUMPDEST PUSH1 0x40 MLOAD PUSH3 0x461BCD PUSH1 0xE5 SHL DUP2 MSTORE PUSH1 0x20 PUSH1 0x4 DUP3 ADD MSTORE PUSH1 0xF PUSH1 0x24 DUP3 ADD MSTORE PUSH15 0x2737BA103B30BAB63A1037BBB732B9 PUSH1 0x89 SHL PUSH1 0x44 DUP3 ADD MSTORE PUSH1 0x64 SWAP1 REVERT JUMPDEST SWAP1 PUSH1 0x1F DUP1 NOT SWAP2 ADD AND DUP2 ADD SWAP1 DUP2 LT PUSH8 0xFFFFFFFFFFFFFFFF DUP3 GT OR PUSH2 0x108C JUMPI PUSH1 0x40 MSTORE JUMP JUMPDEST PUSH4 0x4E487B71 PUSH1 0xE0 SHL PUSH1 0x0 MSTORE PUSH1 0x41 PUSH1 0x4 MSTORE PUSH1 0x24 PUSH1 0x0 REVERT JUMPDEST PUSH8 0xFFFFFFFFFFFFFFFF DUP2 GT PUSH2 0x108C JUMPI PUSH1 0x1F ADD PUSH1 0x1F NOT AND PUSH1 0x20 ADD SWAP1 JUMP JUMPDEST SWAP3 SWAP2 SWAP3 PUSH2 0x10CA DUP3 PUSH2 0x10A2 JUMP JUMPDEST SWAP2 PUSH2 0x10D8 PUSH1 0x40 MLOAD SWAP4 DUP5 PUSH2 0x106A JUMP JUMPDEST DUP3 SWAP5 DUP2 DUP5 MSTORE DUP2 DUP4 ADD GT PUSH2 0x529 JUMPI DUP3 DUP2 PUSH1 0x20 SWAP4 DUP5 PUSH1 0x0 SWAP7 ADD CALLDATACOPY ADD ADD MSTORE JUMP JUMPDEST ISZERO PUSH2 0x10FC JUMPI JUMP JUMPDEST PUSH1 0x40 MLOAD PUSH3 0x461BCD PUSH1 0xE5 SHL DUP2 MSTORE PUSH1 0x20 PUSH1 0x4 DUP3 ADD MSTORE PUSH1 0x13 PUSH1 0x24 DUP3 ADD MSTORE PUSH19 0x24B73B30B634B2103B30BAB63A10383937B7B3 PUSH1 0x69 SHL PUSH1 0x44 DUP3 ADD MSTORE PUSH1 0x64 SWAP1 REVERT JUMPDEST ISZERO PUSH2 0x113E JUMPI JUMP JUMPDEST PUSH1 0x64 PUSH1 0x40 MLOAD PUSH3 0x461BCD PUSH1 0xE5 SHL DUP2 MSTORE PUSH1 0x20 PUSH1 0x4 DUP3 ADD MSTORE PUSH1 0x20 PUSH1 0x24 DUP3 ADD MSTORE PUSH32 0x416D6F756E74206D7573742062652067726561746572207468616E207A65726F PUSH1 0x44 DUP3 ADD MSTORE REVERT JUMPDEST ISZERO PUSH2 0x1189 JUMPI JUMP JUMPDEST PUSH1 0x40 MLOAD PUSH3 0x461BCD PUSH1 0xE5 SHL DUP2 MSTORE PUSH1 0x20 PUSH1 0x4 DUP3 ADD MSTORE PUSH1 0x12 PUSH1 0x24 DUP3 ADD MSTORE PUSH18 0x151BDAD95B881B9BDD081CDA1A595B191959 PUSH1 0x72 SHL PUSH1 0x44 DUP3 ADD MSTORE PUSH1 0x64 SWAP1 REVERT JUMPDEST ISZERO PUSH2 0x11CA JUMPI JUMP JUMPDEST PUSH1 0x40 MLOAD PUSH3 0x461BCD PUSH1 0xE5 SHL DUP2 MSTORE PUSH1 0x20 PUSH1 0x4 DUP3 ADD MSTORE PUSH1 0x1D PUSH1 0x24 DUP3 ADD MSTORE PUSH32 0x496E73756666696369656E7420736869656C6465642062616C616E6365000000 PUSH1 0x44 DUP3 ADD MSTORE PUSH1 0x64 SWAP1 REVERT JUMPDEST ISZERO PUSH2 0x1216 JUMPI JUMP JUMPDEST PUSH1 0x40 MLOAD PUSH3 0x461BCD PUSH1 0xE5 SHL DUP2 MSTORE PUSH1 0x20 PUSH1 0x4 DUP3 ADD MSTORE PUSH1 0x13 PUSH1 0x24 DUP3 ADD MSTORE PUSH19 0x10DBDB5B5A5D08185B1C9958591E481D5CD959 PUSH1 0x6A SHL PUSH1 0x44 DUP3 ADD MSTORE PUSH1 0x64 SWAP1 REVERT JUMPDEST PUSH1 0x1 PUSH1 0x1 PUSH1 0xA0 SHL SUB SWAP1 DUP2 AND PUSH1 0x0 SWAP1 DUP2 MSTORE PUSH1 0x4 PUSH1 0x20 MSTORE PUSH1 0x40 SWAP1 KECCAK256 SLOAD AND DUP1 ISZERO PUSH2 0x12E6 JUMPI PUSH1 0x20 PUSH1 0x1 DUP1 PUSH1 0xA0 SHL SUB PUSH1 0x0 SLOAD AND PUSH1 0x24 PUSH1 0x40 MLOAD DUP1 SWAP5 DUP2 SWAP4 PUSH4 0x70A08231 PUSH1 0xE0 SHL DUP4 MSTORE PUSH1 0x4 DUP4 ADD MSTORE GAS STATICCALL SWAP1 DUP2 ISZERO PUSH2 0x12DA JUMPI PUSH1 0x0 SWAP2 PUSH2 0x12AB JUMPI POP SWAP1 JUMP JUMPDEST SWAP1 POP PUSH1 0x20 DUP2 RETURNDATASIZE PUSH1 0x20 GT PUSH2 0x12D2 JUMPI JUMPDEST DUP2 PUSH2 0x12C6 PUSH1 0x20 SWAP4 DUP4 PUSH2 0x106A JUMP JUMPDEST DUP2 ADD SUB SLT PUSH2 0x529 JUMPI MLOAD SWAP1 JUMP JUMPDEST RETURNDATASIZE SWAP2 POP PUSH2 0x12B9 JUMP JUMPDEST PUSH1 0x40 MLOAD RETURNDATASIZE PUSH1 0x0 DUP3 RETURNDATACOPY RETURNDATASIZE SWAP1 REVERT JUMPDEST POP PUSH1 0x0 SWAP1 JUMP JUMPDEST PUSH1 0x2 PUSH1 0x0 DUP1 MLOAD PUSH1 0x20 PUSH2 0x2364 DUP4 CODECOPY DUP2 MLOAD SWAP2 MSTORE SLOAD EQ PUSH2 0x1317 JUMPI PUSH1 0x2 PUSH1 0x0 DUP1 MLOAD PUSH1 0x20 PUSH2 0x2364 DUP4 CODECOPY DUP2 MLOAD SWAP2 MSTORE SSTORE JUMP JUMPDEST PUSH4 0x3EE5AEB5 PUSH1 0xE0 SHL PUSH1 0x0 MSTORE PUSH1 0x4 PUSH1 0x0 REVERT JUMPDEST PUSH1 0x40 MLOAD PUSH4 0xA9059CBB PUSH1 0xE0 SHL PUSH1 0x0 SWAP1 DUP2 MSTORE PUSH1 0x1 PUSH1 0x1 PUSH1 0xA0 SHL SUB SWAP1 SWAP4 AND PUSH1 0x4 MSTORE PUSH1 0x24 SWAP4 SWAP1 SWAP4 MSTORE SWAP2 SWAP1 PUSH1 0x20 SWAP1 PUSH1 0x44 DUP2 DUP1 DUP7 GAS CALL SWAP1 PUSH1 0x1 PUSH1 0x0 MLOAD EQ DUP3 AND ISZERO PUSH2 0x1393 JUMPI JUMPDEST PUSH1 0x40 MSTORE ISZERO PUSH2 0x1372 JUMPI POP JUMP JUMPDEST PUSH4 0x5274AFE7 PUSH1 0xE0 SHL PUSH1 0x0 SWAP1 DUP2 MSTORE PUSH1 0x1 PUSH1 0x1 PUSH1 0xA0 SHL SUB SWAP2 SWAP1 SWAP2 AND PUSH1 0x4 MSTORE PUSH1 0x24 SWAP1 REVERT JUMPDEST SWAP1 PUSH1 0x1 DUP2 ISZERO AND PUSH2 0x13AB JUMPI DUP3 EXTCODESIZE ISZERO ISZERO RETURNDATASIZE ISZERO AND AND SWAP1 PUSH2 0x1367 JUMP JUMPDEST POP RETURNDATASIZE PUSH1 0x0 DUP3 RETURNDATACOPY RETURNDATASIZE SWAP1 REVERT JUMPDEST PUSH1 0x0 JUMPDEST DUP4 DUP2 LT PUSH2 0x13C8 JUMPI POP POP PUSH1 0x0 SWAP2 ADD MSTORE JUMP JUMPDEST DUP2 DUP2 ADD MLOAD DUP4 DUP3 ADD MSTORE PUSH1 0x20 ADD PUSH2 0x13B8 JUMP JUMPDEST PUSH1 0x40 MLOAD PUSH2 0x1406 PUSH1 0x20 DUP3 DUP2 PUSH2 0x13F5 DUP2 DUP4 ADD SWAP7 DUP8 DUP2 MLOAD SWAP4 DUP5 SWAP3 ADD PUSH2 0x13B5 JUMP JUMPDEST DUP2 ADD SUB ADD PUSH1 0x1F NOT DUP2 ADD DUP4 MSTORE DUP3 PUSH2 0x106A JUMP JUMPDEST MLOAD SWAP1 KECCAK256 PUSH1 0x1 SLOAD EQ SWAP1 JUMP JUMPDEST PUSH1 0x20 DUP2 DUP4 SUB SLT PUSH2 0x529 JUMPI DUP1 MLOAD SWAP1 PUSH8 0xFFFFFFFFFFFFFFFF DUP3 GT PUSH2 0x529 JUMPI ADD DUP2 PUSH1 0x1F DUP3 ADD SLT ISZERO PUSH2 0x529 JUMPI DUP1 MLOAD PUSH2 0x1443 DUP2 PUSH2 0x10A2 JUMP JUMPDEST SWAP3 PUSH2 0x1451 PUSH1 0x40 MLOAD SWAP5 DUP6 PUSH2 0x106A JUMP JUMPDEST DUP2 DUP5 MSTORE PUSH1 0x20 DUP3 DUP5 ADD ADD GT PUSH2 0x529 JUMPI PUSH2 0x146F SWAP2 PUSH1 0x20 DUP1 DUP6 ADD SWAP2 ADD PUSH2 0x13B5 JUMP JUMPDEST SWAP1 JUMP JUMPDEST SWAP1 PUSH1 0x20 SWAP2 PUSH2 0x148B DUP2 MLOAD DUP1 SWAP3 DUP2 DUP6 MSTORE DUP6 DUP1 DUP7 ADD SWAP2 ADD PUSH2 0x13B5 JUMP JUMPDEST PUSH1 0x1F ADD PUSH1 0x1F NOT AND ADD ADD SWAP1 JUMP JUMPDEST PUSH1 0x1 PUSH1 0x1 PUSH1 0xA0 SHL SUB SWAP1 DUP2 AND PUSH1 0x0 DUP2 DUP2 MSTORE PUSH1 0x4 PUSH1 0x20 MSTORE PUSH1 0x40 SWAP1 KECCAK256 SLOAD SWAP1 SWAP2 AND PUSH2 0x1707 JUMPI PUSH1 0x40 MLOAD PUSH4 0x6FDDE03 PUSH1 0xE0 SHL DUP2 MSTORE PUSH1 0x0 DUP1 DUP3 PUSH1 0x4 DUP2 DUP7 GAS STATICCALL SWAP1 SWAP2 DUP3 DUP3 PUSH2 0x16EA JUMPI JUMPDEST POP POP PUSH2 0x16BE JUMPI POP PUSH1 0x40 MLOAD PUSH2 0x14ED PUSH1 0x40 DUP3 PUSH2 0x106A JUMP JUMPDEST PUSH1 0x6 DUP2 MSTORE PUSH6 0x38AA37B5B2B7 PUSH1 0xD1 SHL PUSH1 0x20 DUP3 ADD MSTORE JUMPDEST PUSH1 0x40 MLOAD PUSH4 0x95D89B41 PUSH1 0xE0 SHL DUP2 MSTORE PUSH1 0x0 DUP2 PUSH1 0x4 DUP2 DUP7 GAS STATICCALL PUSH1 0x0 SWAP2 DUP2 PUSH2 0x1699 JUMPI JUMPDEST POP PUSH2 0x166C JUMPI POP PUSH1 0x40 MLOAD PUSH2 0x1534 PUSH1 0x40 DUP3 PUSH2 0x106A JUMP JUMPDEST PUSH1 0x4 DUP2 MSTORE PUSH4 0x38AA25A7 PUSH1 0xE1 SHL PUSH1 0x20 DUP3 ADD MSTORE SWAP1 JUMPDEST PUSH1 0x40 MLOAD PUSH4 0x313CE567 PUSH1 0xE0 SHL DUP2 MSTORE PUSH1 0x12 SWAP1 PUSH1 0x20 DUP2 PUSH1 0x4 DUP2 DUP9 GAS STATICCALL DUP1 SWAP2 PUSH1 0x0 SWAP2 PUSH2 0x1630 JUMPI JUMPDEST POP SWAP1 PUSH2 0x1628 JUMPI JUMPDEST POP PUSH1 0x40 MLOAD SWAP3 PUSH2 0xB2F SWAP1 DUP2 DUP6 ADD SWAP2 DUP6 DUP4 LT PUSH8 0xFFFFFFFFFFFFFFFF DUP5 GT OR PUSH2 0x108C JUMPI PUSH2 0x15C0 PUSH1 0x60 SWAP3 PUSH2 0x15B2 DUP9 SWAP8 PUSH1 0xFF SWAP5 PUSH2 0x1835 DUP11 CODECOPY PUSH1 0x80 DUP8 MSTORE PUSH1 0x80 DUP8 ADD SWAP1 PUSH2 0x1472 JUMP JUMPDEST SWAP1 DUP6 DUP3 SUB PUSH1 0x20 DUP8 ADD MSTORE PUSH2 0x1472 JUMP JUMPDEST SWAP4 ADDRESS PUSH1 0x40 DUP6 ADD MSTORE AND SWAP2 ADD MSTORE SUB SWAP1 PUSH1 0x0 CREATE DUP1 ISZERO PUSH2 0x12DA JUMPI PUSH1 0x1 DUP1 PUSH1 0xA0 SHL SUB AND DUP2 DUP2 SWAP3 PUSH1 0x0 MSTORE PUSH1 0x4 PUSH1 0x20 MSTORE PUSH1 0x40 PUSH1 0x0 KECCAK256 DUP3 PUSH1 0x1 PUSH1 0x1 PUSH1 0x60 SHL SUB PUSH1 0xA0 SHL DUP3 SLOAD AND OR SWAP1 SSTORE PUSH32 0xA9B482826B98AF85A8A9E7E42EF14980212BEA648C0F68DFB0FA437BA2E21C4E PUSH1 0x0 DUP1 LOG3 SWAP1 JUMP JUMPDEST SWAP1 POP CODESIZE PUSH2 0x1571 JUMP JUMPDEST PUSH1 0x20 DUP2 RETURNDATASIZE PUSH1 0x20 GT PUSH2 0x1664 JUMPI JUMPDEST DUP2 PUSH2 0x1649 PUSH1 0x20 SWAP4 DUP4 PUSH2 0x106A JUMP JUMPDEST DUP2 ADD SUB SLT PUSH2 0xB10 JUMPI MLOAD SWAP1 PUSH1 0xFF DUP3 AND DUP3 SUB PUSH2 0x118 JUMPI POP CODESIZE PUSH2 0x156A JUMP JUMPDEST RETURNDATASIZE SWAP2 POP PUSH2 0x163C JUMP JUMPDEST PUSH2 0x1693 PUSH1 0x21 PUSH1 0x40 MLOAD DUP1 SWAP4 PUSH1 0x71 PUSH1 0xF8 SHL PUSH1 0x20 DUP4 ADD MSTORE PUSH2 0x13F5 DUP2 MLOAD DUP1 SWAP3 PUSH1 0x20 DUP7 DUP7 ADD SWAP2 ADD PUSH2 0x13B5 JUMP JUMPDEST SWAP1 PUSH2 0x1547 JUMP JUMPDEST PUSH2 0x16B7 SWAP2 SWAP3 POP RETURNDATASIZE DUP1 PUSH1 0x0 DUP4 RETURNDATACOPY PUSH2 0x16AF DUP2 DUP4 PUSH2 0x106A JUMP JUMPDEST DUP2 ADD SWAP1 PUSH2 0x1410 JUMP JUMPDEST SWAP1 CODESIZE PUSH2 0x1520 JUMP JUMPDEST PUSH2 0x16E5 PUSH1 0x21 PUSH1 0x40 MLOAD DUP1 SWAP4 PUSH1 0x71 PUSH1 0xF8 SHL PUSH1 0x20 DUP4 ADD MSTORE PUSH2 0x13F5 DUP2 MLOAD DUP1 SWAP3 PUSH1 0x20 DUP7 DUP7 ADD SWAP2 ADD PUSH2 0x13B5 JUMP JUMPDEST PUSH2 0x1501 JUMP JUMPDEST PUSH2 0x16FF SWAP3 SWAP4 POP RETURNDATASIZE DUP1 SWAP2 DUP4 RETURNDATACOPY PUSH2 0x16AF DUP2 DUP4 PUSH2 0x106A JUMP JUMPDEST SWAP1 CODESIZE DUP1 PUSH2 0x14D8 JUMP JUMPDEST PUSH1 0x0 SWAP1 DUP2 MSTORE PUSH1 0x4 PUSH1 0x20 MSTORE PUSH1 0x40 SWAP1 KECCAK256 SLOAD PUSH1 0x1 PUSH1 0x1 PUSH1 0xA0 SHL SUB AND SWAP1 JUMP JUMPDEST PUSH1 0xFF AND PUSH1 0xFF DUP2 EQ PUSH2 0x1733 JUMPI PUSH1 0x1 ADD SWAP1 JUMP JUMPDEST PUSH4 0x4E487B71 PUSH1 0xE0 SHL PUSH1 0x0 MSTORE PUSH1 0x11 PUSH1 0x4 MSTORE PUSH1 0x24 PUSH1 0x0 REVERT JUMPDEST PUSH1 0x6 DUP2 MLOAD SUB PUSH2 0x12E6 JUMPI PUSH1 0x0 DUP1 SWAP2 PUSH1 0x0 SWAP1 JUMPDEST PUSH1 0x6 DUP3 LT PUSH2 0x177F JUMPI POP POP PUSH1 0xFF AND PUSH1 0x3 EQ SWAP1 DUP2 PUSH2 0x1774 JUMPI POP SWAP1 JUMP JUMPDEST PUSH1 0x3 SWAP2 POP PUSH1 0xFF AND EQ SWAP1 JUMP JUMPDEST SWAP1 SWAP2 DUP2 MLOAD DUP4 LT ISZERO PUSH2 0x181E JUMPI PUSH1 0x20 DUP4 DUP4 ADD ADD MLOAD PUSH1 0xF8 SHR PUSH1 0x41 DUP2 LT ISZERO DUP1 PUSH2 0x1813 JUMPI JUMPDEST DUP1 ISZERO PUSH2 0x17FC JUMPI JUMPDEST ISZERO PUSH2 0x17C0 JUMPI POP PUSH2 0x17B7 PUSH1 0x1 SWAP2 PUSH2 0x1722 JUMP JUMPDEST SWAP3 JUMPDEST ADD SWAP1 PUSH2 0x175A JUMP JUMPDEST PUSH1 0x30 DUP2 SWAP6 SWAP3 SWAP5 SWAP6 LT ISZERO SWAP1 DUP2 PUSH2 0x17F0 JUMPI JUMPDEST POP ISZERO PUSH2 0x17E7 JUMPI PUSH2 0x17E1 PUSH1 0x1 SWAP2 PUSH2 0x1722 JUMP JUMPDEST SWAP4 PUSH2 0x17B9 JUMP JUMPDEST POP POP POP POP PUSH1 0x0 SWAP1 JUMP JUMPDEST PUSH1 0x39 SWAP2 POP GT ISZERO CODESIZE PUSH2 0x17D0 JUMP JUMPDEST POP PUSH1 0x61 DUP2 LT ISZERO DUP1 ISZERO PUSH2 0x17A6 JUMPI POP PUSH1 0x7A DUP2 GT ISZERO PUSH2 0x17A6 JUMP JUMPDEST POP PUSH1 0x5A DUP2 GT ISZERO PUSH2 0x179F JUMP JUMPDEST PUSH4 0x4E487B71 PUSH1 0xE0 SHL PUSH1 0x0 MSTORE PUSH1 0x32 PUSH1 0x4 MSTORE PUSH1 0x24 PUSH1 0x0 REVERT INVALID PUSH1 0x80 PUSH1 0x40 MSTORE CALLVALUE PUSH2 0x38A JUMPI PUSH2 0xB2F DUP1 CODESIZE SUB DUP1 PUSH2 0x19 DUP2 PUSH2 0x38F JUMP JUMPDEST SWAP3 DUP4 CODECOPY DUP2 ADD SWAP1 PUSH1 0x80 DUP2 DUP4 SUB SLT PUSH2 0x38A JUMPI DUP1 MLOAD PUSH1 0x1 PUSH1 0x1 PUSH1 0x40 SHL SUB DUP2 GT PUSH2 0x38A JUMPI DUP3 PUSH2 0x45 SWAP2 DUP4 ADD PUSH2 0x3B4 JUMP JUMPDEST PUSH1 0x20 DUP3 ADD MLOAD SWAP1 SWAP3 PUSH1 0x1 PUSH1 0x1 PUSH1 0x40 SHL SUB DUP3 GT PUSH2 0x38A JUMPI PUSH2 0x65 SWAP2 DUP4 ADD PUSH2 0x3B4 JUMP JUMPDEST PUSH1 0x40 DUP3 ADD MLOAD SWAP1 SWAP2 PUSH1 0x1 PUSH1 0x1 PUSH1 0xA0 SHL SUB DUP3 AND SWAP2 DUP3 SWAP1 SUB PUSH2 0x38A JUMPI PUSH1 0x60 ADD MLOAD SWAP1 PUSH1 0xFF DUP3 AND DUP3 SUB PUSH2 0x38A JUMPI DUP4 MLOAD PUSH1 0x1 PUSH1 0x1 PUSH1 0x40 SHL SUB DUP2 GT PUSH2 0x286 JUMPI PUSH1 0x3 SLOAD PUSH1 0x1 DUP2 DUP2 SHR SWAP2 AND DUP1 ISZERO PUSH2 0x380 JUMPI JUMPDEST PUSH1 0x20 DUP3 LT EQ PUSH2 0x266 JUMPI PUSH1 0x1F DUP2 GT PUSH2 0x30E JUMPI JUMPDEST POP PUSH1 0x20 SWAP5 PUSH1 0x1F DUP3 GT PUSH1 0x1 EQ PUSH2 0x2A7 JUMPI SWAP5 DUP2 SWAP3 SWAP4 SWAP5 SWAP6 PUSH1 0x0 SWAP3 PUSH2 0x29C JUMPI JUMPDEST POP POP DUP2 PUSH1 0x1 SHL SWAP2 PUSH1 0x0 NOT SWAP1 PUSH1 0x3 SHL SHR NOT AND OR PUSH1 0x3 SSTORE JUMPDEST DUP3 MLOAD PUSH1 0x1 PUSH1 0x1 PUSH1 0x40 SHL SUB DUP2 GT PUSH2 0x286 JUMPI PUSH1 0x4 SLOAD PUSH1 0x1 DUP2 DUP2 SHR SWAP2 AND DUP1 ISZERO PUSH2 0x27C JUMPI JUMPDEST PUSH1 0x20 DUP3 LT EQ PUSH2 0x266 JUMPI PUSH1 0x1F DUP2 GT PUSH2 0x1F4 JUMPI JUMPDEST POP PUSH1 0x20 PUSH1 0x1F DUP3 GT PUSH1 0x1 EQ PUSH2 0x18D JUMPI DUP2 SWAP3 SWAP4 SWAP5 PUSH1 0x0 SWAP3 PUSH2 0x182 JUMPI JUMPDEST POP POP DUP2 PUSH1 0x1 SHL SWAP2 PUSH1 0x0 NOT SWAP1 PUSH1 0x3 SHL SHR NOT AND OR PUSH1 0x4 SSTORE JUMPDEST PUSH1 0x5 SLOAD SWAP2 PUSH1 0xFF PUSH1 0xA0 SHL SWAP1 PUSH1 0xA0 SHL AND SWAP2 PUSH1 0x1 DUP1 PUSH1 0xA8 SHL SUB NOT AND OR OR PUSH1 0x5 SSTORE PUSH1 0x40 MLOAD PUSH2 0x70F SWAP1 DUP2 PUSH2 0x420 DUP3 CODECOPY RETURN JUMPDEST ADD MLOAD SWAP1 POP CODESIZE DUP1 PUSH2 0x140 JUMP JUMPDEST PUSH1 0x1F NOT DUP3 AND SWAP1 PUSH1 0x4 PUSH1 0x0 MSTORE DUP1 PUSH1 0x0 KECCAK256 SWAP2 PUSH1 0x0 JUMPDEST DUP2 DUP2 LT PUSH2 0x1DC JUMPI POP SWAP6 DUP4 PUSH1 0x1 SWAP6 SWAP7 SWAP8 LT PUSH2 0x1C3 JUMPI JUMPDEST POP POP POP DUP2 SHL ADD PUSH1 0x4 SSTORE PUSH2 0x156 JUMP JUMPDEST ADD MLOAD PUSH1 0x0 NOT PUSH1 0xF8 DUP5 PUSH1 0x3 SHL AND SHR NOT AND SWAP1 SSTORE CODESIZE DUP1 DUP1 PUSH2 0x1B5 JUMP JUMPDEST SWAP2 SWAP3 PUSH1 0x20 PUSH1 0x1 DUP2 SWAP3 DUP7 DUP12 ADD MLOAD DUP2 SSTORE ADD SWAP5 ADD SWAP3 ADD PUSH2 0x1A0 JUMP JUMPDEST DUP2 DUP2 GT ISZERO PUSH2 0x126 JUMPI PUSH1 0x4 PUSH1 0x0 MSTORE PUSH1 0x1F DUP3 ADD PUSH1 0x5 SHR PUSH32 0x8A35ACFBC15FF81A39AE7D344FD709F28E8600B4AA8C65C6B64BFE7FE36BD19B PUSH1 0x20 DUP5 LT PUSH2 0x25D JUMPI JUMPDEST DUP2 PUSH1 0x1F SWAP2 ADD SWAP3 ADD PUSH1 0x5 SHR SUB SWAP1 PUSH1 0x0 JUMPDEST DUP3 DUP2 LT PUSH2 0x24F JUMPI POP POP PUSH2 0x126 JUMP JUMPDEST PUSH1 0x0 DUP3 DUP3 ADD SSTORE PUSH1 0x1 ADD PUSH2 0x241 JUMP JUMPDEST PUSH1 0x0 SWAP2 POP PUSH2 0x232 JUMP JUMPDEST PUSH4 0x4E487B71 PUSH1 0xE0 SHL PUSH1 0x0 MSTORE PUSH1 0x22 PUSH1 0x4 MSTORE PUSH1 0x24 PUSH1 0x0 REVERT JUMPDEST SWAP1 PUSH1 0x7F AND SWAP1 PUSH2 0x114 JUMP JUMPDEST PUSH4 0x4E487B71 PUSH1 0xE0 SHL PUSH1 0x0 MSTORE PUSH1 0x41 PUSH1 0x4 MSTORE PUSH1 0x24 PUSH1 0x0 REVERT JUMPDEST ADD MLOAD SWAP1 POP CODESIZE DUP1 PUSH2 0xDD JUMP JUMPDEST PUSH1 0x1F NOT DUP3 AND SWAP6 PUSH1 0x3 PUSH1 0x0 MSTORE DUP1 PUSH1 0x0 KECCAK256 SWAP2 PUSH1 0x0 JUMPDEST DUP9 DUP2 LT PUSH2 0x2F6 JUMPI POP DUP4 PUSH1 0x1 SWAP6 SWAP7 SWAP8 SWAP9 LT PUSH2 0x2DD JUMPI JUMPDEST POP POP POP DUP2 SHL ADD PUSH1 0x3 SSTORE PUSH2 0xF3 JUMP JUMPDEST ADD MLOAD PUSH1 0x0 NOT PUSH1 0xF8 DUP5 PUSH1 0x3 SHL AND SHR NOT AND SWAP1 SSTORE CODESIZE DUP1 DUP1 PUSH2 0x2CF JUMP JUMPDEST SWAP2 SWAP3 PUSH1 0x20 PUSH1 0x1 DUP2 SWAP3 DUP7 DUP6 ADD MLOAD DUP2 SSTORE ADD SWAP5 ADD SWAP3 ADD PUSH2 0x2BA JUMP JUMPDEST DUP2 DUP2 GT ISZERO PUSH2 0xC0 JUMPI PUSH1 0x3 PUSH1 0x0 MSTORE PUSH1 0x1F DUP3 ADD PUSH1 0x5 SHR PUSH32 0xC2575A0E9E593C00F959F8C92F12DB2869C3395A3B0502D05E2516446F71F85B PUSH1 0x20 DUP5 LT PUSH2 0x377 JUMPI JUMPDEST DUP2 PUSH1 0x1F SWAP2 ADD SWAP3 ADD PUSH1 0x5 SHR SUB SWAP1 PUSH1 0x0 JUMPDEST DUP3 DUP2 LT PUSH2 0x369 JUMPI POP POP PUSH2 0xC0 JUMP JUMPDEST PUSH1 0x0 DUP3 DUP3 ADD SSTORE PUSH1 0x1 ADD PUSH2 0x35B JUMP JUMPDEST PUSH1 0x0 SWAP2 POP PUSH2 0x34C JUMP JUMPDEST SWAP1 PUSH1 0x7F AND SWAP1 PUSH2 0xAE JUMP JUMPDEST PUSH1 0x0 DUP1 REVERT JUMPDEST PUSH1 0x40 MLOAD SWAP2 SWAP1 PUSH1 0x1F ADD PUSH1 0x1F NOT AND DUP3 ADD PUSH1 0x1 PUSH1 0x1 PUSH1 0x40 SHL SUB DUP2 GT DUP4 DUP3 LT OR PUSH2 0x286 JUMPI PUSH1 0x40 MSTORE JUMP JUMPDEST DUP2 PUSH1 0x1F DUP3 ADD SLT ISZERO PUSH2 0x38A JUMPI DUP1 MLOAD SWAP1 PUSH1 0x1 PUSH1 0x1 PUSH1 0x40 SHL SUB DUP3 GT PUSH2 0x286 JUMPI PUSH2 0x3E3 PUSH1 0x1F DUP4 ADD PUSH1 0x1F NOT AND PUSH1 0x20 ADD PUSH2 0x38F JUMP JUMPDEST SWAP3 DUP3 DUP5 MSTORE PUSH1 0x20 DUP4 DUP4 ADD ADD GT PUSH2 0x38A JUMPI PUSH1 0x0 JUMPDEST DUP3 DUP2 LT PUSH2 0x40A JUMPI POP POP PUSH1 0x20 PUSH1 0x0 SWAP2 DUP4 ADD ADD MSTORE SWAP1 JUMP JUMPDEST DUP1 PUSH1 0x20 DUP1 SWAP3 DUP5 ADD ADD MLOAD DUP3 DUP3 DUP8 ADD ADD MSTORE ADD PUSH2 0x3F5 JUMP INVALID PUSH1 0x80 DUP1 PUSH1 0x40 MSTORE PUSH1 0x4 CALLDATASIZE LT ISZERO PUSH2 0x13 JUMPI PUSH1 0x0 DUP1 REVERT JUMPDEST PUSH1 0x0 CALLDATALOAD PUSH1 0xE0 SHR SWAP1 DUP2 PUSH4 0x6FDDE03 EQ PUSH2 0x4EC JUMPI POP DUP1 PUSH4 0x95EA7B3 EQ PUSH2 0x48D JUMPI DUP1 PUSH4 0x18160DDD EQ PUSH2 0x46F JUMPI DUP1 PUSH4 0x23B872DD EQ PUSH2 0x44D JUMPI DUP1 PUSH4 0x313CE567 EQ PUSH2 0x429 JUMPI DUP1 PUSH4 0x40C10F19 EQ PUSH2 0x368 JUMPI DUP1 PUSH4 0x70A08231 EQ PUSH2 0x32E JUMPI DUP1 PUSH4 0x95D89B41 EQ PUSH2 0x20D JUMPI DUP1 PUSH4 0x9DC29FAC EQ PUSH2 0x141 JUMPI DUP1 PUSH4 0xA9059CBB EQ PUSH2 0x122 JUMPI DUP1 PUSH4 0xDD62ED3E EQ PUSH2 0xD1 JUMPI PUSH4 0xFBFA77CF EQ PUSH2 0xA3 JUMPI PUSH1 0x0 DUP1 REVERT JUMPDEST CALLVALUE PUSH2 0xCC JUMPI PUSH1 0x0 CALLDATASIZE PUSH1 0x3 NOT ADD SLT PUSH2 0xCC JUMPI PUSH1 0x5 SLOAD PUSH1 0x40 MLOAD PUSH1 0x1 PUSH1 0x1 PUSH1 0xA0 SHL SUB SWAP1 SWAP2 AND DUP2 MSTORE PUSH1 0x20 SWAP1 RETURN JUMPDEST PUSH1 0x0 DUP1 REVERT JUMPDEST CALLVALUE PUSH2 0xCC JUMPI PUSH1 0x40 CALLDATASIZE PUSH1 0x3 NOT ADD SLT PUSH2 0xCC JUMPI PUSH2 0xEA PUSH2 0x608 JUMP JUMPDEST PUSH2 0xF2 PUSH2 0x61E JUMP JUMPDEST PUSH1 0x1 PUSH1 0x1 PUSH1 0xA0 SHL SUB SWAP2 DUP3 AND PUSH1 0x0 SWAP1 DUP2 MSTORE PUSH1 0x1 PUSH1 0x20 SWAP1 DUP2 MSTORE PUSH1 0x40 DUP1 DUP4 KECCAK256 SWAP5 SWAP1 SWAP4 AND DUP3 MSTORE SWAP3 DUP4 MSTORE DUP2 SWAP1 KECCAK256 SLOAD SWAP1 MLOAD SWAP1 DUP2 MSTORE RETURN JUMPDEST CALLVALUE PUSH2 0xCC JUMPI PUSH1 0x40 CALLDATASIZE PUSH1 0x3 NOT ADD SLT PUSH2 0xCC JUMPI PUSH2 0x13B PUSH2 0x608 JUMP JUMPDEST POP PUSH2 0x634 JUMP JUMPDEST CALLVALUE PUSH2 0xCC JUMPI PUSH1 0x40 CALLDATASIZE PUSH1 0x3 NOT ADD SLT PUSH2 0xCC JUMPI PUSH2 0x15A PUSH2 0x608 JUMP JUMPDEST PUSH1 0x24 CALLDATALOAD SWAP1 PUSH2 0x173 PUSH1 0x1 DUP1 PUSH1 0xA0 SHL SUB PUSH1 0x5 SLOAD AND CALLER EQ PUSH2 0x68D JUMP JUMPDEST PUSH1 0x1 PUSH1 0x1 PUSH1 0xA0 SHL SUB AND SWAP1 DUP2 ISZERO PUSH2 0x1F7 JUMPI PUSH1 0x0 SWAP1 DUP3 DUP3 MSTORE DUP2 PUSH1 0x20 MSTORE PUSH1 0x40 DUP3 KECCAK256 SLOAD DUP2 DUP2 LT PUSH2 0x1DF JUMPI PUSH1 0x20 DUP3 DUP6 SWAP4 PUSH32 0xDDF252AD1BE2C89B69C2B068FC378DAA952BA7F163C4A11628F55A4DF523B3EF SWAP4 DUP7 SWAP8 DUP8 MSTORE DUP7 DUP5 MSTORE SUB PUSH1 0x40 DUP7 KECCAK256 SSTORE DUP1 PUSH1 0x2 SLOAD SUB PUSH1 0x2 SSTORE PUSH1 0x40 MLOAD SWAP1 DUP2 MSTORE LOG3 DUP1 RETURN JUMPDEST PUSH1 0x64 SWAP4 PUSH4 0x391434E3 PUSH1 0xE2 SHL DUP5 MSTORE PUSH1 0x4 MSTORE PUSH1 0x24 MSTORE PUSH1 0x44 MSTORE REVERT JUMPDEST PUSH4 0x4B637E8F PUSH1 0xE1 SHL PUSH1 0x0 MSTORE PUSH1 0x0 PUSH1 0x4 MSTORE PUSH1 0x24 PUSH1 0x0 REVERT JUMPDEST CALLVALUE PUSH2 0xCC JUMPI PUSH1 0x0 CALLDATASIZE PUSH1 0x3 NOT ADD SLT PUSH2 0xCC JUMPI PUSH1 0x40 MLOAD PUSH1 0x0 PUSH1 0x4 SLOAD DUP1 PUSH1 0x1 SHR SWAP1 PUSH1 0x1 DUP2 AND DUP1 ISZERO PUSH2 0x324 JUMPI JUMPDEST PUSH1 0x20 DUP4 LT DUP2 EQ PUSH2 0x310 JUMPI DUP3 DUP6 MSTORE SWAP1 DUP2 ISZERO PUSH2 0x2F4 JUMPI POP PUSH1 0x1 EQ PUSH2 0x29D JUMPI JUMPDEST POP DUP2 SWAP1 SUB PUSH1 0x1F ADD PUSH1 0x1F NOT AND DUP2 ADD SWAP1 PUSH8 0xFFFFFFFFFFFFFFFF DUP3 GT DUP2 DUP4 LT OR PUSH2 0x287 JUMPI PUSH2 0x283 DUP3 SWAP2 DUP3 PUSH1 0x40 MSTORE DUP3 PUSH2 0x5BF JUMP JUMPDEST SUB SWAP1 RETURN JUMPDEST PUSH4 0x4E487B71 PUSH1 0xE0 SHL PUSH1 0x0 MSTORE PUSH1 0x41 PUSH1 0x4 MSTORE PUSH1 0x24 PUSH1 0x0 REVERT JUMPDEST SWAP1 POP PUSH1 0x4 PUSH1 0x0 MSTORE PUSH32 0x8A35ACFBC15FF81A39AE7D344FD709F28E8600B4AA8C65C6B64BFE7FE36BD19B PUSH1 0x0 SWAP1 JUMPDEST DUP3 DUP3 LT PUSH2 0x2DE JUMPI POP PUSH1 0x20 SWAP2 POP DUP3 ADD ADD DUP3 PUSH2 0x253 JUMP JUMPDEST PUSH1 0x1 DUP2 PUSH1 0x20 SWAP3 SLOAD DUP4 DUP6 DUP9 ADD ADD MSTORE ADD SWAP2 ADD SWAP1 PUSH2 0x2C9 JUMP JUMPDEST SWAP1 POP PUSH1 0x20 SWAP3 POP PUSH1 0xFF NOT AND DUP3 DUP5 ADD MSTORE ISZERO ISZERO PUSH1 0x5 SHL DUP3 ADD ADD DUP3 PUSH2 0x253 JUMP JUMPDEST PUSH4 0x4E487B71 PUSH1 0xE0 SHL DUP5 MSTORE PUSH1 0x22 PUSH1 0x4 MSTORE PUSH1 0x24 DUP5 REVERT JUMPDEST SWAP2 PUSH1 0x7F AND SWAP2 PUSH2 0x236 JUMP JUMPDEST CALLVALUE PUSH2 0xCC JUMPI PUSH1 0x20 CALLDATASIZE PUSH1 0x3 NOT ADD SLT PUSH2 0xCC JUMPI PUSH1 0x1 PUSH1 0x1 PUSH1 0xA0 SHL SUB PUSH2 0x34F PUSH2 0x608 JUMP JUMPDEST AND PUSH1 0x0 MSTORE PUSH1 0x0 PUSH1 0x20 MSTORE PUSH1 0x20 PUSH1 0x40 PUSH1 0x0 KECCAK256 SLOAD PUSH1 0x40 MLOAD SWAP1 DUP2 MSTORE RETURN JUMPDEST CALLVALUE PUSH2 0xCC JUMPI PUSH1 0x40 CALLDATASIZE PUSH1 0x3 NOT ADD SLT PUSH2 0xCC JUMPI PUSH2 0x381 PUSH2 0x608 JUMP JUMPDEST PUSH1 0x24 CALLDATALOAD SWAP1 PUSH2 0x39A PUSH1 0x1 DUP1 PUSH1 0xA0 SHL SUB PUSH1 0x5 SLOAD AND CALLER EQ PUSH2 0x68D JUMP JUMPDEST PUSH1 0x1 PUSH1 0x1 PUSH1 0xA0 SHL SUB AND DUP1 ISZERO PUSH2 0x413 JUMPI PUSH1 0x2 SLOAD SWAP2 DUP1 DUP4 ADD DUP1 SWAP4 GT PUSH2 0x3FD JUMPI PUSH1 0x20 SWAP3 PUSH1 0x2 SSTORE PUSH32 0xDDF252AD1BE2C89B69C2B068FC378DAA952BA7F163C4A11628F55A4DF523B3EF PUSH1 0x0 SWAP4 DUP5 SWAP3 DUP5 DUP5 MSTORE DUP4 DUP3 MSTORE PUSH1 0x40 DUP5 KECCAK256 DUP2 DUP2 SLOAD ADD SWAP1 SSTORE PUSH1 0x40 MLOAD SWAP1 DUP2 MSTORE LOG3 DUP1 RETURN JUMPDEST PUSH4 0x4E487B71 PUSH1 0xE0 SHL PUSH1 0x0 MSTORE PUSH1 0x11 PUSH1 0x4 MSTORE PUSH1 0x24 PUSH1 0x0 REVERT JUMPDEST PUSH4 0xEC442F05 PUSH1 0xE0 SHL PUSH1 0x0 MSTORE PUSH1 0x0 PUSH1 0x4 MSTORE PUSH1 0x24 PUSH1 0x0 REVERT JUMPDEST CALLVALUE PUSH2 0xCC JUMPI PUSH1 0x0 CALLDATASIZE PUSH1 0x3 NOT ADD SLT PUSH2 0xCC JUMPI PUSH1 0x20 PUSH1 0xFF PUSH1 0x5 SLOAD PUSH1 0xA0 SHR AND PUSH1 0x40 MLOAD SWAP1 DUP2 MSTORE RETURN JUMPDEST CALLVALUE PUSH2 0xCC JUMPI PUSH1 0x60 CALLDATASIZE PUSH1 0x3 NOT ADD SLT PUSH2 0xCC JUMPI PUSH2 0x466 PUSH2 0x608 JUMP JUMPDEST POP PUSH2 0x13B PUSH2 0x61E JUMP JUMPDEST CALLVALUE PUSH2 0xCC JUMPI PUSH1 0x0 CALLDATASIZE PUSH1 0x3 NOT ADD SLT PUSH2 0xCC JUMPI PUSH1 0x20 PUSH1 0x2 SLOAD PUSH1 0x40 MLOAD SWAP1 DUP2 MSTORE RETURN JUMPDEST CALLVALUE PUSH2 0xCC JUMPI PUSH1 0x40 CALLDATASIZE PUSH1 0x3 NOT ADD SLT PUSH2 0xCC JUMPI PUSH2 0x4A6 PUSH2 0x608 JUMP JUMPDEST POP PUSH1 0x40 MLOAD PUSH3 0x461BCD PUSH1 0xE5 SHL DUP2 MSTORE PUSH1 0x20 PUSH1 0x4 DUP3 ADD MSTORE PUSH1 0x1A PUSH1 0x24 DUP3 ADD MSTORE PUSH32 0x71546F6B656E3A20617070726F76616C732064697361626C6564000000000000 PUSH1 0x44 DUP3 ADD MSTORE PUSH1 0x64 SWAP1 REVERT JUMPDEST CALLVALUE PUSH2 0xCC JUMPI PUSH1 0x0 CALLDATASIZE PUSH1 0x3 NOT ADD SLT PUSH2 0xCC JUMPI PUSH1 0x0 PUSH1 0x3 SLOAD DUP1 PUSH1 0x1 SHR SWAP1 PUSH1 0x1 DUP2 AND DUP1 ISZERO PUSH2 0x5B5 JUMPI JUMPDEST PUSH1 0x20 DUP4 LT DUP2 EQ PUSH2 0x310 JUMPI DUP3 DUP6 MSTORE SWAP1 DUP2 ISZERO PUSH2 0x2F4 JUMPI POP PUSH1 0x1 EQ PUSH2 0x55E JUMPI POP DUP2 SWAP1 SUB PUSH1 0x1F ADD PUSH1 0x1F NOT AND DUP2 ADD SWAP1 PUSH8 0xFFFFFFFFFFFFFFFF DUP3 GT DUP2 DUP4 LT OR PUSH2 0x287 JUMPI PUSH2 0x283 DUP3 SWAP2 DUP3 PUSH1 0x40 MSTORE DUP3 PUSH2 0x5BF JUMP JUMPDEST SWAP1 POP PUSH1 0x3 PUSH1 0x0 MSTORE PUSH32 0xC2575A0E9E593C00F959F8C92F12DB2869C3395A3B0502D05E2516446F71F85B PUSH1 0x0 SWAP1 JUMPDEST DUP3 DUP3 LT PUSH2 0x59F JUMPI POP PUSH1 0x20 SWAP2 POP DUP3 ADD ADD DUP3 PUSH2 0x253 JUMP JUMPDEST PUSH1 0x1 DUP2 PUSH1 0x20 SWAP3 SLOAD DUP4 DUP6 DUP9 ADD ADD MSTORE ADD SWAP2 ADD SWAP1 PUSH2 0x58A JUMP JUMPDEST SWAP2 PUSH1 0x7F AND SWAP2 PUSH2 0x512 JUMP JUMPDEST SWAP2 SWAP1 SWAP2 PUSH1 0x20 DUP2 MSTORE DUP3 MLOAD DUP1 PUSH1 0x20 DUP4 ADD MSTORE PUSH1 0x0 JUMPDEST DUP2 DUP2 LT PUSH2 0x5F2 JUMPI POP PUSH1 0x40 SWAP3 SWAP4 POP PUSH1 0x0 DUP4 DUP3 DUP5 ADD ADD MSTORE PUSH1 0x1F DUP1 NOT SWAP2 ADD AND ADD ADD SWAP1 JUMP JUMPDEST DUP1 PUSH1 0x20 DUP1 SWAP3 DUP8 ADD ADD MLOAD PUSH1 0x40 DUP3 DUP7 ADD ADD MSTORE ADD PUSH2 0x5D1 JUMP JUMPDEST PUSH1 0x4 CALLDATALOAD SWAP1 PUSH1 0x1 PUSH1 0x1 PUSH1 0xA0 SHL SUB DUP3 AND DUP3 SUB PUSH2 0xCC JUMPI JUMP JUMPDEST PUSH1 0x24 CALLDATALOAD SWAP1 PUSH1 0x1 PUSH1 0x1 PUSH1 0xA0 SHL SUB DUP3 AND DUP3 SUB PUSH2 0xCC JUMPI JUMP JUMPDEST PUSH1 0x40 MLOAD PUSH3 0x461BCD PUSH1 0xE5 SHL DUP2 MSTORE PUSH1 0x20 PUSH1 0x4 DUP3 ADD MSTORE PUSH1 0x2B PUSH1 0x24 DUP3 ADD MSTORE PUSH32 0x71546F6B656E3A207472616E73666572732064697361626C65642C2075736520 PUSH1 0x44 DUP3 ADD MSTORE PUSH11 0x5172797074756D2061707 PUSH1 0xAC SHL PUSH1 0x64 DUP3 ADD MSTORE PUSH1 0x84 SWAP1 REVERT JUMPDEST ISZERO PUSH2 0x694 JUMPI JUMP JUMPDEST PUSH1 0x40 MLOAD PUSH3 0x461BCD PUSH1 0xE5 SHL DUP2 MSTORE PUSH1 0x20 PUSH1 0x4 DUP3 ADD MSTORE PUSH1 0x1B PUSH1 0x24 DUP3 ADD MSTORE PUSH32 0x4F6E6C79205152595054414E4B2063616E2063616C6C20746869730000000000 PUSH1 0x44 DUP3 ADD MSTORE PUSH1 0x64 SWAP1 REVERT INVALID LOG2 PUSH5 0x6970667358 0x22 SLT KECCAK256 DUP1 DUP8 0xC SWAP15 CLZ CALLF 0x19A1 DUP4 PREVRANDAO 0xB1 0xAE 0xC6 CALLER CODECOPY PUSH27 0x22CF1A2D0E7EE60D1D0B2B7F36B1136364736F6C63430008220033 SWAP12 PUSH24 0x9B17422D0DF92223018B32B4D1FA46E071723D6817E2486D STOP EXTCODESIZE EOFCREATE 0xC5 PUSH0 STOP LOG2 PUSH5 0x6970667358 0x22 SLT KECCAK256 PUSH12 0x5458A15F18A3FB2887391E7C TLOAD SGT MULMOD LOG4 PUSH13 0xE1C16BEB14A239BCA8DBAB0002 PUSH11 0x64736F6C63430008220033 "},"methodIdentifiers":{"COMMIT_EXPIRY_SECONDS()":"806f3409","EMERGENCY_DELAY_BLOCKS()":"e2e8c68b","MINIMUM_SHIELD_AMOUNT()":"58370bdb","changeVaultProof(string,string)":"3b374cbf","commitTransfer(bytes32)":"7bacab3f","emergencyWithdraw(address[])":"01c1dfba","getEmergencyWithdrawAvailableBlock()":"eff29f90","getQTokenAddress(address)":"ac893fa5","getShieldedBalance(address)":"c902df98","initialize(address,bytes32)":"be13f47c","initialized()":"158ef93e","lastActivityBlock()":"96dac530","owner()":"8da5cb5b","qTokens(address)":"a22b1513","revealTransfer(address,address,uint256,string,uint256)":"8581bd28","shield(address,uint256,string)":"1331e701","unshield(address,uint256,string)":"6c619914"}}}}}