{
  "_format": "hh-sol-artifact-1",
  "contractName": "PersonalQryptSafeV6",
  "sourceName": "contracts/PersonalQryptSafeV6.sol",
  "abi": [
    {
      "inputs": [],
      "name": "ECDSAInvalidSignature",
      "type": "error"
    },
    {
      "inputs": [
        {
          "internalType": "uint256",
          "name": "length",
          "type": "uint256"
        }
      ],
      "name": "ECDSAInvalidSignatureLength",
      "type": "error"
    },
    {
      "inputs": [
        {
          "internalType": "bytes32",
          "name": "s",
          "type": "bytes32"
        }
      ],
      "name": "ECDSAInvalidSignatureS",
      "type": "error"
    },
    {
      "inputs": [],
      "name": "ReentrancyGuardReentrantCall",
      "type": "error"
    },
    {
      "inputs": [
        {
          "internalType": "address",
          "name": "token",
          "type": "address"
        }
      ],
      "name": "SafeERC20FailedOperation",
      "type": "error"
    },
    {
      "anonymous": false,
      "inputs": [
        {
          "indexed": true,
          "internalType": "address",
          "name": "token",
          "type": "address"
        },
        {
          "indexed": false,
          "internalType": "uint256",
          "name": "amount",
          "type": "uint256"
        }
      ],
      "name": "AirBudgetFunded",
      "type": "event"
    },
    {
      "anonymous": false,
      "inputs": [
        {
          "indexed": true,
          "internalType": "address",
          "name": "token",
          "type": "address"
        },
        {
          "indexed": false,
          "internalType": "uint256",
          "name": "amount",
          "type": "uint256"
        }
      ],
      "name": "AirBudgetReclaimed",
      "type": "event"
    },
    {
      "anonymous": false,
      "inputs": [
        {
          "indexed": true,
          "internalType": "bytes32",
          "name": "nonce",
          "type": "bytes32"
        },
        {
          "indexed": true,
          "internalType": "address",
          "name": "token",
          "type": "address"
        },
        {
          "indexed": false,
          "internalType": "uint256",
          "name": "amount",
          "type": "uint256"
        },
        {
          "indexed": true,
          "internalType": "address",
          "name": "recipient",
          "type": "address"
        }
      ],
      "name": "AirVoucherRedeemed",
      "type": "event"
    },
    {
      "anonymous": false,
      "inputs": [
        {
          "indexed": false,
          "internalType": "bytes32",
          "name": "newHead",
          "type": "bytes32"
        }
      ],
      "name": "ChainRecharged",
      "type": "event"
    },
    {
      "anonymous": false,
      "inputs": [
        {
          "indexed": true,
          "internalType": "bytes32",
          "name": "commitHash",
          "type": "bytes32"
        }
      ],
      "name": "CommitSubmitted",
      "type": "event"
    },
    {
      "anonymous": false,
      "inputs": [
        {
          "indexed": true,
          "internalType": "address",
          "name": "token",
          "type": "address"
        },
        {
          "indexed": false,
          "internalType": "uint256",
          "name": "amount",
          "type": "uint256"
        }
      ],
      "name": "EmergencyWithdraw",
      "type": "event"
    },
    {
      "anonymous": false,
      "inputs": [
        {
          "indexed": true,
          "internalType": "address",
          "name": "token",
          "type": "address"
        },
        {
          "indexed": true,
          "internalType": "address",
          "name": "qToken",
          "type": "address"
        }
      ],
      "name": "QTokenDeployed",
      "type": "event"
    },
    {
      "anonymous": false,
      "inputs": [
        {
          "indexed": true,
          "internalType": "address",
          "name": "token",
          "type": "address"
        },
        {
          "indexed": false,
          "internalType": "uint256",
          "name": "amount",
          "type": "uint256"
        },
        {
          "indexed": true,
          "internalType": "address",
          "name": "qToken",
          "type": "address"
        }
      ],
      "name": "TokenShielded",
      "type": "event"
    },
    {
      "anonymous": false,
      "inputs": [
        {
          "indexed": true,
          "internalType": "address",
          "name": "token",
          "type": "address"
        },
        {
          "indexed": false,
          "internalType": "uint256",
          "name": "amount",
          "type": "uint256"
        }
      ],
      "name": "TokenUnshielded",
      "type": "event"
    },
    {
      "anonymous": false,
      "inputs": [
        {
          "indexed": true,
          "internalType": "address",
          "name": "token",
          "type": "address"
        },
        {
          "indexed": true,
          "internalType": "address",
          "name": "to",
          "type": "address"
        },
        {
          "indexed": false,
          "internalType": "uint256",
          "name": "amount",
          "type": "uint256"
        }
      ],
      "name": "TransferExecuted",
      "type": "event"
    },
    {
      "inputs": [],
      "name": "COMMIT_EXPIRY_SECONDS",
      "outputs": [
        {
          "internalType": "uint256",
          "name": "",
          "type": "uint256"
        }
      ],
      "stateMutability": "view",
      "type": "function"
    },
    {
      "inputs": [],
      "name": "EMERGENCY_DELAY_BLOCKS",
      "outputs": [
        {
          "internalType": "uint256",
          "name": "",
          "type": "uint256"
        }
      ],
      "stateMutability": "view",
      "type": "function"
    },
    {
      "inputs": [],
      "name": "MINIMUM_SHIELD_AMOUNT",
      "outputs": [
        {
          "internalType": "uint256",
          "name": "",
          "type": "uint256"
        }
      ],
      "stateMutability": "view",
      "type": "function"
    },
    {
      "inputs": [
        {
          "internalType": "bytes32",
          "name": "commitHash",
          "type": "bytes32"
        }
      ],
      "name": "commitTransfer",
      "outputs": [],
      "stateMutability": "nonpayable",
      "type": "function"
    },
    {
      "inputs": [
        {
          "internalType": "address[]",
          "name": "tokenAddresses",
          "type": "address[]"
        }
      ],
      "name": "emergencyWithdraw",
      "outputs": [],
      "stateMutability": "nonpayable",
      "type": "function"
    },
    {
      "inputs": [
        {
          "internalType": "address",
          "name": "token",
          "type": "address"
        },
        {
          "internalType": "uint256",
          "name": "amount",
          "type": "uint256"
        },
        {
          "internalType": "bytes32",
          "name": "proof",
          "type": "bytes32"
        }
      ],
      "name": "fundAirBudget",
      "outputs": [],
      "stateMutability": "nonpayable",
      "type": "function"
    },
    {
      "inputs": [
        {
          "internalType": "address",
          "name": "token",
          "type": "address"
        }
      ],
      "name": "getAirBudget",
      "outputs": [
        {
          "internalType": "uint256",
          "name": "",
          "type": "uint256"
        }
      ],
      "stateMutability": "view",
      "type": "function"
    },
    {
      "inputs": [],
      "name": "getEmergencyWithdrawAvailableBlock",
      "outputs": [
        {
          "internalType": "uint256",
          "name": "",
          "type": "uint256"
        }
      ],
      "stateMutability": "view",
      "type": "function"
    },
    {
      "inputs": [
        {
          "internalType": "address",
          "name": "tokenAddress",
          "type": "address"
        }
      ],
      "name": "getQTokenAddress",
      "outputs": [
        {
          "internalType": "address",
          "name": "",
          "type": "address"
        }
      ],
      "stateMutability": "view",
      "type": "function"
    },
    {
      "inputs": [
        {
          "internalType": "address",
          "name": "tokenAddress",
          "type": "address"
        }
      ],
      "name": "getShieldedBalance",
      "outputs": [
        {
          "internalType": "uint256",
          "name": "",
          "type": "uint256"
        }
      ],
      "stateMutability": "view",
      "type": "function"
    },
    {
      "inputs": [
        {
          "internalType": "address",
          "name": "_owner",
          "type": "address"
        },
        {
          "internalType": "bytes32",
          "name": "_initialChainHead",
          "type": "bytes32"
        }
      ],
      "name": "initialize",
      "outputs": [],
      "stateMutability": "nonpayable",
      "type": "function"
    },
    {
      "inputs": [],
      "name": "initialized",
      "outputs": [
        {
          "internalType": "bool",
          "name": "",
          "type": "bool"
        }
      ],
      "stateMutability": "view",
      "type": "function"
    },
    {
      "inputs": [],
      "name": "lastActivityBlock",
      "outputs": [
        {
          "internalType": "uint256",
          "name": "",
          "type": "uint256"
        }
      ],
      "stateMutability": "view",
      "type": "function"
    },
    {
      "inputs": [],
      "name": "owner",
      "outputs": [
        {
          "internalType": "address",
          "name": "",
          "type": "address"
        }
      ],
      "stateMutability": "view",
      "type": "function"
    },
    {
      "inputs": [
        {
          "internalType": "address",
          "name": "",
          "type": "address"
        }
      ],
      "name": "qTokens",
      "outputs": [
        {
          "internalType": "address",
          "name": "",
          "type": "address"
        }
      ],
      "stateMutability": "view",
      "type": "function"
    },
    {
      "inputs": [
        {
          "internalType": "bytes32",
          "name": "newHead",
          "type": "bytes32"
        },
        {
          "internalType": "bytes32",
          "name": "currentProof",
          "type": "bytes32"
        }
      ],
      "name": "rechargeChain",
      "outputs": [],
      "stateMutability": "nonpayable",
      "type": "function"
    },
    {
      "inputs": [
        {
          "internalType": "address",
          "name": "token",
          "type": "address"
        },
        {
          "internalType": "bytes32",
          "name": "proof",
          "type": "bytes32"
        }
      ],
      "name": "reclaimAirBudget",
      "outputs": [],
      "stateMutability": "nonpayable",
      "type": "function"
    },
    {
      "inputs": [
        {
          "internalType": "address",
          "name": "token",
          "type": "address"
        },
        {
          "internalType": "uint256",
          "name": "amount",
          "type": "uint256"
        },
        {
          "internalType": "address",
          "name": "recipient",
          "type": "address"
        },
        {
          "internalType": "uint256",
          "name": "deadline",
          "type": "uint256"
        },
        {
          "internalType": "bytes32",
          "name": "nonce",
          "type": "bytes32"
        },
        {
          "internalType": "bytes32",
          "name": "transferCodeHash",
          "type": "bytes32"
        },
        {
          "internalType": "bytes",
          "name": "signature",
          "type": "bytes"
        }
      ],
      "name": "redeemAirVoucher",
      "outputs": [],
      "stateMutability": "nonpayable",
      "type": "function"
    },
    {
      "inputs": [
        {
          "internalType": "address",
          "name": "tokenAddress",
          "type": "address"
        },
        {
          "internalType": "address",
          "name": "to",
          "type": "address"
        },
        {
          "internalType": "uint256",
          "name": "amount",
          "type": "uint256"
        },
        {
          "internalType": "bytes32",
          "name": "proof",
          "type": "bytes32"
        },
        {
          "internalType": "uint256",
          "name": "nonce",
          "type": "uint256"
        }
      ],
      "name": "revealTransfer",
      "outputs": [],
      "stateMutability": "nonpayable",
      "type": "function"
    },
    {
      "inputs": [
        {
          "internalType": "address",
          "name": "tokenAddress",
          "type": "address"
        },
        {
          "internalType": "uint256",
          "name": "amount",
          "type": "uint256"
        },
        {
          "internalType": "bytes32",
          "name": "proof",
          "type": "bytes32"
        }
      ],
      "name": "shield",
      "outputs": [],
      "stateMutability": "nonpayable",
      "type": "function"
    },
    {
      "inputs": [
        {
          "internalType": "address",
          "name": "tokenAddress",
          "type": "address"
        },
        {
          "internalType": "uint256",
          "name": "amount",
          "type": "uint256"
        },
        {
          "internalType": "bytes32",
          "name": "proof",
          "type": "bytes32"
        }
      ],
      "name": "unshield",
      "outputs": [],
      "stateMutability": "nonpayable",
      "type": "function"
    },
    {
      "inputs": [
        {
          "internalType": "address",
          "name": "tokenAddress",
          "type": "address"
        },
        {
          "internalType": "uint256",
          "name": "amount",
          "type": "uint256"
        },
        {
          "internalType": "bytes32",
          "name": "proof",
          "type": "bytes32"
        },
        {
          "internalType": "address",
          "name": "railgunProxy",
          "type": "address"
        },
        {
          "internalType": "bytes",
          "name": "shieldCalldata",
          "type": "bytes"
        }
      ],
      "name": "unshieldToRailgun",
      "outputs": [],
      "stateMutability": "payable",
      "type": "function"
    },
    {
      "inputs": [
        {
          "internalType": "bytes32",
          "name": "",
          "type": "bytes32"
        }
      ],
      "name": "usedVoucherNonces",
      "outputs": [
        {
          "internalType": "bool",
          "name": "",
          "type": "bool"
        }
      ],
      "stateMutability": "view",
      "type": "function"
    }
  ],
  "bytecode": "0x6080806040523460395760017f9b779b17422d0df92223018b32b4d1fa46e071723d6817e2486d003becc55f0055612eb0908161003f8239f35b600080fdfe6080604052600436101561001257600080fd5b6000803560e01c806301c1dfba146118545780630b54c13c146116b1578063158ef93e1461168e57806329585cc21461158657806358370bdb14611568578063639b134a146113f45780636cbcd7dd146113bb5780636f262f8214610f665780637291a0d714610db95780637a827eae14610d8a5780637bacab3f14610c5f578063806f340914610c425780638da5cb5b14610c1b57806396dac53014610bfd5780639a23190c146108a2578063a22b151314610861578063ac893fa514610861578063be13f47c146107d2578063c004bd3c14610443578063c46c36b3146101a7578063c902df981461017b578063e2e8c68b1461015d5763eff29f901461011a57600080fd5b3461015a578060031936011261015a57600354906213c680820180921161014657602082604051908152f35b634e487b7160e01b81526011600452602490fd5b80fd5b503461015a578060031936011261015a5760206040516213c6808152f35b503461015a57602036600319011261015a57602061019f61019a611a3a565b611ccf565b604051908152f35b503461015a576101de6101b936611a50565b6101d160018060a0969495961b038654163314611aa8565b6101d9611d6a565b611e33565b620f42408110610407576040516370a0823160e01b81523060048201526001600160a01b0383169190602081602481865afa9081156103975785916103d5575b50604051916323b872dd60e01b8652336004523060245260445260208560648180875af160018651148116156103b6575b8260405285606052156103a2576370a0823160e01b8252306004830152602082602481865afa801561039757859061035e575b61028c9250611c52565b916001600160a01b039061029f90611f42565b84549116929084906001600160a01b0316843b1561035a576040516340c10f1960e01b81526001600160a01b0391909116600482015260248101839052818160448183895af1801561034f57610336575b505060207f112e1a1004a67f1e6c8c480fe3e8516f69226cd76be7db72391db4bb0159d2d29143600355604051908152a36001600080516020612e5b8339815191525580f35b8161034091611ae6565b61034b5783386102f0565b8380fd5b6040513d84823e3d90fd5b5080fd5b506020823d60201161038f575b8161037860209383611ae6565b8101031261038a5761028c9151610282565b600080fd5b3d915061036b565b6040513d87823e3d90fd5b635274afe760e01b85526004839052602485fd5b60018115166103cc57833b15153d15161661024f565b823d87823e3d90fd5b90506020813d6020116103ff575b816103f060209383611ae6565b8101031261038a57513861021e565b3d91506103e3565b60405162461bcd60e51b8152602060048201526014602482015273416d6f756e742062656c6f77206d696e696d756d60601b6044820152606490fd5b503461015a5760a036600319011261015a5761045d611a3a565b6024356001600160a01b038116919082810361034b576044359060643561048e60018060a01b038754163314611aa8565b610496611d6a565b61049f81611e33565b6104aa831515611b1e565b6104b5851515611bf6565b33851461078d5760405160208101918252608435604082015260018060a01b038516946001600160601b03199060601b1660608201526001600160601b03198360601b1660748201528360888201526088815261051360a882611ae6565b51902085526005602052604085208054801561075557600282019182549161053e60ff841615611c75565b431115610711576001015461025881018091116106fd5742116106c75760ff191660011790558285526004602052604085205485906001600160a01b0316610587811515611b69565b81546040516370a0823160e01b81526001600160a01b03909116600482018190529190602081602481855afa80156106bc5786918591610681575b50906105cf911015611baa565b803b1561067d57604051632770a7eb60e21b81526001600160a01b039290921660048301526024820185905282908290604490829084905af1801561034f57610664575b5050816106447fc95d558e25335222b51e6424166172914e7ce4404a9647d3631ef320294081fd9360209386611da6565b43600355604051908152a36001600080516020612e5b8339815191525580f35b8161066e91611ae6565b610679578438610613565b8480fd5b8280fd5b945050506020833d6020116106b4575b8161069e60209383611ae6565b8101031261038a576105cf8589945190916105c2565b3d9150610691565b6040513d86823e3d90fd5b60405162461bcd60e51b815260206004820152600e60248201526d10dbdb5b5a5d08195e1c1a5c995960921b6044820152606490fd5b634e487b7160e01b88526011600452602488fd5b606460405162461bcd60e51b815260206004820152602060248201527f4d7573742077616974206f6e6520626c6f636b20616674657220636f6d6d69746044820152fd5b60405162461bcd60e51b815260206004820152601060248201526f10dbdb5b5a5d081b9bdd08199bdd5b9960821b6044820152606490fd5b60405162461bcd60e51b815260206004820152601b60248201527f43616e6e6f74207472616e7366657220746f20796f757273656c6600000000006044820152606490fd5b503461015a57604036600319011261015a576107ec611a3a565b60025460ff811661082657600191828060a01b03166001600160601b0360a01b845416178355602435825560ff1916176002554360035580f35b60405162461bcd60e51b8152602060048201526013602482015272105b1c9958591e481a5b9a5d1a585b1a5e9959606a1b6044820152606490fd5b503461015a57602036600319011261015a576020906001600160a01b03610886611a3a565b16815260048252604060018060a01b0391205416604051908152f35b5060a036600319011261015a576108b7611a3a565b606435906001600160a01b03821690602435908284036106795760843567ffffffffffffffff8111610b76576108f1903690600401611a7a565b9461090660018060a01b038854163314611aa8565b61090e611d6a565b610919604435611e33565b8415610bc057869261092c851515611b1e565b6001600160a01b039081168085526004602052604085205490979116610953811515611b69565b84546040516370a0823160e01b81526001600160a01b03909116600482018190529190602081602481855afa8015610bb55788918891610b7a575b509061099b911015611baa565b803b15610b7657604051632770a7eb60e21b81526001600160a01b039290921660048301526024820187905285908290604490829084905af1908115610397578591610b61575b505060405163095ea7b360e01b81526001600160a01b03831660048201526024810186905292602084604481888c5af1938415610397578594610b44575b508160405192839283378101848152039134905af13d15610b3f573d610a4581611c36565b90610a536040519283611ae6565b81528560203d92013e5b15610b02576040519163095ea7b360e01b8352600483015283602483015260208260448187875af19081156106bc577f3cb804822cd14606988dd0133475536faefc5d3bd4d0d00c445a4426d81442c892602092610ad7575b5043600355604051908152a26001600080516020612e5b8339815191525580f35b610af690833d8511610afb575b610aee8183611ae6565b810190611cb7565b610ab6565b503d610ae4565b60405162461bcd60e51b815260206004820152601560248201527414985a5b19dd5b881cda1a595b190819985a5b1959605a1b6044820152606490fd5b610a5d565b610b5c9060203d602011610afb57610aee8183611ae6565b610a20565b81610b6b91611ae6565b61034b5783386109e2565b8580fd5b975050506020863d602011610bad575b81610b9760209383611ae6565b8101031261038a5761099b878b9751909161098e565b3d9150610b8a565b6040513d89823e3d90fd5b60405162461bcd60e51b8152602060048201526015602482015274496e76616c6964205261696c67756e2070726f787960581b6044820152606490fd5b503461015a578060031936011261015a576020600354604051908152f35b503461015a578060031936011261015a57546040516001600160a01b039091168152602090f35b503461015a578060031936011261015a5760206040516102588152f35b503461015a57602036600319011261015a57600435610c8860018060a01b038354163314611aa8565b8082526005602052610ca460ff60026040852001541615611c75565b80825260056020526040822054610d4d576040516060810181811067ffffffffffffffff821117610d395760405243815260026020820191428352604081019285845284865260056020526040862091518255516001820155019051151560ff80198354169116179055436003557f2fb52be48e55abef1fcf34fb5d53970a03e3546ed6b6f1025aed6d81bb7427f88280a280f35b634e487b7160e01b84526041600452602484fd5b60405162461bcd60e51b8152602060048201526015602482015274436f6d6d697420616c72656164792065786973747360581b6044820152606490fd5b503461015a57602036600319011261015a5760ff60406020926004358152600684522054166040519015158152f35b503461015a57610de2610dcb36611a50565b6101d160018060a09694961b038654163314611aa8565b610ded821515611b1e565b6001600160a01b0390811680845260046020526040842054909291849116610e16811515611b69565b81546040516370a0823160e01b81526001600160a01b03909116600482018190529190602081602481855afa80156106bc5785918591610f2b575b5090610e5e911015611baa565b803b1561067d57604051632770a7eb60e21b81526001600160a01b039290921660048301526024820184905282908290604490829084905af1801561034f57610f16575b50829052600760205260408320805490828201809211610f025755436003556040519081527f7f21f05640b42fa915c60d7d039283d15772a66919189e4a2c8b26363db40c6790602090a26001600080516020612e5b8339815191525580f35b634e487b7160e01b85526011600452602485fd5b81610f2091611ae6565b61067d578238610ea2565b945050506020833d602011610f5e575b81610f4860209383611ae6565b8101031261038a57610e5e848794519091610e51565b3d9150610f3b565b503461015a5760e036600319011261015a57610f80611a3a565b6044356001600160a01b0381169190602435838203610679576064356084359260c43567ffffffffffffffff81116113b757610fc0903690600401611a7a565b95610fc9611d6a565b6001600160a01b031695861561138257610fe4881515611bf6565b841561134f5783421161131857858952600660205260ff60408a2054166112d35786895260076020528460408a20541061128e5760409360086020865161102b8882611ae6565b828152016728b93cb83a20b4b960c11b81522060016020875161104e8982611ae6565b82815201603160f81b81522086519060208201927fc2f8787176b8ac6bf7215b4adcc1e069bf4ab82d9ab1df05a57a91d425935b6e8452888301526060820152466080820152608081526110a360a082611ae6565b51902090855160208101917f22843c5037a0a8bc35f56290540532eba624a7f4883ef0b9545444d80f21b61083528a888301528860608301528b608083015260a08201528860c082015260a43560e082015260e0815261110561010082611ae6565b519020855190602082019261190160f01b84526022830152604282015260428152611131606282611ae6565b51902061113d82611c36565b9061114a86519283611ae6565b8282528a368486011161015a5760208461116f956111789783870137840101526121de565b9092919261221a565b6001600160a01b031680156112555787546001600160a01b03160361121157916020916111f7827f45f9a4a4c2f6d26b87299e0f223e09003ded03c853237ab5ffa996f67ce2227095878b5260068652838b20600160ff19825416179055888b5260078652838b206111eb838254611c52565b90554360035588611da6565b51908152a46001600080516020612e5b8339815191525580f35b815162461bcd60e51b815260206004820152601860248201527f536967206e6f742066726f6d207661756c74206f776e657200000000000000006044820152606490fd5b825162461bcd60e51b815260206004820152601260248201527145434453413a20696e76616c69642073696760701b6044820152606490fd5b60405162461bcd60e51b815260206004820152601760248201527f496e73756666696369656e7420616972206275646765740000000000000000006044820152606490fd5b60405162461bcd60e51b815260206004820152601860248201527f566f756368657220616c72656164792072656465656d656400000000000000006044820152606490fd5b60405162461bcd60e51b815260206004820152600f60248201526e159bdd58da195c88195e1c1a5c9959608a1b6044820152606490fd5b60405162461bcd60e51b815260206004820152600b60248201526a16995c9bc8185b5bdd5b9d60aa1b6044820152606490fd5b60405162461bcd60e51b815260206004820152600d60248201526c24b73b30b634b2103a37b5b2b760991b6044820152606490fd5b8780fd5b503461015a57602036600319011261015a576020906040906001600160a01b036113e3611a3a565b168152600783522054604051908152f35b503461015a57604036600319011261015a5761140e611a3a565b61142260018060a01b038354163314611aa8565b61142a611d6a565b611435602435611e33565b6001600160a01b03811680835260076020526040832054909181156115235782845260076020526040842084905583906001600160a01b039061147790611f42565b82546001600160a01b03169116803b1561067d576040516340c10f1960e01b81526001600160a01b039290921660048301526024820184905282908290604490829084905af1801561034f5761150e575b505060207f625a03de5183ddc460e0db80b958c02d7bd02abae80a840df0a15fefead14fe29143600355604051908152a26001600080516020612e5b8339815191525580f35b8161151891611ae6565b61067d5782386114c8565b60405162461bcd60e51b815260206004820152601860248201527f4e6f206169722062756467657420746f207265636c61696d00000000000000006044820152606490fd5b503461015a578060031936011261015a576020604051620f42408152f35b503461015a57604036600319011261015a576004356115af60018060a01b038354163314611aa8565b60405160208101906024358252602081526115cb604082611ae6565b51902060015403611650578015611612576020817f8070c963f225325e8d44d693c372dbd8ba5a50ca93d4937c586a42b58e1fbc319260015543600355604051908152a180f35b60405162461bcd60e51b8152602060048201526016602482015275125b9d985b1a59081b995dc818da185a5b881a19585960521b6044820152606490fd5b60405162461bcd60e51b815260206004820152601660248201527524b73b30b634b2103932b1b430b933b290383937b7b360511b6044820152606490fd5b503461015a578060031936011261015a57602060ff600254166040519015158152f35b503461015a576116c3610dcb36611a50565b6116ce821515611b1e565b6001600160a01b0390811680845260046020526040842054909291166116f5811515611b69565b83546040516370a0823160e01b81526001600160a01b03909116600482018190528591602081602481875afa80156118495785908490611813575b61173c92501015611baa565b823b1561035a57604051632770a7eb60e21b81526001600160a01b0391909116600482015260248101849052918290604490829084905af180156106bc576117dc575b5082547f3cb804822cd14606988dd0133475536faefc5d3bd4d0d00c445a4426d81442c8916020916117bc9082906001600160a01b031686611da6565b43600355604051908152a26001600080516020612e5b8339815191525580f35b8361180b7f3cb804822cd14606988dd0133475536faefc5d3bd4d0d00c445a4426d81442c89395602093611ae6565b93915061177f565b50506020813d602011611841575b8161182e60209383611ae6565b8101031261067d578461173c9151611730565b3d9150611821565b6040513d85823e3d90fd5b503461015a57602036600319011261015a5760043567ffffffffffffffff811161035a573660238201121561035a5780600401359067ffffffffffffffff821161067d573660248360051b8301011161067d576118bb60018060a01b038454163314611aa8565b6118c3611d6a565b6003546213c6808101809111611a265743106119d557825b828110156119bf576024600582901b830101356001600160a01b0381169190829003610679576040516370a0823160e01b815230600482015291602083602481845afa80156119b4578690611982575b600193508061193d575b5050016118db565b6020816119747f5fafa99d0643513820be26656b45130b01e1c03062e1266bf36f88cbd3bd969593878060a01b038b541686611da6565b604051908152a23880611935565b506020833d82116119ac575b8161199b60209383611ae6565b81010312610b76576001925161192b565b3d915061198e565b6040513d88823e3d90fd5b836001600080516020612e5b8339815191525580f35b60405162461bcd60e51b8152602060048201526024808201527f456d657267656e6379207769746864726177206e6f742079657420617661696c60448201526361626c6560e01b6064820152608490fd5b634e487b7160e01b84526011600452602484fd5b600435906001600160a01b038216820361038a57565b606090600319011261038a576004356001600160a01b038116810361038a57906024359060443590565b9181601f8401121561038a5782359167ffffffffffffffff831161038a576020838186019501011161038a57565b15611aaf57565b60405162461bcd60e51b815260206004820152600f60248201526e2737ba103b30bab63a1037bbb732b960891b6044820152606490fd5b90601f8019910116810190811067ffffffffffffffff821117611b0857604052565b634e487b7160e01b600052604160045260246000fd5b15611b2557565b606460405162461bcd60e51b815260206004820152602060248201527f416d6f756e74206d7573742062652067726561746572207468616e207a65726f6044820152fd5b15611b7057565b60405162461bcd60e51b8152602060048201526012602482015271151bdad95b881b9bdd081cda1a595b19195960721b6044820152606490fd5b15611bb157565b60405162461bcd60e51b815260206004820152601d60248201527f496e73756666696369656e7420736869656c6465642062616c616e63650000006044820152606490fd5b15611bfd57565b60405162461bcd60e51b8152602060048201526011602482015270125b9d985b1a59081c9958da5c1a595b9d607a1b6044820152606490fd5b67ffffffffffffffff8111611b0857601f01601f191660200190565b91908203918211611c5f57565b634e487b7160e01b600052601160045260246000fd5b15611c7c57565b60405162461bcd60e51b815260206004820152601360248201527210dbdb5b5a5d08185b1c9958591e481d5cd959606a1b6044820152606490fd5b9081602091031261038a5751801515810361038a5790565b6001600160a01b03908116600090815260046020526040902054168015611d6457602060018060a01b03600054166024604051809481936370a0823160e01b835260048301525afa908115611d5857600091611d29575090565b90506020813d602011611d50575b81611d4460209383611ae6565b8101031261038a575190565b3d9150611d37565b6040513d6000823e3d90fd5b50600090565b6002600080516020612e5b8339815191525414611d95576002600080516020612e5b83398151915255565b633ee5aeb560e01b60005260046000fd5b60405163a9059cbb60e01b60009081526001600160a01b03909316600452602493909352919060209060448180865af190600160005114821615611e11575b60405215611df05750565b635274afe760e01b60009081526001600160a01b0391909116600452602490fd5b906001811516611e2957823b15153d15161690611de5565b503d6000823e3d90fd5b604051602081019082825260208152611e4d604082611ae6565b51902060015403611e5d57600155565b60405162461bcd60e51b815260206004820152601360248201527224b73b30b634b2103b30bab63a10383937b7b360691b6044820152606490fd5b60005b838110611eab5750506000910152565b8181015183820152602001611e9b565b60208183031261038a5780519067ffffffffffffffff821161038a570181601f8201121561038a578051611eee81611c36565b92611efc6040519485611ae6565b8184526020828401011161038a57611f1a9160208085019101611e98565b90565b90602091611f3681518092818552858086019101611e98565b601f01601f1916010190565b6001600160a01b039081166000818152600460205260409020549091166121c3576040516306fdde0360e01b815260008082600481865afa909182826121a6575b505061217a5750604051611f98604082611ae6565b600681526538aa37b5b2b760d11b60208201525b6040516395d89b4160e01b8152600081600481865afa60009181612155575b506121175750604051611fdf604082611ae6565b600481526338aa25a760e11b6020820152905b60405163313ce56760e01b8152601290602081600481885afa80916000916120db575b50906120d3575b5060405192610b2f908185019185831067ffffffffffffffff841117611b085761206b60609261205d889760ff9461232c8a39608087526080870190611f1d565b908582036020870152611f1d565b933060408501521691015203906000f08015611d585760018060a01b031681819260005260046020526040600020826001600160601b0360a01b8254161790557fa9b482826b98af85a8a9e7e42ef14980212bea648c0f68dfb0fa437ba2e21c4e600080a390565b90503861201c565b6020813d60201161210f575b816120f460209383611ae6565b8101031261035a57519060ff8216820361015a575038612015565b3d91506120e7565b61214f60216040518093607160f81b602083015261213e8151809260208686019101611e98565b81010301601f198101835282611ae6565b90611ff2565b6121739192503d806000833e61216b8183611ae6565b810190611ebb565b9038611fcb565b6121a160216040518093607160f81b602083015261213e8151809260208686019101611e98565b611fac565b6121bb9293503d8091833e61216b8183611ae6565b903880611f83565b6000908152600460205260409020546001600160a01b031690565b815191906041830361220f5761220892506020820151906060604084015193015160001a906122a2565b9192909190565b505060009160029190565b919091600481101561228c578061223057509050565b60006001820361224b5763f645eedf60e01b60005260046000fd5b5060028103612269578263fce698f760e01b60005260045260246000fd5b9091600360009214612279575050565b6335e2f38360e21b825260045260249150fd5b634e487b7160e01b600052602160045260246000fd5b91907f7fffffffffffffffffffffffffffffff5d576e7357a4501ddfe92f46681b20a0841161231f579160209360809260ff60009560405194855216868401526040830152606082015282805260015afa15611d58576000516001600160a01b038116156123135790600090600090565b50600090600190600090565b5050506000916003919056fe60806040523461038a57610b2f803803806100198161038f565b92833981019060808183031261038a5780516001600160401b03811161038a57826100459183016103b4565b602082015190926001600160401b03821161038a576100659183016103b4565b604082015190916001600160a01b0382169182900361038a57606001519060ff8216820361038a5783516001600160401b03811161028657600354600181811c91168015610380575b602082101461026657601f811161030e575b50602094601f82116001146102a75794819293949560009261029c575b50508160011b916000199060031b1c1916176003555b82516001600160401b03811161028657600454600181811c9116801561027c575b602082101461026657601f81116101f4575b506020601f821160011461018d5781929394600092610182575b50508160011b916000199060031b1c1916176004555b6005549160ff60a01b9060a01b169160018060a81b031916171760055560405161070f90816104208239f35b015190503880610140565b601f198216906004600052806000209160005b8181106101dc575095836001959697106101c3575b505050811b01600455610156565b015160001960f88460031b161c191690553880806101b5565b9192602060018192868b0151815501940192016101a0565b81811115610126576004600052601f820160051c7f8a35acfbc15ff81a39ae7d344fd709f28e8600b4aa8c65c6b64bfe7fe36bd19b6020841061025d575b81601f9101920160051c039060005b82811061024f575050610126565b600082820155600101610241565b60009150610232565b634e487b7160e01b600052602260045260246000fd5b90607f1690610114565b634e487b7160e01b600052604160045260246000fd5b0151905038806100dd565b601f198216956003600052806000209160005b8881106102f6575083600195969798106102dd575b505050811b016003556100f3565b015160001960f88460031b161c191690553880806102cf565b919260206001819286850151815501940192016102ba565b818111156100c0576003600052601f820160051c7fc2575a0e9e593c00f959f8c92f12db2869c3395a3b0502d05e2516446f71f85b60208410610377575b81601f9101920160051c039060005b8281106103695750506100c0565b60008282015560010161035b565b6000915061034c565b90607f16906100ae565b600080fd5b6040519190601f01601f191682016001600160401b0381118382101761028657604052565b81601f8201121561038a578051906001600160401b038211610286576103e3601f8301601f191660200161038f565b928284526020838301011161038a5760005b82811061040a57505060206000918301015290565b806020809284010151828287010152016103f556fe608080604052600436101561001357600080fd5b60003560e01c90816306fdde03146104ec57508063095ea7b31461048d57806318160ddd1461046f57806323b872dd1461044d578063313ce5671461042957806340c10f191461036857806370a082311461032e57806395d89b411461020d5780639dc29fac14610141578063a9059cbb14610122578063dd62ed3e146100d15763fbfa77cf146100a357600080fd5b346100cc5760003660031901126100cc576005546040516001600160a01b039091168152602090f35b600080fd5b346100cc5760403660031901126100cc576100ea610608565b6100f261061e565b6001600160a01b039182166000908152600160209081526040808320949093168252928352819020549051908152f35b346100cc5760403660031901126100cc5761013b610608565b50610634565b346100cc5760403660031901126100cc5761015a610608565b6024359061017360018060a01b0360055416331461068d565b6001600160a01b03169081156101f7576000908282528160205260408220548181106101df5760208285937fddf252ad1be2c89b69c2b068fc378daa952ba7f163c4a11628f55a4df523b3ef93869787528684520360408620558060025403600255604051908152a380f35b60649363391434e360e21b8452600452602452604452fd5b634b637e8f60e11b600052600060045260246000fd5b346100cc5760003660031901126100cc5760405160006004548060011c90600181168015610324575b602083108114610310578285529081156102f4575060011461029d575b50819003601f01601f191681019067ffffffffffffffff82118183101761028757610283829182604052826105bf565b0390f35b634e487b7160e01b600052604160045260246000fd5b905060046000527f8a35acfbc15ff81a39ae7d344fd709f28e8600b4aa8c65c6b64bfe7fe36bd19b6000905b8282106102de57506020915082010182610253565b60018160209254838588010152019101906102c9565b90506020925060ff191682840152151560051b82010182610253565b634e487b7160e01b84526022600452602484fd5b91607f1691610236565b346100cc5760203660031901126100cc576001600160a01b0361034f610608565b1660005260006020526020604060002054604051908152f35b346100cc5760403660031901126100cc57610381610608565b6024359061039a60018060a01b0360055416331461068d565b6001600160a01b0316801561041357600254918083018093116103fd576020926002557fddf252ad1be2c89b69c2b068fc378daa952ba7f163c4a11628f55a4df523b3ef600093849284845283825260408420818154019055604051908152a380f35b634e487b7160e01b600052601160045260246000fd5b63ec442f0560e01b600052600060045260246000fd5b346100cc5760003660031901126100cc57602060ff60055460a01c16604051908152f35b346100cc5760603660031901126100cc57610466610608565b5061013b61061e565b346100cc5760003660031901126100cc576020600254604051908152f35b346100cc5760403660031901126100cc576104a6610608565b5060405162461bcd60e51b815260206004820152601a60248201527f71546f6b656e3a20617070726f76616c732064697361626c65640000000000006044820152606490fd5b346100cc5760003660031901126100cc5760006003548060011c906001811680156105b5575b602083108114610310578285529081156102f4575060011461055e5750819003601f01601f191681019067ffffffffffffffff82118183101761028757610283829182604052826105bf565b905060036000527fc2575a0e9e593c00f959f8c92f12db2869c3395a3b0502d05e2516446f71f85b6000905b82821061059f57506020915082010182610253565b600181602092548385880101520191019061058a565b91607f1691610512565b91909160208152825180602083015260005b8181106105f2575060409293506000838284010152601f8019910116010190565b80602080928701015160408286010152016105d1565b600435906001600160a01b03821682036100cc57565b602435906001600160a01b03821682036100cc57565b60405162461bcd60e51b815260206004820152602b60248201527f71546f6b656e3a207472616e73666572732064697361626c65642c207573652060448201526a05172797074756d206170760ac1b6064820152608490fd5b1561069457565b60405162461bcd60e51b815260206004820152601b60248201527f4f6e6c79205152595054414e4b2063616e2063616c6c207468697300000000006044820152606490fdfea264697066735822122080870c9e1ee319a18344b1aec633397a22cf1a2d0e7ee60d1d0b2b7f36b1136364736f6c634300082200339b779b17422d0df92223018b32b4d1fa46e071723d6817e2486d003becc55f00a2646970667358221220bfd6e6df3ce182676af6ece7211d2c1d96ef99f8fb69782113ab9691d27a6d6864736f6c63430008220033",
  "linkReferences": {},
  "deployedLinkReferences": {}
}