{
  "_format": "hh-sol-artifact-1",
  "contractName": "QryptSafe",
  "sourceName": "contracts/QryptSafe.sol",
  "abi": [
    {
      "inputs": [],
      "name": "ECDSAInvalidSignature",
      "type": "error"
    },
    {
      "inputs": [
        {
          "internalType": "uint256",
          "name": "length",
          "type": "uint256"
        }
      ],
      "name": "ECDSAInvalidSignatureLength",
      "type": "error"
    },
    {
      "inputs": [
        {
          "internalType": "bytes32",
          "name": "s",
          "type": "bytes32"
        }
      ],
      "name": "ECDSAInvalidSignatureS",
      "type": "error"
    },
    {
      "inputs": [],
      "name": "ReentrancyGuardReentrantCall",
      "type": "error"
    },
    {
      "inputs": [
        {
          "internalType": "address",
          "name": "token",
          "type": "address"
        }
      ],
      "name": "SafeERC20FailedOperation",
      "type": "error"
    },
    {
      "anonymous": false,
      "inputs": [
        {
          "indexed": true,
          "internalType": "bytes32",
          "name": "nonce",
          "type": "bytes32"
        },
        {
          "indexed": true,
          "internalType": "address",
          "name": "token",
          "type": "address"
        },
        {
          "indexed": false,
          "internalType": "uint256",
          "name": "amount",
          "type": "uint256"
        },
        {
          "indexed": true,
          "internalType": "address",
          "name": "recipient",
          "type": "address"
        }
      ],
      "name": "AirVoucherClaimed",
      "type": "event"
    },
    {
      "anonymous": false,
      "inputs": [
        {
          "indexed": false,
          "internalType": "bytes32",
          "name": "newHead",
          "type": "bytes32"
        }
      ],
      "name": "ChainRecharged",
      "type": "event"
    },
    {
      "anonymous": false,
      "inputs": [
        {
          "indexed": true,
          "internalType": "address",
          "name": "token",
          "type": "address"
        },
        {
          "indexed": false,
          "internalType": "uint256",
          "name": "amount",
          "type": "uint256"
        }
      ],
      "name": "EmergencyExit",
      "type": "event"
    },
    {
      "anonymous": false,
      "inputs": [
        {
          "indexed": true,
          "internalType": "address",
          "name": "token",
          "type": "address"
        },
        {
          "indexed": false,
          "internalType": "uint256",
          "name": "amount",
          "type": "uint256"
        }
      ],
      "name": "OffTokenMinted",
      "type": "event"
    },
    {
      "anonymous": false,
      "inputs": [
        {
          "indexed": true,
          "internalType": "address",
          "name": "token",
          "type": "address"
        },
        {
          "indexed": false,
          "internalType": "uint256",
          "name": "amount",
          "type": "uint256"
        }
      ],
      "name": "OffTokenReclaimed",
      "type": "event"
    },
    {
      "anonymous": false,
      "inputs": [
        {
          "indexed": true,
          "internalType": "address",
          "name": "token",
          "type": "address"
        },
        {
          "indexed": true,
          "internalType": "address",
          "name": "qToken",
          "type": "address"
        }
      ],
      "name": "QTokenCreated",
      "type": "event"
    },
    {
      "anonymous": false,
      "inputs": [
        {
          "indexed": true,
          "internalType": "address",
          "name": "token",
          "type": "address"
        },
        {
          "indexed": false,
          "internalType": "uint256",
          "name": "amount",
          "type": "uint256"
        },
        {
          "indexed": true,
          "internalType": "address",
          "name": "qToken",
          "type": "address"
        }
      ],
      "name": "TokenQrypted",
      "type": "event"
    },
    {
      "anonymous": false,
      "inputs": [
        {
          "indexed": true,
          "internalType": "address",
          "name": "token",
          "type": "address"
        },
        {
          "indexed": false,
          "internalType": "uint256",
          "name": "amount",
          "type": "uint256"
        }
      ],
      "name": "TokenUnqrypted",
      "type": "event"
    },
    {
      "anonymous": false,
      "inputs": [
        {
          "indexed": true,
          "internalType": "address",
          "name": "token",
          "type": "address"
        },
        {
          "indexed": true,
          "internalType": "address",
          "name": "to",
          "type": "address"
        },
        {
          "indexed": false,
          "internalType": "uint256",
          "name": "amount",
          "type": "uint256"
        }
      ],
      "name": "TransferFinalized",
      "type": "event"
    },
    {
      "anonymous": false,
      "inputs": [
        {
          "indexed": true,
          "internalType": "bytes32",
          "name": "initHash",
          "type": "bytes32"
        }
      ],
      "name": "TransferInitiated",
      "type": "event"
    },
    {
      "inputs": [],
      "name": "COMMIT_EXPIRY_SECONDS",
      "outputs": [
        {
          "internalType": "uint256",
          "name": "",
          "type": "uint256"
        }
      ],
      "stateMutability": "view",
      "type": "function"
    },
    {
      "inputs": [],
      "name": "EMERGENCY_DELAY_BLOCKS",
      "outputs": [
        {
          "internalType": "uint256",
          "name": "",
          "type": "uint256"
        }
      ],
      "stateMutability": "view",
      "type": "function"
    },
    {
      "inputs": [],
      "name": "MINIMUM_SHIELD_AMOUNT",
      "outputs": [
        {
          "internalType": "uint256",
          "name": "",
          "type": "uint256"
        }
      ],
      "stateMutability": "view",
      "type": "function"
    },
    {
      "inputs": [
        {
          "internalType": "address",
          "name": "tokenAddress",
          "type": "address"
        },
        {
          "internalType": "uint256",
          "name": "amount",
          "type": "uint256"
        },
        {
          "internalType": "bytes32",
          "name": "proof",
          "type": "bytes32"
        }
      ],
      "name": "Qrypt",
      "outputs": [],
      "stateMutability": "nonpayable",
      "type": "function"
    },
    {
      "inputs": [
        {
          "internalType": "address",
          "name": "token",
          "type": "address"
        },
        {
          "internalType": "uint256",
          "name": "amount",
          "type": "uint256"
        },
        {
          "internalType": "address",
          "name": "recipient",
          "type": "address"
        },
        {
          "internalType": "uint256",
          "name": "deadline",
          "type": "uint256"
        },
        {
          "internalType": "bytes32",
          "name": "nonce",
          "type": "bytes32"
        },
        {
          "internalType": "bytes32",
          "name": "transferCodeHash",
          "type": "bytes32"
        },
        {
          "internalType": "bytes",
          "name": "signature",
          "type": "bytes"
        }
      ],
      "name": "claimAirVoucher",
      "outputs": [],
      "stateMutability": "nonpayable",
      "type": "function"
    },
    {
      "inputs": [
        {
          "internalType": "address[]",
          "name": "tokenAddresses",
          "type": "address[]"
        }
      ],
      "name": "emergencyWithdraw",
      "outputs": [],
      "stateMutability": "nonpayable",
      "type": "function"
    },
    {
      "inputs": [
        {
          "internalType": "address",
          "name": "tokenAddress",
          "type": "address"
        },
        {
          "internalType": "uint256",
          "name": "amount",
          "type": "uint256"
        },
        {
          "internalType": "bytes32",
          "name": "proof",
          "type": "bytes32"
        },
        {
          "internalType": "address",
          "name": "railgunProxy",
          "type": "address"
        },
        {
          "internalType": "bytes",
          "name": "shieldCalldata",
          "type": "bytes"
        }
      ],
      "name": "enterRailgun",
      "outputs": [],
      "stateMutability": "payable",
      "type": "function"
    },
    {
      "inputs": [
        {
          "internalType": "address",
          "name": "tokenAddress",
          "type": "address"
        },
        {
          "internalType": "address",
          "name": "to",
          "type": "address"
        },
        {
          "internalType": "uint256",
          "name": "amount",
          "type": "uint256"
        },
        {
          "internalType": "bytes32",
          "name": "proof",
          "type": "bytes32"
        },
        {
          "internalType": "uint256",
          "name": "nonce",
          "type": "uint256"
        }
      ],
      "name": "finalizeTransfer",
      "outputs": [],
      "stateMutability": "nonpayable",
      "type": "function"
    },
    {
      "inputs": [
        {
          "internalType": "address",
          "name": "token",
          "type": "address"
        }
      ],
      "name": "getAirBags",
      "outputs": [
        {
          "internalType": "uint256",
          "name": "",
          "type": "uint256"
        }
      ],
      "stateMutability": "view",
      "type": "function"
    },
    {
      "inputs": [],
      "name": "getEmergencyWithdrawAvailableBlock",
      "outputs": [
        {
          "internalType": "uint256",
          "name": "",
          "type": "uint256"
        }
      ],
      "stateMutability": "view",
      "type": "function"
    },
    {
      "inputs": [
        {
          "internalType": "address",
          "name": "tokenAddress",
          "type": "address"
        }
      ],
      "name": "getQTokenAddress",
      "outputs": [
        {
          "internalType": "address",
          "name": "",
          "type": "address"
        }
      ],
      "stateMutability": "view",
      "type": "function"
    },
    {
      "inputs": [
        {
          "internalType": "address",
          "name": "tokenAddress",
          "type": "address"
        }
      ],
      "name": "getQryptedBalance",
      "outputs": [
        {
          "internalType": "uint256",
          "name": "",
          "type": "uint256"
        }
      ],
      "stateMutability": "view",
      "type": "function"
    },
    {
      "inputs": [
        {
          "internalType": "bytes32",
          "name": "initHash",
          "type": "bytes32"
        }
      ],
      "name": "initTransfer",
      "outputs": [],
      "stateMutability": "nonpayable",
      "type": "function"
    },
    {
      "inputs": [
        {
          "internalType": "address",
          "name": "_owner",
          "type": "address"
        },
        {
          "internalType": "bytes32",
          "name": "_initialChainHead",
          "type": "bytes32"
        }
      ],
      "name": "initialize",
      "outputs": [],
      "stateMutability": "nonpayable",
      "type": "function"
    },
    {
      "inputs": [],
      "name": "initialized",
      "outputs": [
        {
          "internalType": "bool",
          "name": "",
          "type": "bool"
        }
      ],
      "stateMutability": "view",
      "type": "function"
    },
    {
      "inputs": [],
      "name": "lastActivityBlock",
      "outputs": [
        {
          "internalType": "uint256",
          "name": "",
          "type": "uint256"
        }
      ],
      "stateMutability": "view",
      "type": "function"
    },
    {
      "inputs": [
        {
          "internalType": "address",
          "name": "token",
          "type": "address"
        },
        {
          "internalType": "uint256",
          "name": "amount",
          "type": "uint256"
        },
        {
          "internalType": "bytes32",
          "name": "proof",
          "type": "bytes32"
        }
      ],
      "name": "mintOffToken",
      "outputs": [],
      "stateMutability": "nonpayable",
      "type": "function"
    },
    {
      "inputs": [],
      "name": "owner",
      "outputs": [
        {
          "internalType": "address",
          "name": "",
          "type": "address"
        }
      ],
      "stateMutability": "view",
      "type": "function"
    },
    {
      "inputs": [
        {
          "internalType": "address",
          "name": "",
          "type": "address"
        }
      ],
      "name": "qTokens",
      "outputs": [
        {
          "internalType": "address",
          "name": "",
          "type": "address"
        }
      ],
      "stateMutability": "view",
      "type": "function"
    },
    {
      "inputs": [
        {
          "internalType": "bytes32",
          "name": "newHead",
          "type": "bytes32"
        },
        {
          "internalType": "bytes32",
          "name": "currentProof",
          "type": "bytes32"
        }
      ],
      "name": "rechargeChain",
      "outputs": [],
      "stateMutability": "nonpayable",
      "type": "function"
    },
    {
      "inputs": [
        {
          "internalType": "address",
          "name": "token",
          "type": "address"
        },
        {
          "internalType": "bytes32",
          "name": "proof",
          "type": "bytes32"
        }
      ],
      "name": "reclaimOffToken",
      "outputs": [],
      "stateMutability": "nonpayable",
      "type": "function"
    },
    {
      "inputs": [
        {
          "internalType": "address",
          "name": "tokenAddress",
          "type": "address"
        },
        {
          "internalType": "uint256",
          "name": "amount",
          "type": "uint256"
        },
        {
          "internalType": "bytes32",
          "name": "proof",
          "type": "bytes32"
        }
      ],
      "name": "unQrypt",
      "outputs": [],
      "stateMutability": "nonpayable",
      "type": "function"
    },
    {
      "inputs": [
        {
          "internalType": "bytes32",
          "name": "",
          "type": "bytes32"
        }
      ],
      "name": "usedVoucherNonces",
      "outputs": [
        {
          "internalType": "bool",
          "name": "",
          "type": "bool"
        }
      ],
      "stateMutability": "view",
      "type": "function"
    }
  ],
  "bytecode": "0x6080604052348015600f57600080fd5b5060017f9b779b17422d0df92223018b32b4d1fa46e071723d6817e2486d003becc55f0055613bc2806100436000396000f3fe6080604052600436106101805760003560e01c8063a22b1513116100d6578063cf21d3f51161007f578063ea6eee5f11610059578063ea6eee5f1461045e578063eff29f901461047e578063f4e2082c1461049357600080fd5b8063cf21d3f514610407578063d809bcfd14610427578063e2e8c68b1461044757600080fd5b8063bec0890d116100b0578063bec0890d14610391578063c0f05e85146103b1578063c516dcbf146103d157600080fd5b8063a22b151314610302578063ac893fa514610338578063be13f47c1461037157600080fd5b80636073fb65116101385780638da5cb5b116101125780638da5cb5b1461029457806396dac530146102cc578063a0bb209d146102e257600080fd5b80636073fb651461023b5780637a827eae1461024e578063806f34091461027e57600080fd5b806329585cc21161016957806329585cc2146101d65780635122a642146101f657806358370bdb1461022457600080fd5b806301c1dfba14610185578063158ef93e146101a7575b600080fd5b34801561019157600080fd5b506101a56101a0366004612b08565b6104b3565b005b3480156101b357600080fd5b506002546101c19060ff1681565b60405190151581526020015b60405180910390f35b3480156101e257600080fd5b506101a56101f1366004612b7f565b6106d1565b34801561020257600080fd5b50610216610211366004612bbd565b61081c565b6040519081526020016101cd565b34801561023057600080fd5b50610216620f424081565b6101a5610249366004612c21565b6108bc565b34801561025a57600080fd5b506101c1610269366004612c99565b60066020526000908152604090205460ff1681565b34801561028a57600080fd5b5061021661025881565b3480156102a057600080fd5b506000546102b4906001600160a01b031681565b6040516001600160a01b0390911681526020016101cd565b3480156102d857600080fd5b5061021660035481565b3480156102ee57600080fd5b506101a56102fd366004612cb2565b610d4b565b34801561030e57600080fd5b506102b461031d366004612bbd565b6004602052600090815260409020546001600160a01b031681565b34801561034457600080fd5b506102b4610353366004612bbd565b6001600160a01b039081166000908152600460205260409020541690565b34801561037d57600080fd5b506101a561038c366004612d3d565b6112b2565b34801561039d57600080fd5b506101a56103ac366004612d3d565b61134b565b3480156103bd57600080fd5b506101a56103cc366004612c99565b611507565b3480156103dd57600080fd5b506102166103ec366004612bbd565b6001600160a01b031660009081526007602052604090205490565b34801561041357600080fd5b506101a5610422366004612d67565b611627565b34801561043357600080fd5b506101a5610442366004612d67565b6118bd565b34801561045357600080fd5b506102166213c68081565b34801561046a57600080fd5b506101a5610479366004612d67565b611b70565b34801561048a57600080fd5b50610216611e08565b34801561049f57600080fd5b506101a56104ae366004612d9a565b611e20565b6000546001600160a01b031633146105045760405162461bcd60e51b815260206004820152600f60248201526e2737ba103b30bab63a1037bbb732b960891b60448201526064015b60405180910390fd5b61050c612356565b6213c68060035461051d9190612dfd565b4310156105915760405162461bcd60e51b8152602060048201526024808201527f456d657267656e6379207769746864726177206e6f742079657420617661696c60448201527f61626c650000000000000000000000000000000000000000000000000000000060648201526084016104fb565b60005b818110156106a35760008383838181106105b0576105b0612e10565b90506020020160208101906105c59190612bbd565b6040516370a0823160e01b81523060048201529091506000906001600160a01b038316906370a0823190602401602060405180830381865afa15801561060f573d6000803e3d6000fd5b505050506040513d601f19601f820116820180604052508101906106339190612e26565b9050801561069957600054610655906001600160a01b03848116911683612384565b816001600160a01b03167ff779df072f94d207563b1ba8c286814086f1e6bb436a2652e307dccc56ed79e88260405161069091815260200190565b60405180910390a25b5050600101610594565b506106cd60017f9b779b17422d0df92223018b32b4d1fa46e071723d6817e2486d003becc55f0055565b5050565b6000546001600160a01b0316331461071d5760405162461bcd60e51b815260206004820152600f60248201526e2737ba103b30bab63a1037bbb732b960891b60448201526064016104fb565b600154604080516020810184905201604051602081830303815290604052805190602001201461078f5760405162461bcd60e51b815260206004820152601660248201527f496e76616c69642072656368617267652070726f6f660000000000000000000060448201526064016104fb565b816107dc5760405162461bcd60e51b815260206004820152601660248201527f496e76616c6964206e657720636861696e20686561640000000000000000000060448201526064016104fb565b6001829055436003556040518281527f8070c963f225325e8d44d693c372dbd8ba5a50ca93d4937c586a42b58e1fbc319060200160405180910390a15050565b6001600160a01b03808216600090815260046020526040812054909116806108475750600092915050565b6000546040516370a0823160e01b81526001600160a01b039182166004820152908216906370a0823190602401602060405180830381865afa158015610891573d6000803e3d6000fd5b505050506040513d601f19601f820116820180604052508101906108b59190612e26565b9392505050565b6000546001600160a01b031633146109085760405162461bcd60e51b815260206004820152600f60248201526e2737ba103b30bab63a1037bbb732b960891b60448201526064016104fb565b610910612356565b610919846123b9565b6001600160a01b03831661096f5760405162461bcd60e51b815260206004820152601560248201527f496e76616c6964205261696c67756e2070726f7879000000000000000000000060448201526064016104fb565b600085116109bf5760405162461bcd60e51b815260206004820181905260248201527f416d6f756e74206d7573742062652067726561746572207468616e207a65726f60448201526064016104fb565b6001600160a01b038087166000908152600460205260409020541680610a1b5760405162461bcd60e51b8152602060048201526011602482015270151bdad95b881b9bdd081c5c9e5c1d1959607a1b60448201526064016104fb565b6000546040516370a0823160e01b81526001600160a01b03918216600482015287918316906370a0823190602401602060405180830381865afa158015610a66573d6000803e3d6000fd5b505050506040513d601f19601f82011682018060405250810190610a8a9190612e26565b1015610ad85760405162461bcd60e51b815260206004820152601c60248201527f496e73756666696369656e7420717279707465642062616c616e63650000000060448201526064016104fb565b600054604051632770a7eb60e21b81526001600160a01b0391821660048201526024810188905290821690639dc29fac90604401600060405180830381600087803b158015610b2657600080fd5b505af1158015610b3a573d6000803e3d6000fd5b505060405163095ea7b360e01b81526001600160a01b038781166004830152602482018a90528a16925063095ea7b391506044016020604051808303816000875af1158015610b8d573d6000803e3d6000fd5b505050506040513d601f19601f82011682018060405250810190610bb19190612e3f565b506000846001600160a01b0316348585604051610bcf929190612e61565b60006040518083038185875af1925050503d8060008114610c0c576040519150601f19603f3d011682016040523d82523d6000602084013e610c11565b606091505b5050905080610c625760405162461bcd60e51b815260206004820152601560248201527f5261696c67756e20736869656c64206661696c6564000000000000000000000060448201526064016104fb565b60405163095ea7b360e01b81526001600160a01b0386811660048301526000602483015289169063095ea7b3906044016020604051808303816000875af1158015610cb1573d6000803e3d6000fd5b505050506040513d601f19601f82011682018060405250810190610cd59190612e3f565b50436003556040518781526001600160a01b038916907f34fb1cafebe3ab27de6c870e0a89117596513e05bda7ccbcab0a44638c46957d9060200160405180910390a25050610d4360017f9b779b17422d0df92223018b32b4d1fa46e071723d6817e2486d003becc55f0055565b505050505050565b610d53612356565b6001600160a01b038816610da95760405162461bcd60e51b815260206004820152600d60248201527f496e76616c696420746f6b656e0000000000000000000000000000000000000060448201526064016104fb565b6001600160a01b038616610dff5760405162461bcd60e51b815260206004820152601160248201527f496e76616c696420726563697069656e7400000000000000000000000000000060448201526064016104fb565b60008711610e4f5760405162461bcd60e51b815260206004820152600b60248201527f5a65726f20616d6f756e7400000000000000000000000000000000000000000060448201526064016104fb565b84421115610e9f5760405162461bcd60e51b815260206004820152600f60248201527f566f75636865722065787069726564000000000000000000000000000000000060448201526064016104fb565b60008481526006602052604090205460ff1615610efe5760405162461bcd60e51b815260206004820152601860248201527f566f756368657220616c72656164792072656465656d6564000000000000000060448201526064016104fb565b6001600160a01b038816600090815260076020526040902054871115610f665760405162461bcd60e51b815260206004820152601660248201527f496e73756666696369656e74206f6666546f6b656e730000000000000000000060448201526064016104fb565b604080518082018252600881527f517279707441697200000000000000000000000000000000000000000000000060209182015281518083018352600181527f31000000000000000000000000000000000000000000000000000000000000009082015281517fc2f8787176b8ac6bf7215b4adcc1e069bf4ab82d9ab1df05a57a91d425935b6e818301527fd7687bdaf23244c3c2228a94892712148e73e10875be9c4a31232459f926ef13818401527fc89efdaa54c0f20c7adf612882df0950f5a951637e0307cdcb4c672f298b8bc66060820152466080808301919091528351808303909101815260a0820184528051908301207f22843c5037a0a8bc35f56290540532eba624a7f4883ef0b9545444d80f21b61060c08301526001600160a01b038c811660e084015261010083018c90528a1661012083015261014082018990526101608201889052610180808301889052845180840390910181526101a08301909452835193909201929092207f19010000000000000000000000000000000000000000000000000000000000006101c08401526101c283018290526101e2830181905290916000906102020160405160208183030381529060405280519060200120905060006111718287878080601f01602080910402602001604051908101604052809392919081815260200183838082843760009201919091525061243092505050565b6000549091506001600160a01b038083169116146111d15760405162461bcd60e51b815260206004820152601860248201527f536967206e6f742066726f6d207661756c74206f776e6572000000000000000060448201526064016104fb565b6000888152600660209081526040808320805460ff191660011790556001600160a01b038f1683526007909152812080548d9290611210908490612e71565b90915550504360035561122d6001600160a01b038d168b8d612384565b896001600160a01b03168c6001600160a01b0316897f36e50d46cacf45a507da540052009ec6fbcd610d4cbdaf22cd185000237ec70e8e60405161127391815260200190565b60405180910390a4505050506112a860017f9b779b17422d0df92223018b32b4d1fa46e071723d6817e2486d003becc55f0055565b5050505050505050565b60025460ff16156113055760405162461bcd60e51b815260206004820152601360248201527f416c726561647920696e697469616c697a65640000000000000000000000000060448201526064016104fb565b6000805473ffffffffffffffffffffffffffffffffffffffff19166001600160a01b03939093169290921790915560019081556002805460ff1916909117905543600355565b6000546001600160a01b031633146113975760405162461bcd60e51b815260206004820152600f60248201526e2737ba103b30bab63a1037bbb732b960891b60448201526064016104fb565b61139f612356565b6113a8816123b9565b6001600160a01b0382166000908152600760205260409020548061140e5760405162461bcd60e51b815260206004820152601760248201527f4e6f206f6666546f6b656e7320746f207265636c61696d00000000000000000060448201526064016104fb565b6001600160a01b03831660009081526007602052604081208190556114328461245c565b6000546040516340c10f1960e01b81526001600160a01b039182166004820152602481018590529192508216906340c10f1990604401600060405180830381600087803b15801561148257600080fd5b505af1158015611496573d6000803e3d6000fd5b50504360035550506040518281526001600160a01b038516907fa466a5229cd7f66200ac7b4c410ccf8a666555f4dfc4b35f199e88d4f15cf7919060200160405180910390a250506106cd60017f9b779b17422d0df92223018b32b4d1fa46e071723d6817e2486d003becc55f0055565b6000546001600160a01b031633146115535760405162461bcd60e51b815260206004820152600f60248201526e2737ba103b30bab63a1037bbb732b960891b60448201526064016104fb565b600081815260056020526040902054156115af5760405162461bcd60e51b815260206004820152601360248201527f496e697420616c7265616479206578697374730000000000000000000000000060448201526064016104fb565b6040805160608101825243808252426020808401918252600084860181815287825260059092528581209451855591516001850155516002909301805460ff191693151593909317909255600355905182917ffede07bfc648b8e28f77b9d425d68a278b914f84073fe0da16a187d1db169f4291a250565b6000546001600160a01b031633146116735760405162461bcd60e51b815260206004820152600f60248201526e2737ba103b30bab63a1037bbb732b960891b60448201526064016104fb565b61167b612356565b611684816123b9565b620f42408210156116d75760405162461bcd60e51b815260206004820152601460248201527f416d6f756e742062656c6f77206d696e696d756d00000000000000000000000060448201526064016104fb565b6040516370a0823160e01b81523060048201526000906001600160a01b038516906370a0823190602401602060405180830381865afa15801561171e573d6000803e3d6000fd5b505050506040513d601f19601f820116820180604052508101906117429190612e26565b90506117596001600160a01b038516333086612738565b6040516370a0823160e01b815230600482015260009082906001600160a01b038716906370a0823190602401602060405180830381865afa1580156117a2573d6000803e3d6000fd5b505050506040513d601f19601f820116820180604052508101906117c69190612e26565b6117d09190612e71565b905060006117dd8661245c565b6000546040516340c10f1960e01b81526001600160a01b039182166004820152602481018590529192508216906340c10f1990604401600060405180830381600087803b15801561182d57600080fd5b505af1158015611841573d6000803e3d6000fd5b50504360035550506040518281526001600160a01b0380831691908816907f8eedcaad9e05ba593ed12c40b78d30b6cebca59bc773cc4a38a95e7a0af92cd99060200160405180910390a35050506118b860017f9b779b17422d0df92223018b32b4d1fa46e071723d6817e2486d003becc55f0055565b505050565b6000546001600160a01b031633146119095760405162461bcd60e51b815260206004820152600f60248201526e2737ba103b30bab63a1037bbb732b960891b60448201526064016104fb565b611911612356565b61191a816123b9565b6000821161196a5760405162461bcd60e51b815260206004820181905260248201527f416d6f756e74206d7573742062652067726561746572207468616e207a65726f60448201526064016104fb565b6001600160a01b0380841660009081526004602052604090205416806119c65760405162461bcd60e51b8152602060048201526011602482015270151bdad95b881b9bdd081c5c9e5c1d1959607a1b60448201526064016104fb565b6000546040516370a0823160e01b81526001600160a01b03918216600482015284918316906370a0823190602401602060405180830381865afa158015611a11573d6000803e3d6000fd5b505050506040513d601f19601f82011682018060405250810190611a359190612e26565b1015611a835760405162461bcd60e51b815260206004820152601c60248201527f496e73756666696369656e7420717279707465642062616c616e63650000000060448201526064016104fb565b600054604051632770a7eb60e21b81526001600160a01b0391821660048201526024810185905290821690639dc29fac90604401600060405180830381600087803b158015611ad157600080fd5b505af1158015611ae5573d6000803e3d6000fd5b5050600054611b0392506001600160a01b0387811692501685612384565b436003556040518381526001600160a01b038516907f34fb1cafebe3ab27de6c870e0a89117596513e05bda7ccbcab0a44638c46957d906020015b60405180910390a2506118b860017f9b779b17422d0df92223018b32b4d1fa46e071723d6817e2486d003becc55f0055565b6000546001600160a01b03163314611bbc5760405162461bcd60e51b815260206004820152600f60248201526e2737ba103b30bab63a1037bbb732b960891b60448201526064016104fb565b611bc4612356565b611bcd816123b9565b60008211611c1d5760405162461bcd60e51b815260206004820181905260248201527f416d6f756e74206d7573742062652067726561746572207468616e207a65726f60448201526064016104fb565b6001600160a01b038084166000908152600460205260409020541680611c795760405162461bcd60e51b8152602060048201526011602482015270151bdad95b881b9bdd081c5c9e5c1d1959607a1b60448201526064016104fb565b6000546040516370a0823160e01b81526001600160a01b03918216600482015284918316906370a0823190602401602060405180830381865afa158015611cc4573d6000803e3d6000fd5b505050506040513d601f19601f82011682018060405250810190611ce89190612e26565b1015611d365760405162461bcd60e51b815260206004820152601c60248201527f496e73756666696369656e7420717279707465642062616c616e63650000000060448201526064016104fb565b600054604051632770a7eb60e21b81526001600160a01b0391821660048201526024810185905290821690639dc29fac90604401600060405180830381600087803b158015611d8457600080fd5b505af1158015611d98573d6000803e3d6000fd5b505050506001600160a01b03841660009081526007602052604081208054859290611dc4908490612dfd565b9091555050436003556040518381526001600160a01b038516907fb06df73e2f078e705993cbd05668ecf4875592f35792f6cbe956d6684f3ba85090602001611b3e565b60006213c680600354611e1b9190612dfd565b905090565b6000546001600160a01b03163314611e6c5760405162461bcd60e51b815260206004820152600f60248201526e2737ba103b30bab63a1037bbb732b960891b60448201526064016104fb565b611e74612356565b611e7d826123b9565b60008311611ecd5760405162461bcd60e51b815260206004820181905260248201527f416d6f756e74206d7573742062652067726561746572207468616e207a65726f60448201526064016104fb565b6001600160a01b038416611f235760405162461bcd60e51b815260206004820152601160248201527f496e76616c696420726563697069656e7400000000000000000000000000000060448201526064016104fb565b336001600160a01b03851603611f7b5760405162461bcd60e51b815260206004820152601b60248201527f43616e6e6f74207472616e7366657220746f20796f757273656c66000000000060448201526064016104fb565b60408051602081018490529081018290526bffffffffffffffffffffffff19606087811b82168184015286901b1660748201526088810184905260009060a80160408051601f19818403018152918152815160209283012060008181526005909352908220805491935091036120335760405162461bcd60e51b815260206004820152600e60248201527f496e6974206e6f7420666f756e6400000000000000000000000000000000000060448201526064016104fb565b600281015460ff16156120885760405162461bcd60e51b815260206004820152601160248201527f496e697420616c7265616479207573656400000000000000000000000000000060448201526064016104fb565b805443116120d85760405162461bcd60e51b815260206004820152601e60248201527f4d7573742077616974206f6e6520626c6f636b20616674657220696e6974000060448201526064016104fb565b61025881600101546120ea9190612dfd565b4211156121395760405162461bcd60e51b815260206004820152600c60248201527f496e69742065787069726564000000000000000000000000000000000000000060448201526064016104fb565b60028101805460ff191660011790556001600160a01b0380881660009081526004602052604090205416806121a45760405162461bcd60e51b8152602060048201526011602482015270151bdad95b881b9bdd081c5c9e5c1d1959607a1b60448201526064016104fb565b6000546040516370a0823160e01b81526001600160a01b03918216600482015287918316906370a0823190602401602060405180830381865afa1580156121ef573d6000803e3d6000fd5b505050506040513d601f19601f820116820180604052508101906122139190612e26565b10156122615760405162461bcd60e51b815260206004820152601c60248201527f496e73756666696369656e7420717279707465642062616c616e63650000000060448201526064016104fb565b600054604051632770a7eb60e21b81526001600160a01b0391821660048201526024810188905290821690639dc29fac90604401600060405180830381600087803b1580156122af57600080fd5b505af11580156122c3573d6000803e3d6000fd5b506122dc925050506001600160a01b0389168888612384565b436003556040518681526001600160a01b0380891691908a16907fc92b0d3b64e5c7a12e2b38695c915d8e581bfe982f3c30f9783f2eb00d011e9a9060200160405180910390a350505061234f60017f9b779b17422d0df92223018b32b4d1fa46e071723d6817e2486d003becc55f0055565b5050505050565b61235e612774565b60027f9b779b17422d0df92223018b32b4d1fa46e071723d6817e2486d003becc55f0055565b61239183838360016127d1565b6118b857604051635274afe760e01b81526001600160a01b03841660048201526024016104fb565b600154604080516020810184905201604051602081830303815290604052805190602001201461242b5760405162461bcd60e51b815260206004820152601360248201527f496e76616c6964207661756c742070726f6f660000000000000000000000000060448201526064016104fb565b600155565b6000806000806124408686612850565b925092509250612450828261289d565b50909150505b92915050565b6001600160a01b038181166000908152600460205260408120549091161561249d57506001600160a01b039081166000908152600460205260409020541690565b606080836001600160a01b03166306fdde036040518163ffffffff1660e01b8152600401600060405180830381865afa9250505080156124ff57506040513d6000823e601f3d908101601f191682016040526124fc9190810190612ebe565b60015b612540576040518060400160405280600681526020017f71546f6b656e00000000000000000000000000000000000000000000000000008152509150612564565b806040516020016125519190612f73565b6040516020818303038152906040529250505b836001600160a01b03166395d89b416040518163ffffffff1660e01b8152600401600060405180830381865afa9250505080156125c357506040513d6000823e601f3d908101601f191682016040526125c09190810190612ebe565b60015b612601575060408051808201909152600481527f71544b4e000000000000000000000000000000000000000000000000000000006020820152612625565b806040516020016126129190612f73565b6040516020818303038152906040529150505b600060129050846001600160a01b031663313ce5676040518163ffffffff1660e01b8152600401602060405180830381865afa925050508015612685575060408051601f3d908101601f1916820190925261268291810190612fb8565b60015b1561268d5790505b60008383308460405161269f90612afb565b6126ac9493929190613007565b604051809103906000f0801580156126c8573d6000803e3d6000fd5b506001600160a01b03878116600081815260046020526040808220805473ffffffffffffffffffffffffffffffffffffffff1916948616948517905551939450919290917f1e038aee04ae5c739a948a4cb5e14d480698ed166c8fbfb74acac9938b14788891a395945050505050565b6127468484848460016129a1565b61276e57604051635274afe760e01b81526001600160a01b03851660048201526024016104fb565b50505050565b7f9b779b17422d0df92223018b32b4d1fa46e071723d6817e2486d003becc55f00546002036127cf576040517f3ee5aeb500000000000000000000000000000000000000000000000000000000815260040160405180910390fd5b565b6040517fa9059cbb0000000000000000000000000000000000000000000000000000000060008181526001600160a01b038616600452602485905291602083604481808b5af192506001600051148316612844578383151615612837573d6000823e3d81fd5b6000873b113d1516831692505b60405250949350505050565b6000806000835160410361288a5760208401516040850151606086015160001a61287c88828585612a2c565b955095509550505050612896565b50508151600091506002905b9250925092565b60008260038111156128b1576128b1613050565b036128ba575050565b60018260038111156128ce576128ce613050565b03612905576040517ff645eedf00000000000000000000000000000000000000000000000000000000815260040160405180910390fd5b600282600381111561291957612919613050565b03612953576040517ffce698f7000000000000000000000000000000000000000000000000000000008152600481018290526024016104fb565b600382600381111561296757612967613050565b036106cd576040517fd78bce0c000000000000000000000000000000000000000000000000000000008152600481018290526024016104fb565b6040517f23b872dd0000000000000000000000000000000000000000000000000000000060008181526001600160a01b038781166004528616602452604485905291602083606481808c5af192506001600051148316612a1a578383151615612a0d573d6000823e3d81fd5b6000883b113d1516831692505b60405250600060605295945050505050565b600080807f7fffffffffffffffffffffffffffffff5d576e7357a4501ddfe92f46681b20a0841115612a675750600091506003905082612af1565b604080516000808252602082018084528a905260ff891692820192909252606081018790526080810186905260019060a0016020604051602081039080840390855afa158015612abb573d6000803e3d6000fd5b5050604051601f1901519150506001600160a01b038116612ae757506000925060019150829050612af1565b9250600091508190505b9450945094915050565b610b268061306783390190565b60008060208385031215612b1b57600080fd5b823567ffffffffffffffff811115612b3257600080fd5b8301601f81018513612b4357600080fd5b803567ffffffffffffffff811115612b5a57600080fd5b8560208260051b8401011115612b6f57600080fd5b6020919091019590945092505050565b60008060408385031215612b9257600080fd5b50508035926020909101359150565b80356001600160a01b0381168114612bb857600080fd5b919050565b600060208284031215612bcf57600080fd5b6108b582612ba1565b60008083601f840112612bea57600080fd5b50813567ffffffffffffffff811115612c0257600080fd5b602083019150836020828501011115612c1a57600080fd5b9250929050565b60008060008060008060a08789031215612c3a57600080fd5b612c4387612ba1565b95506020870135945060408701359350612c5f60608801612ba1565b9250608087013567ffffffffffffffff811115612c7b57600080fd5b612c8789828a01612bd8565b979a9699509497509295939492505050565b600060208284031215612cab57600080fd5b5035919050565b60008060008060008060008060e0898b031215612cce57600080fd5b612cd789612ba1565b975060208901359650612cec60408a01612ba1565b9550606089013594506080890135935060a0890135925060c089013567ffffffffffffffff811115612d1d57600080fd5b612d298b828c01612bd8565b999c989b5096995094979396929594505050565b60008060408385031215612d5057600080fd5b612d5983612ba1565b946020939093013593505050565b600080600060608486031215612d7c57600080fd5b612d8584612ba1565b95602085013595506040909401359392505050565b600080600080600060a08688031215612db257600080fd5b612dbb86612ba1565b9450612dc960208701612ba1565b94979496505050506040830135926060810135926080909101359150565b634e487b7160e01b600052601160045260246000fd5b8082018082111561245657612456612de7565b634e487b7160e01b600052603260045260246000fd5b600060208284031215612e3857600080fd5b5051919050565b600060208284031215612e5157600080fd5b815180151581146108b557600080fd5b8183823760009101908152919050565b8181038181111561245657612456612de7565b634e487b7160e01b600052604160045260246000fd5b60005b83811015612eb5578181015183820152602001612e9d565b50506000910152565b600060208284031215612ed057600080fd5b815167ffffffffffffffff811115612ee757600080fd5b8201601f81018413612ef857600080fd5b805167ffffffffffffffff811115612f1257612f12612e84565b604051601f8201601f19908116603f0116810167ffffffffffffffff81118282101715612f4157612f41612e84565b604052818152828201602001861015612f5957600080fd5b612f6a826020830160208601612e9a565b95945050505050565b7f7100000000000000000000000000000000000000000000000000000000000000815260008251612fab816001850160208701612e9a565b9190910160010192915050565b600060208284031215612fca57600080fd5b815160ff811681146108b557600080fd5b60008151808452612ff3816020860160208601612e9a565b601f01601f19169290920160200192915050565b60808152600061301a6080830187612fdb565b828103602084015261302c8187612fdb565b9150506001600160a01b038416604083015260ff8316606083015295945050505050565b634e487b7160e01b600052602160045260246000fdfe608060405234801561001057600080fd5b50604051610b26380380610b2683398101604081905261002f9161013f565b8383600361003d8382610278565b50600461004a8282610278565b50506005805460ff909316600160a01b026001600160a81b03199093166001600160a01b0390941693909317919091179091555061033a915050565b634e487b7160e01b600052604160045260246000fd5b600082601f8301126100ad57600080fd5b81516001600160401b038111156100c6576100c6610086565b604051601f8201601f19908116603f011681016001600160401b03811182821017156100f4576100f4610086565b60405281815283820160200185101561010c57600080fd5b60005b8281101561012b5760208186018101518383018201520161010f565b506000918101602001919091529392505050565b6000806000806080858703121561015557600080fd5b84516001600160401b0381111561016b57600080fd5b6101778782880161009c565b602087015190955090506001600160401b0381111561019557600080fd5b6101a18782880161009c565b604087015190945090506001600160a01b03811681146101c057600080fd5b606086015190925060ff811681146101d757600080fd5b939692955090935050565b600181811c908216806101f657607f821691505b60208210810361021657634e487b7160e01b600052602260045260246000fd5b50919050565b601f821115610273578282111561027357806000526020600020601f840160051c602085101561024a575060005b90810190601f840160051c0360005b8181101561026f57600083820155600101610259565b5050505b505050565b81516001600160401b0381111561029157610291610086565b6102a58161029f84546101e2565b8461021c565b6020601f8211600181146102d957600083156102c15750848201515b600019600385901b1c1916600184901b178455610333565b600084815260208120601f198516915b8281101561030957878501518255602094850194600190920191016102e9565b50848210156103275786840151600019600387901b60f8161c191681555b505060018360011b0184555b5050505050565b6107dd806103496000396000f3fe608060405234801561001057600080fd5b50600436106100d45760003560e01c806370a0823111610081578063a9059cbb1161005b578063a9059cbb146101c8578063dd62ed3e146101d6578063fbfa77cf146101e957600080fd5b806370a082311461018457806395d89b41146101ad5780639dc29fac146101b557600080fd5b806323b872dd116100b257806323b872dd1461012c578063313ce5671461013f57806340c10f191461016f57600080fd5b806306fdde03146100d9578063095ea7b3146100f757806318160ddd1461011a575b600080fd5b6100e1610214565b6040516100ee9190610626565b60405180910390f35b61010a610105366004610690565b6102a6565b60405190151581526020016100ee565b6002545b6040519081526020016100ee565b61010a61013a3660046106ba565b6102f6565b60055474010000000000000000000000000000000000000000900460ff1660405160ff90911681526020016100ee565b61018261017d366004610690565b610341565b005b61011e6101923660046106f7565b6001600160a01b031660009081526020819052604090205490565b6100e16103a9565b6101826101c3366004610690565b6103b8565b61010a61013a366004610690565b61011e6101e4366004610719565b61041c565b6005546101fc906001600160a01b031681565b6040516001600160a01b0390911681526020016100ee565b6060600380546102239061074c565b80601f016020809104026020016040519081016040528092919081815260200182805461024f9061074c565b801561029c5780601f106102715761010080835404028352916020019161029c565b820191906000526020600020905b81548152906001019060200180831161027f57829003601f168201915b5050505050905090565b60405162461bcd60e51b815260206004820152601a60248201527f71546f6b656e3a20617070726f76616c732064697361626c656400000000000060448201526000906064015b60405180910390fd5b60405162461bcd60e51b815260206004820152601a60248201527f71546f6b656e3a207472616e73666572732064697361626c656400000000000060448201526000906064016102ed565b6005546001600160a01b0316331461039b5760405162461bcd60e51b815260206004820152601860248201527f4f6e6c79207661756c742063616e2063616c6c2074686973000000000000000060448201526064016102ed565b6103a58282610449565b5050565b6060600480546102239061074c565b6005546001600160a01b031633146104125760405162461bcd60e51b815260206004820152601860248201527f4f6e6c79207661756c742063616e2063616c6c2074686973000000000000000060448201526064016102ed565b6103a58282610498565b6001600160a01b038083166000908152600160209081526040808320938516835292905220545b92915050565b6001600160a01b03821661048c576040517fec442f05000000000000000000000000000000000000000000000000000000008152600060048201526024016102ed565b6103a5600083836104e3565b6001600160a01b0382166104db576040517f96c6fd1e000000000000000000000000000000000000000000000000000000008152600060048201526024016102ed565b6103a5826000835b6001600160a01b03831661050e5780600260008282546105039190610786565b909155506105999050565b6001600160a01b0383166000908152602081905260409020548181101561057a576040517fe450d38c0000000000000000000000000000000000000000000000000000000081526001600160a01b038516600482015260248101829052604481018390526064016102ed565b6001600160a01b03841660009081526020819052604090209082900390555b6001600160a01b0382166105b5576002805482900390556105d4565b6001600160a01b03821660009081526020819052604090208054820190555b816001600160a01b0316836001600160a01b03167fddf252ad1be2c89b69c2b068fc378daa952ba7f163c4a11628f55a4df523b3ef8360405161061991815260200190565b60405180910390a3505050565b602081526000825180602084015260005b818110156106545760208186018101516040868401015201610637565b506000604082850101526040601f19601f83011684010191505092915050565b80356001600160a01b038116811461068b57600080fd5b919050565b600080604083850312156106a357600080fd5b6106ac83610674565b946020939093013593505050565b6000806000606084860312156106cf57600080fd5b6106d884610674565b92506106e660208501610674565b929592945050506040919091013590565b60006020828403121561070957600080fd5b61071282610674565b9392505050565b6000806040838503121561072c57600080fd5b61073583610674565b915061074360208401610674565b90509250929050565b600181811c9082168061076057607f821691505b60208210810361078057634e487b7160e01b600052602260045260246000fd5b50919050565b8082018082111561044357634e487b7160e01b600052601160045260246000fdfea2646970667358221220f70ccda2a0b84a390a16a644eb59e54a183b0244bac5b786e4251bdb2ce6b9ef64736f6c63430008220033a26469706673582212208a9216b8a5a0befed464ad5c991833083808c41c2e50be435dca1176f86865ff64736f6c63430008220033",
  "linkReferences": {},
  "deployedLinkReferences": {}
}