{
  "_format": "hh-sol-artifact-1",
  "contractName": "PersonalQryptSafe",
  "sourceName": "contracts/PersonalQryptSafeV5.sol",
  "abi": [
    {
      "inputs": [],
      "name": "ECDSAInvalidSignature",
      "type": "error"
    },
    {
      "inputs": [
        {
          "internalType": "uint256",
          "name": "length",
          "type": "uint256"
        }
      ],
      "name": "ECDSAInvalidSignatureLength",
      "type": "error"
    },
    {
      "inputs": [
        {
          "internalType": "bytes32",
          "name": "s",
          "type": "bytes32"
        }
      ],
      "name": "ECDSAInvalidSignatureS",
      "type": "error"
    },
    {
      "inputs": [],
      "name": "ReentrancyGuardReentrantCall",
      "type": "error"
    },
    {
      "inputs": [
        {
          "internalType": "address",
          "name": "token",
          "type": "address"
        }
      ],
      "name": "SafeERC20FailedOperation",
      "type": "error"
    },
    {
      "anonymous": false,
      "inputs": [
        {
          "indexed": true,
          "internalType": "bytes32",
          "name": "nonce",
          "type": "bytes32"
        },
        {
          "indexed": true,
          "internalType": "address",
          "name": "token",
          "type": "address"
        },
        {
          "indexed": false,
          "internalType": "uint256",
          "name": "amount",
          "type": "uint256"
        },
        {
          "indexed": true,
          "internalType": "address",
          "name": "recipient",
          "type": "address"
        }
      ],
      "name": "AirVoucherRedeemed",
      "type": "event"
    },
    {
      "anonymous": false,
      "inputs": [
        {
          "indexed": true,
          "internalType": "bytes32",
          "name": "commitHash",
          "type": "bytes32"
        }
      ],
      "name": "CommitSubmitted",
      "type": "event"
    },
    {
      "anonymous": false,
      "inputs": [
        {
          "indexed": true,
          "internalType": "address",
          "name": "token",
          "type": "address"
        },
        {
          "indexed": false,
          "internalType": "uint256",
          "name": "amount",
          "type": "uint256"
        }
      ],
      "name": "EmergencyWithdraw",
      "type": "event"
    },
    {
      "anonymous": false,
      "inputs": [
        {
          "indexed": true,
          "internalType": "address",
          "name": "token",
          "type": "address"
        },
        {
          "indexed": true,
          "internalType": "address",
          "name": "qToken",
          "type": "address"
        }
      ],
      "name": "QTokenDeployed",
      "type": "event"
    },
    {
      "anonymous": false,
      "inputs": [
        {
          "indexed": true,
          "internalType": "address",
          "name": "token",
          "type": "address"
        },
        {
          "indexed": false,
          "internalType": "uint256",
          "name": "amount",
          "type": "uint256"
        },
        {
          "indexed": true,
          "internalType": "address",
          "name": "qToken",
          "type": "address"
        }
      ],
      "name": "TokenShielded",
      "type": "event"
    },
    {
      "anonymous": false,
      "inputs": [
        {
          "indexed": true,
          "internalType": "address",
          "name": "token",
          "type": "address"
        },
        {
          "indexed": false,
          "internalType": "uint256",
          "name": "amount",
          "type": "uint256"
        }
      ],
      "name": "TokenUnshielded",
      "type": "event"
    },
    {
      "anonymous": false,
      "inputs": [
        {
          "indexed": true,
          "internalType": "address",
          "name": "token",
          "type": "address"
        },
        {
          "indexed": true,
          "internalType": "address",
          "name": "to",
          "type": "address"
        },
        {
          "indexed": false,
          "internalType": "uint256",
          "name": "amount",
          "type": "uint256"
        }
      ],
      "name": "TransferExecuted",
      "type": "event"
    },
    {
      "anonymous": false,
      "inputs": [],
      "name": "VaultProofChanged",
      "type": "event"
    },
    {
      "inputs": [],
      "name": "COMMIT_EXPIRY_SECONDS",
      "outputs": [
        {
          "internalType": "uint256",
          "name": "",
          "type": "uint256"
        }
      ],
      "stateMutability": "view",
      "type": "function"
    },
    {
      "inputs": [],
      "name": "EMERGENCY_DELAY_BLOCKS",
      "outputs": [
        {
          "internalType": "uint256",
          "name": "",
          "type": "uint256"
        }
      ],
      "stateMutability": "view",
      "type": "function"
    },
    {
      "inputs": [],
      "name": "MINIMUM_SHIELD_AMOUNT",
      "outputs": [
        {
          "internalType": "uint256",
          "name": "",
          "type": "uint256"
        }
      ],
      "stateMutability": "view",
      "type": "function"
    },
    {
      "inputs": [
        {
          "internalType": "bytes32",
          "name": "oldHash",
          "type": "bytes32"
        },
        {
          "internalType": "bytes32",
          "name": "newHash",
          "type": "bytes32"
        }
      ],
      "name": "changeVaultProof",
      "outputs": [],
      "stateMutability": "nonpayable",
      "type": "function"
    },
    {
      "inputs": [
        {
          "internalType": "bytes32",
          "name": "commitHash",
          "type": "bytes32"
        }
      ],
      "name": "commitTransfer",
      "outputs": [],
      "stateMutability": "nonpayable",
      "type": "function"
    },
    {
      "inputs": [
        {
          "internalType": "address[]",
          "name": "tokenAddresses",
          "type": "address[]"
        }
      ],
      "name": "emergencyWithdraw",
      "outputs": [],
      "stateMutability": "nonpayable",
      "type": "function"
    },
    {
      "inputs": [],
      "name": "getEmergencyWithdrawAvailableBlock",
      "outputs": [
        {
          "internalType": "uint256",
          "name": "",
          "type": "uint256"
        }
      ],
      "stateMutability": "view",
      "type": "function"
    },
    {
      "inputs": [
        {
          "internalType": "address",
          "name": "tokenAddress",
          "type": "address"
        }
      ],
      "name": "getQTokenAddress",
      "outputs": [
        {
          "internalType": "address",
          "name": "",
          "type": "address"
        }
      ],
      "stateMutability": "view",
      "type": "function"
    },
    {
      "inputs": [
        {
          "internalType": "address",
          "name": "tokenAddress",
          "type": "address"
        }
      ],
      "name": "getShieldedBalance",
      "outputs": [
        {
          "internalType": "uint256",
          "name": "",
          "type": "uint256"
        }
      ],
      "stateMutability": "view",
      "type": "function"
    },
    {
      "inputs": [
        {
          "internalType": "address",
          "name": "_owner",
          "type": "address"
        },
        {
          "internalType": "bytes32",
          "name": "_passwordHash",
          "type": "bytes32"
        }
      ],
      "name": "initialize",
      "outputs": [],
      "stateMutability": "nonpayable",
      "type": "function"
    },
    {
      "inputs": [],
      "name": "initialized",
      "outputs": [
        {
          "internalType": "bool",
          "name": "",
          "type": "bool"
        }
      ],
      "stateMutability": "view",
      "type": "function"
    },
    {
      "inputs": [],
      "name": "lastActivityBlock",
      "outputs": [
        {
          "internalType": "uint256",
          "name": "",
          "type": "uint256"
        }
      ],
      "stateMutability": "view",
      "type": "function"
    },
    {
      "inputs": [],
      "name": "owner",
      "outputs": [
        {
          "internalType": "address",
          "name": "",
          "type": "address"
        }
      ],
      "stateMutability": "view",
      "type": "function"
    },
    {
      "inputs": [
        {
          "internalType": "address",
          "name": "",
          "type": "address"
        }
      ],
      "name": "qTokens",
      "outputs": [
        {
          "internalType": "address",
          "name": "",
          "type": "address"
        }
      ],
      "stateMutability": "view",
      "type": "function"
    },
    {
      "inputs": [
        {
          "internalType": "address",
          "name": "token",
          "type": "address"
        },
        {
          "internalType": "uint256",
          "name": "amount",
          "type": "uint256"
        },
        {
          "internalType": "address",
          "name": "recipient",
          "type": "address"
        },
        {
          "internalType": "uint256",
          "name": "deadline",
          "type": "uint256"
        },
        {
          "internalType": "bytes32",
          "name": "nonce",
          "type": "bytes32"
        },
        {
          "internalType": "bytes32",
          "name": "transferCodeHash",
          "type": "bytes32"
        },
        {
          "internalType": "bytes",
          "name": "signature",
          "type": "bytes"
        }
      ],
      "name": "redeemAirVoucher",
      "outputs": [],
      "stateMutability": "nonpayable",
      "type": "function"
    },
    {
      "inputs": [
        {
          "internalType": "address",
          "name": "tokenAddress",
          "type": "address"
        },
        {
          "internalType": "address",
          "name": "to",
          "type": "address"
        },
        {
          "internalType": "uint256",
          "name": "amount",
          "type": "uint256"
        },
        {
          "internalType": "bytes32",
          "name": "proofHash",
          "type": "bytes32"
        },
        {
          "internalType": "uint256",
          "name": "nonce",
          "type": "uint256"
        }
      ],
      "name": "revealTransfer",
      "outputs": [],
      "stateMutability": "nonpayable",
      "type": "function"
    },
    {
      "inputs": [
        {
          "internalType": "address",
          "name": "tokenAddress",
          "type": "address"
        },
        {
          "internalType": "uint256",
          "name": "amount",
          "type": "uint256"
        },
        {
          "internalType": "bytes32",
          "name": "proofHash",
          "type": "bytes32"
        }
      ],
      "name": "shield",
      "outputs": [],
      "stateMutability": "nonpayable",
      "type": "function"
    },
    {
      "inputs": [
        {
          "internalType": "address",
          "name": "tokenAddress",
          "type": "address"
        },
        {
          "internalType": "uint256",
          "name": "amount",
          "type": "uint256"
        },
        {
          "internalType": "bytes32",
          "name": "proofHash",
          "type": "bytes32"
        }
      ],
      "name": "unshield",
      "outputs": [],
      "stateMutability": "nonpayable",
      "type": "function"
    },
    {
      "inputs": [
        {
          "internalType": "address",
          "name": "tokenAddress",
          "type": "address"
        },
        {
          "internalType": "uint256",
          "name": "amount",
          "type": "uint256"
        },
        {
          "internalType": "bytes32",
          "name": "proofHash",
          "type": "bytes32"
        },
        {
          "internalType": "address",
          "name": "railgunProxy",
          "type": "address"
        },
        {
          "internalType": "bytes",
          "name": "shieldCalldata",
          "type": "bytes"
        }
      ],
      "name": "unshieldToRailgun",
      "outputs": [],
      "stateMutability": "payable",
      "type": "function"
    },
    {
      "inputs": [
        {
          "internalType": "bytes32",
          "name": "",
          "type": "bytes32"
        }
      ],
      "name": "usedVoucherNonces",
      "outputs": [
        {
          "internalType": "bool",
          "name": "",
          "type": "bool"
        }
      ],
      "stateMutability": "view",
      "type": "function"
    }
  ],
  "bytecode": "0x6080806040523460395760017f9b779b17422d0df92223018b32b4d1fa46e071723d6817e2486d003becc55f0055612b95908161003f8239f35b600080fdfe6080604052600436101561001257600080fd5b6000803560e01c806301c1dfba146115935780630b54c13c146113f0578063158ef93e146113cd57806358370bdb146113af5780636f262f8214610ea95780637a827eae14610e7a5780637bacab3f14610d4f578063806f340914610d325780638da5cb5b14610d0b578063929b834414610c1957806396dac53014610bfb5780639a23190c1461089c578063a22b15131461085b578063ac893fa51461085b578063be13f47c146107cc578063c004bd3c14610439578063c46c36b314610186578063c902df981461015a578063e2e8c68b1461013c5763eff29f90146100f957600080fd5b34610139578060031936011261013957600354906213c680820180921161012557602082604051908152f35b634e487b7160e01b81526011600452602490fd5b80fd5b503461013957806003193601126101395760206040516213c6808152f35b503461013957602036600319011261013957602061017e610179611765565b611a19565b604051908152f35b5034610139576101c06101983661177b565b6101af60018060a09694961b0386541633146117d3565b6101b7611ab4565b60015414611849565b620f424082106103fd576040516370a0823160e01b81523060048201526001600160a01b0382169190602081602481865afa90811561038d5785916103cb575b50604051936323b872dd60e01b8652336004523060245260445260208560648180875af160018651148116156103ac575b846040528560605215610398576370a0823160e01b8452306004850152602084602481865afa93841561038d578594610354575b508303928311610340576001600160a01b039061028190611c27565b84549116929084906001600160a01b0316843b1561033c576040516340c10f1960e01b81526001600160a01b0391909116600482015260248101839052818160448183895af1801561033157610318575b505060207f112e1a1004a67f1e6c8c480fe3e8516f69226cd76be7db72391db4bb0159d2d29143600355604051908152a36001600080516020612b408339815191525580f35b8161032291611811565b61032d5783386102d2565b8380fd5b6040513d84823e3d90fd5b5080fd5b634e487b7160e01b84526011600452602484fd5b9093506020813d602011610385575b8161037060209383611811565b8101031261038057519238610265565b600080fd5b3d9150610363565b6040513d87823e3d90fd5b635274afe760e01b85526004839052602485fd5b60018115166103c257833b15153d151616610231565b843d87823e3d90fd5b90506020813d6020116103f5575b816103e660209383611811565b81010312610380575138610200565b3d91506103d9565b60405162461bcd60e51b8152602060048201526014602482015273416d6f756e742062656c6f77206d696e696d756d60601b6044820152606490fd5b50346101395760a036600319011261013957610453611765565b6024356001600160a01b038116919082810361032d576044359060643561048460018060a01b0387541633146117d3565b61048c611ab4565b6104996001548214611849565b6104a483151561188b565b6104af851515611963565b3385146107875760405160208101918252608435604082015260018060a01b038516946001600160601b03199060601b1660608201526001600160601b03198360601b1660748201528360888201526088815261050d60a882611811565b51902085526005602052604085208054801561074f57600282019182549161053860ff8416156119bf565b43111561070b576001015461025881018091116106f75742116106c15760ff191660011790558285526004602052604085205485906001600160a01b03166105818115156118d6565b81546040516370a0823160e01b81526001600160a01b03909116600482018190529190602081602481855afa80156106b6578691859161067b575b50906105c9911015611917565b803b1561067757604051632770a7eb60e21b81526001600160a01b039290921660048301526024820185905282908290604490829084905af180156103315761065e575b50508161063e7fc95d558e25335222b51e6424166172914e7ce4404a9647d3631ef320294081fd9360209386611af0565b43600355604051908152a36001600080516020612b408339815191525580f35b8161066891611811565b61067357843861060d565b8480fd5b8280fd5b945050506020833d6020116106ae575b8161069860209383611811565b81010312610380576105c98589945190916105bc565b3d915061068b565b6040513d86823e3d90fd5b60405162461bcd60e51b815260206004820152600e60248201526d10dbdb5b5a5d08195e1c1a5c995960921b6044820152606490fd5b634e487b7160e01b88526011600452602488fd5b606460405162461bcd60e51b815260206004820152602060248201527f4d7573742077616974206f6e6520626c6f636b20616674657220636f6d6d69746044820152fd5b60405162461bcd60e51b815260206004820152601060248201526f10dbdb5b5a5d081b9bdd08199bdd5b9960821b6044820152606490fd5b60405162461bcd60e51b815260206004820152601b60248201527f43616e6e6f74207472616e7366657220746f20796f757273656c6600000000006044820152606490fd5b5034610139576040366003190112610139576107e6611765565b60025460ff811661082057600191828060a01b03166001600160601b0360a01b845416178355602435825560ff1916176002554360035580f35b60405162461bcd60e51b8152602060048201526013602482015272105b1c9958591e481a5b9a5d1a585b1a5e9959606a1b6044820152606490fd5b5034610139576020366003190112610139576020906001600160a01b03610880611765565b16815260048252604060018060a01b0391205416604051908152f35b5060a0366003190112610139576108b1611765565b606435906001600160a01b03821690602435908284036106735760843567ffffffffffffffff8111610b74576108eb9036906004016117a5565b9461090060018060a01b0388541633146117d3565b610908611ab4565b61091760015460443514611849565b8415610bbe57869261092a85151561188b565b6001600160a01b0390811680855260046020526040852054909791166109518115156118d6565b84546040516370a0823160e01b81526001600160a01b03909116600482018190529190602081602481855afa8015610bb35788918891610b78575b5090610999911015611917565b803b15610b7457604051632770a7eb60e21b81526001600160a01b039290921660048301526024820187905285908290604490829084905af190811561038d578591610b5f575b505060405163095ea7b360e01b81526001600160a01b03831660048201526024810186905292602084604481888c5af193841561038d578594610b42575b508160405192839283378101848152039134905af13d15610b3d573d610a43816119a3565b90610a516040519283611811565b81528560203d92013e5b15610b00576040519163095ea7b360e01b8352600483015283602483015260208260448187875af19081156106b6577f3cb804822cd14606988dd0133475536faefc5d3bd4d0d00c445a4426d81442c892602092610ad5575b5043600355604051908152a26001600080516020612b408339815191525580f35b610af490833d8511610af9575b610aec8183611811565b810190611a01565b610ab4565b503d610ae2565b60405162461bcd60e51b815260206004820152601560248201527414985a5b19dd5b881cda1a595b190819985a5b1959605a1b6044820152606490fd5b610a5b565b610b5a9060203d602011610af957610aec8183611811565b610a1e565b81610b6991611811565b61032d5783386109e0565b8580fd5b975050506020863d602011610bab575b81610b9560209383611811565b8101031261038057610999878b9751909161098c565b3d9150610b88565b6040513d89823e3d90fd5b60405162461bcd60e51b8152602060048201526015602482015274496e76616c6964205261696c67756e2070726f787960581b6044820152606490fd5b50346101395780600319360112610139576020600354604051908152f35b503461013957604036600319011261013957602435610c4260018060a01b0383541633146117d3565b60015460043503610cc6578015610c8157600155436003557f527acf85ccba1b239dfb26a52c293c25b70a36b9e95d200c917afda9f785fbe58180a180f35b60405162461bcd60e51b815260206004820152601760248201527f496e76616c6964206e6577207661756c742070726f6f660000000000000000006044820152606490fd5b60405162461bcd60e51b815260206004820152601b60248201527f496e76616c69642063757272656e74207661756c742070726f6f6600000000006044820152606490fd5b5034610139578060031936011261013957546040516001600160a01b039091168152602090f35b503461013957806003193601126101395760206040516102588152f35b503461013957602036600319011261013957600435610d7860018060a01b0383541633146117d3565b8082526005602052610d9460ff600260408520015416156119bf565b80825260056020526040822054610e3d576040516060810181811067ffffffffffffffff821117610e295760405243815260026020820191428352604081019285845284865260056020526040862091518255516001820155019051151560ff80198354169116179055436003557f2fb52be48e55abef1fcf34fb5d53970a03e3546ed6b6f1025aed6d81bb7427f88280a280f35b634e487b7160e01b84526041600452602484fd5b60405162461bcd60e51b8152602060048201526015602482015274436f6d6d697420616c72656164792065786973747360581b6044820152606490fd5b50346101395760203660031901126101395760ff60406020926004358152600684522054166040519015158152f35b50346101395760e036600319011261013957610ec3611765565b6044356001600160a01b038116919060243583820361067357606435906084359260c43567ffffffffffffffff81116113ab57610f049036906004016117a5565b95610f0d611ab4565b6001600160a01b031695861561137657610f28881515611963565b83156113435784421161130c57858952600660205260ff60408a2054166112c757604094600860208751610f5c8982611811565b828152016728b93cb83a20b4b960c11b815220600160208851610f7f8a82611811565b82815201603160f81b81522087519060208201927fc2f8787176b8ac6bf7215b4adcc1e069bf4ab82d9ab1df05a57a91d425935b6e845289830152606082015246608082015260808152610fd460a082611811565b51902090865160208101917f22843c5037a0a8bc35f56290540532eba624a7f4883ef0b9545444d80f21b61083528a898301528760608301528b608083015260a08201528860c082015260a43560e082015260e0815261103661010082611811565b519020865190602082019261190160f01b84526022830152604282015260428152611062606282611811565b51902061106e826119a3565b9061107b87519283611811565b8282528a3684860111610139576020846110a0956110a9978387013784010152611ec3565b90929192611eff565b6001600160a01b0316801561128e5787546001600160a01b03169081900361124a5785885260046020528388205488916001600160a01b03909116906110f08215156118d6565b8551906370a0823160e01b82526004820152602081602481855afa908115611240579085918491611205575b5090611129911015611917565b8582526006602052848220805460ff191660011790554360035581546001600160a01b031690803b15610677578551632770a7eb60e21b81526001600160a01b039290921660048301526024820185905282908290604490829084905af180156111fb576111de575b5050907f45f9a4a4c2f6d26b87299e0f223e09003ded03c853237ab5ffa996f67ce22270926111c48260209488611af0565b51908152a46001600080516020612b408339815191525580f35b816111eb91949394611811565b6111f757908638611192565b8680fd5b85513d84823e3d90fd5b935050506020823d602011611238575b8161122260209383611811565b8101031261038057611129848a9351909161111c565b3d9150611215565b86513d85823e3d90fd5b835162461bcd60e51b815260206004820152601860248201527f536967206e6f742066726f6d207661756c74206f776e657200000000000000006044820152606490fd5b835162461bcd60e51b815260206004820152601260248201527145434453413a20696e76616c69642073696760701b6044820152606490fd5b60405162461bcd60e51b815260206004820152601860248201527f566f756368657220616c72656164792072656465656d656400000000000000006044820152606490fd5b60405162461bcd60e51b815260206004820152600f60248201526e159bdd58da195c88195e1c1a5c9959608a1b6044820152606490fd5b60405162461bcd60e51b815260206004820152600b60248201526a16995c9bc8185b5bdd5b9d60aa1b6044820152606490fd5b60405162461bcd60e51b815260206004820152600d60248201526c24b73b30b634b2103a37b5b2b760991b6044820152606490fd5b8780fd5b50346101395780600319360112610139576020604051620f42408152f35b5034610139578060031936011261013957602060ff600254166040519015158152f35b5034610139576114026101983661177b565b61140d82151561188b565b6001600160a01b0390811680845260046020526040842054909291166114348115156118d6565b83546040516370a0823160e01b81526001600160a01b03909116600482018190528591602081602481875afa80156115885785908490611552575b61147b92501015611917565b823b1561033c57604051632770a7eb60e21b81526001600160a01b0391909116600482015260248101849052918290604490829084905af180156106b65761151b575b5082547f3cb804822cd14606988dd0133475536faefc5d3bd4d0d00c445a4426d81442c8916020916114fb9082906001600160a01b031686611af0565b43600355604051908152a26001600080516020612b408339815191525580f35b8361154a7f3cb804822cd14606988dd0133475536faefc5d3bd4d0d00c445a4426d81442c89395602093611811565b9391506114be565b50506020813d602011611580575b8161156d60209383611811565b81010312610677578461147b915161146f565b3d9150611560565b6040513d85823e3d90fd5b50346101395760203660031901126101395760043567ffffffffffffffff811161033c573660238201121561033c5780600401359067ffffffffffffffff8211610677573660248360051b83010111610677576115fa60018060a01b0384541633146117d3565b611602611ab4565b6003546213c680810180911161034057431061171457825b828110156116fe576024600582901b830101356001600160a01b0381169190829003610673576040516370a0823160e01b815230600482015291602083602481845afa80156116f35786906116c1575b600193508061167c575b50500161161a565b6020816116b37f5fafa99d0643513820be26656b45130b01e1c03062e1266bf36f88cbd3bd969593878060a01b038b541686611af0565b604051908152a23880611674565b506020833d82116116eb575b816116da60209383611811565b81010312610b74576001925161166a565b3d91506116cd565b6040513d88823e3d90fd5b836001600080516020612b408339815191525580f35b60405162461bcd60e51b8152602060048201526024808201527f456d657267656e6379207769746864726177206e6f742079657420617661696c60448201526361626c6560e01b6064820152608490fd5b600435906001600160a01b038216820361038057565b6060906003190112610380576004356001600160a01b038116810361038057906024359060443590565b9181601f840112156103805782359167ffffffffffffffff8311610380576020838186019501011161038057565b156117da57565b60405162461bcd60e51b815260206004820152600f60248201526e2737ba103b30bab63a1037bbb732b960891b6044820152606490fd5b90601f8019910116810190811067ffffffffffffffff82111761183357604052565b634e487b7160e01b600052604160045260246000fd5b1561185057565b60405162461bcd60e51b815260206004820152601360248201527224b73b30b634b2103b30bab63a10383937b7b360691b6044820152606490fd5b1561189257565b606460405162461bcd60e51b815260206004820152602060248201527f416d6f756e74206d7573742062652067726561746572207468616e207a65726f6044820152fd5b156118dd57565b60405162461bcd60e51b8152602060048201526012602482015271151bdad95b881b9bdd081cda1a595b19195960721b6044820152606490fd5b1561191e57565b60405162461bcd60e51b815260206004820152601d60248201527f496e73756666696369656e7420736869656c6465642062616c616e63650000006044820152606490fd5b1561196a57565b60405162461bcd60e51b8152602060048201526011602482015270125b9d985b1a59081c9958da5c1a595b9d607a1b6044820152606490fd5b67ffffffffffffffff811161183357601f01601f191660200190565b156119c657565b60405162461bcd60e51b815260206004820152601360248201527210dbdb5b5a5d08185b1c9958591e481d5cd959606a1b6044820152606490fd5b90816020910312610380575180151581036103805790565b6001600160a01b03908116600090815260046020526040902054168015611aae57602060018060a01b03600054166024604051809481936370a0823160e01b835260048301525afa908115611aa257600091611a73575090565b90506020813d602011611a9a575b81611a8e60209383611811565b81010312610380575190565b3d9150611a81565b6040513d6000823e3d90fd5b50600090565b6002600080516020612b408339815191525414611adf576002600080516020612b4083398151915255565b633ee5aeb560e01b60005260046000fd5b60405163a9059cbb60e01b60009081526001600160a01b03909316600452602493909352919060209060448180865af190600160005114821615611b5b575b60405215611b3a5750565b635274afe760e01b60009081526001600160a01b0391909116600452602490fd5b906001811516611b7357823b15153d15161690611b2f565b503d6000823e3d90fd5b60005b838110611b905750506000910152565b8181015183820152602001611b80565b6020818303126103805780519067ffffffffffffffff8211610380570181601f82011215610380578051611bd3816119a3565b92611be16040519485611811565b8184526020828401011161038057611bff9160208085019101611b7d565b90565b90602091611c1b81518092818552858086019101611b7d565b601f01601f1916010190565b6001600160a01b03908116600081815260046020526040902054909116611ea8576040516306fdde0360e01b815260008082600481865afa90918282611e8b575b5050611e5f5750604051611c7d604082611811565b600681526538aa37b5b2b760d11b60208201525b6040516395d89b4160e01b8152600081600481865afa60009181611e3a575b50611dfc5750604051611cc4604082611811565b600481526338aa25a760e11b6020820152905b60405163313ce56760e01b8152601290602081600481885afa8091600091611dc0575b5090611db8575b5060405192610b2f908185019185831067ffffffffffffffff84111761183357611d50606092611d42889760ff946120118a39608087526080870190611c02565b908582036020870152611c02565b933060408501521691015203906000f08015611aa25760018060a01b031681819260005260046020526040600020826001600160601b0360a01b8254161790557fa9b482826b98af85a8a9e7e42ef14980212bea648c0f68dfb0fa437ba2e21c4e600080a390565b905038611d01565b6020813d602011611df4575b81611dd960209383611811565b8101031261033c57519060ff82168203610139575038611cfa565b3d9150611dcc565b611e3460216040518093607160f81b6020830152611e238151809260208686019101611b7d565b81010301601f198101835282611811565b90611cd7565b611e589192503d806000833e611e508183611811565b810190611ba0565b9038611cb0565b611e8660216040518093607160f81b6020830152611e238151809260208686019101611b7d565b611c91565b611ea09293503d8091833e611e508183611811565b903880611c68565b6000908152600460205260409020546001600160a01b031690565b8151919060418303611ef457611eed92506020820151906060604084015193015160001a90611f87565b9192909190565b505060009160029190565b9190916004811015611f715780611f1557509050565b600060018203611f305763f645eedf60e01b60005260046000fd5b5060028103611f4e578263fce698f760e01b60005260045260246000fd5b9091600360009214611f5e575050565b6335e2f38360e21b825260045260249150fd5b634e487b7160e01b600052602160045260246000fd5b91907f7fffffffffffffffffffffffffffffff5d576e7357a4501ddfe92f46681b20a08411612004579160209360809260ff60009560405194855216868401526040830152606082015282805260015afa15611aa2576000516001600160a01b03811615611ff85790600090600090565b50600090600190600090565b5050506000916003919056fe60806040523461038a57610b2f803803806100198161038f565b92833981019060808183031261038a5780516001600160401b03811161038a57826100459183016103b4565b602082015190926001600160401b03821161038a576100659183016103b4565b604082015190916001600160a01b0382169182900361038a57606001519060ff8216820361038a5783516001600160401b03811161028657600354600181811c91168015610380575b602082101461026657601f811161030e575b50602094601f82116001146102a75794819293949560009261029c575b50508160011b916000199060031b1c1916176003555b82516001600160401b03811161028657600454600181811c9116801561027c575b602082101461026657601f81116101f4575b506020601f821160011461018d5781929394600092610182575b50508160011b916000199060031b1c1916176004555b6005549160ff60a01b9060a01b169160018060a81b031916171760055560405161070f90816104208239f35b015190503880610140565b601f198216906004600052806000209160005b8181106101dc575095836001959697106101c3575b505050811b01600455610156565b015160001960f88460031b161c191690553880806101b5565b9192602060018192868b0151815501940192016101a0565b81811115610126576004600052601f820160051c7f8a35acfbc15ff81a39ae7d344fd709f28e8600b4aa8c65c6b64bfe7fe36bd19b6020841061025d575b81601f9101920160051c039060005b82811061024f575050610126565b600082820155600101610241565b60009150610232565b634e487b7160e01b600052602260045260246000fd5b90607f1690610114565b634e487b7160e01b600052604160045260246000fd5b0151905038806100dd565b601f198216956003600052806000209160005b8881106102f6575083600195969798106102dd575b505050811b016003556100f3565b015160001960f88460031b161c191690553880806102cf565b919260206001819286850151815501940192016102ba565b818111156100c0576003600052601f820160051c7fc2575a0e9e593c00f959f8c92f12db2869c3395a3b0502d05e2516446f71f85b60208410610377575b81601f9101920160051c039060005b8281106103695750506100c0565b60008282015560010161035b565b6000915061034c565b90607f16906100ae565b600080fd5b6040519190601f01601f191682016001600160401b0381118382101761028657604052565b81601f8201121561038a578051906001600160401b038211610286576103e3601f8301601f191660200161038f565b928284526020838301011161038a5760005b82811061040a57505060206000918301015290565b806020809284010151828287010152016103f556fe608080604052600436101561001357600080fd5b60003560e01c90816306fdde03146104ec57508063095ea7b31461048d57806318160ddd1461046f57806323b872dd1461044d578063313ce5671461042957806340c10f191461036857806370a082311461032e57806395d89b411461020d5780639dc29fac14610141578063a9059cbb14610122578063dd62ed3e146100d15763fbfa77cf146100a357600080fd5b346100cc5760003660031901126100cc576005546040516001600160a01b039091168152602090f35b600080fd5b346100cc5760403660031901126100cc576100ea610608565b6100f261061e565b6001600160a01b039182166000908152600160209081526040808320949093168252928352819020549051908152f35b346100cc5760403660031901126100cc5761013b610608565b50610634565b346100cc5760403660031901126100cc5761015a610608565b6024359061017360018060a01b0360055416331461068d565b6001600160a01b03169081156101f7576000908282528160205260408220548181106101df5760208285937fddf252ad1be2c89b69c2b068fc378daa952ba7f163c4a11628f55a4df523b3ef93869787528684520360408620558060025403600255604051908152a380f35b60649363391434e360e21b8452600452602452604452fd5b634b637e8f60e11b600052600060045260246000fd5b346100cc5760003660031901126100cc5760405160006004548060011c90600181168015610324575b602083108114610310578285529081156102f4575060011461029d575b50819003601f01601f191681019067ffffffffffffffff82118183101761028757610283829182604052826105bf565b0390f35b634e487b7160e01b600052604160045260246000fd5b905060046000527f8a35acfbc15ff81a39ae7d344fd709f28e8600b4aa8c65c6b64bfe7fe36bd19b6000905b8282106102de57506020915082010182610253565b60018160209254838588010152019101906102c9565b90506020925060ff191682840152151560051b82010182610253565b634e487b7160e01b84526022600452602484fd5b91607f1691610236565b346100cc5760203660031901126100cc576001600160a01b0361034f610608565b1660005260006020526020604060002054604051908152f35b346100cc5760403660031901126100cc57610381610608565b6024359061039a60018060a01b0360055416331461068d565b6001600160a01b0316801561041357600254918083018093116103fd576020926002557fddf252ad1be2c89b69c2b068fc378daa952ba7f163c4a11628f55a4df523b3ef600093849284845283825260408420818154019055604051908152a380f35b634e487b7160e01b600052601160045260246000fd5b63ec442f0560e01b600052600060045260246000fd5b346100cc5760003660031901126100cc57602060ff60055460a01c16604051908152f35b346100cc5760603660031901126100cc57610466610608565b5061013b61061e565b346100cc5760003660031901126100cc576020600254604051908152f35b346100cc5760403660031901126100cc576104a6610608565b5060405162461bcd60e51b815260206004820152601a60248201527f71546f6b656e3a20617070726f76616c732064697361626c65640000000000006044820152606490fd5b346100cc5760003660031901126100cc5760006003548060011c906001811680156105b5575b602083108114610310578285529081156102f4575060011461055e5750819003601f01601f191681019067ffffffffffffffff82118183101761028757610283829182604052826105bf565b905060036000527fc2575a0e9e593c00f959f8c92f12db2869c3395a3b0502d05e2516446f71f85b6000905b82821061059f57506020915082010182610253565b600181602092548385880101520191019061058a565b91607f1691610512565b91909160208152825180602083015260005b8181106105f2575060409293506000838284010152601f8019910116010190565b80602080928701015160408286010152016105d1565b600435906001600160a01b03821682036100cc57565b602435906001600160a01b03821682036100cc57565b60405162461bcd60e51b815260206004820152602b60248201527f71546f6b656e3a207472616e73666572732064697361626c65642c207573652060448201526a05172797074756d206170760ac1b6064820152608490fd5b1561069457565b60405162461bcd60e51b815260206004820152601b60248201527f4f6e6c79205152595054414e4b2063616e2063616c6c207468697300000000006044820152606490fdfea264697066735822122080870c9e1ee319a18344b1aec633397a22cf1a2d0e7ee60d1d0b2b7f36b1136364736f6c634300082200339b779b17422d0df92223018b32b4d1fa46e071723d6817e2486d003becc55f00a2646970667358221220a65d8c746b2a8642a37c0c434d939c74d6b9c1c8c5e2060f0df6caf6e8901a2a64736f6c63430008220033",
  "linkReferences": {},
  "deployedLinkReferences": {}
}