{
  "_format": "hh-sol-artifact-1",
  "contractName": "ShieldFactory",
  "sourceName": "contracts/ShieldFactory.sol",
  "abi": [
    {
      "inputs": [],
      "stateMutability": "nonpayable",
      "type": "constructor"
    },
    {
      "inputs": [],
      "name": "EnforcedPause",
      "type": "error"
    },
    {
      "inputs": [],
      "name": "ExpectedPause",
      "type": "error"
    },
    {
      "inputs": [],
      "name": "FailedDeployment",
      "type": "error"
    },
    {
      "inputs": [
        {
          "internalType": "uint256",
          "name": "balance",
          "type": "uint256"
        },
        {
          "internalType": "uint256",
          "name": "needed",
          "type": "uint256"
        }
      ],
      "name": "InsufficientBalance",
      "type": "error"
    },
    {
      "inputs": [
        {
          "internalType": "address",
          "name": "owner",
          "type": "address"
        }
      ],
      "name": "OwnableInvalidOwner",
      "type": "error"
    },
    {
      "inputs": [
        {
          "internalType": "address",
          "name": "account",
          "type": "address"
        }
      ],
      "name": "OwnableUnauthorizedAccount",
      "type": "error"
    },
    {
      "anonymous": false,
      "inputs": [
        {
          "indexed": true,
          "internalType": "address",
          "name": "previousOwner",
          "type": "address"
        },
        {
          "indexed": true,
          "internalType": "address",
          "name": "newOwner",
          "type": "address"
        }
      ],
      "name": "OwnershipTransferred",
      "type": "event"
    },
    {
      "anonymous": false,
      "inputs": [
        {
          "indexed": false,
          "internalType": "address",
          "name": "account",
          "type": "address"
        }
      ],
      "name": "Paused",
      "type": "event"
    },
    {
      "anonymous": false,
      "inputs": [
        {
          "indexed": false,
          "internalType": "address",
          "name": "account",
          "type": "address"
        }
      ],
      "name": "Unpaused",
      "type": "event"
    },
    {
      "anonymous": false,
      "inputs": [
        {
          "indexed": true,
          "internalType": "address",
          "name": "owner",
          "type": "address"
        },
        {
          "indexed": true,
          "internalType": "address",
          "name": "vault",
          "type": "address"
        }
      ],
      "name": "VaultCreated",
      "type": "event"
    },
    {
      "inputs": [
        {
          "internalType": "bytes32",
          "name": "passwordHash",
          "type": "bytes32"
        }
      ],
      "name": "createVault",
      "outputs": [
        {
          "internalType": "address",
          "name": "vault",
          "type": "address"
        }
      ],
      "stateMutability": "nonpayable",
      "type": "function"
    },
    {
      "inputs": [
        {
          "internalType": "address",
          "name": "wallet",
          "type": "address"
        }
      ],
      "name": "getVault",
      "outputs": [
        {
          "internalType": "address",
          "name": "",
          "type": "address"
        }
      ],
      "stateMutability": "view",
      "type": "function"
    },
    {
      "inputs": [
        {
          "internalType": "address",
          "name": "wallet",
          "type": "address"
        }
      ],
      "name": "hasVault",
      "outputs": [
        {
          "internalType": "bool",
          "name": "",
          "type": "bool"
        }
      ],
      "stateMutability": "view",
      "type": "function"
    },
    {
      "inputs": [],
      "name": "owner",
      "outputs": [
        {
          "internalType": "address",
          "name": "",
          "type": "address"
        }
      ],
      "stateMutability": "view",
      "type": "function"
    },
    {
      "inputs": [],
      "name": "pause",
      "outputs": [],
      "stateMutability": "nonpayable",
      "type": "function"
    },
    {
      "inputs": [],
      "name": "paused",
      "outputs": [
        {
          "internalType": "bool",
          "name": "",
          "type": "bool"
        }
      ],
      "stateMutability": "view",
      "type": "function"
    },
    {
      "inputs": [],
      "name": "renounceOwnership",
      "outputs": [],
      "stateMutability": "nonpayable",
      "type": "function"
    },
    {
      "inputs": [
        {
          "internalType": "address",
          "name": "newOwner",
          "type": "address"
        }
      ],
      "name": "transferOwnership",
      "outputs": [],
      "stateMutability": "nonpayable",
      "type": "function"
    },
    {
      "inputs": [],
      "name": "unpause",
      "outputs": [],
      "stateMutability": "nonpayable",
      "type": "function"
    },
    {
      "inputs": [],
      "name": "vaultImplementation",
      "outputs": [
        {
          "internalType": "address",
          "name": "",
          "type": "address"
        }
      ],
      "stateMutability": "view",
      "type": "function"
    }
  ],
  "bytecode": "0x60a080604052346100e25733156100cc5760008054336001600160a01b0319821681178355916001600160a01b03909116907f8be0079c531659141344cd1fd0a4f28419497f9722a3daafe3b4186f6b6457e09080a36123f88181016001600160401b038111838210176100b657829161069a833903906000f080156100aa576001600160a01b03166080526040516105b290816100e88239608051818181610133015261030d0152f35b6040513d6000823e3d90fd5b634e487b7160e01b600052604160045260246000fd5b631e4fbdf760e01b600052600060045260246000fd5b600080fdfe608080604052600436101561001357600080fd5b600090813560e01c9081630d453efb146104e9575080630eb9af38146104a357806317799f36146102d75780633f4ba83a146102695780635c975abb14610244578063715018a6146101ea5780638456cb59146101895780638da5cb5b14610162578063bba48a901461011d5763f2fde38b1461008f57600080fd5b3461011a57602036600319011261011a576004356001600160a01b03811690819003610118576100bd610553565b80156101045781546001600160a01b03198116821783556001600160a01b03167f8be0079c531659141344cd1fd0a4f28419497f9722a3daafe3b4186f6b6457e08380a380f35b631e4fbdf760e01b82526004829052602482fd5b505b80fd5b503461011a578060031936011261011a576040517f00000000000000000000000000000000000000000000000000000000000000006001600160a01b03168152602090f35b503461011a578060031936011261011a57546040516001600160a01b039091168152602090f35b503461011a578060031936011261011a576101a2610553565b6101aa610533565b805460ff60a01b1916600160a01b1781556040513381527f62e78cea01bee320cd4e420270b5ea74000d11b0c9f74754ebdbfc544b05a25890602090a180f35b503461011a578060031936011261011a57610203610553565b80546001600160a01b03198116825581906001600160a01b03167f8be0079c531659141344cd1fd0a4f28419497f9722a3daafe3b4186f6b6457e08280a380f35b503461011a578060031936011261011a5760ff6020915460a01c166040519015158152f35b503461011a578060031936011261011a57610282610553565b805460ff8160a01c16156102c85760ff60a01b191681556040513381527f5db9ee0a495bf2e6ff9c91a7834c1ba4fdd244a5e8aa4e537bd38aeae4b073aa90602090a180f35b638dfc202b60e01b8252600482fd5b503461011a57602036600319011261011a576102f1610533565b338152600160205260408120546001600160a01b031661044e577f0000000000000000000000000000000000000000000000000000000000000000608881901c62ffffff16763d602d80600a3d3981f3363d3d373d3d3d363d7300000017825260781b6e5af43d82803e903d91602b57fd5bf3176020526001600160a01b036037600983f016801561043f57803b1561011857604051632f84fd1f60e21b81523360048201526004356024820152828160448183865af1801561043457610407575b602083833382526001835260408220816bffffffffffffffffffffffff60a01b82541617905580604051927f5d9c31ffa0fecffd7cf379989a3c7af252f0335e0d2a1320b55245912c781f53339180a38152f35b67ffffffffffffffff81116104205760405260206103b3565b634e487b7160e01b83526041600452602483fd5b6040513d85823e3d90fd5b63b06ebf3d60e01b8252600482fd5b60405162461bcd60e51b815260206004820152602760248201527f5152595054414e4b20616c72656164792065786973747320666f722074686973604482015266081dd85b1b195d60ca1b6064820152608490fd5b503461011a57602036600319011261011a576004356001600160a01b038116908190036101185790602091815260018252604060018060a01b0391205416604051908152f35b905034610118576020366003190112610118576004356001600160a01b0381169081900361052f578252600160209081526040909220546001600160a01b031615158152f35b8280fd5b60ff60005460a01c1661054257565b63d93c066560e01b60005260046000fd5b6000546001600160a01b0316330361056757565b63118cdaa760e01b6000523360045260246000fdfea2646970667358221220348af23b2bf5f48790b3f93dac85f2d9331abab2290836ead6181eccb4fd24af64736f6c634300082200336080806040523460395760017f9b779b17422d0df92223018b32b4d1fa46e071723d6817e2486d003becc55f00556123b9908161003f8239f35b600080fdfe6080604052600436101561001257600080fd5b6000803560e01c806301c1dfba14610dcf5780631331e70114610b37578063158ef93e14610b145780633b374cbf146109a157806358370bdb146109835780636c619914146107d55780637bacab3f146106aa578063806f34091461068d5780638581bd281461027a5780638da5cb5b1461025357806396dac53014610235578063a22b1513146101f4578063ac893fa5146101f4578063be13f47c14610165578063c902df9814610139578063e2e8c68b1461011b5763eff29f90146100d857600080fd5b34610118578060031936011261011857600354906213c680820180921161010457602082604051908152f35b634e487b7160e01b81526011600452602490fd5b80fd5b503461011857806003193601126101185760206040516213c6808152f35b503461011857602036600319011261011857602061015d610158610fa1565b611251565b604051908152f35b50346101185760403660031901126101185761017f610fa1565b60025460ff81166101b957600191828060a01b03166001600160601b0360a01b845416178355602435825560ff1916176002554360035580f35b60405162461bcd60e51b8152602060048201526013602482015272105b1c9958591e481a5b9a5d1a585b1a5e9959606a1b6044820152606490fd5b5034610118576020366003190112610118576020906001600160a01b03610219610fa1565b16815260048252604060018060a01b0391205416604051908152f35b50346101185780600319360112610118576020600354604051908152f35b5034610118578060031936011261011857546040516001600160a01b039091168152602090f35b50346101185760a036600319011261011857610294610fa1565b6024356001600160a01b0381169190828103610689576044359060643567ffffffffffffffff8111610685576102ce903690600401610fb7565b6102e260018060a01b03885416331461102c565b6102ea6112ec565b6103056103006102fb3684866110be565b6113d8565b6110f5565b610310841515611137565b851561064c573386146106075761037d6068602060405184819583830197883781016084358382015260018060a01b038a16996001600160601b03199060601b1660408201526001600160601b03198860601b16605482015288848201520301604881018452018261106a565b5190208552600560205260408520805480156105cf5760028201918254916103a860ff84161561120f565b43111561058b576001015461025881018091116105775742116105415760ff191660011790558285526004602052604085205485906001600160a01b03166103f1811515611182565b81546040516370a0823160e01b81526001600160a01b03909116600482018190529190602081602481855afa801561053657869185916104f6575b50906104399110156111c3565b803b156104f257604051632770a7eb60e21b81526001600160a01b039290921660048301526024820185905282908290604490829084905af180156104e7576104ce575b5050816104ae7fc95d558e25335222b51e6424166172914e7ce4404a9647d3631ef320294081fd9360209386611328565b43600355604051908152a360016000805160206123648339815191525580f35b816104d89161106a565b6104e357843861047d565b8480fd5b6040513d84823e3d90fd5b8280fd5b945050506020833d60201161052e575b816105136020938361106a565b810103126105295761043985899451909161042c565b600080fd5b3d9150610506565b6040513d86823e3d90fd5b60405162461bcd60e51b815260206004820152600e60248201526d10dbdb5b5a5d08195e1c1a5c995960921b6044820152606490fd5b634e487b7160e01b88526011600452602488fd5b606460405162461bcd60e51b815260206004820152602060248201527f4d7573742077616974206f6e6520626c6f636b20616674657220636f6d6d69746044820152fd5b60405162461bcd60e51b815260206004820152601060248201526f10dbdb5b5a5d081b9bdd08199bdd5b9960821b6044820152606490fd5b60405162461bcd60e51b815260206004820152601b60248201527f43616e6e6f74207472616e7366657220746f20796f757273656c6600000000006044820152606490fd5b60405162461bcd60e51b8152602060048201526011602482015270125b9d985b1a59081c9958da5c1a595b9d607a1b6044820152606490fd5b8580fd5b8380fd5b503461011857806003193601126101185760206040516102588152f35b5034610118576020366003190112610118576004356106d360018060a01b03835416331461102c565b80825260056020526106ef60ff6002604085200154161561120f565b80825260056020526040822054610798576040516060810181811067ffffffffffffffff8211176107845760405243815260026020820191428352604081019285845284865260056020526040862091518255516001820155019051151560ff80198354169116179055436003557f2fb52be48e55abef1fcf34fb5d53970a03e3546ed6b6f1025aed6d81bb7427f88280a280f35b634e487b7160e01b84526041600452602484fd5b60405162461bcd60e51b8152602060048201526015602482015274436f6d6d697420616c72656164792065786973747360581b6044820152606490fd5b5034610118576103006102fb6108156107ed36610fe5565b61080660018060a099969895991b03895416331461102c565b61080e6112ec565b36916110be565b610820821515611137565b6001600160a01b0390811680845260046020526040842054909291849116610849811515611182565b81546040516370a0823160e01b81526001600160a01b03909116600482018190529190602081602481855afa80156105365785918591610948575b50906108919110156111c3565b803b156104f257604051632770a7eb60e21b81526001600160a01b039290921660048301526024820184905282908290604490829084905af180156104e757610933575b505082547f3cb804822cd14606988dd0133475536faefc5d3bd4d0d00c445a4426d81442c8916020916109139082906001600160a01b031686611328565b43600355604051908152a260016000805160206123648339815191525580f35b8161093d9161106a565b6104f25782386108d5565b945050506020833d60201161097b575b816109656020938361106a565b8101031261052957610891848794519091610884565b3d9150610958565b50346101185780600319360112610118576020604051620f42408152f35b50346101185760403660031901126101185760043567ffffffffffffffff8111610b10576109d3903690600401610fb7565b9060243567ffffffffffffffff8111610689576102fb6109fa610a11923690600401610fb7565b93909461080e60018060a01b03885416331461102c565b15610acb57610a29610a243683856110be565b611749565b15610a8657610a556020604051838194838301968737810186838201520301601f19810183528261106a565b519020600155436003557f527acf85ccba1b239dfb26a52c293c25b70a36b9e95d200c917afda9f785fbe58180a180f35b60405162461bcd60e51b815260206004820152601a60248201527f496e76616c6964207661756c742070726f6f6620666f726d61740000000000006044820152606490fd5b60405162461bcd60e51b815260206004820152601b60248201527f496e76616c69642063757272656e74207661756c742070726f6f6600000000006044820152606490fd5b5080fd5b5034610118578060031936011261011857602060ff600254166040519015158152f35b5034610118576103006102fb610b4f6107ed36610fe5565b620f42408210610d93576040516370a0823160e01b81523060048201526001600160a01b0382169190602081602481865afa908115610cdb578591610d61575b50604051936323b872dd60e01b8652336004523060245260445260208560648180875af16001865114811615610d42575b846040528560605215610d2e576370a0823160e01b8452306004850152602084602481865afa938415610cdb578594610cfa575b508303928311610ce6576001600160a01b0390610c1090611497565b8454911692906001600160a01b031684843b15610118576040516340c10f1960e01b81526001600160a01b03929092166004830152602482018390528160448183885af18015610cdb57610ca4575b5060207f112e1a1004a67f1e6c8c480fe3e8516f69226cd76be7db72391db4bb0159d2d29143600355604051908152a360016000805160206123648339815191525580f35b84610cd37f112e1a1004a67f1e6c8c480fe3e8516f69226cd76be7db72391db4bb0159d2d2939660209361106a565b949150610c5f565b6040513d87823e3d90fd5b634e487b7160e01b84526011600452602484fd5b9093506020813d602011610d26575b81610d166020938361106a565b810103126104e357519238610bf4565b3d9150610d09565b635274afe760e01b85526004839052602485fd5b6001811516610d5857833b15153d151616610bc0565b843d87823e3d90fd5b90506020813d602011610d8b575b81610d7c6020938361106a565b810103126104e3575138610b8f565b3d9150610d6f565b60405162461bcd60e51b8152602060048201526014602482015273416d6f756e742062656c6f77206d696e696d756d60601b6044820152606490fd5b50346101185760203660031901126101185760043567ffffffffffffffff8111610b105736602382011215610b105780600401359067ffffffffffffffff82116104f2573660248360051b830101116104f257610e3660018060a01b03845416331461102c565b610e3e6112ec565b6003546213c6808101809111610ce6574310610f5057825b82811015610f3a576024600582901b830101356001600160a01b03811691908290036104e3576040516370a0823160e01b815230600482015291602083602481845afa8015610f2f578690610efd575b6001935080610eb8575b505001610e56565b602081610eef7f5fafa99d0643513820be26656b45130b01e1c03062e1266bf36f88cbd3bd969593878060a01b038b541686611328565b604051908152a23880610eb0565b506020833d8211610f27575b81610f166020938361106a565b810103126106855760019251610ea6565b3d9150610f09565b6040513d88823e3d90fd5b8360016000805160206123648339815191525580f35b60405162461bcd60e51b8152602060048201526024808201527f456d657267656e6379207769746864726177206e6f742079657420617661696c60448201526361626c6560e01b6064820152608490fd5b600435906001600160a01b038216820361052957565b9181601f840112156105295782359167ffffffffffffffff8311610529576020838186019501011161052957565b6060600319820112610529576004356001600160a01b03811681036105295791602435916044359067ffffffffffffffff82116105295761102891600401610fb7565b9091565b1561103357565b60405162461bcd60e51b815260206004820152600f60248201526e2737ba103b30bab63a1037bbb732b960891b6044820152606490fd5b90601f8019910116810190811067ffffffffffffffff82111761108c57604052565b634e487b7160e01b600052604160045260246000fd5b67ffffffffffffffff811161108c57601f01601f191660200190565b9291926110ca826110a2565b916110d8604051938461106a565b829481845281830111610529578281602093846000960137010152565b156110fc57565b60405162461bcd60e51b815260206004820152601360248201527224b73b30b634b2103b30bab63a10383937b7b360691b6044820152606490fd5b1561113e57565b606460405162461bcd60e51b815260206004820152602060248201527f416d6f756e74206d7573742062652067726561746572207468616e207a65726f6044820152fd5b1561118957565b60405162461bcd60e51b8152602060048201526012602482015271151bdad95b881b9bdd081cda1a595b19195960721b6044820152606490fd5b156111ca57565b60405162461bcd60e51b815260206004820152601d60248201527f496e73756666696369656e7420736869656c6465642062616c616e63650000006044820152606490fd5b1561121657565b60405162461bcd60e51b815260206004820152601360248201527210dbdb5b5a5d08185b1c9958591e481d5cd959606a1b6044820152606490fd5b6001600160a01b039081166000908152600460205260409020541680156112e657602060018060a01b03600054166024604051809481936370a0823160e01b835260048301525afa9081156112da576000916112ab575090565b90506020813d6020116112d2575b816112c66020938361106a565b81010312610529575190565b3d91506112b9565b6040513d6000823e3d90fd5b50600090565b6002600080516020612364833981519152541461131757600260008051602061236483398151915255565b633ee5aeb560e01b60005260046000fd5b60405163a9059cbb60e01b60009081526001600160a01b03909316600452602493909352919060209060448180865af190600160005114821615611393575b604052156113725750565b635274afe760e01b60009081526001600160a01b0391909116600452602490fd5b9060018115166113ab57823b15153d15161690611367565b503d6000823e3d90fd5b60005b8381106113c85750506000910152565b81810151838201526020016113b8565b604051611406602082816113f581830196878151938492016113b5565b81010301601f19810183528261106a565b5190206001541490565b6020818303126105295780519067ffffffffffffffff8211610529570181601f82011215610529578051611443816110a2565b92611451604051948561106a565b818452602082840101116105295761146f91602080850191016113b5565b90565b9060209161148b815180928185528580860191016113b5565b601f01601f1916010190565b6001600160a01b03908116600081815260046020526040902054909116611707576040516306fdde0360e01b815260008082600481865afa909182826116ea575b50506116be57506040516114ed60408261106a565b600681526538aa37b5b2b760d11b60208201525b6040516395d89b4160e01b8152600081600481865afa60009181611699575b5061166c575060405161153460408261106a565b600481526338aa25a760e11b6020820152905b60405163313ce56760e01b8152601290602081600481885afa8091600091611630575b5090611628575b5060405192610b2f908185019185831067ffffffffffffffff84111761108c576115c06060926115b2889760ff946118358a39608087526080870190611472565b908582036020870152611472565b933060408501521691015203906000f080156112da5760018060a01b031681819260005260046020526040600020826001600160601b0360a01b8254161790557fa9b482826b98af85a8a9e7e42ef14980212bea648c0f68dfb0fa437ba2e21c4e600080a390565b905038611571565b6020813d602011611664575b816116496020938361106a565b81010312610b1057519060ff8216820361011857503861156a565b3d915061163c565b61169360216040518093607160f81b60208301526113f581518092602086860191016113b5565b90611547565b6116b79192503d806000833e6116af818361106a565b810190611410565b9038611520565b6116e560216040518093607160f81b60208301526113f581518092602086860191016113b5565b611501565b6116ff9293503d8091833e6116af818361106a565b9038806114d8565b6000908152600460205260409020546001600160a01b031690565b60ff1660ff81146117335760010190565b634e487b7160e01b600052601160045260246000fd5b60068151036112e657600080916000905b6006821061177f57505060ff166003149081611774575090565b6003915060ff161490565b9091815183101561181e576020838301015160f81c604181101580611813575b80156117fc575b156117c057506117b7600191611722565b925b019061175a565b60308195929495101590816117f0575b50156117e7576117e1600191611722565b936117b9565b50505050600090565b603991501115386117d0565b50606181101580156117a65750607a8111156117a6565b50605a81111561179f565b634e487b7160e01b600052603260045260246000fdfe60806040523461038a57610b2f803803806100198161038f565b92833981019060808183031261038a5780516001600160401b03811161038a57826100459183016103b4565b602082015190926001600160401b03821161038a576100659183016103b4565b604082015190916001600160a01b0382169182900361038a57606001519060ff8216820361038a5783516001600160401b03811161028657600354600181811c91168015610380575b602082101461026657601f811161030e575b50602094601f82116001146102a75794819293949560009261029c575b50508160011b916000199060031b1c1916176003555b82516001600160401b03811161028657600454600181811c9116801561027c575b602082101461026657601f81116101f4575b506020601f821160011461018d5781929394600092610182575b50508160011b916000199060031b1c1916176004555b6005549160ff60a01b9060a01b169160018060a81b031916171760055560405161070f90816104208239f35b015190503880610140565b601f198216906004600052806000209160005b8181106101dc575095836001959697106101c3575b505050811b01600455610156565b015160001960f88460031b161c191690553880806101b5565b9192602060018192868b0151815501940192016101a0565b81811115610126576004600052601f820160051c7f8a35acfbc15ff81a39ae7d344fd709f28e8600b4aa8c65c6b64bfe7fe36bd19b6020841061025d575b81601f9101920160051c039060005b82811061024f575050610126565b600082820155600101610241565b60009150610232565b634e487b7160e01b600052602260045260246000fd5b90607f1690610114565b634e487b7160e01b600052604160045260246000fd5b0151905038806100dd565b601f198216956003600052806000209160005b8881106102f6575083600195969798106102dd575b505050811b016003556100f3565b015160001960f88460031b161c191690553880806102cf565b919260206001819286850151815501940192016102ba565b818111156100c0576003600052601f820160051c7fc2575a0e9e593c00f959f8c92f12db2869c3395a3b0502d05e2516446f71f85b60208410610377575b81601f9101920160051c039060005b8281106103695750506100c0565b60008282015560010161035b565b6000915061034c565b90607f16906100ae565b600080fd5b6040519190601f01601f191682016001600160401b0381118382101761028657604052565b81601f8201121561038a578051906001600160401b038211610286576103e3601f8301601f191660200161038f565b928284526020838301011161038a5760005b82811061040a57505060206000918301015290565b806020809284010151828287010152016103f556fe608080604052600436101561001357600080fd5b60003560e01c90816306fdde03146104ec57508063095ea7b31461048d57806318160ddd1461046f57806323b872dd1461044d578063313ce5671461042957806340c10f191461036857806370a082311461032e57806395d89b411461020d5780639dc29fac14610141578063a9059cbb14610122578063dd62ed3e146100d15763fbfa77cf146100a357600080fd5b346100cc5760003660031901126100cc576005546040516001600160a01b039091168152602090f35b600080fd5b346100cc5760403660031901126100cc576100ea610608565b6100f261061e565b6001600160a01b039182166000908152600160209081526040808320949093168252928352819020549051908152f35b346100cc5760403660031901126100cc5761013b610608565b50610634565b346100cc5760403660031901126100cc5761015a610608565b6024359061017360018060a01b0360055416331461068d565b6001600160a01b03169081156101f7576000908282528160205260408220548181106101df5760208285937fddf252ad1be2c89b69c2b068fc378daa952ba7f163c4a11628f55a4df523b3ef93869787528684520360408620558060025403600255604051908152a380f35b60649363391434e360e21b8452600452602452604452fd5b634b637e8f60e11b600052600060045260246000fd5b346100cc5760003660031901126100cc5760405160006004548060011c90600181168015610324575b602083108114610310578285529081156102f4575060011461029d575b50819003601f01601f191681019067ffffffffffffffff82118183101761028757610283829182604052826105bf565b0390f35b634e487b7160e01b600052604160045260246000fd5b905060046000527f8a35acfbc15ff81a39ae7d344fd709f28e8600b4aa8c65c6b64bfe7fe36bd19b6000905b8282106102de57506020915082010182610253565b60018160209254838588010152019101906102c9565b90506020925060ff191682840152151560051b82010182610253565b634e487b7160e01b84526022600452602484fd5b91607f1691610236565b346100cc5760203660031901126100cc576001600160a01b0361034f610608565b1660005260006020526020604060002054604051908152f35b346100cc5760403660031901126100cc57610381610608565b6024359061039a60018060a01b0360055416331461068d565b6001600160a01b0316801561041357600254918083018093116103fd576020926002557fddf252ad1be2c89b69c2b068fc378daa952ba7f163c4a11628f55a4df523b3ef600093849284845283825260408420818154019055604051908152a380f35b634e487b7160e01b600052601160045260246000fd5b63ec442f0560e01b600052600060045260246000fd5b346100cc5760003660031901126100cc57602060ff60055460a01c16604051908152f35b346100cc5760603660031901126100cc57610466610608565b5061013b61061e565b346100cc5760003660031901126100cc576020600254604051908152f35b346100cc5760403660031901126100cc576104a6610608565b5060405162461bcd60e51b815260206004820152601a60248201527f71546f6b656e3a20617070726f76616c732064697361626c65640000000000006044820152606490fd5b346100cc5760003660031901126100cc5760006003548060011c906001811680156105b5575b602083108114610310578285529081156102f4575060011461055e5750819003601f01601f191681019067ffffffffffffffff82118183101761028757610283829182604052826105bf565b905060036000527fc2575a0e9e593c00f959f8c92f12db2869c3395a3b0502d05e2516446f71f85b6000905b82821061059f57506020915082010182610253565b600181602092548385880101520191019061058a565b91607f1691610512565b91909160208152825180602083015260005b8181106105f2575060409293506000838284010152601f8019910116010190565b80602080928701015160408286010152016105d1565b600435906001600160a01b03821682036100cc57565b602435906001600160a01b03821682036100cc57565b60405162461bcd60e51b815260206004820152602b60248201527f71546f6b656e3a207472616e73666572732064697361626c65642c207573652060448201526a05172797074756d206170760ac1b6064820152608490fd5b1561069457565b60405162461bcd60e51b815260206004820152601b60248201527f4f6e6c79205152595054414e4b2063616e2063616c6c207468697300000000006044820152606490fdfea264697066735822122080870c9e1ee319a18344b1aec633397a22cf1a2d0e7ee60d1d0b2b7f36b1136364736f6c634300082200339b779b17422d0df92223018b32b4d1fa46e071723d6817e2486d003becc55f00a26469706673582212206b5458a15f18a3fb2887391e7c5c1309a46ce1c16beb14a239bca8dbab00026a64736f6c63430008220033",
  "linkReferences": {},
  "deployedLinkReferences": {}
}